HR1V030007800000000H720180115STONEY CREEK MEDICAL WALK IN C005830991 99999999  
HR2                              2A - 140 CENTENNIAL PARKW                     
HR3HAMILTON        ON L8E1H9                                                   
HR4G712070778010100920000311025                   ON2228568495  CEHCP    0078  
HR5G712070778012017112201A007A 003370003370                                    
HR4G724052757410100920000311718                   ON1517098487  WAHCP    0078  
HR5G724052757412017120101A007A 003370003370                                    
HR4G724052757510100920000311719                   ON6017925428  HYHCP    0078  
HR5G724052757512017120101A007A 003370003370                                    
HR4G724052757610100920000311720                   ON3415653835  LAHCP    0078  
HR5G724052757612017120101A007A 003370003370                                    
HR4G724052757710100920000311721                   ON5961553566  HJHCP    0078  
HR5G724052757712017120101A007A 003370003370                                    
HR4G724052757810100920000311722                   ON2035116256  RGHCP    0078  
HR5G724052757812017120101A003A 007720007720                                    
HR4G724052757910100920000311723                   ON8062050417  WWHCP    0078  
HR5G724052757912017120101A007A 003370003370                                    
HR4G724052758010100920000311724                   ON6762712484  DGHCP    0078  
HR5G724052758012017120101A007A 003370003370                                    
HR4G724052758110100920000311725                   ON2355538519  NJHCP    0078  
HR5G724052758112017120101A007A 003370003370                                    
HR4G724052758210100920000311726                   ON2034188736  YXHCP    0078  
HR5G724052758212017120101A007A 003370003370                                    
HR4G724052758310100920000311727                   ON9275364496  PYHCP    0078  
HR5G724052758312017120101A001A 002170002170                                    
HR5G724052758312017120101G372A 000389000389                                    
HR4G724052758410100920000311728                   ON4268442003  PLHCP    0078  
HR5G724052758412017120101A007A 003370003370                                    
HR5G724052758412017120101G010A 000207000207                                    
HR4G724052758510100920000311729                   ON7354574779  XCHCP    0078  
HR5G724052758512017120101A007A 003370003370                                    
HR4G724052758610100920000311730                   ON9789825065  LCHCP    0078  
HR5G724052758612017120101A007A 003370003370                                    
HR4G724052758710100920000311731                   ON3347019436  BWHCP    0078  
HR5G724052758712017120101A007A 003370003370                                    
HR4G724052758810100920000311732                   ON1204102451  HDHCP    0078  
HR5G724052758812017120101A007A 003370003370                                    
HR5G724052758812017120101G538A 000450000450                                    
HR4G724052758910100920000311733                   ON9295029269  HWHCP    0078  
HR5G724052758912017120101A007A 003370003370                                    
HR4G724052759010100920000311734                   ON5424944204  CVHCP    0078  
HR5G724052759012017120101A007A 003370003370                                    
HR5G724052759012017120101G846A 000450000450                                    
HR4G724052759110100920000311735                   ON5779209500  XCHCP    0078  
HR5G724052759112017120101A007A 003370003370                                    
HR4G724052759210100920000311736                   ON2610993954  YLHCP    0078  
HR5G724052759212017120101A007A 003370003370                                    
HR4G724052759310100920000311737                   ON6996646334  LLHCP    0078  
HR5G724052759312017120101A007A 003370003370                                    
HR4G724052759410100920000311738                   ON4335059152  RAHCP    0078  
HR5G724052759412017120101A007A 003370003370                                    
HR4G724052759510100920000311739                   ON7742874543  XMHCP    0078  
HR5G724052759512017120101A007A 003370003370                                    
HR4G724052759610100920000311740                   ON5438913583  MBHCP    0078  
HR5G724052759612017120101A007A 003370003370                                    
HR4G724052759710100920000311741                   ON5423578839  DYHCP    0078  
HR5G724052759712017120101A007A 003370003370                                    
HR4G724052759810100920000311742                   ON5046826748  VVHCP    0078  
HR5G724052759812017120101A007A 003370003370                                    
HR5G724052759812017120101G010A 000207000207                                    
HR4G724052759910100920000311743                   ON4979722156  FXHCP    0078  
HR5G724052759912017120101A007A 003370003370                                    
HR4G724052760010100920000311744                   ON3828601553  EHHCP    0078  
HR5G724052760012017120101A007A 003370003370                                    
HR4G724052760110100920000311745                   ON7909211810    HCP    0078  
HR5G724052760112017120101A007A 003370003370                                    
HR4G724052760210100920000311746                   ON4457263863  BYHCP    0078  
HR5G724052760212017120101A007A 003370003370                                    
HR4G724052760310100920000311747                   ON9802844598  NGHCP    0078  
HR5G724052760312017120101A007A 003370003370                                    
HR4G724052760410100920000311748                   ON2568196030  TRHCP    0078  
HR5G724052760412017120101A007A 003370003370                                    
HR4G724052760510100920000311749                   ON2646711586  EDHCP    0078  
HR5G724052760512017120101A007A 003370003370                                    
HR4G724052760610100920000311750                   ON5549017175  HTHCP    0078  
HR5G724052760612017120101A007A 003370003370                                    
HR5G724052760612017120101G010A 000207000207                                    
HR4G724052760710100920000311751                   ON4906598810  KPHCP    0078  
HR5G724052760712017120101A007A 003370003370                                    
HR4G724052760810100920000311752                   ON8378111838  PYHCP    0078  
HR5G724052760812017120101A007A 003370003370                                    
HR4G724052760910100920000311753                   ON7893032511  XLHCP    0078  
HR5G724052760912017120101A007A 003370003370                                    
HR5G724052760912017120101G010A 000207000207                                    
HR4G724052761010100920000311754                   ON8456387201  BEHCP    0078  
HR5G724052761012017120101A007A 003370003370                                    
HR4G724052761110100920000311755                   ON4054586153  RKHCP    0078  
HR5G724052761112017120101A007A 003370003370                                    
HR4G724052761210100920000311756                   ON8417031385  FBHCP    0078  
HR5G724052761212017120101A007A 003370003370                                    
HR4G724052761310100920000311757                   ON5885791037  RYHCP    0078  
HR5G724052761312017120101A007A 003370003370                                    
HR4G724052761410100920000311758                   ON5243511341  YJHCP    0078  
HR5G724052761412017120101A007A 003370003370                                    
HR4G724073368510100920000311984                   ON5716733075  TNHCP    0078  
HR5G724073368512017120501A007A 003370003370                                    
HR4G724073368610100920000311985                   ON1194290977  PKHCP    0078  
HR5G724073368612017120501A007A 003370003370                                    
HR4G724073368710100920000311986                   ON8948210573  YMHCP    0078  
HR5G724073368712017120501A007A 003370003370                                    
HR5G724073368712017120501G005A 000388000388                                    
HR4G724073368810100920000311987                   ON7753849160  PRHCP    0078  
HR5G724073368812017120501A007A 003370003370                                    
HR4G724073368910100920000311988                   ON6865459504  CJHCP    0078  
HR5G724073368912017120501A007A 003370003370                                    
HR5G724073368912017120501K053A 001500001500                                    
HR4G724073369010100920000311989                   ON7757022814  YWHCP    0078  
HR5G724073369012017120501A007A 003370003370                                    
HR4G724073369110100920000311990                   ON8895426891  HFHCP    0078  
HR5G724073369112017120501A007A 003370003370                                    
HR4G724073369210100920000311991                   ON7397971206  JAHCP    0078  
HR5G724073369212017120501A007A 003370003370                                    
HR4G724073369310100920000311992                   ON3523354656  ETHCP    0078  
HR5G724073369312017120501A007A 003370003370                                    
HR4G724073369410100920000311993                   ON8491221878  RXHCP    0078  
HR5G724073369412017120501A007A 003370003370                                    
HR4G724073369510100920000311994                   ON7891403532  ENHCP    0078  
HR5G724073369512017120501A007A 003370003370                                    
HR4G724073369610100920000311995                   ON8849758399  KKHCP    0078  
HR5G724073369612017120501A007A 003370003370                                    
HR4G724073369710100920000311996                   ON6585962894    HCP    0078  
HR5G724073369712017120501A007A 003370003370                                    
HR4G724073369810100920000311997                   ON9456492132  AWHCP    0078  
HR5G724073369812017120501A007A 003370003370                                    
HR4G724073369910100920000311998                   ON6828311396  NFHCP    0078  
HR5G724073369912017120501A007A 003370003370                                    
HR4G724073370010100920000311999                   ON3783905841  LGHCP    0078  
HR5G724073370012017120501A007A 003370003370                                    
HR4G724073370110100920000312000                   ON2052028962  CEHCP    0078  
HR5G724073370112017120501A007A 003370003370                                    
HR4G724073370210100920000312001                   ON2449787387  MEHCP    0078  
HR5G724073370212017120501A007A 003370003370                                    
HR4G724073370310100920000312002                   ON7307855010  XTHCP    0078  
HR5G724073370312017120501A007A 003370003370                                    
HR4G724073370410100920000312003                   ON9843682379  TTHCP    0078  
HR5G724073370412017120501A007A 003370003370                                    
HR4G724073370510100920000312004                   ON3606420515  DKHCP    0078  
HR5G724073370512017120501A007A 003370003370                                    
HR4G724073370610100920000312005                   ON7901744883  KYHCP    0078  
HR5G724073370612017120501A007A 003370003370                                    
HR4G724073370710100920000312006                   ON2232373643    HCP    0078  
HR5G724073370712017120501A007A 003370003370                                    
HR4G724073370810100920000312007                   ON9282909614  JJHCP    0078  
HR5G724073370812017120501A007A 003370003370                                    
HR4G724073370910100920000312008                   ON4614063313  PCHCP    0078  
HR5G724073370912017120501A007A 003370003370                                    
HR4G724073371010100920000312009                   ON6752834298  CVHCP    0078  
HR5G724073371012017120501A007A 003370003370                                    
HR4G724073371110100920000312010                   ON1100055670  VBHCP    0078  
HR5G724073371112017120501A007A 003370003370                                    
HR4G724073371210100920000312011                   ON1323623213  XGHCP    0078  
HR5G724073371212017120501A003A 007720007720                                    
HR4G724073371310100920000312012                   ON1480065562  DYHCP    0078  
HR5G724073371312017120501A001A 002170002170                                    
HR5G724073371312017120501G590A 000450000450                                    
HR4G724073371410100920000312013                   ON7810081328  FTHCP    0078  
HR5G724073371412017120501A007A 003370003370                                    
HR4G724073371510100920000312014                   ON1641907371  AYHCP    0078  
HR5G724073371512017120501A007A 003370003370                                    
HR4G724073371610100920000312015                   ON8372106891  HBHCP    0078  
HR5G724073371612017120501A007A 003370003370                                    
HR4G724073371710100920000312016                   ON2258831300  LRHCP    0078  
HR5G724073371712017120501A007A 003370003370                                    
HR4G724073371810100920000312019                   ON2830940108  DNHCP    0078  
HR5G724073371812017120501A007A 003370003370                                    
HR4G724073371910100920000312020                   ON4530939463  LFHCP    0078  
HR5G724073371912017120501A007A 003370003370                                    
HR5G724073371912017120501K052A 002000002000                                    
HR4G724073372010100920000312021                   ON2003380819  FMHCP    0078  
HR5G724073372012017120501A007A 003370003370                                    
HR4G724073372110100920000312022                   ON4174099400  PEHCP    0078  
HR5G724073372112017120501A007A 003370003370                                    
HR4G724073372210100920000312023                   ON3469839587  ARHCP    0078  
HR5G724073372212017120501A007A 003370003370                                    
HR4G724073372310100920000312024                   ON6324799086  RFHCP    0078  
HR5G724073372312017120501A007A 003370003370                                    
HR4G724073372410100920000312026                   ON8625607810  PTHCP    0078  
HR5G724073372412017120501A001A 002170002170                                    
HR5G724073372412017120501G847A 000450000450                                    
HR4G724073372510100920000312027                   ON8810653017  KJHCP    0078  
HR5G724073372512017120501A007A 003370003370                                    
HR4G724073372610100920000312028                   ON9486159933  AWHCP    0078  
HR5G724073372612017120501A007A 003370003370                                    
HR4G724073372710100920000312029                   ON2379867134  EFHCP    0078  
HR5G724073372712017120501A007A 003370003370                                    
HR4G724073372810100920000312030                   ON4568221107  GLHCP    0078  
HR5G724073372812017120501A007A 003370003370                                    
HR4G724073372910100920000312031                   ON5815206601  CKHCP    0078  
HR5G724073372912017120501A001A 002170002170                                    
HR5G724073372912017120501G372A 000389000389                                    
HR4G724073373010100920000312032                   ON7398898747  LEHCP    0078  
HR5G724073373012017120501A007A 003370003370                                    
HR5G724073373012017120501G590A 000450000450                                    
HR4G724073373110100920000312033                   ON7441173783  HNHCP    0078  
HR5G724073373112017120501A007A 003370003370                                    
HR5G724073373112017120501G590A 000450000450                                    
HR4G724073373210100920000312034                   ON7374101173  HBHCP    0078  
HR5G724073373212017120501A007A 003370003370                                    
HR4G724073373310100920000312035                   ON9587049686  EXHCP    0078  
HR5G724073373312017120501A007A 003370003370                                    
HR4G724073373410100920000312036                   ON4462710049  FDHCP    0078  
HR5G724073373412017120501A007A 003370003370                                    
HR4G724073373510100920000312037                   ON3992245385  NRHCP    0078  
HR5G724073373512017120501A007A 003370003370                                    
HR4G724073373610100920000312038                   ON4987467612  VGHCP    0078  
HR5G724073373612017120501A007A 003370003370                                    
HR4G724073373710100920000312039                   ON7225344253  JKHCP    0078  
HR5G724073373712017120501A007A 003370003370                                    
HR4G724073373810100920000312040                   ON6377562837  KPHCP    0078  
HR5G724073373812017120501A007A 003370003370                                    
HR4G724073373910100920000312041                   ON5012170782  XVHCP    0078  
HR5G724073373912017120501A007A 003370003370                                    
HR5G724073373912017120501G005A 000388000388                                    
HR4G724081474010100920000312165                   ON6901162310  BYHCP    0078  
HR5G724081474012017120701A007A 003370003370                                    
HR5G724081474012017120701G010A 000207000207                                    
HR4G724081474110100920000312167                   ON8013931632  JXHCP    0078  
HR5G724081474112017120701A007A 003370003370                                    
HR4G724081474210100920000312168                   ON2572639934  KEHCP    0078  
HR5G724081474212017120701A007A 003370003370                                    
HR4G724081474310100920000312169                   ON9789825065  LCHCP    0078  
HR5G724081474312017120701A007A 003370003370                                    
HR4G724081474410100920000312170                   ON3268417932  GKHCP    0078  
HR5G724081474412017120701A007A 003370003370                                    
HR4G724081474510100920000312171                   ON4016239313  DAHCP    0078  
HR5G724081474512017120701A007A 003370003370                                    
HR4G724081474610100920000312172                   ON2638700951  YGHCP    0078  
HR5G724081474612017120701A003A 007720007720                                    
HR4G724081474710100920000312173                   ON5111478573  CLHCP    0078  
HR5G724081474712017120701A007A 003370003370                                    
HR5G724081474712017120701G010A 000207000207                                    
HR4G724081474810100920000312174                   ON4375177278  PGHCP    0078  
HR5G724081474812017120701A007A 003370003370                                    
HR4G724081474910100920000312175                   ON2074786985  XCHCP    0078  
HR5G724081474912017120701A007A 003370003370                                    
HR4G724081475010100920000312176                   ON5660937805  WYHCP    0078  
HR5G724081475012017120701A007A 003370003370                                    
HR4G724081475110100920000312177                   ON9879531359  JJHCP    0078  
HR5G724081475112017120701A007A 003370003370                                    
HR4G724081475210100920000312178                   ON2903840714  NAHCP    0078  
HR5G724081475212017120701A007A 003370003370                                    
HR4G724081475310100920000312179                   ON5025854950  FNHCP    0078  
HR5G724081475312017120701A007A 003370003370                                    
HR4G724081475410100920000312180                   ON7347554656  XRHCP    0078  
HR5G724081475412017120701A007A 003370003370                                    
HR4G724081475510100920000312181                   ON4577379078  GWHCP    0078  
HR5G724081475512017120701A007A 003370003370                                    
HR4G724081475610100920000312182                   ON1698243522  RGHCP    0078  
HR5G724081475612017120701A007A 003370003370                                    
HR4G724081475710100920000312183                   ON3935322325  LHHCP    0078  
HR5G724081475712017120701A007A 003370003370                                    
HR4G724081475810100920000312184                   ON6831556789  VXHCP    0078  
HR5G724081475812017120701A007A 003370003370                                    
HR5G724081475812017120701G372A 000389000389                                    
HR4G724081475910100920000312185                   ON5054668065  VKHCP    0078  
HR5G724081475912017120701A007A 003370003370                                    
HR4G724081476010100920000312186                   ON5915777642  PGHCP    0078  
HR5G724081476012017120701A001A 002170002170                                    
HR5G724081476012017120701G372A 000389000389                                    
HR4G724081476110100920000312187                   ON7041408043  DVHCP    0078  
HR5G724081476112017120701A007A 003370003370                                    
HR4G724081476210100920000312188                   ON5806544127  DYHCP    0078  
HR5G724081476212017120701A007A 003370003370                                    
HR4G724081476310100920000312189                   ON9951979260  CDHCP    0078  
HR5G724081476312017120701A007A 003370003370                                    
HR4G724081476410100920000312190                   ON3411638665  CXHCP    0078  
HR5G724081476412017120701A007A 003370003370                                    
HR4G724081476510100920000312191                   ON8923548138  DXHCP    0078  
HR5G724081476512017120701A007A 003370003370                                    
HR4G724081476610100920000312192                   ON1862749353  YBHCP    0078  
HR5G724081476612017120701A007A 003370003370                                    
HR4G724081476710100920000312193                   ON7595683181  WCHCP    0078  
HR5G724081476712017120701A007A 003370003370                                    
HR4G724081476810100920000312194                   ON5785095364  HFHCP    0078  
HR5G724081476812017120701A007A 003370003370                                    
HR4G724081476910100920000312195                   ON6294543621  BGHCP    0078  
HR5G724081476912017120701A007A 003370003370                                    
HR4G724081477010100920000312196                   ON3726947702  REHCP    0078  
HR5G724081477012017120701A007A 003370003370                                    
HR4G724081477110100920000312197                   ON1299390862  NLHCP    0078  
HR5G724081477112017120701A007A 003370003370                                    
HR4G724081477210100920000312198                   ON7761546360  AMHCP    0078  
HR5G724081477212017120701A007A 003370003370                                    
HR4G724081477310100920000312199                   ON2034188736  YXHCP    0078  
HR5G724081477312017120701A007A 003370003370                                    
HR4G724081477410100920000312200                   ON9549245992  XYHCP    0078  
HR5G724081477412017120701A001A 002170002170                                    
HR5G724081477412017120701G372A 000389000389                                    
HR4G724081477510100920000312201                   ON4652843154  LEHCP    0078  
HR5G724081477512017120701A007A 003370003370                                    
HR4G712115500310100920000312263                   ON7264747507  YLHCP    0078  
HR5G712115500312017120801A007A 003370003370                                    
HR4G712115500410100920000312264                   ON9087293297  VWHCP    0078  
HR5G712115500412017120801A007A 003370003370                                    
HR4G712115500510100920000312265                   ON9282909614  JJHCP    0078  
HR5G712115500512017120801A007A 003370003370                                    
HR4G712115500610100920000312266                   ON8736445837  AGHCP    0078  
HR5G712115500612017120801A007A 003370003370                                    
HR4G712115500710100920000312267                   ON4977518499  YEHCP    0078  
HR5G712115500712017120801A007A 003370003370                                    
HR4G712115500810100920000312268                   ON5161520761  JMHCP    0078  
HR5G712115500812017120801A007A 003370003370                                    
HR4G712115500910100920000312269                   ON9821564557  GRHCP    0078  
HR5G712115500912017120801A007A 003370003370                                    
HR5G712115500912017120801G010A 000207000207                                    
HR4G712115501010100920000312270                   ON7398898747  LEHCP    0078  
HR5G712115501012017120801A007A 003370003370                                    
HR5G712115501012017120801G538A 000450000450                                    
HR4G712115501110100920000312271                   ON7441173783  HNHCP    0078  
HR5G712115501112017120801A007A 003370003370                                    
HR4G712115501210100920000312272                   ON2254280726  RHHCP    0078  
HR5G712115501212017120801A007A 003370003370                                    
HR4G712115501310100920000312273                   ON7763760779  BBHCP    0078  
HR5G712115501312017120801A007A 003370003370                                    
HR4G712115501410100920000312274                   ON4963017878  RAHCP    0078  
HR5G712115501412017120801A003A 007720007720                                    
HR4G712115501510100920000312275                   ON2076120555  FYHCP    0078  
HR5G712115501512017120801A007A 003370003370                                    
HR4G712115501610100920000312276                   ON7488971073  LYHCP    0078  
HR5G712115501612017120801A007A 003370003370                                    
HR4G712115501710100920000312277                   ON6368502578    HCP    0078  
HR5G712115501712017120801A007A 003370003370                                    
HR4G712115501810100920000312278                   ON5179478952  EMHCP    0078  
HR5G712115501812017120801A007A 003370003370                                    
HR4G712115501910100920000312279                   ON4268442003  PLHCP    0078  
HR5G712115501912017120801A007A 003370003370                                    
HR5G712115501912017120801G010A 000207000207                                    
HR4G712115502010100920000312282                   ON8278777308  RYHCP    0078  
HR5G712115502012017120801A007A 003370003370                                    
HR4G712115502110100920000312283                   ON3816873057  LPHCP    0078  
HR5G712115502112017120801A007A 003370003370                                    
HR4G712115502210100920000312285                   ON5429222622  HEHCP    0078  
HR5G712115502212017120801A007A 003370003370                                    
HR4G712115502310100920000312286                   ON6448119377  ELHCP    0078  
HR5G712115502312017120801A007A 003370003370                                    
HR5G712115502312017120801G010A 000207000207                                    
HR4G712115502410100920000312287                   ON7498374052  FAHCP    0078  
HR5G712115502412017120801A007A 003370003370                                    
HR4G712115502510100920000312288                   ON8303190782  PXHCP    0078  
HR5G712115502512017120801A007A 003370003370                                    
HR4G712115502610100920000312289                   ON7775868909  TYHCP    0078  
HR5G712115502612017120801A007A 003370003370                                    
HR5G712115502612017120801Q150A 000700000700                                    
HR4G712115502710100920000312290                   ON2154855148  KXHCP    0078  
HR5G712115502712017120801A007A 003370003370                                    
HR5G712115502712017120801G005A 000388000388                                    
HR4G712115502810100920000312291                   ON3474170697  BPHCP    0078  
HR5G712115502812017120801A007A 003370003370                                    
HR4G712115502910100920000312292                   ON9325191360  NRHCP    0078  
HR5G712115502912017120801A007A 003370003370                                    
HR5G712115502912017120801G010A 000207000207                                    
HR4G712115503010100920000312293                   ON8479260781  JYHCP    0078  
HR5G712115503012017120801A007A 003370003370                                    
HR5G712115503012017120801Q150A 000700000700                                    
HR4G712115503110100920000312294                   ON3359933714  GKHCP    0078  
HR5G712115503112017120801A007A 003370003370                                    
HR4G712115503210100920000312295                   ON6261624867  YWHCP    0078  
HR5G712115503212017120801A007A 003370003370                                    
HR4G712115503310100920000312296                   ON9204539648  CWHCP    0078  
HR5G712115503312017120801A007A 003370003370                                    
HR4G712115503410100920000312297                   ON8896168401  XWHCP    0078  
HR5G712115503412017120801A007A 003370003370                                    
HR5G712115503412017120801G010A 000207000207                                    
HR4G712126644110100920000312486                   ON9225253575  PTHCP    0078  
HR5G712126644112017121101A007A 003370003370                                    
HR5G712126644112017121101G010A 000207000207                                    
HR4G712126644210100920000312487                   ON8930144012  MLHCP    0078  
HR5G712126644212017121101A007A 003370003370                                    
HR4G712126644310100920000312488                   ON9766142336  NGHCP    0078  
HR5G712126644312017121101A007A 003370003370                                    
HR4G712126644410100920000312489                   ON5949078207  TKHCP    0078  
HR5G712126644412017121101A007A 003370003370                                    
HR4G712126644510100920000312490                   ON1348694496  PTHCP    0078  
HR5G712126644512017121101A007A 003370003370                                    
HR4G712126644610100920000312499                   ON5668447989  AKHCP    0078  
HR5G712126644612017121101A007A 003370003370                                    
HR4G712126644710100920000312502                   ON5680963575  TTHCP    0078  
HR5G712126644712017121101A007A 003370003370                                    
HR4G712126644810100920000312503                   ON7524344004  WCHCP    0078  
HR5G712126644812017121101A007A 003370003370                                    
HR5G712126644812017121101G010A 000207000207                                    
HR4G712126644910100920000312504                   ON7552027950  LNHCP    0078  
HR5G712126644912017121101A007A 003370003370                                    
HR4G712126645010100920000312505                   ON8744240055  HTHCP    0078  
HR5G712126645012017121101A007A 003370003370                                    
HR4G712126645110100920000312506                   ON9843682379  TTHCP    0078  
HR5G712126645112017121101A007A 003370003370                                    
HR4G712126645210100920000312507                   ON3311783900  CTHCP    0078  
HR5G712126645212017121101A007A 003370003370                                    
HR4G712126645310100920000312509                   ON2136778160  TYHCP    0078  
HR5G712126645312017121101A007A 003370003370                                    
HR4G712126645410100920000312510                   ON9932275143  FEHCP    0078  
HR5G712126645412017121101A007A 003370003370                                    
HR4G712126645510100920000312511                   ON5483080437  KTHCP    0078  
HR5G712126645512017121101A003A 007720007720                                    
HR4G712126645610100920000312512                   ON1194290977  PKHCP    0078  
HR5G712126645612017121101A007A 003370003370                                    
HR4G712126645710100920000312513                   ON8923548138  DXHCP    0078  
HR5G712126645712017121101A007A 003370003370                                    
HR4G712126645810100920000312514                   ON9334191286  REHCP    0078  
HR5G712126645812017121101A007A 003370003370                                    
HR4G712126645910100920000312515                   ON9436230743  BGHCP    0078  
HR5G712126645912017121101A007A 003370003370                                    
HR4G712126646010100920000312516                   ON2076251947  MTHCP    0078  
HR5G712126646012017121101A007A 003370003370                                    
HR4G712134575610100920000312518                   ON8839027193  LWHCP    0078  
HR5G712134575612017121201A007A 003370003370                                    
HR4G712134575710100920000312519                   ON8152072057  GDHCP    0078  
HR5G712134575712017121201A007A 003370003370                                    
HR5G712134575712017121201G010A 000207000207                                    
HR4G712134575810100920000312523                   ON5434106216  WXHCP    0078  
HR5G712134575812017121201A007A 003370003370                                    
HR4G712134575910100920000312524                   ON6186652670  YXHCP    0078  
HR5G712134575912017121201A007A 003370003370                                    
HR4G712134576010100920000312525                   ON1949110637  BBHCP    0078  
HR5G712134576012017121201A007A 003370003370                                    
HR4G712134576110100920000312526                   ON6871747033  KCHCP    0078  
HR5G712134576112017121201A007A 003370003370                                    
HR4G712134576210100920000312527                   ON6867590850  RDHCP    0078  
HR5G712134576212017121201A007A 003370003370                                    
HR4G712134576310100920000312528                   ON2923427344  CGHCP    0078  
HR5G712134576312017121201A007A 003370003370                                    
HR4G712134576410100920000312529                   ON8357546616  MWHCP    0078  
HR5G712134576412017121201A007A 003370003370                                    
HR4G712134576510100920000312530                   ON8625607810  PTHCP    0078  
HR5G712134576512017121201A007A 003370003370                                    
HR4G712134576610100920000312531                   ON6075036183  AYHCP    0078  
HR5G712134576612017121201A007A 003370003370                                    
HR4G712134576710100920000312532                   ON2455652996  GPHCP    0078  
HR5G712134576712017121201A007A 003370003370                                    
HR4G712134576810100920000312533                   ON3348332432  HGHCP    0078  
HR5G712134576812017121201A007A 003370003370                                    
HR4G712134576910100920000312534                   ON7347554656  XRHCP    0078  
HR5G712134576912017121201A007A 003370003370                                    
HR4G712134577010100920000312536                   ON3992245385  NRHCP    0078  
HR5G712134577012017121201A007A 003370003370                                    
HR4G712134577110100920000312537                   ON4258520859  NCHCP    0078  
HR5G712134577112017121201A007A 003370003370                                    
HR4G712134577210100920000312539                   ON1054718554  NTHCP    0078  
HR5G712134577212017121201A007A 003370003370                                    
HR5G712134577212017121201G010A 000207000207                                    
HR4G712134577310100920000312540                   ON6268274393  ARHCP    0078  
HR5G712134577312017121201A007A 003370003370                                    
HR4G712134577410100920000312541                   ON3979561101  JLHCP    0078  
HR5G712134577412017121201A007A 003370003370                                    
HR4G712134577510100920000312542                   ON6714482475  VHHCP    0078  
HR5G712134577512017121201A007A 003370003370                                    
HR4G712134577610100920000312543                   ON7441173783  HNHCP    0078  
HR5G712134577612017121201A007A 003370003370                                    
HR4G712134577710100920000312544                   ON9579267064  GAHCP    0078  
HR5G712134577712017121201A007A 003370003370                                    
HR4G712134577810100920000312545                   ON9325191360  NRHCP    0078  
HR5G712134577812017121201A007A 003370003370                                    
HR4G712134577910100920000312546                   ON4391647478  NYHCP    0078  
HR5G712134577912017121201A007A 003370003370                                    
HR5G712134577912017121201G372A 000389000389                                    
HR4G712134578010100920000312547                   ON4721777151  XRHCP    0078  
HR5G712134578012017121201A001A 002170002170                                    
HR4G712134578110100920000312548                   ON2888775752  MXHCP    0078  
HR5G712134578112017121201A007A 003370003370                                    
HR4G712134578210100920000312549                   ON5915119670  VAHCP    0078  
HR5G712134578212017121201A007A 003370003370                                    
HR4G712134578310100920000312550                   ON8895426891  HFHCP    0078  
HR5G712134578312017121201A007A 003370003370                                    
HR4G712134578410100920000312551                   ON6947816192  DFHCP    0078  
HR5G712134578412017121201A007A 003370003370                                    
HR4G712134578510100920000312552                   ON7868927703  VKHCP    0078  
HR5G712134578512017121201A007A 003370003370                                    
HR4G712134578610100920000312554                   ON1370140251  AXHCP    0078  
HR5G712134578612017121201A007A 003370003370                                    
HR4G712134578710100920000312555                   ON7869297650  KHHCP    0078  
HR5G712134578712017121201A007A 003370003370                                    
HR5G712134578712017121201G420A 001125001125                                    
HR4G712134578810100920000312556                   ON2669070514  XMHCP    0078  
HR5G712134578812017121201A007A 003370003370                                    
HR4G712134578910100920000312557                   ON5040703323  CGHCP    0078  
HR5G712134578912017121201A007A 003370003370                                    
HR5G712134578912017121201G010A 000207000207                                    
HR4G712134579010100920000312558                   ON8002499427  VYHCP    0078  
HR5G712134579012017121201A007A 003370003370                                    
HR4G712134579110100920000312560                   ON3036693285  AHHCP    0078  
HR5G712134579112017121201A007A 003370003370                                    
HR5G712134579112017121201G847A 000450000450                                    
HR4G712134579210100920000312561                   ON1616507057  YYHCP    0078  
HR5G712134579212017121201A007A 003370003370                                    
HR5G712134579212017121201G010A 000207000207                                    
HR4G712134579310100920000312562                   ON3511609491  BKHCP    0078  
HR5G712134579312017121201A007A 003370003370                                    
HR4G712134579410100920000312563                   ON7571643969    HCP    0078  
HR5G712134579412017121201A007A 003370003370                                    
HR4G712134579510100920000312564                   ON9003796555  FWHCP    0078  
HR5G712134579512017121201A007A 003370003370                                    
HR4G712181254010100920000312681                   ON2162934372  YHHCP    0078  
HR5G712181254012017121401A007A 003370003370                                    
HR4G712181254110100920000312682                   ON5138487656  NWHCP    0078  
HR5G712181254112017121401A007A 003370003370                                    
HR4G712181254210100920000312683                   ON2098345230  XCHCP    0078  
HR5G712181254212017121401A001A 002170002170                                    
HR5G712181254212017121401G372A 000389000389                                    
HR4G712181254310100920000312684                   ON1331601409  HRHCP    0078  
HR5G712181254312017121401A007A 003370003370                                    
HR4G712181254410100920000312685                   ON1310701527  AJHCP    0078  
HR5G712181254412017121401A007A 003370003370                                    
HR4G712224908710100920000312686                   ON3558229062  MVHCP    0078  
HR5G712224908712017121401A007A 003370003370                                    
HR4G712181254610100920000312687                   ON2284273543  YVHCP    0078  
HR5G712181254612017121401A007A 003370003370                                    
HR4G712181254710100920000312688                   ON3319372797  KYHCP    0078  
HR5G712181254712017121401A007A 003370003370                                    
HR4G712181254810100920000312689                   ON9062334512  ANHCP    0078  
HR5G712181254812017121401A007A 003370003370                                    
HR4G712181254910100920000312690                   ON5528921413  FVHCP    0078  
HR5G712181254912017121401A007A 003370003370                                    
HR4G712181255110100920000312693                   ON9549245992  XYHCP    0078  
HR5G712181255112017121401A007A 003370003370                                    
HR4G712181255210100920000312694                   ON6842833094  ERHCP    0078  
HR5G712181255212017121401A007A 003370003370                                    
HR4G712181255310100920000312695                   ON5397545814  GVHCP    0078  
HR5G712181255312017121401A007A 003370003370                                    
HR4G712181255410100920000312696                   ON3525980862  AYHCP    0078  
HR5G712181255412017121401A007A 003370003370                                    
HR4G712181255510100920000312697                   ON6963070310  NLHCP    0078  
HR5G712181255512017121401A007A 003370003370                                    
HR4G712181255610100920000312698                   ON2680473820  TXHCP    0078  
HR5G712181255612017121401A007A 003370003370                                    
HR4G712181255710100920000312699                   ON3419282391  HKHCP    0078  
HR5G712181255712017121401A007A 003370003370                                    
HR4G712181255810100920000312700                   ON6368438757  RFHCP    0078  
HR5G712181255812017121401A007A 003370003370                                    
HR4G712181255910100920000312701                   ON9726987408  JXHCP    0078  
HR5G712181255912017121401A007A 003370003370                                    
HR4G712181256010100920000312702                   ON6796819198  TTHCP    0078  
HR5G712181256012017121401A007A 003370003370                                    
HR4G712181256110100920000312703                   ON2788755656  RCHCP    0078  
HR5G712181256112017121401A007A 003370003370                                    
HR4G712181256210100920000312704                   ON8149136411  JGHCP    0078  
HR5G712181256212017121401A007A 003370003370                                    
HR5G712181256212017121401G010A 000207000207                                    
HR4G712181256310100920000312706                   ON5301142021  JMHCP    0078  
HR5G712181256312017121401A007A 003370003370                                    
HR4G712181256410100920000312707                   ON9093631597  PKHCP    0078  
HR5G712181256412017121401A007A 003370003370                                    
HR4G712181256510100920000312708                   ON3622847766  DYHCP    0078  
HR5G712181256512017121401A007A 003370003370                                    
HR4G712181256610100920000312709                   ON1048085227  AGHCP    0078  
HR5G712181256612017121401A007A 003370003370                                    
HR4G712181256710100920000312710                   ON5284280756  HCHCP    0078  
HR5G712181256712017121401A007A 003370003370                                    
HR4G712181256810100920000312711                   ON3400994111  EAHCP    0078  
HR5G712181256812017121401A007A 003370003370                                    
HR4G712224908810100920000312712                   ON8061894716  PJHCP    0078  
HR5G712224908812017121401A003A 007720007720                                    
HR4G712181257010100920000312713                   ON1034477313  NMHCP    0078  
HR5G712181257012017121401A007A 003370003370                                    
HR4G712181257110100920000312715                   ON3222440533  KHHCP    0078  
HR5G712181257112017121401A007A 003370003370                                    
HR4G712181257210100920000312716                   ON8625607810  PTHCP    0078  
HR5G712181257212017121401A001A 002170002170                                    
HR5G712181257212017121401G590A 000450000450                                    
HR4G712181257410100920000312718                   ON5021051577  YBHCP    0078  
HR5G712181257412017121401A007A 003370003370                                    
HR4G712181257510100920000312719                   ON8107540380  WPHCP    0078  
HR5G712181257512017121401A007A 003370003370                                    
HR4G712181257610100920000312720                   ON1592514457  REHCP    0078  
HR5G712181257612017121401A007A 003370003370                                    
HR4G712181257710100920000312721                   ON4431421488  HDHCP    0078  
HR5G712181257712017121401A001A 002170002170                                    
HR5G712181257712017121401G372A 000389000389                                    
HR4G712181257810100920000312722                   ON5199869743  XLHCP    0078  
HR5G712181257812017121401A001A 002170002170                                    
HR5G712181257812017121401G372A 000389000389                                    
HR4G712204103910100920000313015                   ON1877927382  JNHCP    0078  
HR5G712204103912017050801A007A 003370000000 35                                 
HR4G712053539110155390000311667                   ON8970622406  XYHCP    0078  
HR5G712053539112017113001A007A 003370003370                                    
HR5G712053539112017113001G590A 000450000450                                    
HR4G712053539210155390000311668                   ON7188595537  AJHCP    0078  
HR5G712053539212017113001A007A 003370003370                                    
HR4G712053539310155390000311669                   ON3002210254  CMHCP    0078  
HR5G712053539312017113001A007A 003370003370                                    
HR4G712053539410155390000311670                   ON7679489604  GCHCP    0078  
HR5G712053539412017113001K132A 007720007720                                    
HR4G712053539510155390000311671                   ON8479260781  JYHCP    0078  
HR5G712053539512017113001A003A 007720007720                                    
HR4G712053539610155390000311672                   ON1868122845  ADHCP    0078  
HR5G712053539612017113001A007A 003370003370                                    
HR4G712053539710155390000311673                   ON7562064530  XPHCP    0078  
HR5G712053539712017113001A007A 003370003370                                    
HR4G712053539810155390000311674                   ON6072395392  KYHCP    0078  
HR5G712053539812017113001A007A 003370003370                                    
HR5G712053539812017113001G372A 000389000389                                    
HR5G712053539812017113001G590A 000450000450                                    
HR4G712053539910155390000311675                   ON6589016937  ELHCP    0078  
HR5G712053539912017113001A007A 003370003370                                    
HR5G712053539912017113001G372A 000389000389                                    
HR4G712053540010155390000311676                   ON9411324420  MMHCP    0078  
HR5G712053540012017113001K005A 006275006275                                    
HR4G712053540110155390000311677                   ON8743751318  CVHCP    0078  
HR5G712053540112017113001A007A 003370003370                                    
HR4G712053540210155390000311678                   ON6186883002  AWHCP    0078  
HR5G712053540212017113001A007A 003370003370                                    
HR4G712053540310155390000311679                   ON8645078851  AHHCP    0078  
HR5G712053540312017113001A007A 003370003370                                    
HR5G712053540312017113001G590A 000450000450                                    
HR4G712053540410155390000311680                   ON3914823897  LDHCP    0078  
HR5G712053540412017113001A007A 003370003370                                    
HR4G712053540510155390000311681                   ON7206369931  RBHCP    0078  
HR5G712053540512017113001A001A 002170002170                                    
HR5G712053540512017113001G372A 000389000389                                    
HR4G712053540610155390000311682                   ON7786290291  FHHCP    0078  
HR5G712053540612017113001A007A 003370003370                                    
HR4G712053540710155390000311683                   ON6867910165  VJHCP    0078  
HR5G712053540712017113001A007A 003370003370                                    
HR4G712053540810155390000311684                   ON8505630304  AGHCP    0078  
HR5G712053540812017113001A007A 003370003370                                    
HR5G712053540812017113001G010A 000207000207                                    
HR4G712053540910155390000311685                   ON9905065505  RAHCP    0078  
HR5G712053540912017113001A007A 003370003370                                    
HR4G712053541010155390000311686                   ON4485396834  REHCP    0078  
HR5G712053541012017113001A007A 003370003370                                    
HR4G712053541110155390000311687                   ON1127668877  VWHCP    0078  
HR5G712053541112017113001A007A 003370003370                                    
HR5G712053541112017113001G841A 000450000450                                    
HR4G712053541210155390000311688                   ON9206221302  EJHCP    0078  
HR5G712053541212017113001A001A 002170002170                                    
HR5G712053541212017113001G372A 000389000389                                    
HR4G712053541310155390000311689                   ON8257328172  DHHCP    0078  
HR5G712053541312017113001A001A 002170002170                                    
HR4G712053541410155390000311690                   ON8257328172  DHHCP    0078  
HR5G712053541412017113001G590A 000450000450                                    
HR4G712053541510155390000311691                   ON6318898993  XWHCP    0078  
HR5G712053541512017113001A007A 003370003370                                    
HR4G712053541610155390000311692                   ON1795519238  TJHCP    0078  
HR5G712053541612017113001A007A 003370003370                                    
HR5G712053541612017113001G010A 000207000207                                    
HR4G712053541710155390000311693                   ON6654371498  RYHCP    0078  
HR5G712053541712017113001A007A 003370003370                                    
HR4G712053541810155390000311694                   ON4452120282  PMHCP    0078  
HR5G712053541812017113001A007A 003370003370                                    
HR4G712053541910155390000311695                   ON8586331194  VLHCP    0078  
HR5G712053541912017113001A007A 003370003370                                    
HR4G712084259110155390000311696                   ON6706766273  XLHCP    0078  
HR5G712084259112017113001A007A 003370003370                                    
HR4G712053542110155390000311697                   ON5639652345  RCHCP    0078  
HR5G712053542112017113001A007A 003370003370                                    
HR4G712053542210155390000311698                   ON3121131084  BDHCP    0078  
HR5G712053542212017113001A007A 003370003370                                    
HR4G712053542310155390000311699                   ON9394362165  BCHCP    0078  
HR5G712053542312017113001A007A 003370003370                                    
HR4G712053542410155390000311700                   ON8110378588  FLHCP    0078  
HR5G712053542412017113001A007A 003370003370                                    
HR4G712053542510155390000311703                   ON3287494268  HKHCP    0078  
HR5G712053542512017113001A007A 003370003370                                    
HR5G712053542512017113001G845A 000450000450                                    
HR4G712053542610155390000311704                   ON6161999526  NFHCP    0078  
HR5G712053542612017113001A007A 003370003370                                    
HR4G712053542710155390000311705                   ON7945559768  NEHCP    0078  
HR5G712053542712017113001A007A 003370003370                                    
HR4G712053542810155390000311706                   ON5622311750  WAHCP    0078  
HR5G712053542812017113001A007A 003370003370                                    
HR4G712053542910155390000311707                   ON9882317820  RJHCP    0078  
HR5G712053542912017113001A007A 003370003370                                    
HR4G712053543010155390000311708                   ON1310212608  ARHCP    0078  
HR5G712053543012017113001A007A 003370003370                                    
HR4G712053543110155390000311709                   ON5085067022  DXHCP    0078  
HR5G712053543112017113001A007A 003370003370                                    
HR4G712053543210155390000311710                   ON1277985360  MXHCP    0078  
HR5G712053543212017113001A007A 003370003370                                    
HR4G712053543310155390000311711                   ON9483107356  PAHCP    0078  
HR5G712053543312017113001A007A 003370003370                                    
HR4G712053543410155390000311712                   ON4391731454  EAHCP    0078  
HR5G712053543412017113001A007A 003370003370                                    
HR4G712053543510155390000311713                   ON9080740989  CGHCP    0078  
HR5G712053543512017113001A007A 003370003370                                    
HR5G712053543512017113001G590A 000450000450                                    
HR4G712053543610155390000311714                   ON4991409246  APHCP    0078  
HR5G712053543612017113001A007A 003370003370                                    
HR4G712053543710155390000311715                   ON8614583931  VPHCP    0078  
HR5G712053543712017113001A007A 003370003370                                    
HR4G712053543810155390000311716                   ON3087585661  WEHCP    0078  
HR5G712053543812017113001A007A 003370003370                                    
HR4G712060942710155390000311793                   ON5267080652  YFHCP    0078  
HR5G712060942712017120201A007A 003370003370                                    
HR4G712060942810155390000311794                   ON6062095986  AKHCP    0078  
HR5G712060942812017120201A007A 003370003370                                    
HR4G712060942910155390000311795                   ON9254749519  RVHCP    0078  
HR5G712060942912017120201A007A 003370003370                                    
HR4G712060943010155390000311796                   ON9490125375  AYHCP    0078  
HR5G712060943012017120201A007A 003370003370                                    
HR5G712060943012017120201G420A 001125001125                                    
HR4G712060943110155390000311797                   ON7872256586  REHCP    0078  
HR5G712060943112017120201A007A 003370003370                                    
HR4G712060943210155390000311798                   ON9036599471  XPHCP    0078  
HR5G712060943212017120201A007A 003370003370                                    
HR4G712060943310155390000311799                   ON5794183300  HLHCP    0078  
HR5G712060943312017120201A007A 003370003370                                    
HR4G712060943410155390000311800                   ON5768729542  KDHCP    0078  
HR5G712060943412017120201A007A 003370003370                                    
HR5G712060943412017120201E430A 001155001155                                    
HR5G712060943412017120201G365A 000675000675                                    
HR4G712060943510155390000311801                   ON4725629325  PWHCP    0078  
HR5G712060943512017120201A007A 003370003370                                    
HR5G712060943512017120201G010A 000207000207                                    
HR4G712060943610155390000311802                   ON6830977986  NWHCP    0078  
HR5G712060943612017120201A007A 003370003370                                    
HR4G712060943710155390000311803                   ON3328651587  NEHCP    0078  
HR5G712060943712017120201A007A 003370003370                                    
HR4G712060943810155390000311806                   ON6072481564  TLHCP    0078  
HR5G712060943812017120201A007A 003370003370                                    
HR4G712060943910155390000311807                   ON9665399938  RKHCP    0078  
HR5G712060943912017120201A003A 007720007720                                    
HR4G712060944010155390000311808                   ON6208986387  PCHCP    0078  
HR5G712060944012017120201A007A 003370003370                                    
HR4G712060944110155390000311809                   ON1495284604  HPHCP    0078  
HR5G712060944112017120201A007A 003370003370                                    
HR4G712060944210155390000311810                   ON1804956520  NAHCP    0078  
HR5G712060944212017120201A007A 003370003370                                    
HR4G712060944310155390000311811                   ON6427631483  FDHCP    0078  
HR5G712060944312017120201A007A 003370003370                                    
HR4G712060944410155390000311812                   ON2143937601  NWHCP    0078  
HR5G712060944412017120201A007A 003370003370                                    
HR4G712060944510155390000311813                   ON8907041118  CKHCP    0078  
HR5G712060944512017120201A007A 003370003370                                    
HR4G712060944610155390000311814                   ON2772061863  KBHCP    0078  
HR5G712060944612017120201A007A 003370003370                                    
HR4G712060944710155390000311815                   ON8757620243  TCHCP    0078  
HR5G712060944712017120201A007A 003370003370                                    
HR4G712060944810155390000311816                   ON2537084002  YDHCP    0078  
HR5G712060944812017120201A007A 003370003370                                    
HR4G712060944910155390000311817                   ON1319564678  ELHCP    0078  
HR5G712060944912017120201A007A 003370003370                                    
HR4G712060945010155390000311818                   ON6220671678  YWHCP    0078  
HR5G712060945012017120201A007A 003370003370                                    
HR4G712060945110155390000311820                   ON4978314336  GGHCP    0078  
HR5G712060945112017120201A007A 003370003370                                    
HR4G712060945210155390000311821                   ON7303153055  APHCP    0078  
HR5G712060945212017120201A007A 003370003370                                    
HR4G712060945310155390000311822                   ON6435779696  LXHCP    0078  
HR5G712060945312017120201A001A 002170002170                                    
HR5G712060945312017120201G202A 000445000445                                    
HR4G712060945410155390000311823                   ON3800347688  LEHCP    0078  
HR5G712060945412017120201A007A 003370003370                                    
HR4G712060945510155390000311824                   ON8489115066  LPHCP    0078  
HR5G712060945512017120201A007A 003370003370                                    
HR4G712060945610155390000311825                   ON6984808482  TCHCP    0078  
HR5G712060945612017120201A007A 003370003370                                    
HR4G712060945710155390000311826                   ON2056840685  GMHCP    0078  
HR5G712060945712017120201A007A 003370003370                                    
HR4G712060945810155390000311827                   ON1337427148  NTHCP    0078  
HR5G712060945812017120201A001A 002170002170                                    
HR5G712060945812017120201G590A 000450000450                                    
HR4G712060945910155390000311828                   ON4428647004  MJHCP    0078  
HR5G712060945912017120201A007A 003370003370                                    
HR4G712060946010155390000311829                   ON5571555332  LXHCP    0078  
HR5G712060946012017120201A007A 003370003370                                    
HR4G712060946110155390000311830                   ON6919241536  MEHCP    0078  
HR5G712060946112017120201A007A 003370003370                                    
HR4G712060946210155390000311831                   ON3961911744  CTHCP    0078  
HR5G712060946212017120201A007A 003370003370                                    
HR5G712060946212017120201K053A 001500001500                                    
HR4G712060946310155390000311832                   ON4585687686  GDHCP    0078  
HR5G712060946312017120201A007A 003370003370                                    
HR4G712060946410155390000311833                   ON4443178852  PKHCP    0078  
HR5G712060946412017120201A007A 003370003370                                    
HR5G712060946412017120201G010A 000207000207                                    
HR4G712060946510155390000311834                   ON7966210911  HHHCP    0078  
HR5G712060946512017120201A007A 003370003370                                    
HR4G712060946610155390000311835                   ON7041480182  VHHCP    0078  
HR5G712060946612017120201A007A 003370003370                                    
HR4G712060946710155390000311836                   ON2247023324  GWHCP    0078  
HR5G712060946712017120201A007A 003370003370                                    
HR4G712060946810155390000311837                   ON5977202745    HCP    0078  
HR5G712060946812017120201A007A 003370003370                                    
HR4G712060946910155390000311838                   ON7646428602  GYHCP    0078  
HR5G712060946912017120201A007A 003370003370                                    
HR4G712060947010155390000311839                   ON7551128841  RHHCP    0078  
HR5G712060947012017120201A007A 003370003370                                    
HR4G712060947110155390000311840                   ON8984241706    HCP    0078  
HR5G712060947112017120201A007A 003370003370                                    
HR5G712060947112017120201G010A 000207000207                                    
HR4G712060947210155390000311841                   ON3405625637    HCP    0078  
HR5G712060947212017120201A003A 007720007720                                    
HR4G712060947310155390000311842                   ON3238621761  BEHCP    0078  
HR5G712060947312017120201K005A 006275006275                                    
HR4G712060947410155390000311843                   ON5793917112  HMHCP    0078  
HR5G712060947412017120201A007A 003370003370                                    
HR4G712060947510155390000311844                   ON3068300833  BCHCP    0078  
HR5G712060947512017120201A007A 003370003370                                    
HR4G712070773110155390000311881                   ON7483375171  HXHCP    0078  
HR5G712070773112017120401A007A 003370003370                                    
HR4G712070773210155390000311882                   ON5929158805  VLHCP    0078  
HR5G712070773212017120401A007A 003370003370                                    
HR4G712070773310155390000311883                   ON4963017878  RAHCP    0078  
HR5G712070773312017120401A007A 003370003370                                    
HR4G712070773410155390000311884                   ON7127832702  WJHCP    0078  
HR5G712070773412017120401A007A 003370003370                                    
HR4G712070773510155390000311885                   ON8095857036  FDHCP    0078  
HR5G712070773512017120401A007A 003370003370                                    
HR4G712070773610155390000311886                   ON5842000613  VTHCP    0078  
HR5G712070773612017120401A007A 003370003370                                    
HR4G712070773710155390000311887                   ON7568488113  WAHCP    0078  
HR5G712070773712017120401A007A 003370003370                                    
HR4G712070773810155390000311888                   ON2419517582  ETHCP    0078  
HR5G712070773812017120401A007A 003370003370                                    
HR4G712070773910155390000311889                   ON4093988691  LEHCP    0078  
HR5G712070773912017120401A007A 003370003370                                    
HR5G712070773912017120401G420A 001125001125                                    
HR4G712070774010155390000311890                   ON9373469957  NYHCP    0078  
HR5G712070774012017120401A007A 003370003370                                    
HR4G712070774110155390000311891                   ON3985488422  WKHCP    0078  
HR5G712070774112017120401A007A 003370003370                                    
HR4G712070774210155390000311892                   ON2717800474  FPHCP    0078  
HR5G712070774212017120401A007A 003370003370                                    
HR4G712070774310155390000311893                   ON2425536576  XVHCP    0078  
HR5G712070774312017120401A007A 003370003370                                    
HR5G712070774312017120401G005A 000388000388                                    
HR4G712070774410155390000311894                   ON3303851947  JXHCP    0078  
HR5G712070774412017120401A007A 003370003370                                    
HR5G712070774412017120401G372A 000389000389                                    
HR4G712070774510155390000311895                   ON9775470512  LFHCP    0078  
HR5G712070774512017120401A007A 003370003370                                    
HR4G712070774610155390000311896                   ON7202694811  CCHCP    0078  
HR5G712070774612017120401A007A 003370003370                                    
HR4G712070774710155390000311897                   ON1869376275  RMHCP    0078  
HR5G712070774712017120401A007A 003370003370                                    
HR4G712070774810155390000311898                   ON1778768406  REHCP    0078  
HR5G712070774812017120401A007A 003370003370                                    
HR4G712070774910155390000311899                   ON9973909378  NCHCP    0078  
HR5G712070774912017120401A007A 003370003370                                    
HR4G712070775010155390000311900                   ON4616038065  HHHCP    0078  
HR5G712070775012017120401A007A 003370003370                                    
HR4G712070775110155390000311901                   ON3000134399  PKHCP    0078  
HR5G712070775112017120401A007A 003370003370                                    
HR4G712070775210155390000311902                   ON5622494648  GRHCP    0078  
HR5G712070775212017120401A007A 003370003370                                    
HR4G712070775310155390000311903                   ON8037011940  GFHCP    0078  
HR5G712070775312017120401A007A 003370003370                                    
HR4G712070775410155390000311904                   ON4873602363  YCHCP    0078  
HR5G712070775412017120401A007A 003370003370                                    
HR4G712070775510155390000311905                   ON1632726657  MNHCP    0078  
HR5G712070775512017120401A007A 003370003370                                    
HR4G712070775610155390000311906                   ON8443707974  WYHCP    0078  
HR5G712070775612017120401A007A 003370003370                                    
HR4G712070775710155390000311907                   ON2051256101  YPHCP    0078  
HR5G712070775712017120401A007A 003370003370                                    
HR4G712070775810155390000311908                   ON2549781512  HDHCP    0078  
HR5G712070775812017120401A007A 003370003370                                    
HR4G712070775910155390000311909                   ON1914921067  JWHCP    0078  
HR5G712070775912017120401A007A 003370003370                                    
HR4G712070776010155390000311910                   ON3178058735    HCP    0078  
HR5G712070776012017120401A007A 003370003370                                    
HR4G712070776110155390000311911                   ON8467456904  RCHCP    0078  
HR5G712070776112017120401A007A 003370003370                                    
HR4G712070776210155390000311912                   ON5507398468  KLHCP    0078  
HR5G712070776212017120401A007A 003370003370                                    
HR4G712070776310155390000311913                   ON5604439694  MGHCP    0078  
HR5G712070776312017120401A007A 003370003370                                    
HR4G712070776410155390000311914                   ON7173999728  GWHCP    0078  
HR5G712070776412017120401A007A 003370003370                                    
HR4G712070776510155390000311915                   ON6389799989  GHHCP    0078  
HR5G712070776512017120401A007A 003370003370                                    
HR4G712070776610155390000311916                   ON8608533397  FVHCP    0078  
HR5G712070776612017120401A007A 003370003370                                    
HR4G712070776710155390000311917                   ON1965995911  BKHCP    0078  
HR5G712070776712017120401A007A 003370003370                                    
HR4G712070776810155390000311918                   ON2778990479  WRHCP    0078  
HR5G712070776812017120401A007A 003370003370                                    
HR4G712070776910155390000311919                   ON1644176677  YRHCP    0078  
HR5G712070776912017120401A007A 003370003370                                    
HR4G712070777010155390000311920                   ON9549245992  XYHCP    0078  
HR5G712070777012017120401A007A 003370003370                                    
HR4G712070777110155390000311921                   ON3097443620  EEHCP    0078  
HR5G712070777112017120401A007A 003370003370                                    
HR4G712070777210155390000311922                   ON4064877634  GKHCP    0078  
HR5G712070777212017120401A007A 003370003370                                    
HR4G712070777310155390000311923                   ON8875523436  XNHCP    0078  
HR5G712070777312017120401A007A 003370003370                                    
HR4G712070777410155390000311924                   ON6241233128  MYHCP    0078  
HR5G712070777412017120401A007A 003370003370                                    
HR5G712070777412017120401G590A 000450000450                                    
HR4G712070777510155390000311925                   ON8507371899  EJHCP    0078  
HR5G712070777512017120401A007A 003370003370                                    
HR4G712070777610155390000311926                   ON6005579336  NJHCP    0078  
HR5G712070777612017120401A007A 003370003370                                    
HR4G712277633710155390000311927                   ON6497325495  VHHCP    0078  
HR5G712277633712017120401A007A 003370003370                                    
HR4G712070777710155390000311935                   ON7562255435    HCP    0078  
HR5G712070777712017120401A007A 003370003370                                    
HR4G724073363410155390000312042                   ON9545174527  VJHCP    0078  
HR5G724073363412017120501A007A 003370003370                                    
HR4G724073363510155390000312043                   ON6747213764  FVHCP    0078  
HR5G724073363512017120501A007A 003370003370                                    
HR4G724073363610155390000312044                   ON9195152708  ACHCP    0078  
HR5G724073363612017120501A007A 003370003370                                    
HR4G724073363710155390000312045                   ON3969980055  THHCP    0078  
HR5G724073363712017120501A007A 003370003370                                    
HR4G724073363810155390000312046                   ON5877001817  TGHCP    0078  
HR5G724073363812017120501A007A 003370003370                                    
HR4G724073363910155390000312047                   ON2038360703  EBHCP    0078  
HR5G724073363912017120501A007A 003370003370                                    
HR4G724073364010155390000312048                   ON2952541510  RVHCP    0078  
HR5G724073364012017120501A007A 003370003370                                    
HR4G724073364110155390000312049                   ON2728255429  NLHCP    0078  
HR5G724073364112017120501A007A 003370003370                                    
HR4G724073364210155390000312050                   ON6853616925  NMHCP    0078  
HR5G724073364212017120501A007A 003370003370                                    
HR4G724073364310155390000312051                   ON1105137200  XMHCP    0078  
HR5G724073364312017120501A007A 003370003370                                    
HR5G724073364312017120501G372A 000389000389                                    
HR4G724073364410155390000312052                   ON1410948762  JAHCP    0078  
HR5G724073364412017120501A007A 003370003370                                    
HR4G724073364510155390000312053                   ON9312617633  DGHCP    0078  
HR5G724073364512017120501A007A 003370003370                                    
HR4G724073364610155390000312054                   ON3803454028  PVHCP    0078  
HR5G724073364612017120501A003A 007720007720                                    
HR4G724073364710155390000312055                   ON6626544750  NCHCP    0078  
HR5G724073364712017120501A007A 003370003370                                    
HR4G724073364810155390000312056                   ON6235323042  YLHCP    0078  
HR5G724073364812017120501A007A 003370003370                                    
HR4G724073364910155390000312057                   ON1487359620  RTHCP    0078  
HR5G724073364912017120501A007A 003370003370                                    
HR4G724073365010155390000312058                   ON8906752954  TLHCP    0078  
HR5G724073365012017120501A007A 003370003370                                    
HR4G724073365110155390000312059                   ON4484275674  NFHCP    0078  
HR5G724073365112017120501A007A 003370003370                                    
HR4G724073365210155390000312060                   ON3795432701  WPHCP    0078  
HR5G724073365212017120501A007A 003370003370                                    
HR4G724073365310155390000312061                   ON3628110938  KMHCP    0078  
HR5G724073365312017120501A007A 003370003370                                    
HR5G724073365312017120501G010A 000207000207                                    
HR4G724073365410155390000312062                   ON8970622406  XYHCP    0078  
HR5G724073365412017120501A007A 003370003370                                    
HR4G724073365510155390000312063                   ON3509832238  AMHCP    0078  
HR5G724073365512017120501A001A 002170002170                                    
HR5G724073365512017120501G372A 000389000389                                    
HR4G724073365610155390000312064                   ON2713156418  XGHCP    0078  
HR5G724073365612017120501A007A 003370003370                                    
HR5G724073365612017120501G010A 000207000207                                    
HR4G724073365710155390000312065                   ON2493816165  RTHCP    0078  
HR5G724073365712017120501A007A 003370003370                                    
HR4G724073365810155390000312066                   ON7684581759  BKHCP    0078  
HR5G724073365812017120501A007A 003370003370                                    
HR4G724073365910155390000312067                   ON7728675518  XCHCP    0078  
HR5G724073365912017120501A001A 002170002170                                    
HR5G724073365912017120501G372A 000389000389                                    
HR4G724073366010155390000312068                   ON8274139842  JJHCP    0078  
HR5G724073366012017120501A007A 003370003370                                    
HR4G724073366110155390000312069                   ON1697408365  XMHCP    0078  
HR5G724073366112017120501A007A 003370003370                                    
HR4G724073366210155390000312070                   ON1541340012  AVHCP    0078  
HR5G724073366212017120501A001A 002170002170                                    
HR5G724073366212017120501G202A 000445000445                                    
HR4G724073366310155390000312071                   ON9264657710  AXHCP    0078  
HR5G724073366312017120501A007A 003370003370                                    
HR4G724073366410155390000312072                   ON7299965009  NCHCP    0078  
HR5G724073366412017120501A007A 003370003370                                    
HR4G724073366510155390000312073                   ON8308058240  VNHCP    0078  
HR5G724073366512017120501A007A 003370003370                                    
HR4G724073366610155390000312074                   ON6004644354  FPHCP    0078  
HR5G724073366612017120501A007A 003370003370                                    
HR4G724073366710155390000312075                   ON4628717771  HWHCP    0078  
HR5G724073366712017120501A007A 003370003370                                    
HR4G724073366810155390000312076                   ON7544035616  CRHCP    0078  
HR5G724073366812017120501A007A 003370003370                                    
HR4G724073366910155390000312077                   ON3931225050    HCP    0078  
HR5G724073366912017120501A007A 003370003370                                    
HR4G724073367010155390000312078                   ON4775940796  XRHCP    0078  
HR5G724073367012017120501A007A 003370003370                                    
HR4G724073367110155390000312079                   ON7691396803  RYHCP    0078  
HR5G724073367112017120501A007A 003370003370                                    
HR4G724073367210155390000312080                   ON3921516807  MTHCP    0078  
HR5G724073367212017120501A007A 003370003370                                    
HR4G724073367310155390000312081                   ON5463374289  TYHCP    0078  
HR5G724073367312017120501A007A 003370003370                                    
HR4G724073367410155390000312082                   ON3626498517  HRHCP    0078  
HR5G724073367412017120501A007A 003370003370                                    
HR4G724073367510155390000312083                   ON9120510608  AXHCP    0078  
HR5G724073367512017120501A007A 003370003370                                    
HR4G724073367610155390000312084                   ON3935322325  LHHCP    0078  
HR5G724073367612017120501A007A 003370003370                                    
HR4G724073367710155390000312085                   ON9997972089  KDHCP    0078  
HR5G724073367712017120501A007A 003370003370                                    
HR4G724073367810155390000312086                   ON7913331513  NJHCP    0078  
HR5G724073367812017120501A007A 003370003370                                    
HR4G724073367910155390000312087                   ON4282120635  NBHCP    0078  
HR5G724073367912017120501A007A 003370003370                                    
HR4G724073368010155390000312088                   ON8747437179  YWHCP    0078  
HR5G724073368012017120501A007A 003370003370                                    
HR4G724073368110155390000312089                   ON2972780379  HBHCP    0078  
HR5G724073368112017120501A007A 003370003370                                    
HR5G724073368112017120501G010A 000207000207                                    
HR4G724073368210155390000312090                   ON6310885303  RYHCP    0078  
HR5G724073368212017120501A007A 003370003370                                    
HR4G724081467910155390000312203                   ON5698322012  HDHCP    0078  
HR5G724081467912017120701A007A 003370003370                                    
HR5G724081467912017120701G846A 000450000450                                    
HR4G724081468010155390000312204                   ON7901687140  NYHCP    0078  
HR5G724081468012017120701A007A 003370003370                                    
HR5G724081468012017120701E430A 001155001155                                    
HR5G724081468012017120701G365A 000675000675                                    
HR4G724081468110155390000312205                   ON9693123003  CPHCP    0078  
HR5G724081468112017120701A007A 003370003370                                    
HR4G724081468210155390000312206                   ON1114534280  WCHCP    0078  
HR5G724081468212017120701A007A 003370003370                                    
HR4G724081468310155390000312207                   ON5192705605  GYHCP    0078  
HR5G724081468312017120701A007A 003370003370                                    
HR4G724081468410155390000312208                   ON5053368923  YKHCP    0078  
HR5G724081468412017120701A007A 003370003370                                    
HR4G724081468510155390000312209                   ON5832628613  JBHCP    0078  
HR5G724081468512017120701A007A 003370003370                                    
HR5G724081468512017120701G420A 001125001125                                    
HR4G724081468610155390000312210                   ON5289030644  TDHCP    0078  
HR5G724081468612017120701A007A 003370003370                                    
HR5G724081468612017120701G372A 000389000389                                    
HR4G724081468710155390000312211                   ON2049884832  JFHCP    0078  
HR5G724081468712017120701A007A 003370003370                                    
HR5G724081468712017120701G590A 000450000450                                    
HR4G724081468810155390000312212                   ON5104767891  JNHCP    0078  
HR5G724081468812017120701A007A 003370003370                                    
HR4G724081468910155390000312213                   ON3152604249  JTHCP    0078  
HR5G724081468912017120701A007A 003370003370                                    
HR4G724081469010155390000312214                   ON5595145722  GTHCP    0078  
HR5G724081469012017120701A001A 002170002170                                    
HR5G724081469012017120701G372A 000389000389                                    
HR4G724081469110155390000312216                   ON4568221107  GLHCP    0078  
HR5G724081469112017120701A007A 003370003370                                    
HR4G724081469210155390000312217                   ON7895401631  DJHCP    0078  
HR5G724081469212017120701A007A 003370003370                                    
HR4G724081469310155390000312218                   ON1611631506  VCHCP    0078  
HR5G724081469312017120701A007A 003370003370                                    
HR4G724081469410155390000312219                   ON1495284604  HPHCP    0078  
HR5G724081469412017120701A007A 003370003370                                    
HR4G724081469510155390000312220                   ON6903753900  KCHCP    0078  
HR5G724081469512017120701A007A 003370003370                                    
HR5G724081469512017120701G010A 000207000207                                    
HR4G724081469610155390000312221                   ON3857815652  PFHCP    0078  
HR5G724081469612017120701A007A 003370003370                                    
HR4G724081469710155390000312222                   ON8680738518  JNHCP    0078  
HR5G724081469712017120701A007A 003370003370                                    
HR4G724081469810155390000312223                   ON3028169179  DLHCP    0078  
HR5G724081469812017120701A007A 003370003370                                    
HR4G724081469910155390000312224                   ON4338025069    HCP    0078  
HR5G724081469912017120701A007A 003370003370                                    
HR4G724081470010155390000312226                   ON5854852620  RVHCP    0078  
HR5G724081470012017120701A007A 003370003370                                    
HR5G724081470012017120701G010A 000207000207                                    
HR4G724081470110155390000312227                   ON9062334512  ANHCP    0078  
HR5G724081470112017120701A007A 003370003370                                    
HR4G724081470210155390000312228                   ON6778255387  BKHCP    0078  
HR5G724081470212017120701A007A 003370003370                                    
HR4G724081470310155390000312229                   ON2516587090  DLHCP    0078  
HR5G724081470312017120701A007A 003370003370                                    
HR4G724081470410155390000312230                   ON8828371644  EEHCP    0078  
HR5G724081470412017120701A001A 002170002170                                    
HR5G724081470412017120701G372A 000389000389                                    
HR4G724081470510155390000312231                   ON1087691521  BXHCP    0078  
HR5G724081470512017120701A007A 003370003370                                    
HR4G724081470610155390000312233                   ON5633446439  GCHCP    0078  
HR5G724081470612017120701A007A 003370003370                                    
HR4G724081470710155390000312234                   ON1876429240  YEHCP    0078  
HR5G724081470712017120701A007A 003370003370                                    
HR4G724081470810155390000312235                   ON7519511096  BGHCP    0078  
HR5G724081470812017120701A007A 003370003370                                    
HR4G724081470910155390000312236                   ON4714820729  GPHCP    0078  
HR5G724081470912017120701A007A 003370003370                                    
HR5G724081470912017120701G372A 000389000389                                    
HR4G724081471010155390000312237                   ON9532725638    HCP    0078  
HR5G724081471012017120701A007A 003370003370                                    
HR4G724081471110155390000312238                   ON5387756587  GLHCP    0078  
HR5G724081471112017120701A007A 003370003370                                    
HR4G724081471210155390000312239                   ON6269083868  NDHCP    0078  
HR5G724081471212017120701A007A 003370003370                                    
HR5G724081471212017120701G590A 000450000450                                    
HR4G724081471310155390000312240                   ON8588022312  HNHCP    0078  
HR5G724081471312017120701A007A 003370003370                                    
HR4G724081471410155390000312241                   ON7657248691  DBHCP    0078  
HR5G724081471412017120701A007A 003370003370                                    
HR4G724081471510155390000312242                   ON7783732931  MJHCP    0078  
HR5G724081471512017120701A007A 003370003370                                    
HR4G724081471610155390000312243                   ON4874998646  ARHCP    0078  
HR5G724081471612017120701A007A 003370003370                                    
HR4G724081471710155390000312244                   ON2394848234    HCP    0078  
HR5G724081471712017120701A007A 003370003370                                    
HR5G724081471712017120701G420A 001125001125                                    
HR4G724081471810155390000312245                   ON3097634244  JNHCP    0078  
HR5G724081471812017120701A007A 003370003370                                    
HR4G724081471910155390000312246                   ON2503697845  MWHCP    0078  
HR5G724081471912017120701A007A 003370003370                                    
HR4G724081472010155390000312247                   ON8764794130  HCHCP    0078  
HR5G724081472012017120701A007A 003370003370                                    
HR5G724081472012017120701G010A 000207000207                                    
HR4G724081472110155390000312248                   ON5820347069  GTHCP    0078  
HR5G724081472112017120701A007A 003370003370                                    
HR4G724081472210155390000312249                   ON5123952946  MVHCP    0078  
HR5G724081472212017120701A007A 003370003370                                    
HR4G724081472310155390000312250                   ON8505630304  AGHCP    0078  
HR5G724081472312017120701A007A 003370003370                                    
HR4G724081472410155390000312251                   ON9905065505  RAHCP    0078  
HR5G724081472412017120701A007A 003370003370                                    
HR4G724081472510155390000312252                   ON6835283828  GJHCP    0078  
HR5G724081472512017120701A007A 003370003370                                    
HR5G724081472512017120701G010A 000207000207                                    
HR4G724081472610155390000312253                   ON8087638139  KLHCP    0078  
HR5G724081472612017120701A007A 003370003370                                    
HR5G724081472612017120701G847A 000450000450                                    
HR4G724081472710155390000312254                   ON8893980600  MWHCP    0078  
HR5G724081472712017120701A007A 003370003370                                    
HR4G724081472810155390000312255                   ON9608514411  KAHCP    0078  
HR5G724081472812017120701A007A 003370003370                                    
HR5G724081472812017120701G841A 000450000450                                    
HR4G724081472910155390000312256                   ON7974398518  NRHCP    0078  
HR5G724081472912017120701A007A 003370003370                                    
HR5G724081472912017120701G841A 000450000450                                    
HR4G724081473010155390000312257                   ON5011244554  YRHCP    0078  
HR5G724081473012017120701A007A 003370003370                                    
HR4G724081473110155390000312258                   ON1194290977  PKHCP    0078  
HR5G724081473112017120701A007A 003370003370                                    
HR4G724081473210155390000312259                   ON4706925163  TXHCP    0078  
HR5G724081473212017120701A007A 003370003370                                    
HR5G724081473212017120701Q150A 000700000700                                    
HR4G724081473310155390000312260                   ON6498402681  AKHCP    0078  
HR5G724081473312017120701A007A 003370003370                                    
HR4G724081473410155390000312261                   ON4350552081  XDHCP    0078  
HR5G724081473412017120701A007A 003370003370                                    
HR4G712115495110155390000312298                   ON6241233128  MYHCP    0078  
HR5G712115495112017120801A007A 003370003370                                    
HR4G712115495210155390000312299                   ON7399607931  XEHCP    0078  
HR5G712115495212017120801A007A 003370003370                                    
HR4G712115495310155390000312300                   ON9786422106  XAHCP    0078  
HR5G712115495312017120801A007A 003370003370                                    
HR4G712115495410155390000312301                   ON5287694599  MHHCP    0078  
HR5G712115495412017120801A007A 003370003370                                    
HR5G712115495412017120801G372A 000389000389                                    
HR4G712115495510155390000312302                   ON8335344811  PKHCP    0078  
HR5G712115495512017120801A001A 002170002170                                    
HR5G712115495512017120801G372A 000389000389                                    
HR4G712115495610155390000312303                   ON6904234652  NWHCP    0078  
HR5G712115495612017120801A007A 003370003370                                    
HR4G712115495710155390000312304                   ON6790855628  PCHCP    0078  
HR5G712115495712017120801A007A 003370003370                                    
HR4G712115495810155390000312305                   ON2983601408  YDHCP    0078  
HR5G712115495812017120801A007A 003370003370                                    
HR4G712115495910155390000312306                   ON1804956520  NAHCP    0078  
HR5G712115495912017120801A007A 003370003370                                    
HR4G712115496010155390000312307                   ON4452120282  PMHCP    0078  
HR5G712115496012017120801A007A 003370003370                                    
HR4G712115496110155390000312308                   ON5879252376  FBHCP    0078  
HR5G712115496112017120801A007A 003370003370                                    
HR4G712115496210155390000312309                   ON8727886056  BCHCP    0078  
HR5G712115496212017120801A007A 003370003370                                    
HR4G712115496310155390000312310                   ON8820746207  VHHCP    0078  
HR5G712115496312017120801A007A 003370003370                                    
HR4G712115496410155390000312311                   ON6546600245  XBHCP    0078  
HR5G712115496412017120801A007A 003370003370                                    
HR4G712115496510155390000312312                   ON3127734493  GRHCP    0078  
HR5G712115496512017120801A007A 003370003370                                    
HR4G712115496610155390000312313                   ON9975699266  MFHCP    0078  
HR5G712115496612017120801A007A 003370003370                                    
HR4G712115496710155390000312314                   ON8899900438  CMHCP    0078  
HR5G712115496712017120801A007A 003370003370                                    
HR4G712115496810155390000312315                   ON6225929618  PVHCP    0078  
HR5G712115496812017120801A007A 003370003370                                    
HR4G712115496910155390000312316                   ON1033780998  FWHCP    0078  
HR5G712115496912017120801A007A 003370003370                                    
HR4G712115497010155390000312317                   ON7318333924  VRHCP    0078  
HR5G712115497012017120801A007A 003370003370                                    
HR4G712115497110155390000312318                   ON5159349298  KMHCP    0078  
HR5G712115497112017120801A007A 003370003370                                    
HR4G712115497210155390000312319                   ON6941015296  FBHCP    0078  
HR5G712115497212017120801A007A 003370003370                                    
HR4G712115497310155390000312320                   ON2130441898  HLHCP    0078  
HR5G712115497312017120801A007A 003370003370                                    
HR4G712115497410155390000312321                   ON5434702170  AGHCP    0078  
HR5G712115497412017120801A007A 003370003370                                    
HR4G712115497510155390000312322                   ON1793704519  PCHCP    0078  
HR5G712115497512017120801A007A 003370003370                                    
HR4G712115497610155390000312323                   ON5302148530  KFHCP    0078  
HR5G712115497612017120801A007A 003370003370                                    
HR5G712115497612017120801G420A 001125001125                                    
HR4G712115497710155390000312324                   ON7041480182  VHHCP    0078  
HR5G712115497712017120801A007A 003370003370                                    
HR4G712115497810155390000312325                   ON2948829573  EVHCP    0078  
HR5G712115497812017120801A007A 003370003370                                    
HR4G712115497910155390000312326                   ON8828643067  KGHCP    0078  
HR5G712115497912017120801A007A 003370003370                                    
HR4G712115498010155390000312327                   ON8724800944  AHHCP    0078  
HR5G712115498012017120801A007A 003370003370                                    
HR4G712115498110155390000312328                   ON1015605387  JEHCP    0078  
HR5G712115498112017120801A007A 003370003370                                    
HR4G712115498210155390000312329                   ON7870732604  NMHCP    0078  
HR5G712115498212017120801A007A 003370003370                                    
HR4G712115498310155390000312330                   ON9136339919  ATHCP    0078  
HR5G712115498312017120801A007A 003370003370                                    
HR4G712115498410155390000312331                   ON3047843499  TCHCP    0078  
HR5G712115498412017120801A007A 003370003370                                    
HR4G712115498510155390000312332                   ON3815153097  XBHCP    0078  
HR5G712115498512017120801A007A 003370003370                                    
HR4G712115498610155390000312333                   ON4634864716  VXHCP    0078  
HR5G712115498612017120801A007A 003370003370                                    
HR4G712115498710155390000312334                   ON3411638665  CXHCP    0078  
HR5G712115498712017120801A007A 003370003370                                    
HR5G712115498712017120801G010A 000207000207                                    
HR4G712115498810155390000312335                   ON1237453210  WJHCP    0078  
HR5G712115498812017120801A007A 003370003370                                    
HR5G712115498812017120801G010A 000207000207                                    
HR4G712115498910155390000312336                   ON8528821070  LLHCP    0078  
HR5G712115498912017120801A007A 003370003370                                    
HR4G712115499010155390000312337                   ON6264516284  GGHCP    0078  
HR5G712115499012017120801A001A 002170002170                                    
HR5G712115499012017120801G372A 000389000389                                    
HR4G712115499110155390000312338                   ON1806964894  PAHCP    0078  
HR5G712115499112017120801A007A 003370003370                                    
HR5G712115499112017120801G010A 000207000207                                    
HR4G712115499210155390000312339                   ON2607985443  NFHCP    0078  
HR5G712115499212017120801A007A 003370003370                                    
HR4G712115499310155390000312340                   ON1889929921  EHHCP    0078  
HR5G712115499312017120801A007A 003370003370                                    
HR4G712115499410155390000312341                   ON2787293352  WXHCP    0078  
HR5G712115499412017120801A007A 003370003370                                    
HR4G712115499510155390000312342                   ON5133105659  PTHCP    0078  
HR5G712115499512017120801A007A 003370003370                                    
HR4G712115499610155390000312343                   ON9080740989  CGHCP    0078  
HR5G712115499612017120801A007A 003370003370                                    
HR4G712115499710155390000312344                   ON7266114771  WJHCP    0078  
HR5G712115499712017120801A007A 003370003370                                    
HR4G712115499810155390000312345                   ON8086123950  VHHCP    0078  
HR5G712115499812017120801A007A 003370003370                                    
HR4G712115499910155390000312346                   ON2932537877  JPHCP    0078  
HR5G712115499912017120801A007A 003370003370                                    
HR5G712115499912017120801G010A 000207000207                                    
HR4G712115500010155390000312347                   ON3918422209  WTHCP    0078  
HR5G712115500012017120801A007A 003370003370                                    
HR4G712117941910155390000312392                   ON8602590765  XTHCP    0078  
HR5G712117941912017121001A007A 003370003370                                    
