HR1V030007800000000H720180214STONEY CREEK MEDICAL WALK IN C006878840 99999999  
HR2                              2A - 140 CENTENNIAL PARKW                     
HR3HAMILTON        ON L8E1H9                                                   
HR4G712181255010100920000312691                   ON1632245393    HCP    0078  
HR5G712181255012017121401A007A 003370003370 EV                                 
HR4G712181257310100920000312717                   ON9552004757    HCP    0078  
HR5G712181257312017121401A007A 003370003370 EV                                 
HR4G712204101110155390000313057                   ON6933809359    HCP    0078  
HR5G712204101112017121901A007A 003370003370                                    
HR4G801041167010155390000313196                   ON7630914989  RPHCP    0078  
HR5G801041167012017122101A007A 003370003370                                    
HR4G712224902510155390000313212                   ON6933809359    HCP    0078  
HR5G712224902512017122101A007A 003370003370                                    
HR4G801045372710155390000313215                   ON7570385133  WPHCP    0078  
HR5G801045372712017122101K028A 006275006275                                    
HR4G801041167210155390000313301                   ON3718063930  ANHCP    0078  
HR5G801041167212017122201A007A 003370003370                                    
HR4G801031555410155390000313586                   ON5829745941  FNHCP    0078  
HR5G801031555412017122801A007A 003370003370                                    
HR4G801031555510155390000313591                   ON1014490450  NFHCP    0078  
HR5G801031555512017122801A007A 003370003370                                    
HR4G801031555610155390000313592                   ON2795277868  CTHCP    0078  
HR5G801031555612017122801A007A 003370003370                                    
HR4G801031555710155390000313593                   ON8056901633  WCHCP    0078  
HR5G801031555712017122801A007A 003370003370                                    
HR5G801031555712017122801G010A 000207000207                                    
HR4G801031555810155390000313594                   ON1473615712  FWHCP    0078  
HR5G801031555812017122801A007A 003370003370                                    
HR5G801031555812017122801G590A 000450000450                                    
HR4G801031555910155390000313595                   ON7772559998  YWHCP    0078  
HR5G801031555912017122801A007A 003370003370                                    
HR5G801031555912017122801G372A 000389000389                                    
HR4G801031556010155390000313596                   ON5126181451  RCHCP    0078  
HR5G801031556012017122801A007A 003370003370                                    
HR4G801031556110155390000313597                   ON3160920587  HFHCP    0078  
HR5G801031556112017122801A007A 003370003370                                    
HR4G801031556210155390000313598                   ON6742709626  CMHCP    0078  
HR5G801031556212017122801A007A 003370003370                                    
HR4G801031556310155390000313599                   ON2695917332  RDHCP    0078  
HR5G801031556312017122801A007A 003370003370                                    
HR5G801031556312017122801G848A 000450000450                                    
HR4G801031556410155390000313600                   ON6286274912    HCP    0078  
HR5G801031556412017122801A007A 003370003370                                    
HR4G801031556510155390000313601                   ON3389197264  JNHCP    0078  
HR5G801031556512017122801A007A 003370003370                                    
HR5G801031556512017122801G005A 000388000388                                    
HR5G801031556512017122801G010A 000207000207                                    
HR4G801031556610155390000313602                   ON9670401794  RFHCP    0078  
HR5G801031556612017122801A007A 003370003370                                    
HR5G801031556612017122801E079A 001540001540                                    
HR4G801031556710155390000313603                   ON8193182006  PYHCP    0078  
HR5G801031556712017122801A007A 003370003370                                    
HR4G801031556810155390000313604                   ON9729473257  JWHCP    0078  
HR5G801031556812017122801A007A 003370003370                                    
HR5G801031556812017122801G010A 000207000207                                    
HR4G801031556910155390000313605                   ON1959608413    HCP    0078  
HR5G801031556912017122801A007A 003370003370                                    
HR4G801031557010155390000313607                   ON8204051844  HXHCP    0078  
HR5G801031557012017122801A007A 003370003370                                    
HR4G801031557110155390000313608                   ON6933809359    HCP    0078  
HR5G801031557112017122801A007A 003370003370                                    
HR4G801031557210155390000313609                   ON4742770318  BLHCP    0078  
HR5G801031557212017122801A007A 003370003370                                    
HR4G801031557310155390000313610                   ON5779064202  MNHCP    0078  
HR5G801031557312017122801A007A 003370003370                                    
HR4G801031557410155390000313611                   ON9583818456  FYHCP    0078  
HR5G801031557412017122801A007A 003370003370                                    
HR4G801031557510155390000313612                   ON1002664611  BYHCP    0078  
HR5G801031557512017122801A007A 003370003370                                    
HR5G801031557512017122801G010A 000207000207                                    
HR4G801162336410155390000313612                   ON1002664611  WYHCP    0078  
HR5G801162336412017122801A007A 003370000000 35                                 
HR5G801162336412017122801G010A 000207000000 35                                 
HR4G801031557610155390000313613                   ON7945559768  NEHCP    0078  
HR5G801031557612017122801A007A 003370003370                                    
HR4G801031557710155390000313615                   ON6290662797  TKHCP    0078  
HR5G801031557712017122801A007A 003370003370                                    
HR4G801031557810155390000313616                   ON5072477200  XNHCP    0078  
HR5G801031557812017122801A007A 003370003370                                    
HR4G801031557910155390000313617                   ON2571911995  HCHCP    0078  
HR5G801031557912017122801A007A 003370003370                                    
HR4G801031558010155390000313618                   ON3891166211  MCHCP    0078  
HR5G801031558012017122801A001A 002170002170                                    
HR4G801031558110155390000313619                   ON5864385553  PBHCP    0078  
HR5G801031558112017122801A007A 003370003370                                    
HR4G801031558210155390000313620                   ON3918422209  WTHCP    0078  
HR5G801031558212017122801A007A 007720003370 V8                                 
HR4G801031558310155390000313621                   ON7948685669  JDHCP    0078  
HR5G801031558312017122801A007A 003370003370                                    
HR4G801031558410155390000313622                   ON7026017272  CYHCP    0078  
HR5G801031558412017122801A007A 003370003370                                    
HR5G801031558412017122801G005A 000388000388                                    
HR5G801031558412017122801G010A 000207000207                                    
HR4G801031558510155390000313623                   ON9136339919  ATHCP    0078  
HR5G801031558512017122801A001A 002170002170                                    
HR5G801031558512017122801G372A 000389000389                                    
HR4G801031558610155390000313624                   ON7868412227  FHHCP    0078  
HR5G801031558612017122801A007A 003370003370                                    
HR4G801031558710155390000313625                   ON2886456249  JHHCP    0078  
HR5G801031558712017122801A007A 003370003370                                    
HR4G801031558810155390000313626                   ON9610565088  NRHCP    0078  
HR5G801031558812017122801A007A 003370003370                                    
HR4G801031558910155390000313627                   ON3556381352  MKHCP    0078  
HR5G801031558912017122801A007A 003370003370                                    
HR4G801031559010155390000313628                   ON5798599022  CCHCP    0078  
HR5G801031559012017122801A007A 003370003370                                    
HR4G801031559110155390000313629                   ON1843491794  RHHCP    0078  
HR5G801031559112017122801A007A 003370003370                                    
HR4G801031559210155390000313630                   ON5825914178  HPHCP    0078  
HR5G801031559212017122801A007A 003370003370                                    
HR4G801031559310155390000313631                   ON6329878646  JEHCP    0078  
HR5G801031559312017122801A007A 003370003370                                    
HR4G801031559410155390000313632                   ON9422899089  DKHCP    0078  
HR5G801031559412017122801A007A 003370003370                                    
HR4G801031559510155390000313633                   ON5071416530  JWHCP    0078  
HR5G801031559512017122801A007A 003370003370                                    
HR5G801031559512017122801G010A 000207000207                                    
HR4G801031559610155390000313634                   ON9347591837  YWHCP    0078  
HR5G801031559612017122801A007A 003370003370                                    
HR4G801031559710155390000313635                   ON3696530579  JLHCP    0078  
HR5G801031559712017122801A007A 003370003370                                    
HR4G801031559810155390000313636                   ON5628960790  DYHCP    0078  
HR5G801031559812017122801A007A 003370003370                                    
HR4G801031559910155390000313637                   ON7188251818  DTHCP    0078  
HR5G801031559912017122801A001A 002170002170                                    
HR4G801031560010155390000313638                   ON7443699587  GNHCP    0078  
HR5G801031560012017122801A007A 003370003370                                    
HR5G801031560012017122801G590A 000450000450                                    
HR4G801031560110155390000313639                   ON9147756747  KRHCP    0078  
HR5G801031560112017122801A007A 003370003370                                    
HR5G801031560112017122801G010A 000207000207                                    
HR4G801031560210155390000313640                   ON7009508669  LMHCP    0078  
HR5G801031560212017122801A007A 003370003370                                    
HR4G801031560310155390000313641                   ON5965556870  JWHCP    0078  
HR5G801031560312017122801A007A 003370003370                                    
HR4G801031560410155390000313642                   ON8452656443  WMHCP    0078  
HR5G801031560412017122801A007A 003370003370                                    
HR4G801031560510155390000313644                   ON3799479526  NDHCP    0078  
HR5G801031560512017122801A001A 002170002170                                    
HR4G801031560610155390000313645                   ON6453308188  AGHCP    0078  
HR5G801031560612017122801A007A 003370003370                                    
HR4G801031560710155390000313646                   ON9762967298  DGHCP    0078  
HR5G801031560712017122801A001A 002170002170                                    
HR5G801031560712017122801G420A 001125001125                                    
HR4G801031560810155390000313647                   ON1227152590  FBHCP    0078  
HR5G801031560812017122801A003A 007720007720                                    
HR5G801031560812017122801G010A 000207000207                                    
HR4G801031560910155390000313648                   ON8308058240  VNHCP    0078  
HR5G801031560912017122801A007A 003370003370                                    
HR4G801031561010155390000313649                   ON7783732931  MJHCP    0078  
HR5G801031561012017122801A007A 003370003370                                    
HR4G801031561110155390000313650                   ON7657248691  DBHCP    0078  
HR5G801031561112017122801A007A 003370003370                                    
HR4G801031561210155390000313651                   ON8588022312  HNHCP    0078  
HR5G801031561212017122801A007A 003370003370                                    
HR4G801031561310155390000313652                   ON6903753900  KCHCP    0078  
HR5G801031561312017122801A007A 003370003370                                    
HR4G801037191610155390000313653                   ON8645649594  RCHCP    0078  
HR5G801037191612017122901A007A 003370003370                                    
HR4G801037191710155390000313654                   ON4268182906  RTHCP    0078  
HR5G801037191712017122901A007A 003370003370                                    
HR4G801037191810155390000313655                   ON1200942785  LLHCP    0078  
HR5G801037191812017122901A007A 003370003370                                    
HR4G801037191910155390000313656                   ON5997828388  KEHCP    0078  
HR5G801037191912017122901A007A 003370003370                                    
HR4G801037192010155390000313657                   ON9516849032  CRHCP    0078  
HR5G801037192012017122901A007A 003370003370                                    
HR4G801037192110155390000313658                   ON8507383639  ERHCP    0078  
HR5G801037192112017122901A001A 002170002170                                    
HR5G801037192112017122901G372A 000389000389                                    
HR4G801037192210155390000313659                   ON8202669712  MCHCP    0078  
HR5G801037192212017122901A007A 003370003370                                    
HR4G801037192310155390000313660                   ON9380129875  REHCP    0078  
HR5G801037192312017122901A007A 003370003370                                    
HR4G801037192410155390000313661                   ON2030607101  PRHCP    0078  
HR5G801037192412017122901A007A 003370003370                                    
HR4G801037192510155390000313662                   ON2697100952  JWHCP    0078  
HR5G801037192512017122901A007A 003370003370                                    
HR4G801037192610155390000313663                   ON6356484797  TRHCP    0078  
HR5G801037192612017122901A007A 003370003370                                    
HR5G801037192612017122901G010A 000207000207                                    
HR4G801037192710155390000313664                   ON6357218285  TVHCP    0078  
HR5G801037192712017122901A007A 003370003370                                    
HR4G801037192810155390000313665                   ON6014360173  WWHCP    0078  
HR5G801037192812017122901A007A 003370003370                                    
HR4G801037192910155390000313666                   ON6045105175  MHHCP    0078  
HR5G801037192912017122901A007A 003370003370                                    
HR4G801037193010155390000313667                   ON8444681236  CFHCP    0078  
HR5G801037193012017122901A007A 003370003370                                    
HR4G801037193110155390000313668                   ON8907041118  CKHCP    0078  
HR5G801037193112017122901A007A 003370003370                                    
HR5G801037193112017122901G010A 000207000207                                    
HR4G801037193210155390000313669                   ON1649793302  YDHCP    0078  
HR5G801037193212017122901A007A 003370003370                                    
HR4G801037193310155390000313670                   ON5633790752  CMHCP    0078  
HR5G801037193312017122901A007A 003370003370                                    
HR4G801037193410155390000313671                   ON1650213091  KTHCP    0078  
HR5G801037193412017122901A007A 003370003370                                    
HR4G801037193510155390000313672                   ON2415734975  GGHCP    0078  
HR5G801037193512017122901A007A 003370003370                                    
HR4G801037193610155390000313674                   ON2172999779  KTHCP    0078  
HR5G801037193612017122901A007A 003370003370                                    
HR4G801037193710155390000313675                   ON7234741952  FWHCP    0078  
HR5G801037193712017122901A007A 003370003370                                    
HR4G801037193810155390000313676                   ON4333924951  FLHCP    0078  
HR5G801037193812017122901A007A 003370003370                                    
HR4G801037193910155390000313677                   ON2676101021  LFHCP    0078  
HR5G801037193912017122901A007A 003370003370                                    
HR4G801037194010155390000313678                   ON7041480182  VHHCP    0078  
HR5G801037194012017122901A007A 003370003370                                    
HR4G801037194110155390000313679                   ON6557542096  LPHCP    0078  
HR5G801037194112017122901A007A 003370003370                                    
HR4G801037194210155390000313680                   ON4106373337  RMHCP    0078  
HR5G801037194212017122901A007A 003370003370                                    
HR4G801037194310155390000313681                   ON8070943736  BKHCP    0078  
HR5G801037194312017122901A007A 003370003370                                    
HR4G801037194410155390000313682                   ON1815085707  AYHCP    0078  
HR5G801037194412017122901A007A 003370003370                                    
HR4G801037194510155390000313683                   ON8575089985  AXHCP    0078  
HR5G801037194512017122901A007A 003370003370                                    
HR4G801037194610155390000313684                   ON8989918142  ELHCP    0078  
HR5G801037194612017122901A007A 003370003370                                    
HR4G801037194710155390000313685                   ON5644097221  AXHCP    0078  
HR5G801037194712017122901A007A 003370003370                                    
HR4G801037194810155390000313686                   ON6121995242  VEHCP    0078  
HR5G801037194812017122901A007A 003370003370                                    
HR4G801037194910155390000313687                   ON6499302849  LEHCP    0078  
HR5G801037194912017122901A007A 003370003370                                    
HR4G801037195010155390000313688                   ON9597158758  FBHCP    0078  
HR5G801037195012017122901A007A 003370003370                                    
HR4G801037195110155390000313689                   ON8151766428  BRHCP    0078  
HR5G801037195112017122901A007A 003370003370                                    
HR4G801037195210155390000313690                   ON1384165153  MTHCP    0078  
HR5G801037195212017122901K005A 006275006275                                    
HR4G801037195310155390000313691                   ON3056104353  TWHCP    0078  
HR5G801037195312017122901A007A 003370003370                                    
HR4G801037195410155390000313692                   ON2450712514  LRHCP    0078  
HR5G801037195412017122901A007A 003370003370                                    
HR4G801037195510155390000313693                   ON7974080629  YEHCP    0078  
HR5G801037195512017122901A001A 002170002170                                    
HR5G801037195512017122901G372A 000389000389                                    
HR4G801037195610155390000313694                   ON5081533670  YFHCP    0078  
HR5G801037195612017122901A007A 003370003370                                    
HR4G801037195710155390000313695                   ON5394024318  XAHCP    0078  
HR5G801037195712017122901A007A 003370003370                                    
HR4G801037195810155390000313696                   ON6855938822  GFHCP    0078  
HR5G801037195812017122901A007A 003370003370                                    
HR4G801037195910155390000313705                   ON2661256624  PHHCP    0078  
HR5G801037195912017122901A007A 003370003370                                    
HR4G801031091510155390000313759                   ON5814753322  YEHCP    0078  
HR5G801031091512017123001A888A 003370003370                                    
HR5G801031091512017123001G372A 000389000389                                    
HR4G801031091610155390000313760                   ON4749764157  RMHCP    0078  
HR5G801031091612017123001A888A 003370003370                                    
HR4G801031091710155390000313761                   ON2571911995  HCHCP    0078  
HR5G801031091712017123001A888A 003370003370                                    
HR4G801031091810155390000313762                   ON5078320610  AVHCP    0078  
HR5G801031091812017123001A888A 003370003370                                    
HR4G801031091910155390000313763                   ON5501116429  FTHCP    0078  
HR5G801031091912017123001A888A 003370003370                                    
HR4G801031092010155390000313764                   ON4439776552  NPHCP    0078  
HR5G801031092012017123001A888A 003370003370                                    
HR4G801031092110155390000313765                   ON1481887741  VHHCP    0078  
HR5G801031092112017123001A888A 003370003370                                    
HR4G801031092210155390000313766                   ON5378641459  NWHCP    0078  
HR5G801031092212017123001A888A 003370003370                                    
HR4G801031092310155390000313767                   ON5733684921  CDHCP    0078  
HR5G801031092312017123001A888A 003370003370                                    
HR4G801031092410155390000313768                   ON7421483038  HFHCP    0078  
HR5G801031092412017123001A888A 003370003370                                    
HR4G801031092510155390000313769                   ON4463911034  HGHCP    0078  
HR5G801031092512017123001A888A 003370003370                                    
HR4G801031092610155390000313770                   ON2966568830  BEHCP    0078  
HR5G801031092612017123001A888A 003370003370                                    
HR4G801031092710155390000313771                   ON4753096819  EPHCP    0078  
HR5G801031092712017123001A888A 003370003370                                    
HR4G801031092810155390000313772                   ON5599579710  DFHCP    0078  
HR5G801031092812017123001A888A 003370003370                                    
HR5G801031092812017123001G010A 000207000207                                    
HR4G801031092910155390000313773                   ON9075273673  GPHCP    0078  
HR5G801031092912017123001A888A 003370003370                                    
HR4G801031093010155390000313774                   ON2138464546  TPHCP    0078  
HR5G801031093012017123001A888A 003370003370                                    
HR4G801031093110155390000313775                   ON1337427148  NTHCP    0078  
HR5G801031093112017123001A888A 003370003370                                    
HR4G801031093210155390000313779                   ON6568690116  ETHCP    0078  
HR5G801031093212017123001A888A 003370003370                                    
HR4G801031093310155390000313780                   ON8966016811  KCHCP    0078  
HR5G801031093312017123001A888A 003370003370                                    
HR4G801031093410155390000313781                   ON1841601097  DVHCP    0078  
HR5G801031093412017123001A888A 003370003370                                    
HR4G801031093510155390000313782                   ON5701757055  XWHCP    0078  
HR5G801031093512017123001A888A 003370003370                                    
HR4G801031093610155390000313783                   ON6751540326  NDHCP    0078  
HR5G801031093612017123001A888A 003370003370                                    
HR4G801031093710155390000313784                   ON4594950554  VWHCP    0078  
HR5G801031093712017123001A888A 003370003370                                    
HR4G801031093810155390000313785                   ON6046933781  JEHCP    0078  
HR5G801031093812017123001A888A 003370003370                                    
HR5G801031093812017123001G010A 000207000207                                    
HR4G801031093910155390000313786                   ON8357939639  FYHCP    0078  
HR5G801031093912017123001A888A 003370003370                                    
HR4G801031094010155390000313787                   ON9275364496  PYHCP    0078  
HR5G801031094012017123001A888A 003370003370                                    
HR5G801031094012017123001G372A 000389000389                                    
HR4G801031094110155390000313788                   ON2036110670  CLHCP    0078  
HR5G801031094112017123001A888A 003370003370                                    
HR4G801031094210155390000313789                   ON1378327348  HNHCP    0078  
HR5G801031094212017123001A888A 003370003370                                    
HR4G801031094310155390000313790                   ON5727315110  TRHCP    0078  
HR5G801031094312017123001A888A 003370003370                                    
HR4G801031094410155390000313791                   ON3564201337  ANHCP    0078  
HR5G801031094412017123001A888A 003370003370                                    
HR4G801031094510155390000313792                   ON4728126964  CEHCP    0078  
HR5G801031094512017123001A888A 003370003370                                    
HR4G801031094610155390000313793                   ON9754300854  EVHCP    0078  
HR5G801031094612017123001A888A 003370003370                                    
HR4G801031094710155390000313794                   ON1451737694  CTHCP    0078  
HR5G801031094712017123001A888A 003370003370                                    
HR4G801031094810155390000313795                   ON9223213431  NPHCP    0078  
HR5G801031094812017123001A888A 003370003370                                    
HR4G801031094910155390000313796                   ON3336407576  CWHCP    0078  
HR5G801031094912017123001A888A 003370003370                                    
HR4G801031095010155390000313797                   ON9102684983  CJHCP    0078  
HR5G801031095012017123001A888A 003370003370                                    
HR4G801031095110155390000313798                   ON6862882179  GWHCP    0078  
HR5G801031095112017123001A888A 003370003370                                    
HR4G801031095210155390000313799                   ON5487955105  BLHCP    0078  
HR5G801031095212017123001A888A 003370003370                                    
HR4G801031095310155390000313800                   ON3803454028  PVHCP    0078  
HR5G801031095312017123001A888A 003370003370                                    
HR4G801031095410155390000313801                   ON3107378717  JYHCP    0078  
HR5G801031095412017123001A888A 003370003370                                    
HR4G801031095510155390000313802                   ON2885378261  VHHCP    0078  
HR5G801031095512017123001A888A 003370003370                                    
HR4G801031095610155390000313803                   ON5282196004  LVHCP    0078  
HR5G801031095612017123001A888A 003370003370                                    
HR4G801031095710155390000313804                   ON1955720097  NYHCP    0078  
HR5G801031095712017123001A888A 003370003370                                    
HR4G801031095810155390000313805                   ON3440521106  PAHCP    0078  
HR5G801031095812017123001A888A 003370003370                                    
HR4G801031095910155390000313806                   ON6041793446  AXHCP    0078  
HR5G801031095912017123001A888A 003370003370                                    
HR4G801031096010155390000313807                   ON5392926233  MHHCP    0078  
HR5G801031096012017123001A888A 003370003370                                    
HR4G801031096110155390000313808                   ON6993724035  HWHCP    0078  
HR5G801031096112017123001A888A 003370003370                                    
HR5G801031096112017123001G010A 000207000207                                    
HR4G801031096210155390000313809                   ON5449825321  YCHCP    0078  
HR5G801031096212017123001A888A 003370003370                                    
HR4G801031096310155390000313810                   ON7684678290  DEHCP    0078  
HR5G801031096312017123001A888A 003370003370                                    
HR4G801031096410155390000313811                   ON6773832206  PGHCP    0078  
HR5G801031096412017123001A888A 003370003370                                    
HR4G801031096510155390000313812                   ON2616412207  NAHCP    0078  
HR5G801031096512017123001A888A 003370003370                                    
HR4G801031096610155390000313813                   ON2926261468  JKHCP    0078  
HR5G801031096612017123001A888A 003370003370                                    
HR4G801031096710155390000313814                   ON1371988757  VMHCP    0078  
HR5G801031096712017123001A888A 003370003370                                    
HR4G801031096810155390000313815                   ON8837701450    HCP    0078  
HR5G801031096812017123001A888A 003370003370                                    
HR4G801031096910155390000313816                   ON8826301908  MEHCP    0078  
HR5G801031096912017123001A888A 003370003370                                    
HR4G801039984910155390000313819                   ON5036957750    HCP    0078  
HR5G801039984912017123101A007A 003370003370                                    
HR4G801039985010155390000313820                   ON4190932048  MFHCP    0078  
HR5G801039985012017123101A007A 003370003370                                    
HR4G801039985110155390000313821                   ON9211755237  RMHCP    0078  
HR5G801039985112017123101A007A 003370003370                                    
HR4G801039985210155390000313822                   ON4013143872  LRHCP    0078  
HR5G801039985212017123101A007A 003370003370                                    
HR4G801039985310155390000313823                   ON7333542095  FKHCP    0078  
HR5G801039985312017123101A007A 003370003370                                    
HR4G801039985410155390000313824                   ON2052028962  CEHCP    0078  
HR5G801039985412017123101A007A 003370003370                                    
HR4G801039985510155390000313825                   ON6831125049  PAHCP    0078  
HR5G801039985512017123101A007A 003370003370                                    
HR4G801039985610155390000313826                   ON1904487293  NBHCP    0078  
HR5G801039985612017123101A007A 003370003370                                    
HR4G801039985710155390000313827                   ON6708099863  AEHCP    0078  
HR5G801039985712017123101A007A 003370003370                                    
HR4G801039985810155390000313828                   ON5637556324  WVHCP    0078  
HR5G801039985812017123101A007A 003370003370                                    
HR4G801039985910155390000313829                   ON7089783596  FMHCP    0078  
HR5G801039985912017123101A007A 003370003370                                    
HR4G801039986010155390000313830                   ON8895426891  HFHCP    0078  
HR5G801039986012017123101A007A 003370003370                                    
HR4G801039986110155390000313834                   ON6400315625    HCP    0078  
HR5G801039986112017123101A007A 003370003370                                    
HR5G801039986112017123101G010A 000207000207                                    
HR4G801039986210155390000313835                   ON4808132775  YXHCP    0078  
HR5G801039986212017123101A007A 003370003370                                    
HR5G801039986212017123101G010A 000207000207                                    
HR4G801039986310155390000313836                   ON9250272417  LBHCP    0078  
HR5G801039986312017123101A007A 003370003370                                    
HR4G801039986410155390000313837                   ON9485965975  KFHCP    0078  
HR5G801039986412017123101A007A 003370003370                                    
HR4G801039986510155390000313838                   ON4802798241  EWHCP    0078  
HR5G801039986512017123101A007A 003370003370                                    
HR4G801039986610155390000313839                   ON7560771979  GJHCP    0078  
HR5G801039986612017123101A007A 003370003370                                    
HR5G801039986612017123101G010A 000207000207                                    
HR4G801039986710155390000313840                   ON6005579336  NJHCP    0078  
HR5G801039986712017123101A007A 003370003370                                    
HR4G801039986810155390000313841                   ON6356484797  TRHCP    0078  
HR5G801039986812017123101A003A 007720007720                                    
HR4G801039986910155390000313842                   ON3810395552  KVHCP    0078  
HR5G801039986912017123101A007A 003370003370                                    
HR4G801039987010155390000313843                   ON9576471537  CTHCP    0078  
HR5G801039987012017123101A007A 003370003370                                    
HR5G801039987012017123101G010A 000207000207                                    
HR4G801039987110155390000313844                   ON2138464546  TPHCP    0078  
HR5G801039987112017123101A007A 003370003370                                    
HR4G801039987210155390000313845                   ON2599281629  GEHCP    0078  
HR5G801039987212017123101A007A 003370003370                                    
HR5G801039987212017123101G010A 000207000207                                    
HR4G801039987310155390000313846                   ON6300973440  DNHCP    0078  
HR5G801039987312017123101A007A 003370003370                                    
HR4G801039987410155390000313847                   ON4527213484  DTHCP    0078  
HR5G801039987412017123101A007A 003370003370                                    
HR4G801039987510155390000313849                   ON2621152574  YHHCP    0078  
HR5G801039987512017123101A007A 003370003370                                    
HR4G801039987610155390000313850                   ON1916481680  KDHCP    0078  
HR5G801039987612017123101A007A 003370003370                                    
HR4G801039987710155390000313851                   ON6996986680  RDHCP    0078  
HR5G801039987712017123101A007A 003370003370                                    
HR4G801039987810155390000313852                   ON9108360158  MNHCP    0078  
HR5G801039987812017123101A007A 003370003370                                    
HR4G801039987910155390000313853                   ON8765692069  WFHCP    0078  
HR5G801039987912017123101A007A 003370003370                                    
HR4G801039988010155390000313854                   ON2958633527  PVHCP    0078  
HR5G801039988012017123101A007A 003370003370                                    
HR4G801039988110155390000313855                   ON6435779696  LXHCP    0078  
HR5G801039988112017123101A001A 002170002170                                    
HR5G801039988112017123101G202A 000445000445                                    
HR4G801039988210155390000313856                   ON4476701513  YTHCP    0078  
HR5G801039988212017123101A003A 007720007720                                    
HR4G801039988310155390000313857                   ON2885597423  WGHCP    0078  
HR5G801039988312017123101A007A 003370003370                                    
HR4G801039988410155390000313858                   ON7731363219  GNHCP    0078  
HR5G801039988412017123101A007A 003370003370                                    
HR4G801039988510155390000313859                   ON3594432365  YJHCP    0078  
HR5G801039988512017123101A007A 003370003370                                    
HR4G801039988610155390000313860                   ON5113532393  HTHCP    0078  
HR5G801039988612017123101A007A 003370003370                                    
HR4G801039988710155390000313861                   ON7775868909  TYHCP    0078  
HR5G801039988712017123101A007A 003370003370                                    
HR4G801039988810155390000313862                   ON3191929011  ETHCP    0078  
HR5G801039988812017123101A007A 003370003370                                    
HR4G801039988910155390000313863                   ON8086123950  VHHCP    0078  
HR5G801039988912017123101A007A 003370003370                                    
HR4G801039989010155390000313864                   ON2076120555  FYHCP    0078  
HR5G801039989012017123101A007A 003370003370                                    
HR4G801039989110155390000313865                   ON5351170021  GPHCP    0078  
HR5G801039989112017123101A007A 003370003370                                    
HR4G801039989210155390000313866                   ON9465118678  XPHCP    0078  
HR5G801039989212017123101A007A 003370003370                                    
HR4G801039989310155390000313867                   ON1943362622  YVHCP    0078  
HR5G801039989312017123101A007A 003370003370                                    
HR4G801039989410155390000313868                   ON2841762954  KJHCP    0078  
HR5G801039989412017123101A007A 003370003370                                    
HR4G801041167310155390000313869                   ON8237034973    HCP    0078  
HR5G801041167312018010201A007A 003370003370                                    
HR4G801041167410155390000313870                   ON6363007888  LDHCP    0078  
HR5G801041167412018010201A007A 003370003370                                    
HR4G801041167510155390000313871                   ON2645034634  EFHCP    0078  
HR5G801041167512018010201A007A 003370003370                                    
HR4G801041167610155390000313872                   ON7240436498  GVHCP    0078  
HR5G801041167612018010201A007A 003370003370                                    
HR4G801041167710155390000313873                   ON2861346910  GCHCP    0078  
HR5G801041167712018010201A007A 003370003370                                    
HR4G801041167810155390000313874                   ON6152108319  MLHCP    0078  
HR5G801041167812018010201A007A 003370003370                                    
HR4G801041167910155390000313875                   ON3353134129  FFHCP    0078  
HR5G801041167912018010201A007A 003370003370                                    
HR4G801041168010155390000313876                   ON8349630791  CJHCP    0078  
HR5G801041168012018010201A007A 003370003370                                    
HR4G801041168110155390000313877                   ON7818403128  KDHCP    0078  
HR5G801041168112018010201A007A 003370003370                                    
HR4G801041168210155390000313878                   ON7612340229  NRHCP    0078  
HR5G801041168212018010201A007A 003370003370                                    
HR4G801041168310155390000313879                   ON2246836833  FLHCP    0078  
HR5G801041168312018010201A007A 003370003370                                    
HR4G801041168410155390000313880                   ON1611631506  VCHCP    0078  
HR5G801041168412018010201A007A 003370003370                                    
HR4G801041168510155390000313881                   ON3180346367  CAHCP    0078  
HR5G801041168512018010201A007A 003370003370                                    
HR4G801041168610155390000313882                   ON9394362165  BCHCP    0078  
HR5G801041168612018010201A007A 003370003370                                    
HR4G801041168710155390000313883                   ON6544543496    HCP    0078  
HR5G801041168712018010201A007A 003370003370                                    
HR4G801041168810155390000313884                   ON9206221302  EJHCP    0078  
HR5G801041168812018010201A001A 002170002170                                    
HR5G801041168812018010201G372A 000389000389                                    
HR4G801041168910155390000313885                   ON1044581088  LGHCP    0078  
HR5G801041168912018010201A007A 003370003370                                    
HR5G801041168912018010201G420A 001125001125                                    
HR4G801041169010155390000313886                   ON6942372357  BTHCP    0078  
HR5G801041169012018010201A007A 003370003370                                    
HR4G801041169110155390000313887                   ON7436303759  KJHCP    0078  
HR5G801041169112018010201A007A 003370003370                                    
HR4G801041169210155390000313888                   ON5237881692  LCHCP    0078  
HR5G801041169212018010201A001A 002170002170                                    
HR4G801041169310155390000313889                   ON8525276898  VJHCP    0078  
HR5G801041169312018010201A007A 003370003370                                    
HR4G801041169410155390000313890                   ON5780369699  DKHCP    0078  
HR5G801041169412018010201A007A 003370003370                                    
HR4G801041169510155390000313891                   ON8995963744  BTHCP    0078  
HR5G801041169512018010201A001A 002170002170                                    
HR4G801041169610155390000313892                   ON9351051413  RRHCP    0078  
HR5G801041169612018010201A007A 003370003370                                    
HR4G801041169710155390000313893                   ON6525209497  PMHCP    0078  
HR5G801041169712018010201A007A 003370003370                                    
HR4G801041169810155390000313894                   ON9552548795  XBHCP    0078  
HR5G801041169812018010201A007A 003370003370                                    
HR4G801041169910155390000313898                   ON3113981413  ERHCP    0078  
HR5G801041169912018010201A003A 007720007720                                    
HR4G801041170010155390000313899                   ON2038576969  WYHCP    0078  
HR5G801041170012018010201A007A 003370003370                                    
HR4G801041170110155390000313900                   ON2202896144  LVHCP    0078  
HR5G801041170112018010201A007A 003370003370                                    
HR4G801041170210155390000313901                   ON2764329153  YXHCP    0078  
HR5G801041170212018010201A007A 003370003370                                    
HR4G801041170310155390000313902                   ON6811548350  EFHCP    0078  
HR5G801041170312018010201A001A 002170002170                                    
HR4G801041170410155390000313903                   ON6241233128  MYHCP    0078  
HR5G801041170412018010201A007A 003370003370                                    
HR4G801041170510155390000313904                   ON7560771979  GJHCP    0078  
HR5G801041170512018010201A007A 003370003370                                    
HR4G801041170610155390000313905                   ON3213730645  RBHCP    0078  
HR5G801041170612018010201A007A 003370003370                                    
HR4G801041170710155390000313906                   ON7036872732  JJHCP    0078  
HR5G801041170712018010201A007A 003370003370                                    
HR4G801041170810155390000313907                   ON3158923916  ERHCP    0078  
HR5G801041170812018010201A007A 003370003370                                    
HR4G801041170910155390000313908                   ON5370110651  KPHCP    0078  
HR5G801041170912018010201A007A 003370003370                                    
HR4G801041171110155390000313910                   ON2948527367  HDHCP    0078  
HR5G801041171112018010201A007A 003370003370                                    
HR5G801041171112018010201G372A 000389000389                                    
HR4G801041171210155390000313911                   ON3885054738  VWHCP    0078  
HR5G801041171212018010201A001A 002170002170                                    
HR5G801041171212018010201G005A 000388000388                                    
HR4G801041171310155390000313912                   ON4362965255  RAHCP    0078  
HR5G801041171312018010201A007A 003370003370                                    
HR4G801041171410155390000313913                   ON8495303557  KXHCP    0078  
HR5G801041171412018010201A007A 003370003370                                    
HR4G801041171510155390000313914                   ON6501834474  PWHCP    0078  
HR5G801041171512018010201A007A 003370003370                                    
HR4G801041171610155390000313915                   ON7309722309  WBHCP    0078  
HR5G801041171612018010201A007A 003370003370                                    
HR5G801041171612018010201G010A 000207000207                                    
HR4G801041171710155390000313916                   ON6743448224  FLHCP    0078  
HR5G801041171712018010201A007A 003370003370                                    
HR4G801041171810155390000313917                   ON3667691533  DEHCP    0078  
HR5G801041171812018010201A001A 002170002170                                    
HR4G801041171910155390000313918                   ON6699299944  VMHCP    0078  
HR5G801041171912018010201A007A 003370003370                                    
HR4G801041172010155390000313919                   ON9758403878  KAHCP    0078  
HR5G801041172012018010201A007A 003370003370                                    
HR5G801041172012018010201G005A 000388000388                                    
HR5G801041172012018010201G010A 000207000207                                    
HR4G801041172110155390000313920                   ON6886193025  TPHCP    0078  
HR5G801041172112018010201A001A 002170002170                                    
HR5G801041172112018010201G372A 000389000389                                    
HR4G801041172210155390000313921                   ON6232918711  KDHCP    0078  
HR5G801041172212018010201A007A 003370003370                                    
HR4G801041172310155390000313922                   ON5974933508  HXHCP    0078  
HR5G801041172312018010201A007A 003370003370                                    
HR4G801041172410155390000313923                   ON9972250717  NAHCP    0078  
HR5G801041172412018010201A007A 003370003370                                    
HR4G801041172510155390000313924                   ON7373277149  MWHCP    0078  
HR5G801041172512018010201A007A 003370003370                                    
HR4G801041172610155390000313925                   ON5930513410  LKHCP    0078  
HR5G801041172612018010201A007A 003370003370                                    
HR4G801041172710155390000313926                   ON5301142021  JMHCP    0078  
HR5G801041172712018010201A007A 003370003370                                    
HR4G801041172810155390000313927                   ON6392422637  XEHCP    0078  
HR5G801041172812018010201A007A 003370003370                                    
HR4G801041172910155390000313930                   ON4448701948  DTHCP    0078  
HR5G801041172912018010201A001A 002170002170                                    
HR5G801041172912018010201G590A 000450000450                                    
HR4G801041173010155390000313931                   ON7013024612  DFHCP    0078  
HR5G801041173012018010201A001A 002170002170                                    
HR5G801041173012018010201G590A 000450000450                                    
HR4G801041173110155390000313932                   ON6206325703  MWHCP    0078  
HR5G801041173112018010201A903A 006505006505                                    
HR4G801041173210155390000313933                   ON4986012542  EVHCP    0078  
HR5G801041173212018010201A007A 003370003370                                    
HR5G801041173212018010201G005A 000388000388                                    
HR5G801041173212018010201G010A 000207000207                                    
HR4G801041173310155390000313934                   ON9488085722  CMHCP    0078  
HR5G801041173312018010201A001A 002170002170                                    
HR4G801041173410155390000313935                   ON5289030644  TDHCP    0078  
HR5G801041173412018010201A007A 003370003370                                    
HR5G801041173412018010201K053A 001500001500                                    
HR5G801041173412018010201K055A 002000002000                                    
HR4G801041173510155390000313936                   ON5911038874  KLHCP    0078  
HR5G801041173512018010201A007A 003370003370                                    
HR5G801041173512018010201G372A 000389000389                                    
HR4G801041173610155390000313937                   ON6329651274  XAHCP    0078  
HR5G801041173612018010201A007A 003370003370                                    
HR4G801041173710155390000313938                   ON4756096873  KKHCP    0078  
HR5G801041173712018010201A007A 003370003370                                    
HR4G801041173810155390000313939                   ON5639652345  RCHCP    0078  
HR5G801041173812018010201A007A 003370003370                                    
HR4G801041173910155390000313940                   ON8942281745  PHHCP    0078  
HR5G801041173912018010201A007A 003370003370                                    
HR4G801041174010155390000313941                   ON7408607708  NEHCP    0078  
HR5G801041174012018010201A007A 003370003370                                    
HR4G801041174110155390000313943                   ON2582811812  DFHCP    0078  
HR5G801041174112018010201A007A 003370003370                                    
HR4G801041174210155390000313944                   ON7972548858  HPHCP    0078  
HR5G801041174212018010201A007A 003370003370                                    
HR4G801041174310155390000313945                   ON1678620830  HFHCP    0078  
HR5G801041174312018010201A007A 003370003370                                    
HR4G801041174410155390000313946                   ON5202900220  HPHCP    0078  
HR5G801041174412018010201A007A 003370003370                                    
HR4G801041174510155390000313947                   ON6039088346  XLHCP    0078  
HR5G801041174512018010201A007A 003370003370                                    
HR4G801041174610155390000313948                   ON3638455786  WBHCP    0078  
HR5G801041174612018010201A007A 003370003370                                    
HR5G801041174612018010201G010A 000207000207                                    
HR4G801041174710155390000313950                   ON7677199072  XLHCP    0078  
HR5G801041174712018010201A007A 003370003370                                    
HR4G801041174810155390000313951                   ON9284459576  RFHCP    0078  
HR5G801041174812018010201A007A 003370003370                                    
HR5G801041174812018010201G372A 000389000389                                    
HR4G801041174910155390000313952                   ON4582509818  HGHCP    0078  
HR5G801041174912018010201A001A 002170002170                                    
HR4G801041175010155390000313953                   ON1521442796  DTHCP    0078  
HR5G801041175012018010201A007A 003370003370                                    
HR5G801041175012018010201G010A 000207000207                                    
HR4G801041175110155390000313954                   ON7757022814  YWHCP    0078  
HR5G801041175112018010201A007A 003370003370                                    
HR4G801041175210155390000313955                   ON7662236921  CPHCP    0078  
HR5G801041175212018010201A007A 003370003370                                    
HR5G801041175212018010201G010A 000207000207                                    
HR4G801041175310155390000313956                   ON2309634075  YFHCP    0078  
HR5G801041175312018010201A001A 002170002170                                    
HR4G801041175410155390000313957                   ON5856471262  CPHCP    0078  
HR5G801041175412018010201A001A 002170002170                                    
HR4G801041175510155390000313958                   ON9443205225  MGHCP    0078  
HR5G801041175512018010201A007A 003370003370                                    
HR4G801041175610155390000313959                   ON8857117645  RHHCP    0078  
HR5G801041175612018010201A001A 002170002170                                    
HR5G801041175612018010201G372A 000389000389                                    
HR4G801041175710155390000313960                   ON4271187306  TRHCP    0078  
HR5G801041175712018010201A001A 002170002170                                    
HR4G801041175810155390000313961                   ON7728675518  XCHCP    0078  
HR5G801041175812018010201A001A 002170002170                                    
HR5G801041175812018010201G372A 000389000389                                    
HR4G801041175910155390000313962                   ON5063531908  WWHCP    0078  
HR5G801041175912018010201A007A 003370003370                                    
HR4G801041176010155390000313963                   ON8869691850  NFHCP    0078  
HR5G801041176012018010201A007A 003370003370                                    
HR4G801041176110155390000313964                   ON9051658152  AYHCP    0078  
HR5G801041176112018010201A007A 003370003370                                    
HR4G801041176210155390000313965                   ON3809209889  ELHCP    0078  
HR5G801041176212018010201A007A 003370003370                                    
HR4G801041176310155390000313966                   ON6246072398  XRHCP    0078  
HR5G801041176312018010201A007A 003370003370                                    
HR4G801041176410155390000313968                   ON3491908004  YWHCP    0078  
HR5G801041176412018010201A007A 003370003370                                    
HR4G801041176510155390000313969                   ON3867632287  YJHCP    0078  
HR5G801041176512018010201A007A 003370003370                                    
HR4G801041176610155390000313970                   ON1557326137  KGHCP    0078  
HR5G801041176612018010201A003A 007720007720                                    
HR4G801041176710155390000313971                   ON3970794370  MFHCP    0078  
HR5G801041176712018010201A007A 003370003370                                    
HR4G801041176810155390000313972                   ON5789407870  AEHCP    0078  
HR5G801041176812018010201A007A 003370003370                                    
HR4G801041176910155390000313973                   ON1968065324  KKHCP    0078  
HR5G801041176912018010201A007A 003370003370                                    
HR4G801041177010155390000313974                   ON4783020268  TEHCP    0078  
HR5G801041177012018010201A007A 003370003370                                    
HR4G801041177110155390000313975                   ON3623966912  KEHCP    0078  
HR5G801041177112018010201A007A 003370003370                                    
HR4G801041177210155390000313976                   ON4349775751  HMHCP    0078  
HR5G801041177212018010201A007A 003370003370                                    
HR4G801041177310155390000313977                   ON1832300865  RHHCP    0078  
HR5G801041177312018010201A007A 003370003370                                    
HR4G801041177410155390000313978                   ON4632037257  EBHCP    0078  
HR5G801041177412018010201A007A 003370003370                                    
HR5G801041177412018010201G845A 000450000450                                    
HR4G801041177510155390000313979                   ON8117496656  DVHCP    0078  
HR5G801041177512018010201A007A 003370003370                                    
HR4G801041177610155390000313980                   ON1316830015  VEHCP    0078  
HR5G801041177612018010201A007A 003370003370                                    
HR4G801041177710155390000313981                   ON9253483987  PVHCP    0078  
HR5G801041177712018010201A007A 003370003370                                    
HR4G801041177810155390000313982                   ON7209905376    HCP    0078  
HR5G801041177812018010201A007A 003370003370                                    
HR5G801041177812018010201G005A 000388000388                                    
HR4G801041177910155390000313983                   ON3523809170  VBHCP    0078  
HR5G801041177912018010201A007A 003370003370                                    
HR4G801041178010155390000313984                   ON1261410714  JMHCP    0078  
HR5G801041178012018010201A007A 003370003370                                    
HR4G801041178110155390000313985                   ON8357939639  FYHCP    0078  
HR5G801041178112018010201A007A 003370003370                                    
HR4G801045372810155390000313986                   ON6267665708    HCP    0078  
HR5G801045372812018010301A007A 003370003370                                    
HR4G801045372910155390000313987                   ON9250272417  LBHCP    0078  
HR5G801045372912018010301A007A 003370003370                                    
HR4G801045373010155390000313988                   ON2554127189  NRHCP    0078  
HR5G801045373012018010301A007A 003370003370                                    
HR4G801045373110155390000313989                   ON2272333077  DKHCP    0078  
HR5G801045373112018010301A007A 003370003370                                    
HR5G801045373112018010301G847A 000450000450                                    
HR4G813041358910155390000313991                   ON5783097891  HXHCP    0078  
HR5G813041358912018010301A007A 003370003370                                    
HR4G813041359010155390000313992                   ON4509677045  AXHCP    0078  
HR5G813041359012018010301A007A 003370003370                                    
HR4G813041359110155390000313993                   ON3040859971  XGHCP    0078  
HR5G813041359112018010301A007A 003370003370                                    
HR4G813041359210155390000313994                   ON8157487813  KLHCP    0078  
HR5G813041359212018010301A007A 003370003370                                    
HR4G813041359310155390000313995                   ON4033066137  MEHCP    0078  
HR5G813041359312018010301A007A 003370003370                                    
HR4G813041359410155390000313996                   ON2648198535  DCHCP    0078  
HR5G813041359412018010301A007A 003370003370                                    
HR4G813041359510155390000313997                   ON9193373702  EEHCP    0078  
HR5G813041359512018010301A007A 003370003370                                    
HR4G813041359610155390000313998                   ON2121955559  DCHCP    0078  
HR5G813041359612018010301A007A 003370003370                                    
HR4G813041359710155390000313999                   ON9447978355  DWHCP    0078  
HR5G813041359712018010301A007A 003370003370                                    
HR4G813041359810155390000314000                   ON4109952509  GDHCP    0078  
HR5G813041359812018010301A007A 003370003370                                    
HR4G813041359910155390000314001                   ON4504806300  TRHCP    0078  
HR5G813041359912018010301A007A 003370003370                                    
HR4G813041360010155390000314002                   ON7055224948  KPHCP    0078  
HR5G813041360012018010301A007A 003370003370                                    
HR4G813041360110155390000314003                   ON7922635706  FNHCP    0078  
HR5G813041360112018010301A001A 002170002170                                    
HR5G813041360112018010301G372A 000389000389                                    
HR4G813041360210155390000314004                   ON2117433009  KLHCP    0078  
HR5G813041360212018010301A007A 003370003370                                    
HR4G813041360310155390000314005                   ON3126737067  CTHCP    0078  
HR5G813041360312018010301A007A 003370003370                                    
HR5G813041360312018010301G010A 000207000207                                    
HR4G813041360410155390000314006                   ON2919096921  KLHCP    0078  
HR5G813041360412018010301A007A 003370003370                                    
HR4G813041360510155390000314008                   ON4834487177  YLHCP    0078  
HR5G813041360512018010301A007A 003370003370                                    
HR4G813041360610155390000314009                   ON6585962894    HCP    0078  
HR5G813041360612018010301A007A 003370003370                                    
HR5G813041360612018010301G010A 000207000207                                    
HR4G813041360710155390000314010                   ON8900033740  TFHCP    0078  
HR5G813041360712018010301A007A 003370003370                                    
HR4G813041360810155390000314011                   ON6924683730  BHHCP    0078  
HR5G813041360812018010301A007A 003370003370                                    
HR4G813041360910155390000314012                   ON9188479431  BBHCP    0078  
HR5G813041360912018010301A007A 003370003370                                    
HR4G813041361010155390000314013                   ON3724216647  LAHCP    0078  
HR5G813041361012018010301A001A 002170002170                                    
HR5G813041361012018010301G202A 000445000445                                    
HR4G813041361110155390000314014                   ON1519047359  DCHCP    0078  
HR5G813041361112018010301A007A 003370003370                                    
HR4G813041361210155390000314015                   ON7866481612  HGHCP    0078  
HR5G813041361212018010301A007A 003370003370                                    
HR4G813041361310155390000314016                   ON1879201877  FYHCP    0078  
HR5G813041361312018010301A007A 003370003370                                    
HR5G813041361312018010301G010A 000207000207                                    
HR4G813041361410155390000314017                   ON4671881458  PEHCP    0078  
HR5G813041361412018010301A007A 003370003370                                    
HR4G813041361510155390000314018                   ON3161896372  BHHCP    0078  
HR5G813041361512018010301A007A 003370003370                                    
HR4G813041361610155390000314019                   ON5179811277  PCHCP    0078  
HR5G813041361612018010301A007A 003370003370                                    
HR4G813041361710155390000314020                   ON7031967990  RWHCP    0078  
HR5G813041361712018010301A001A 002170002170                                    
HR5G813041361712018010301G202A 000445000445                                    
HR4G813041361810155390000314021                   ON5655711843  MXHCP    0078  
HR5G813041361812018010301A007A 003370003370                                    
HR4G813041361910155390000314022                   ON7227783896  TCHCP    0078  
HR5G813041361912018010301A007A 003370003370                                    
HR4G813041362010155390000314023                   ON7374128846  NGHCP    0078  
HR5G813041362012018010301A007A 003370003370                                    
HR4G813041362110155390000314024                   ON8659876521  MXHCP    0078  
HR5G813041362112018010301A007A 003370003370                                    
HR4G813041362210155390000314025                   ON5609276224  PNHCP    0078  
HR5G813041362212018010301A007A 003370003370                                    
HR4G813041362310155390000314026                   ON8222523527  VMHCP    0078  
HR5G813041362312018010301A007A 003370003370                                    
HR4G813041362410155390000314027                   ON9371007460  KMHCP    0078  
HR5G813041362412018010301A007A 003370003370                                    
HR4G813041362510155390000314028                   ON6865978750  VYHCP    0078  
HR5G813041362512018010301A007A 003370003370                                    
HR4G813041362610155390000314029                   ON6164913458  ATHCP    0078  
HR5G813041362612018010301A007A 003370003370                                    
HR4G813041362710155390000314030                   ON6511550730  PGHCP    0078  
HR5G813041362712018010301A007A 003370003370                                    
HR4G813041362810155390000314031                   ON8896953851  VFHCP    0078  
HR5G813041362812018010301A007A 003370003370                                    
HR4G813041362910155390000314032                   ON9586965007  JDHCP    0078  
HR5G813041362912018010301A007A 003370003370                                    
HR4G813041363010155390000314033                   ON8208910284  KCHCP    0078  
HR5G813041363012018010301A007A 003370003370                                    
HR5G813041363012018010301G420A 001125001125                                    
HR4G813041363110155390000314034                   ON7071106657  LBHCP    0078  
HR5G813041363112018010301A007A 003370003370                                    
HR4G813041363210155390000314035                   ON4472971896  PGHCP    0078  
HR5G813041363212018010301A007A 003370003370                                    
HR4G813041363310155390000314036                   ON6914843336  KXHCP    0078  
HR5G813041363312018010301A007A 003370003370                                    
HR4G813041363410155390000314038                   ON4637626781  MHHCP    0078  
HR5G813041363412018010301A007A 003370003370                                    
HR4G813041363510155390000314039                   ON5537198706  HTHCP    0078  
HR5G813041363512018010301A007A 003370003370                                    
HR4G813041363610155390000314040                   ON8844260284  FBHCP    0078  
HR5G813041363612018010301A007A 003370003370                                    
HR4G813041363710155390000314041                   ON9563797266  WFHCP    0078  
HR5G813041363712018010301A007A 003370003370                                    
HR4G813041363810155390000314042                   ON3600557056  GMHCP    0078  
HR5G813041363812018010301A007A 003370003370                                    
HR4G813041363910155390000314043                   ON8761509713  KDHCP    0078  
HR5G813041363912018010301A001A 002170002170                                    
HR4G813041364010155390000314044                   ON6376499312  YFHCP    0078  
HR5G813041364012018010301A007A 003370003370                                    
HR4G813041364110155390000314045                   ON3148217130  BLHCP    0078  
HR5G813041364112018010301A007A 003370003370                                    
HR5G813041364112018010301G372A 000389000389                                    
HR4G813041364210155390000314047                   ON8626430287  YWHCP    0078  
HR5G813041364212018010301A007A 003370003370                                    
HR4G813041364310155390000314048                   ON7026017272  CYHCP    0078  
HR5G813041364312018010301A007A 003370003370                                    
HR4G813041364410155390000314049                   ON7705549520  JTHCP    0078  
HR5G813041364412018010301A007A 003370003370                                    
HR4G813041364510155390000314050                   ON4965167564  LCHCP    0078  
HR5G813041364512018010301A007A 003370003370                                    
HR4G813041364610155390000314051                   ON6926582385  MEHCP    0078  
HR5G813041364612018010301A007A 003370003370                                    
HR4G813041364710155390000314052                   ON7616055013  GPHCP    0078  
HR5G813041364712018010301A007A 003370003370                                    
HR4G813041364810155390000314053                   ON5783307050  AMHCP    0078  
HR5G813041364812018010301A007A 003370003370                                    
HR4G813041364910155390000314054                   ON4792880637  EDHCP    0078  
HR5G813041364912018010301A007A 003370003370                                    
HR4G813041365010155390000314055                   ON5475086954  MLHCP    0078  
HR5G813041365012018010301A007A 003370003370                                    
HR4G813041365110155390000314056                   ON4056162037  NHHCP    0078  
HR5G813041365112018010301A007A 003370003370                                    
HR4G813041365210155390000314057                   ON8491221878  RXHCP    0078  
HR5G813041365212018010301A007A 003370003370                                    
HR5G813041365212018010301G010A 000207000207                                    
HR4G813041365310155390000314058                   ON1391527106  XTHCP    0078  
HR5G813041365312018010301A001A 002170002170                                    
HR4G813041365410155390000314059                   ON7119807258  NJHCP    0078  
HR5G813041365412018010301A007A 003370003370                                    
HR4G813041365510155390000314060                   ON5653021237  JJHCP    0078  
HR5G813041365512018010301A007A 003370003370                                    
HR4G813041365610155390000314061                   ON5796830080  MKHCP    0078  
HR5G813041365612018010301A007A 003370003370                                    
HR4G813041365710155390000314062                   ON5358004249  RYHCP    0078  
HR5G813041365712018010301A007A 003370003370                                    
HR4G813041365810155390000314063                   ON1475917850  NLHCP    0078  
HR5G813041365812018010301A007A 003370003370                                    
HR4G813041365910155390000314064                   ON8981986386  WLHCP    0078  
HR5G813041365912018010301A007A 003370003370                                    
HR4G813041366010155390000314065                   ON9981171680  DDHCP    0078  
HR5G813041366012018010301A007A 003370003370                                    
HR5G813041366012018010301G841A 000450000450                                    
HR4G813041366110155390000314066                   ON6154994021  BKHCP    0078  
HR5G813041366112018010301A007A 003370003370                                    
HR4G813041366210155390000314067                   ON4546577703  BRHCP    0078  
HR5G813041366212018010301A001A 002170002170                                    
HR5G813041366212018010301G372A 000389000389                                    
HR4G813041366310155390000314068                   ON9599298172  XTHCP    0078  
HR5G813041366312018010301A001A 002170002170                                    
HR4G813041366410155390000314069                   ON5930125744  CRHCP    0078  
HR5G813041366412018010301A007A 003370003370                                    
HR4G813041366510155390000314070                   ON1132304757  CVHCP    0078  
HR5G813041366512018010301A007A 003370003370                                    
HR4G813041366610155390000314071                   ON4683941399  EXHCP    0078  
HR5G813041366612018010301A007A 003370003370                                    
HR5G813041366612018010301G840A 000450000450                                    
HR4G813041366710155390000314072                   ON2977349246  LKHCP    0078  
HR5G813041366712018010301A007A 003370003370                                    
HR5G813041366712018010301G840A 000450000450                                    
HR4G813041366810155390000314073                   ON3156528279  DWHCP    0078  
HR5G813041366812018010301A007A 003370003370                                    
HR5G813041366812018010301G845A 000450000450                                    
HR4G813041366910155390000314074                   ON2771787138  TCHCP    0078  
HR5G813041366912018010301A001A 002170002170                                    
HR4G813041367010155390000314075                   ON5162409352  KWHCP    0078  
HR5G813041367012018010301A007A 003370003370                                    
HR4G813041367110155390000314076                   ON2354372340  XHHCP    0078  
HR5G813041367112018010301A007A 003370003370                                    
HR4G813041367210155390000314077                   ON8514978488  LVHCP    0078  
HR5G813041367212018010301A007A 003370003370                                    
HR4G801058441110155390000314078                   ON6340139994  PFHCP    0078  
HR5G801058441112018010401A007A 003370003370                                    
HR4G801058441210155390000314079                   ON4545175558  PGHCP    0078  
HR5G801058441212018010401A007A 003370003370                                    
HR4G801058441310155390000314080                   ON9945634393  YPHCP    0078  
HR5G801058441312018010401A007A 003370003370                                    
HR4G801058441410155390000314081                   ON6012807431  JWHCP    0078  
HR5G801058441412018010401A007A 003370003370                                    
HR4G801058441510155390000314082                   ON5915777642  PGHCP    0078  
HR5G801058441512018010401A007A 003370003370                                    
HR5G801058441512018010401G372A 000389000389                                    
HR4G801058441610155390000314084                   ON9647137133  FDHCP    0078  
HR5G801058441612018010401A007A 003370003370                                    
HR4G801058441710155390000314085                   ON4000957938  PAHCP    0078  
HR5G801058441712018010401A007A 003370003370                                    
HR4G801058441810155390000314086                   ON5714498788  HDHCP    0078  
HR5G801058441812018010401A007A 003370003370                                    
HR4G801058441910155390000314087                   ON7130727212  HHHCP    0078  
HR5G801058441912018010401A007A 003370003370                                    
HR4G801058442010155390000314088                   ON4282120635  NBHCP    0078  
HR5G801058442012018010401A007A 003370003370                                    
HR4G801058442110155390000314089                   ON3589823206  PMHCP    0078  
HR5G801058442112018010401A007A 003370003370                                    
HR4G801058442210155390000314090                   ON1502071671  CAHCP    0078  
HR5G801058442212018010401A007A 003370003370                                    
HR4G801058442310155390000314091                   ON7843155453  BTHCP    0078  
HR5G801058442312018010401A007A 003370003370                                    
HR4G801058442410155390000314092                   ON7279876457  AKHCP    0078  
HR5G801058442412018010401A007A 003370003370                                    
HR4G801058442510155390000314093                   ON5740268866  ERHCP    0078  
HR5G801058442512018010401A007A 003370003370                                    
HR4G801058442610155390000314094                   ON4510164934  YDHCP    0078  
HR5G801058442612018010401A001A 002170002170                                    
HR4G801058442710155390000314095                   ON2273017067  YMHCP    0078  
HR5G801058442712018010401A007A 003370003370                                    
HR4G801058442810155390000314096                   ON6752834298  CVHCP    0078  
HR5G801058442812018010401A007A 003370003370                                    
HR4G801162336510155390000314097                   ON1002664611  WYHCP    0078  
HR5G801162336512018010401A007A 003370003370                                    
HR5G801162336512018010401G005A 000388000388                                    
HR4G801058443010155390000314098                   ON5796830080  MKHCP    0078  
HR5G801058443012018010401A007A 003370003370                                    
HR4G801058443110155390000314099                   ON3225819535  MCHCP    0078  
HR5G801058443112018010401A007A 003370003370                                    
HR4G801058443210155390000314100                   ON4463911034  HGHCP    0078  
HR5G801058443212018010401A007A 003370003370                                    
HR4G801058443310155390000314101                   ON1917245159  TGHCP    0078  
HR5G801058443312018010401A007A 003370003370                                    
HR4G801058443410155390000314102                   ON4304549498  XKHCP    0078  
HR5G801058443412018010401A007A 003370003370                                    
HR4G801058443510155390000314103                   ON6368013238  KRHCP    0078  
HR5G801058443512018010401A007A 003370003370                                    
HR5G801058443512018010401G010A 000207000207                                    
HR4G801058443610155390000314104                   ON8081459128  LDHCP    0078  
HR5G801058443612018010401A007A 003370003370                                    
HR4G801058443710155390000314105                   ON4344656840  DFHCP    0078  
HR5G801058443712018010401A007A 003370003370                                    
HR4G801058443810155390000314106                   ON5497658301  GEHCP    0078  
HR5G801058443812018010401A007A 003370003370                                    
HR4G801058443910155390000314107                   ON7969694996  HJHCP    0078  
HR5G801058443912018010401A003A 007720007720                                    
HR4G801058444010155390000314108                   ON4589221557  FKHCP    0078  
HR5G801058444012018010401A007A 003370003370                                    
HR4G801058444110155390000314109                   ON7094362097  GTHCP    0078  
HR5G801058444112018010401A007A 003370003370                                    
HR4G801058444210155390000314110                   ON5529150657  TTHCP    0078  
HR5G801058444212018010401A007A 003370003370                                    
HR4G801058444310155390000314111                   ON1575523517  LBHCP    0078  
HR5G801058444312018010401A007A 003370003370                                    
HR4G801058444410155390000314112                   ON4174819104  LAHCP    0078  
HR5G801058444412018010401A007A 003370003370                                    
HR4G801058444510155390000314113                   ON7037511545  NEHCP    0078  
HR5G801058444512018010401A007A 003370003370                                    
HR4G801058444610155390000314115                   ON5072477200  XNHCP    0078  
HR5G801058444612018010401A007A 003370003370                                    
HR4G801058444710155390000314116                   ON8961206508  CHHCP    0078  
HR5G801058444712018010401K028A 006275006275                                    
HR4G801058444810155390000314117                   ON4174962748  AJHCP    0078  
HR5G801058444812018010401A007A 003370003370                                    
HR5G801058444812018010401G010A 000207000207                                    
HR4G801058444910155390000314118                   ON2926261468  JKHCP    0078  
HR5G801058444912018010401A007A 003370003370                                    
HR4G801058445010155390000314119                   ON5576289481  WNHCP    0078  
HR5G801058445012018010401A007A 003370003370                                    
HR4G801058445110155390000314120                   ON8222523527  VMHCP    0078  
HR5G801058445112018010401A007A 003370003370                                    
HR4G801058445210155390000314121                   ON9880410775  BWHCP    0078  
HR5G801058445212018010401A007A 003370003370                                    
HR4G801058445310155390000314122                   ON3047891233  BWHCP    0078  
HR5G801058445312018010401A001A 002170002170                                    
HR5G801058445312018010401G590A 000450000450                                    
HR4G801058445410155390000314124                   ON7530365720  HWHCP    0078  
HR5G801058445412018010401A007A 003370003370                                    
HR4G801058445510155390000314125                   ON2380653432  WPHCP    0078  
HR5G801058445512018010401A001A 002170002170                                    
HR5G801058445512018010401G420A 001125001125                                    
HR4G801058445610155390000314126                   ON9897216470  TDHCP    0078  
HR5G801058445612018010401A001A 002170002170                                    
HR5G801058445612018010401G202A 000445000445                                    
HR4G801058445710155390000314127                   ON8505557143  WJHCP    0078  
HR5G801058445712018010401A007A 003370003370                                    
HR5G801058445712018010401G005A 000388000388                                    
HR4G801058445810155390000314129                   ON1438703215  KNHCP    0078  
HR5G801058445812018010401A007A 003370003370                                    
HR4G801058445910155390000314130                   ON4073220362  DVHCP    0078  
HR5G801058445912018010401A007A 003370003370                                    
HR4G801058446010155390000314131                   ON2301305609  GFHCP    0078  
HR5G801058446012018010401A007A 003370003370                                    
HR4G801058446110155390000314132                   ON2338902642  NHHCP    0078  
HR5G801058446112018010401A007A 003370003370                                    
HR4G801058446210155390000314133                   ON3047197912  CPHCP    0078  
HR5G801058446212018010401A007A 003370003370                                    
HR4G801058446310155390000314134                   ON4209532300  VGHCP    0078  
HR5G801058446312018010401A007A 003370003370                                    
HR4G801058446410155390000314135                   ON8584423472  ARHCP    0078  
HR5G801058446412018010401A007A 003370003370                                    
HR4G801058446510155390000314136                   ON8835339337  VNHCP    0078  
HR5G801058446512018010401A007A 003370003370                                    
HR4G801058446610155390000314137                   ON7818388154  VAHCP    0078  
HR5G801058446612018010401A007A 003370003370                                    
HR5G801058446612018010401G010A 000207000207                                    
HR4G801058446710155390000314138                   ON3741075455  GRHCP    0078  
HR5G801058446712018010401A007A 003370003370                                    
HR4G801058446810155390000314139                   ON1413767151  ACHCP    0078  
HR5G801058446812018010401A007A 003370003370                                    
HR4G801058446910155390000314140                   ON7772929118  BGHCP    0078  
HR5G801058446912018010401A001A 002170002170                                    
HR4G801058447010155390000314141                   ON3122825304  VYHCP    0078  
HR5G801058447012018010401A007A 003370003370                                    
HR4G801058447110155390000314142                   ON6186919962  RMHCP    0078  
HR5G801058447112018010401A007A 003370003370                                    
HR4G801058447210155390000314143                   ON4433751601  EFHCP    0078  
HR5G801058447212018010401A007A 003370003370                                    
HR4G801058447310155390000314144                   ON6434469166  YVHCP    0078  
HR5G801058447312018010401A007A 003370003370                                    
HR5G801058447312018010401G005A 000388000388                                    
HR4G801058447410155390000314145                   ON7109365499  TAHCP    0078  
HR5G801058447412018010401A007A 003370003370                                    
HR4G801058447510155390000314146                   ON6810956844  BLHCP    0078  
HR5G801058447512018010401A007A 003370003370                                    
HR4G801058447610155390000314147                   ON1458922760  JJHCP    0078  
HR5G801058447612018010401A007A 003370003370                                    
HR4G801058447710155390000314148                   ON3899170629  KBHCP    0078  
HR5G801058447712018010401A007A 003370003370                                    
HR4G801058447810155390000314149                   ON1804956520  NAHCP    0078  
HR5G801058447812018010401A007A 003370003370                                    
HR4G801058447910155390000314150                   ON9835551517  XWHCP    0078  
HR5G801058447912018010401A007A 003370003370                                    
HR4G801058448010155390000314151                   ON8419245074  EBHCP    0078  
HR5G801058448012018010401A007A 003370003370                                    
HR4G801058448110155390000314153                   ON7292481095  LNHCP    0078  
HR5G801058448112018010401A007A 003370003370                                    
HR4G801058448210155390000314154                   ON8063643236  NXHCP    0078  
HR5G801058448212018010401A003A 007720007720                                    
HR4G801058448310155390000314155                   ON4048656757  EXHCP    0078  
HR5G801058448312018010401A007A 003370003370                                    
HR4G801058448410155390000314156                   ON3156645586  GKHCP    0078  
HR5G801058448412018010401A007A 003370003370                                    
HR5G801058448412018010401G372A 000389000389                                    
HR4G801058448510155390000314157                   ON9569242986  KEHCP    0078  
HR5G801058448512018010401A001A 002170002170                                    
HR4G801058448610155390000314158                   ON1721709176  VJHCP    0078  
HR5G801058448612018010401A007A 003370003370                                    
HR5G801058448612018010401G844A 000450000450                                    
HR4G801058448710155390000314159                   ON6933809359    HCP    0078  
HR5G801058448712018010401A007A 003370003370                                    
HR4G801058448810155390000314160                   ON9112729992  FXHCP    0078  
HR5G801058448812018010401A007A 003370003370                                    
HR4G801058448910155390000314161                   ON1499514147  MMHCP    0078  
HR5G801058448912018010401A007A 003370003370                                    
HR4G801058449010155390000314162                   ON4087713709  CPHCP    0078  
HR5G801058449012018010401A007A 003370003370                                    
HR4G801058449110155390000314163                   ON4098604202  LTHCP    0078  
HR5G801058449112018010401A007A 003370003370                                    
HR4G801058449210155390000314164                   ON5066393397  KAHCP    0078  
HR5G801058449212018010401A007A 003370003370                                    
HR4G801058449310155390000314165                   ON2999235746  KRHCP    0078  
HR5G801058449312018010401A007A 003370003370                                    
HR4G801058449410155390000314166                   ON6759644948  HFHCP    0078  
HR5G801058449412018010401A007A 003370003370                                    
HR4G801058449510155390000314167                   ON2212056937  KWHCP    0078  
HR5G801058449512018010401A001A 002170002170                                    
HR4G801058449610155390000314168                   ON5463374289  TYHCP    0078  
HR5G801058449612018010401A007A 003370003370                                    
HR4G801058449710155390000314169                   ON7207074597  TPHCP    0078  
HR5G801058449712018010401A007A 003370003370                                    
HR5G801058449712018010401G010A 000207000207                                    
HR4G801058449810155390000314170                   ON7765950766  HTHCP    0078  
HR5G801058449812018010401A007A 003370003370                                    
HR4G801058449910155390000314171                   ON8652375042  KFHCP    0078  
HR5G801058449912018010401A007A 003370003370                                    
HR4G801058450010155390000314172                   ON5363562439  RLHCP    0078  
HR5G801058450012018010401A007A 003370003370                                    
HR4G801058450110155390000314173                   ON8091153224  LNHCP    0078  
HR5G801058450112018010401A003A 007720007720                                    
HR4G801058450210155390000314174                   ON9907188628  PEHCP    0078  
HR5G801058450212018010401A007A 003370003370                                    
HR4G801058450310155390000314175                   ON8874799573    HCP    0078  
HR5G801058450312018010401A007A 003370003370                                    
HR4G801081992510155390000314176                   ON6430035276  FCHCP    0078  
HR5G801081992512018010501A007A 003370003370                                    
HR4G801081992610155390000314177                   ON2439348620  TXHCP    0078  
HR5G801081992612018010501A007A 003370003370                                    
HR4G801081992710155390000314178                   ON2772061863  KBHCP    0078  
HR5G801081992712018010501A007A 003370003370                                    
HR5G801081992712018010501G010A 000207000207                                    
HR4G801081992810155390000314179                   ON9493908751  AKHCP    0078  
HR5G801081992812018010501A007A 003370003370                                    
HR4G801081992910155390000314180                   ON8923548138  DXHCP    0078  
HR5G801081992912018010501A007A 003370003370                                    
HR5G801081992912018010501G010A 000207000207                                    
HR4G801081993010155390000314181                   ON8895426891  HFHCP    0078  
HR5G801081993012018010501A007A 003370003370                                    
HR4G801081993110155390000314182                   ON4814952091  NNHCP    0078  
HR5G801081993112018010501A007A 003370003370                                    
HR4G801081993210155390000314183                   ON4753096819  EPHCP    0078  
HR5G801081993212018010501A007A 003370003370                                    
HR4G801081993310155390000314184                   ON1723612873  FKHCP    0078  
HR5G801081993312018010501A007A 003370003370                                    
HR4G801081993410155390000314185                   ON5287694599  MHHCP    0078  
HR5G801081993412018010501A007A 003370003370                                    
HR5G801081993412018010501G010A 000207000207                                    
HR5G801081993412018010501G372A 000389000389                                    
HR4G801081993510155390000314186                   ON3816873057  LPHCP    0078  
HR5G801081993512018010501A007A 003370003370                                    
HR4G801081993610155390000314187                   ON7786290291  FHHCP    0078  
HR5G801081993612018010501A001A 002170002170                                    
HR5G801081993612018010501G420A 001125001125                                    
HR4G801081993710155390000314188                   ON6790084500  FEHCP    0078  
HR5G801081993712018010501A007A 003370003370                                    
HR4G801081993810155390000314189                   ON4847158260  NXHCP    0078  
HR5G801081993812018010501A001A 002170002170                                    
HR5G801081993812018010501G372A 000389000389                                    
HR4G801081993910155390000314191                   ON6204319708  KHHCP    0078  
HR5G801081993912018010501A007A 003370003370                                    
HR4G801081994010155390000314192                   ON2436721423  VKHCP    0078  
HR5G801081994012018010501A007A 003370003370                                    
HR4G801081994110155390000314193                   ON7273564836  KTHCP    0078  
HR5G801081994112018010501A007A 003370003370                                    
HR4G801081994210155390000314194                   ON6475216971  PXHCP    0078  
HR5G801081994212018010501A007A 003370003370                                    
HR4G801081994310155390000314195                   ON3344080597  KGHCP    0078  
HR5G801081994312018010501A007A 003370003370                                    
HR4G801081994410155390000314196                   ON3468239649  CXHCP    0078  
HR5G801081994412018010501A007A 003370003370                                    
HR4G801081994510155390000314197                   ON1709295206  LJHCP    0078  
HR5G801081994512018010501A007A 003370003370                                    
HR4G801081994610155390000314198                   ON8623602862  KAHCP    0078  
HR5G801081994612018010501A007A 003370003370                                    
HR4G801081994710155390000314199                   ON6730594873  FWHCP    0078  
HR5G801081994712018010501A007A 003370003370                                    
HR4G801081994810155390000314200                   ON8866243242  PYHCP    0078  
HR5G801081994812018010501A007A 003370003370                                    
HR4G801081994910155390000314202                   ON2615841679  VMHCP    0078  
HR5G801081994912018010501A007A 003370003370                                    
HR4G801081995010155390000314203                   ON7772559998  YWHCP    0078  
HR5G801081995012018010501A007A 003370003370                                    
HR4G801081995110155390000314204                   ON3914823897  LDHCP    0078  
HR5G801081995112018010501A007A 003370003370                                    
HR4G801081995210155390000314205                   ON4713803726  NVHCP    0078  
HR5G801081995212018010501A007A 003370003370                                    
HR4G801081995310155390000314206                   ON8147154770  HFHCP    0078  
HR5G801081995312018010501A007A 003370003370                                    
HR4G801081995410155390000314207                   ON4050787185  CFHCP    0078  
HR5G801081995412018010501A007A 003370003370                                    
HR4G801081995510155390000314208                   ON6062472037  VXHCP    0078  
HR5G801081995512018010501A001A 002170002170                                    
HR4G801081995610155390000314210                   ON6006051681  EYHCP    0078  
HR5G801081995612018010501A001A 002170002170                                    
HR5G801081995612018010501G590A 000450000450                                    
HR4G801081995710155390000314211                   ON7866015626  RDHCP    0078  
HR5G801081995712018010501A001A 002170002170                                    
HR5G801081995712018010501G590A 000450000450                                    
HR4G801081995810155390000314212                   ON1560702266  AVHCP    0078  
HR5G801081995812018010501A001A 002170002170                                    
HR5G801081995812018010501G590A 000450000450                                    
HR4G801081995910155390000314213                   ON4553768955  GXHCP    0078  
HR5G801081995912018010501A007A 003370003370                                    
HR4G801081996010155390000314214                   ON8137021104  GNHCP    0078  
HR5G801081996012018010501A007A 003370003370                                    
HR5G801081996012018010501G590A 000450000450                                    
HR4G801162336610155390000314215                   ON5510105843  KXHCP    0078  
HR5G801162336612018010501A007A 003370003370                                    
HR4G801081996210155390000314216                   ON1059146090  RTHCP    0078  
HR5G801081996212018010501A001A 002170002170                                    
HR5G801081996212018010501G590A 000450000450                                    
HR4G801081996310155390000314217                   ON7182987078  EHHCP    0078  
HR5G801081996312018010501A007A 003370003370                                    
HR4G801081996410155390000314218                   ON9646635251  KFHCP    0078  
HR5G801081996412018010501A007A 003370003370                                    
HR5G801081996412018010501G010A 000207000207                                    
HR4G801081996510155390000314219                   ON1907471096  WGHCP    0078  
HR5G801081996512018010501A007A 003370003370                                    
HR5G801081996512018010501G010A 000207000207                                    
HR4G801081996610155390000314220                   ON9613118299  WAHCP    0078  
HR5G801081996612018010501A007A 003370003370                                    
HR5G801081996612018010501G847A 000450000450                                    
HR4G801081996710155390000314221                   ON7000370440  NJHCP    0078  
HR5G801081996712018010501A007A 003370003370                                    
HR4G801081996810155390000314222                   ON2621152574  YHHCP    0078  
HR5G801081996812018010501A007A 003370003370                                    
HR4G801081996910155390000314223                   ON6327417595  XEHCP    0078  
HR5G801081996912018010501A001A 002170002170                                    
HR5G801081996912018010501G372A 000675000389 D3                                 
HR4G801081997010155390000314225                   ON1172930297  NYHCP    0078  
HR5G801081997012018010501A007A 003370003370                                    
HR4G801081997110155390000314226                   ON2612377198  BHHCP    0078  
HR5G801081997112018010501A007A 003370003370                                    
HR4G801081997210155390000314227                   ON8299343973  MTHCP    0078  
HR5G801081997212018010501A007A 003370003370                                    
HR4G801081997310155390000314228                   ON1363668979  KHHCP    0078  
HR5G801081997312018010501A007A 003370003370                                    
HR4G801081997410155390000314229                   ON8670489288  LRHCP    0078  
HR5G801081997412018010501A007A 003370003370                                    
HR4G801081997510155390000314230                   ON6796819198  TTHCP    0078  
HR5G801081997512018010501A007A 003370003370                                    
HR4G801081997610155390000314231                   ON4206951503  WMHCP    0078  
HR5G801081997612018010501A007A 003370003370                                    
HR4G801081997710155390000314232                   ON5435294268  FEHCP    0078  
HR5G801081997712018010501A007A 003370003370                                    
HR4G801081997810155390000314233                   ON8375200204  ELHCP    0078  
HR5G801081997812018010501A007A 003370003370                                    
HR4G801081997910155390000314234                   ON7966236924  TRHCP    0078  
HR5G801081997912018010501A007A 003370003370                                    
HR4G801081998010155390000314235                   ON6897587876  YLHCP    0078  
HR5G801081998012018010501A007A 003370003370                                    
HR4G801081998110155390000314236                   ON1754397535  VCHCP    0078  
HR5G801081998112018010501A007A 003370003370                                    
HR5G801081998112018010501G372A 000389000389                                    
HR4G801081998210155390000314238                   ON9307635103  NFHCP    0078  
HR5G801081998212018010501A007A 003370003370                                    
HR5G801081998212018010501G010A 000207000207                                    
HR4G801081998310155390000314239                   ON3560061990  RKHCP    0078  
HR5G801081998312018010501A001A 002170002170                                    
HR5G801081998312018010501G420A 001125001125                                    
HR4G801081998410155390000314240                   ON4524321421  RCHCP    0078  
HR5G801081998412018010501A007A 003370003370                                    
HR4G801081998510155390000314241                   ON2957996529  YJHCP    0078  
HR5G801081998512018010501A007A 003370003370                                    
HR4G801081998610155390000314242                   ON2589852215  JMHCP    0078  
HR5G801081998612018010501A007A 003370003370                                    
HR4G801081998710155390000314243                   ON3107921060  LTHCP    0078  
