HR1V030007800000000H720180314STONEY CREEK MEDICAL WALK IN C007934825 99999999  
HR2                              2A - 140 CENTENNIAL PARKW                     
HR3HAMILTON        ON L8E1H9                                                   
HR4G814061881310155390000307257                   ON8028523754  BXHCP    0078  
HR5G814061881312017100501A003A 007720007720                                    
HR4G802073540810155390000307786                   ON4662225954  JHHCP    0078  
HR5G802073540812017101201A007A 003370003370                                    
HR4G814061881410155390000312604                   ON4548584053  XGHCP    0078  
HR5G814061881412017121201A007A 003370003370                                    
HR4G802074692710155390000312717                   ON9552004757    HCP    0078  
HR5G802074692712017121401A007A 003370003370                                    
HR4G802020894010155390000314883                   ON4056465075  GVHCP    0078  
HR5G802020894012018011501A007A 003370003370                                    
HR5G802020894012018011501G848A 000450000450                                    
HR4G814061881510155390000315562                   ON9439667990  WGHCP    0078  
HR5G814061881512018012301A007A 003370003370                                    
HR4G802020894110155390000315689                   ON2589852215  JMHCP    0078  
HR5G802020894112018012501A001A 002170002170                                    
HR5G802020894112018012501G372A 000389000389                                    
HR4G802020894210155390000315699                   ON5335475611  XAHCP    0078  
HR5G802020894212018012501A007A 003370003370                                    
HR4G802020894310155390000315700                   ON1105137200  XMHCP    0078  
HR5G802020894312018012501A007A 003370003370                                    
HR5G802020894312018012501G372A 000389000389                                    
HR4G802020894410155390000315701                   ON4008777171  CMHCP    0078  
HR5G802020894412018012501A007A 003370003370                                    
HR4G802020894510155390000315702                   ON5895100633  BGHCP    0078  
HR5G802020894512018012501A007A 003370003370                                    
HR4G802020894610155390000315703                   ON9021416590  CBHCP    0078  
HR5G802020894612018012501A007A 003370003370                                    
HR4G802020894710155390000315704                   ON8204051844  HXHCP    0078  
HR5G802020894712018012501A007A 003370003370                                    
HR4G802020894810155390000315705                   ON5639652345  RCHCP    0078  
HR5G802020894812018012501A007A 003370003370                                    
HR4G802020894910155390000315706                   ON3121131084  BDHCP    0078  
HR5G802020894912018012501A007A 003370003370                                    
HR4G802020895010155390000315707                   ON3511609491  BKHCP    0078  
HR5G802020895012018012501A007A 003370003370                                    
HR4G802020895110155390000315708                   ON4721777151  XRHCP    0078  
HR5G802020895112018012501A007A 003370003370                                    
HR4G802020895210155390000315709                   ON7347890571  PJHCP    0078  
HR5G802020895212018012501A007A 003370003370                                    
HR4G802020895310155390000315710                   ON9783147706  HBHCP    0078  
HR5G802020895312018012501A007A 003370003370                                    
HR4G802020895410155390000315711                   ON4469258950  LJHCP    0078  
HR5G802020895412018012501A007A 003370003370                                    
HR4G802020895510155390000315712                   ON1309973806  NMHCP    0078  
HR5G802020895512018012501A007A 003370003370                                    
HR4G802020895610155390000315713                   ON7569549970  NLHCP    0078  
HR5G802020895612018012501A007A 003370003370                                    
HR4G802020895710155390000315714                   ON6903753900  KCHCP    0078  
HR5G802020895712018012501A007A 003370003370                                    
HR4G802020895810155390000315715                   ON8588022312  HNHCP    0078  
HR5G802020895812018012501A007A 003370003370                                    
HR4G802020895910155390000315716                   ON9494158893  YLHCP    0078  
HR5G802020895912018012501A007A 003370003370                                    
HR4G802020896010155390000315717                   ON7927951199  JJHCP    0078  
HR5G802020896012018012501A001A 002170002170                                    
HR5G802020896012018012501G372A 000389000389                                    
HR4G802020896110155390000315718                   ON8907041118  CKHCP    0078  
HR5G802020896112018012501A007A 003370003370                                    
HR4G802020896210155390000315719                   ON1710290386  NFHCP    0078  
HR5G802020896212018012501A007A 003370003370                                    
HR4G802020896310155390000315720                   ON5908963621  KYHCP    0078  
HR5G802020896312018012501A007A 003370003370                                    
HR4G802020896410155390000315721                   ON5744737502  BLHCP    0078  
HR5G802020896412018012501A007A 003370003370                                    
HR4G802020896510155390000315722                   ON4415687435  BBHCP    0078  
HR5G802020896512018012501A007A 003370003370                                    
HR4G802020896610155390000315723                   ON6708192098    HCP    0078  
HR5G802020896612018012501A007A 003370003370                                    
HR4G802020896710155390000315724                   ON5004695283  GGHCP    0078  
HR5G802020896712018012501A007A 003370003370                                    
HR4G802020896810155390000315725                   ON7489728084  HYHCP    0078  
HR5G802020896812018012501A007A 003370003370                                    
HR5G802020896812018012501E430A 001155001155                                    
HR5G802020896812018012501G010A 000207000207                                    
HR5G802020896812018012501G365A 000675000675                                    
HR4G802020896910155390000315726                   ON7969694996  HJHCP    0078  
HR5G802020896912018012501A007A 003370003370                                    
HR4G802020897010155390000315727                   ON3918422209  WTHCP    0078  
HR5G802020897012018012501A007A 003370003370                                    
HR4G802020897110155390000315728                   ON5997290225  NYHCP    0078  
HR5G802020897112018012501A001A 002170002170                                    
HR4G802020897210155390000315729                   ON5216297837  FVHCP    0078  
HR5G802020897212018012501A007A 003370003370                                    
HR4G802020897310155390000315730                   ON8658678944  LCHCP    0078  
HR5G802020897312018012501A001A 002170002170                                    
HR5G802020897312018012501G372A 000389000389                                    
HR4G802020897410155390000315731                   ON6252598088  LFHCP    0078  
HR5G802020897412018012501A007A 003370003370                                    
HR4G802020897510155390000315732                   ON6264516284  GGHCP    0078  
HR5G802020897512018012501A007A 003370003370                                    
HR5G802020897512018012501G372A 000389000389                                    
HR4G802020897610155390000315733                   ON8547088867  KCHCP    0078  
HR5G802020897612018012501A007A 003370003370                                    
HR4G802020897710155390000315734                   ON1446556738  HEHCP    0078  
HR5G802020897712018012501A001A 002170002170                                    
HR5G802020897712018012501G420A 001125001125                                    
HR4G802020897810155390000315735                   ON6312776211  LTHCP    0078  
HR5G802020897812018012501A007A 003370003370                                    
HR4G802020897910155390000315736                   ON1831434186  XPHCP    0078  
HR5G802020897912018012501A007A 003370003370                                    
HR4G802020898010155390000315737                   ON9964038393  LWHCP    0078  
HR5G802020898012018012501A007A 003370003370                                    
HR4G802020898110155390000315739                   ON7765950766  HTHCP    0078  
HR5G802020898112018012501A003A 007720007720                                    
HR4G802020898210155390000315740                   ON2570975389  LXHCP    0078  
HR5G802020898212018012501A007A 003370003370                                    
HR4G802020898310155390000315741                   ON5764518170  KJHCP    0078  
HR5G802020898312018012501A007A 003370003370                                    
HR5G802020898312018012501E079A 001540001540                                    
HR4G802020898410155390000315742                   ON2874884071  CJHCP    0078  
HR5G802020898412018012501A007A 003370003370                                    
HR4G802020898510155390000315743                   ON5985881167  XCHCP    0078  
HR5G802020898512018012501A007A 003370003370                                    
HR4G802020898610155390000315744                   ON1295447849  BCHCP    0078  
HR5G802020898612018012501A007A 003370003370                                    
HR4G802020898710155390000315745                   ON7949698562  VJHCP    0078  
HR5G802020898712018012501A007A 003370003370                                    
HR4G802020898810155390000315746                   ON6657313620  ERHCP    0078  
HR5G802020898812018012501A007A 003370003370                                    
HR4G802020898910155390000315747                   ON4129616894  BNHCP    0078  
HR5G802020898912018012501A007A 003370003370                                    
HR4G802020899010155390000315748                   ON1001153384  PCHCP    0078  
HR5G802020899012018012501A001A 002170002170                                    
HR5G802020899012018012501G372A 000389000389                                    
HR4G802020899110155390000315749                   ON5104767891  EYHCP    0078  
HR5G802020899112018012501K005A 006275006275                                    
HR4G802020899210155390000315750                   ON4174962748  AJHCP    0078  
HR5G802020899212018012501A007A 003370003370                                    
HR5G802020899212018012501G010A 000207000207                                    
HR4G802020899310155390000315751                   ON6565649818  NTHCP    0078  
HR5G802020899312018012501A007A 003370003370                                    
HR4G802020899410155390000315752                   ON9592815766  CRHCP    0078  
HR5G802020899412018012501A007A 003370003370                                    
HR4G802020899510155390000315753                   ON5324184570  RBHCP    0078  
HR5G802020899512018012501A007A 003370003370                                    
HR4G802020899610155390000315754                   ON5571856532  RHHCP    0078  
HR5G802020899612018012501A007A 003370003370                                    
HR4G802020899710155390000315755                   ON9994780584  KMHCP    0078  
HR5G802020899712018012501A007A 003370003370                                    
HR4G802020899810155390000315756                   ON9436218565  EMHCP    0078  
HR5G802020899812018012501A007A 003370003370                                    
HR4G802020899910155390000315757                   ON8464611568  TCHCP    0078  
HR5G802020899912018012501A007A 003370003370                                    
HR4G802020900010155390000315758                   ON4920596634  YKHCP    0078  
HR5G802020900012018012501A007A 003370003370                                    
HR4G802020900110155390000315759                   ON8670489288  LRHCP    0078  
HR5G802020900112018012501A007A 003370003370                                    
HR4G802020900210155390000315760                   ON1208710143  JXHCP    0078  
HR5G802020900212018012501A007A 003370003370                                    
HR4G802020900310155390000315761                   ON3347085247  RHHCP    0078  
HR5G802020900312018012501A007A 003370003370                                    
HR4G802022278210155390000315854                   ON7735485315  WKHCP    0078  
HR5G802022278212018012701A003A 007720007720                                    
HR5G802022278212018012701A007A 003370003370                                    
HR4G802022278310155390000315855                   ON7571441216  GYHCP    0078  
HR5G802022278312018012701A007A 003370003370                                    
HR4G802022278410155390000315856                   ON9960382662  JVHCP    0078  
HR5G802022278412018012701A007A 003370003370                                    
HR4G802022278510155390000315857                   ON4363752298  LMHCP    0078  
HR5G802022278512018012701A003A 007720007720                                    
HR4G802022278610155390000315858                   ON6093068721  GEHCP    0078  
HR5G802022278612018012701A007A 003370003370                                    
HR4G802022278710155390000315859                   ON3042200281  EGHCP    0078  
HR5G802022278712018012701A007A 003370003370                                    
HR4G802022278810155390000315860                   ON4062095411  LYHCP    0078  
HR5G802022278812018012701A007A 003370003370                                    
HR4G802022278910155390000315861                   ON1557648928  WNHCP    0078  
HR5G802022278912018012701A007A 003370003370                                    
HR4G802022279010155390000315862                   ON8489115066  CKHCP    0078  
HR5G802022279012018012701A007A 003370003370                                    
HR4G802022279110155390000315863                   ON2547953543  FBHCP    0078  
HR5G802022279112018012701A007A 003370003370                                    
HR4G802022279210155390000315864                   ON1457212502  BHHCP    0078  
HR5G802022279212018012701A007A 003370003370                                    
HR4G802022279310155390000315865                   ON9821814861  JXHCP    0078  
HR5G802022279312018012701A001A 002170002170                                    
HR4G802022279410155390000315866                   ON5814753322  YEHCP    0078  
HR5G802022279412018012701A007A 003370003370                                    
HR5G802022279412018012701G372A 000389000389                                    
HR4G802022279510155390000315867                   ON1134909298  HBHCP    0078  
HR5G802022279512018012701A003A 007720007720                                    
HR4G802022279610155390000315868                   ON1156823914  JFHCP    0078  
HR5G802022279612018012701A007A 003370003370                                    
HR5G802022279612018012701G590A 000450000450                                    
HR4G802022279710155390000315869                   ON6435779696  LXHCP    0078  
HR5G802022279712018012701A001A 002170002170                                    
HR5G802022279712018012701G202A 000445000445                                    
HR4G802022279810155390000315870                   ON2218866925  DHHCP    0078  
HR5G802022279812018012701A007A 003370003370                                    
HR4G802022279910155390000315871                   ON9740180238  CWHCP    0078  
HR5G802022279912018012701A007A 003370003370                                    
HR4G802022280010155390000315872                   ON8089050689  TVHCP    0078  
HR5G802022280012018012701A007A 003370003370                                    
HR4G802022280110155390000315873                   ON5385473227  HLHCP    0078  
HR5G802022280112018012701A007A 003370003370                                    
HR4G802022280210155390000315874                   ON4932096458  AEHCP    0078  
HR5G802022280212018012701A007A 003370003370                                    
HR4G802022280310155390000315875                   ON3803454028  PVHCP    0078  
HR5G802022280312018012701A007A 003370003370                                    
HR4G802022280410155390000315876                   ON7788832918  WFHCP    0078  
HR5G802022280412018012701A007A 003370003370                                    
HR4G802022280510155390000315877                   ON9897216470  TDHCP    0078  
HR5G802022280512018012701A001A 002170002170                                    
HR5G802022280512018012701G202A 000445000445                                    
HR4G802022280610155390000315878                   ON9531366293  VGHCP    0078  
HR5G802022280612018012701A007A 003370003370                                    
HR4G802022280710155390000315879                   ON5585099343  CLHCP    0078  
HR5G802022280712018012701A007A 003370003370                                    
HR5G802022280712018012701G005A 000388000388                                    
HR4G802022280810155390000315880                   ON9258379271  NDHCP    0078  
HR5G802022280812018012701A007A 003370003370                                    
HR4G802022280910155390000315881                   ON6019536322  PNHCP    0078  
HR5G802022280912018012701A007A 003370003370                                    
HR4G802022281010155390000315882                   ON2914575127  CMHCP    0078  
HR5G802022281012018012701A007A 003370003370                                    
HR4G802022281110155390000315883                   ON1844356541  KYHCP    0078  
HR5G802022281112018012701A007A 003370003370                                    
HR4G802022281210155390000315884                   ON2337195016  AEHCP    0078  
HR5G802022281212018012701A007A 003370003370                                    
HR4G802022281310155390000315885                   ON2232491338  AYHCP    0078  
HR5G802022281312018012701A007A 003370003370                                    
HR4G802022281410155390000315886                   ON4497652786  CHHCP    0078  
HR5G802022281412018012701A007A 003370003370                                    
HR4G802022281510155390000315887                   ON6887863121  TEHCP    0078  
HR5G802022281512018012701A007A 003370003370                                    
HR4G802022281610155390000315888                   ON5486531519  MMHCP    0078  
HR5G802022281612018012701A007A 003370003370                                    
HR4G802022281710155390000315889                   ON4950591281  GNHCP    0078  
HR5G802022281712018012701A007A 003370003370                                    
HR4G802022281810155390000315890                   ON9825759021  APHCP    0078  
HR5G802022281812018012701A007A 003370003370                                    
HR4G802022281910155390000315891                   ON3303851947  JXHCP    0078  
HR5G802022281912018012701A007A 003370003370                                    
HR5G802022281912018012701G010A 000207000207                                    
HR4G802022282010155390000315892                   ON7290715429  RFHCP    0078  
HR5G802022282012018012701A007A 003370003370                                    
HR4G802022282110155390000315893                   ON6181940781  TLHCP    0078  
HR5G802022282112018012701A007A 003370003370                                    
HR4G802022282210155390000315894                   ON6349092459  FVHCP    0078  
HR5G802022282212018012701A007A 003370003370                                    
HR4G802022282310155390000315895                   ON4098604202  LTHCP    0078  
HR5G802022282312018012701A007A 003370003370                                    
HR4G802022282410155390000315896                   ON8148575437  LRHCP    0078  
HR5G802022282412018012701A007A 003370003370                                    
HR4G802022282510155390000315897                   ON2197579309  EYHCP    0078  
HR5G802022282512018012701A007A 003370003370                                    
HR4G802022282610155390000315898                   ON9542576823  RGHCP    0078  
HR5G802022282612018012701A007A 003370003370                                    
HR4G802022282710155390000315899                   ON9986107259  FKHCP    0078  
HR5G802022282712018012701A007A 003370003370                                    
HR4G802022282810155390000315900                   ON7751628731  DJHCP    0078  
HR5G802022282812018012701A007A 003370003370                                    
HR4G802022282910155390000315901                   ON4005128808  BWHCP    0078  
HR5G802022282912018012701A007A 003370003370                                    
HR4G802022283010155390000315902                   ON6216004538  BPHCP    0078  
HR5G802022283012018012701A007A 003370003370                                    
HR4G802022283110155390000315903                   ON9371007460  KMHCP    0078  
HR5G802022283112018012701A007A 003370003370                                    
HR4G802022283210155390000315904                   ON1038496640  KBHCP    0078  
HR5G802022283212018012701A007A 003370003370                                    
HR4G802022283310155390000315905                   ON8222523527  VMHCP    0078  
HR5G802022283312018012701A007A 003370003370                                    
HR5G802022283312018012701G848A 000450000450                                    
HR4G802022283410155390000315906                   ON4557502400  EWHCP    0078  
HR5G802022283412018012701A007A 003370003370                                    
HR4G802022283510155390000315907                   ON2478644616  HKHCP    0078  
HR5G802022283512018012701A007A 003370003370                                    
HR4G802022283610155390000315908                   ON2008306017  DKHCP    0078  
HR5G802022283612018012701A007A 003370003370                                    
HR4G802022283710155390000315909                   ON9799293189  AFHCP    0078  
HR5G802022283712018012701A007A 003370003370                                    
HR5G802022283712018012701G847A 000450000450                                    
HR4G802022283810155390000315910                   ON5740268866  ERHCP    0078  
HR5G802022283812018012701A001A 002170002170                                    
HR4G802022283910155390000315911                   ON5199364992  HLHCP    0078  
HR5G802022283912018012701A007A 003370003370                                    
HR5G802022283912018012701G010A 000207000207                                    
HR4G802023318410155390000315912                   ON2566465759  FTHCP    0078  
HR5G802023318412018012801A007A 003370003370                                    
HR4G802023318510155390000315913                   ON7997375857  FFHCP    0078  
HR5G802023318512018012801A007A 003370003370                                    
HR4G802023318610155390000315914                   ON8572128190  KWHCP    0078  
HR5G802023318612018012801A007A 003370003370                                    
HR4G802023318710155390000315915                   ON4796868398  MWHCP    0078  
HR5G802023318712018012801A007A 003370003370                                    
HR4G802023318810155390000315916                   ON1903424636  DGHCP    0078  
HR5G802023318812018012801A007A 003370003370                                    
HR5G802023318812018012801G010A 000207000207                                    
HR4G802023318910155390000315917                   ON8718253878  MWHCP    0078  
HR5G802023318912018012801A007A 003370003370                                    
HR4G802023319010155390000315918                   ON8330354096  HRHCP    0078  
HR5G802023319012018012801A007A 003370003370                                    
HR4G802023319110155390000315919                   ON4153266467  EMHCP    0078  
HR5G802023319112018012801A007A 003370003370                                    
HR5G802023319112018012802G202A 000890000890                                    
HR4G802023319210155390000315920                   ON8918845374  JPHCP    0078  
HR5G802023319212018012801A007A 003370003370                                    
HR4G802023319310155390000315921                   ON7948974550  AJHCP    0078  
HR5G802023319312018012801A007A 003370003370                                    
HR4G802023319410155390000315922                   ON8890891297  DWHCP    0078  
HR5G802023319412018012801A007A 003370003370                                    
HR4G802023319510155390000315923                   ON3562894893  PYHCP    0078  
HR5G802023319512018012801A007A 003370003370                                    
HR4G802023319610155390000315924                   ON2411696541  ETHCP    0078  
HR5G802023319612018012801A007A 003370003370                                    
HR4G802023319710155390000315925                   ON4504969892  MXHCP    0078  
HR5G802023319712018012801A007A 003370003370                                    
HR4G802023319810155390000315926                   ON1004106348  BKHCP    0078  
HR5G802023319812018012801A007A 003370003370                                    
HR4G802023319910155390000315927                   ON7082161188  LKHCP    0078  
HR5G802023319912018012801A007A 003370003370                                    
HR4G802023320010155390000315928                   ON8006458619  EWHCP    0078  
HR5G802023320012018012801A007A 003370003370                                    
HR4G802023320110155390000315929                   ON8967997365  FDHCP    0078  
HR5G802023320112018012801A007A 003370003370                                    
HR4G802023320210155390000315930                   ON5226593191  TXHCP    0078  
HR5G802023320212018012801A007A 003370003370                                    
HR5G802023320212018012801G372A 000389000389                                    
HR4G802023320310155390000315931                   ON3503027439    HCP    0078  
HR5G802023320312018012801A003A 007720007720                                    
HR4G802023320410155390000315932                   ON4174962748  AJHCP    0078  
HR5G802023320412018012801A007A 003370003370                                    
HR4G802023320510155390000315933                   ON9896523355  BFHCP    0078  
HR5G802023320512018012801A007A 003370003370                                    
HR4G802023320610155390000315934                   ON3154044089  PKHCP    0078  
HR5G802023320612018012801A007A 003370003370                                    
HR4G802023320710155390000315935                   ON5424944204  CVHCP    0078  
HR5G802023320712018012801A007A 003370003370                                    
HR4G802023320810155390000315936                   ON3708456615  RYHCP    0078  
HR5G802023320812018012801A007A 003370003370                                    
HR4G802023320910155390000315937                   ON1359386222  XLHCP    0078  
HR5G802023320912018012801A007A 003370003370                                    
HR4G802023321010155390000315938                   ON3658946250  HEHCP    0078  
HR5G802023321012018012801A007A 003370003370                                    
HR4G802023321110155390000315939                   ON1037075833  VVHCP    0078  
HR5G802023321112018012801A003A 007720007720                                    
HR4G802023321210155390000315940                   ON5153718761  NDHCP    0078  
HR5G802023321212018012801A007A 003370003370                                    
HR4G802023321310155390000315941                   ON2642472464  FTHCP    0078  
HR5G802023321312018012801A001A 002170002170                                    
HR5G802023321312018012801G538A 000450000450                                    
HR4G802023321410155390000315942                   ON4460403274  VWHCP    0078  
HR5G802023321412018012801A007A 003370003370                                    
HR4G802023321510155390000315943                   ON1116109396  KTHCP    0078  
HR5G802023321512018012801K028A 006275006275                                    
HR4G802023321610155390000315944                   ON9448697608  WTHCP    0078  
HR5G802023321612018012801A007A 003370003370                                    
HR4G802023321710155390000315945                   ON8655988932  DYHCP    0078  
HR5G802023321712018012801A007A 003370003370                                    
HR4G802023321810155390000315946                   ON2938708852  MLHCP    0078  
HR5G802023321812018012801A007A 003370003370                                    
HR4G802023321910155390000315947                   ON6591274599  VYHCP    0078  
HR5G802023321912018012801A007A 003370003370                                    
HR4G802023322010155390000315948                   ON2455652996  GPHCP    0078  
HR5G802023322012018012801A007A 003370003370                                    
HR4G802023322110155390000315949                   ON2790655928  NBHCP    0078  
HR5G802023322112018012801A007A 003370003370                                    
HR4G802023322210155390000315950                   ON6017003143  JWHCP    0078  
HR5G802023322212018012801A007A 003370003370                                    
HR4G802023322310155390000315951                   ON1834865782  PFHCP    0078  
HR5G802023322312018012801A007A 003370003370                                    
HR4G802023322410155390000315952                   ON1965912023  RFHCP    0078  
HR5G802023322412018012801A007A 003370003370                                    
HR4G802023322510155390000315953                   ON5844173731  RYHCP    0078  
HR5G802023322512018012801A007A 003370003370                                    
HR4G802023322610155390000315954                   ON2332061635  HJHCP    0078  
HR5G802023322612018012801A007A 003370003370                                    
HR4G802023322710155390000315955                   ON5443900245  MVHCP    0078  
HR5G802023322712018012801A007A 003370003370                                    
HR4G802023322810155390000315957                   ON1484762412  HGHCP    0078  
HR5G802023322812018012801A007A 003370003370                                    
HR4G802023322910155390000315958                   ON4632037257  EBHCP    0078  
HR5G802023322912018012801A007A 003370003370                                    
HR5G802023322912018012801G844A 000450000450                                    
HR4G802023323010155390000315959                   ON9768700289  MTHCP    0078  
HR5G802023323012018012801K005A 006275006275                                    
HR4G802023323110155390000315960                   ON2651816353  YYHCP    0078  
HR5G802023323112018012801A001A 002170002170                                    
HR5G802023323112018012801G372A 000389000389                                    
HR4G802023323210155390000315961                   ON6628304815  HJHCP    0078  
HR5G802023323212018012801A007A 003370003370                                    
HR4G802023323310155390000315962                   ON8412686381  MNHCP    0078  
HR5G802023323312018012801A007A 003370003370                                    
HR4G802023323410155390000315963                   ON7810081328  FTHCP    0078  
HR5G802023323412018012801A007A 003370003370                                    
HR4G802023323510155390000315964                   ON9282909614  JJHCP    0078  
HR5G802023323512018012801A007A 003370003370                                    
HR4G802023323610155390000315965                   ON6546105294  KDHCP    0078  
HR5G802023323612018012801A007A 003370003370                                    
HR4G802023323710155390000315966                   ON3592217115  RWHCP    0078  
HR5G802023323712018012801A007A 003370003370                                    
HR4G802023323810155390000315967                   ON2646711586  EDHCP    0078  
HR5G802023323812018012801A007A 003370003370                                    
HR4G802023323910155390000315968                   ON2568196030  TRHCP    0078  
HR5G802023323912018012801A007A 003370003370                                    
HR4G802023324010155390000315969                   ON2218821250  KEHCP    0078  
HR5G802023324012018012801A007A 003370003370                                    
HR4G802023324110155390000315970                   ON9538742397  BTHCP    0078  
HR5G802023324112018012801A007A 003370003370                                    
HR4G802023324210155390000315971                   ON3893544258  BFHCP    0078  
HR5G802023324212018012801A007A 003370003370                                    
HR4G802023324310155390000315972                   ON8886060493  JNHCP    0078  
HR5G802023324312018012801A007A 003370003370                                    
HR4G802023324410155390000315973                   ON3918422209  WTHCP    0078  
HR5G802023324412018012801A007A 007720003370 V8                                 
HR4G802023324510155390000315974                   ON7073124864  BWHCP    0078  
HR5G802023324512018012801A007A 003370003370                                    
HR4G802052119010155390000315975                   ON8317570557  RJHCP    0078  
HR5G802052119012018012901A007A 003370003370                                    
HR4G802052119110155390000315976                   ON6764542830  PLHCP    0078  
HR5G802052119112018012901A003A 007720007720                                    
HR4G802052119210155390000315977                   ON8923548138  DXHCP    0078  
HR5G802052119212018012901A007A 003370003370                                    
HR4G802052119310155390000315978                   ON6337636333  ERHCP    0078  
HR5G802052119312018012901A001A 002170002170                                    
HR5G802052119312018012901G420A 001125001125                                    
HR4G802052119410155390000315979                   ON5470573139  GWHCP    0078  
HR5G802052119412018012901A007A 003370003370                                    
HR4G802052119510155390000315980                   ON4810009763  YDHCP    0078  
HR5G802052119512018012901A007A 003370003370                                    
HR4G802052119610155390000315981                   ON3419246776  JMHCP    0078  
HR5G802052119612018012901A007A 003370003370                                    
HR4G802052119710155390000315982                   ON1566409403  DWHCP    0078  
HR5G802052119712018012901A007A 003370003370                                    
HR5G802052119712018012901G372A 000389000389                                    
HR4G802052119810155390000315983                   ON1731942544  CDHCP    0078  
HR5G802052119812018012901A007A 003370003370                                    
HR4G802052119910155390000315984                   ON3213730645  RBHCP    0078  
HR5G802052119912018012901A007A 003370003370                                    
HR4G802052120010155390000315985                   ON3727442083  YAHCP    0078  
HR5G802052120012018012901A007A 003370003370                                    
HR4G802052120110155390000315986                   ON7948484618  YCHCP    0078  
HR5G802052120112018012901A007A 003370003370                                    
HR4G802052120210155390000315987                   ON6357755146  GTHCP    0078  
HR5G802052120212018012901A007A 003370003370                                    
HR4G802052120310155390000315988                   ON5287694599  MHHCP    0078  
HR5G802052120312018012901A007A 003370003370                                    
HR5G802052120312018012901G372A 000389000389                                    
HR4G802052120410155390000315989                   ON8545425418  HLHCP    0078  
HR5G802052120412018012901A007A 003370003370                                    
HR5G802052120412018012901G420A 001125001125                                    
HR4G802052120510155390000315990                   ON4075170193  VMHCP    0078  
HR5G802052120512018012901A007A 003370003370                                    
HR4G802052120610155390000315991                   ON6947816192  DFHCP    0078  
HR5G802052120612018012901K005A 006275006275                                    
HR4G802052120710155390000315992                   ON6802798220  VXHCP    0078  
HR5G802052120712018012901A007A 003370003370                                    
HR4G802052120810155390000315993                   ON5791484032  NYHCP    0078  
HR5G802052120812018012901A007A 003370003370                                    
HR4G802052120910155390000315994                   ON9182344078  VWHCP    0078  
HR5G802052120912018012901A007A 003370003370                                    
HR4G802052121010155390000315995                   ON4291651596  RHHCP    0078  
HR5G802052121012018012901A007A 003370003370                                    
HR4G802052121110155390000315996                   ON9275437003  XFHCP    0078  
HR5G802052121112018012901A007A 003370003370                                    
HR4G802052121210155390000315997                   ON2503031508  TDHCP    0078  
HR5G802052121212018012901A007A 003370003370                                    
HR4G802052121310155390000315998                   ON5449071223  JFHCP    0078  
HR5G802052121312018012901A007A 003370003370                                    
HR4G802052121410155390000315999                   ON5629376590  YVHCP    0078  
HR5G802052121412018012901A007A 003370003370                                    
HR4G802052121510155390000316000                   ON3814794305  JPHCP    0078  
HR5G802052121512018012901A007A 003370003370                                    
HR4G802052121610155390000316001                   ON3872455740  KFHCP    0078  
HR5G802052121612018012901A007A 003370003370                                    
HR4G802052121710155390000316002                   ON3970794370  MFHCP    0078  
HR5G802052121712018012901A007A 003370003370                                    
HR4G802052121810155390000316003                   ON1142852860    HCP    0078  
HR5G802052121812018012901A007A 003370003370                                    
HR4G802052121910155390000316004                   ON5681311238  AMHCP    0078  
HR5G802052121912018012901A007A 003370003370                                    
HR5G802052121912018012901G010A 000207000207                                    
HR4G802052122010155390000316005                   ON4746602657  EEHCP    0078  
HR5G802052122012018012901A007A 003370003370                                    
HR4G802052122110155390000316006                   ON2205404094  EEHCP    0078  
HR5G802052122112018012901A007A 003370003370                                    
HR5G802052122112018012901G010A 000207000207                                    
HR4G802052122210155390000316007                   ON1864042187  MBHCP    0078  
HR5G802052122212018012901A007A 003370003370                                    
HR4G802052122310155390000316008                   ON5289030644  TDHCP    0078  
HR5G802052122312018012901A007A 003370003370                                    
HR4G802052122410155390000316009                   ON8157487813  KLHCP    0078  
HR5G802052122412018012901A007A 003370003370                                    
HR4G802052122510155390000316010                   ON3049581923  AHHCP    0078  
HR5G802052122512018012901A007A 003370003370                                    
HR5G802052122512018012901G420A 001125001125                                    
HR4G802052122610155390000316011                   ON4189568217  WWHCP    0078  
HR5G802052122612018012901A007A 003370003370                                    
HR4G802052122710155390000316012                   ON6686398584  NCHCP    0078  
HR5G802052122712018012901A001A 002170002170                                    
HR4G802052122810155390000316013                   ON4557502400  EWHCP    0078  
HR5G802052122812018012901A007A 003370003370                                    
HR4G802052122910155390000316015                   ON9707782083  BNHCP    0078  
HR5G802052122912018012901A007A 003370003370                                    
HR4G802052123010155390000316016                   ON9317775568  YEHCP    0078  
HR5G802052123012018012901A007A 003370003370                                    
HR4G802052123110155390000316017                   ON2527352070  DVHCP    0078  
HR5G802052123112018012901A007A 003370003370                                    
HR4G802052123210155390000316018                   ON2435527250  APHCP    0078  
HR5G802052123212018012901A007A 003370003370                                    
HR4G802052123310155390000316019                   ON9483427234  DVHCP    0078  
HR5G802052123312018012901A007A 003370003370                                    
HR5G802052123312018012901G010A 000207000207                                    
HR4G802052123410155390000316020                   ON2589852215  JMHCP    0078  
HR5G802052123412018012901A001A 002170002170                                    
HR5G802052123412018012901G372A 000389000389                                    
HR4G802052123510155390000316021                   ON6123239839  CBHCP    0078  
HR5G802052123512018012901A007A 003370003370                                    
HR4G802052123610155390000316022                   ON5423578839  DYHCP    0078  
HR5G802052123612018012901A003A 007720007720                                    
HR4G802052123710155390000316023                   ON6789634919  JWHCP    0078  
HR5G802052123712018012901A007A 003370003370                                    
HR5G802052123712018012901G010A 000207000207                                    
HR4G802052123810155390000316024                   ON6887046255  PTHCP    0078  
HR5G802052123812018012901A007A 003370003370                                    
HR4G802052123910155390000316025                   ON6684526236  NGHCP    0078  
HR5G802052123912018012901A007A 003370003370                                    
HR4G802052124010155390000316026                   ON5433544227  RWHCP    0078  
HR5G802052124012018012901A007A 003370003370                                    
HR4G814050847610155390000316108                   ON9491007747  VWHCP    0078  
HR5G814050847612018013001A007A 003370003370                                    
HR4G814050847710155390000316109                   ON6448119377  ELHCP    0078  
HR5G814050847712018013001A007A 003370003370                                    
HR4G814050847810155390000316110                   ON4322819667  EVHCP    0078  
HR5G814050847812018013001A007A 003370003370                                    
HR4G814050847910155390000316111                   ON2017597119  FAHCP    0078  
HR5G814050847912018013001A007A 003370003370                                    
HR4G814050848010155390000316112                   ON5814753322  YEHCP    0078  
HR5G814050848012018013001A007A 003370003370                                    
HR4G814050848110155390000316115                   ON8699549492  Q HCP    0078  
HR5G814050848112018013001A007A 003370003370                                    
HR4G814050848210155390000316116                   ON2197579309  EYHCP    0078  
HR5G814050848212018013001A007A 003370003370                                    
HR4G814050848310155390000316117                   ON2019518873  JKHCP    0078  
HR5G814050848312018013001A007A 003370003370                                    
HR4G814050848410155390000316118                   ON9846832336  XRHCP    0078  
HR5G814050848412018013001A007A 003370003370                                    
HR4G814050848510155390000316119                   ON9436218565  EMHCP    0078  
HR5G814050848512018013001A007A 003370003370                                    
HR4G814050848610155390000316120                   ON8495081948  FBHCP    0078  
HR5G814050848612018013001A007A 003370003370                                    
HR4G814050848710155390000316121                   ON2179144114  DDHCP    0078  
HR5G814050848712018013001A007A 003370003370                                    
HR4G814050848810155390000316122                   ON2476671736  DYHCP    0078  
HR5G814050848812018013001A007A 003370003370                                    
HR4G814050848910155390000316123                   ON2227785595  PJHCP    0078  
HR5G814050848912018013001A007A 003370003370                                    
HR4G814050849010155390000316124                   ON8249315931  MXHCP    0078  
HR5G814050849012018013001A007A 003370003370                                    
HR4G814050849110155390000316125                   ON9618552526  GEHCP    0078  
HR5G814050849112018013001A007A 003370003370                                    
HR4G814050849210155390000316126                   ON1979617261  EXHCP    0078  
HR5G814050849212018013001A007A 003370003370                                    
HR5G814050849212018013001G372A 000389000389                                    
HR4G814050849310155390000316127                   ON3658840842  CFHCP    0078  
HR5G814050849312018013001A001A 002170002170                                    
HR5G814050849312018013001G845A 000450000450                                    
HR4G814050849410155390000316128                   ON5990248915  DYHCP    0078  
HR5G814050849412018013001A007A 003370003370                                    
HR4G814050849510155390000316129                   ON2748979271  GBHCP    0078  
HR5G814050849512018013001A007A 003370003370                                    
HR4G814050849610155390000316130                   ON4873602363  YCHCP    0078  
HR5G814050849612018013001A007A 003370003370                                    
HR4G814050849710155390000316131                   ON8037011940  GFHCP    0078  
HR5G814050849712018013001A007A 003370003370                                    
HR4G814050849810155390000316132                   ON6044237938  RVHCP    0078  
HR5G814050849812018013001A007A 003370003370                                    
HR4G814050849910155390000316133                   ON4069908087  JMHCP    0078  
HR5G814050849912018013001A007A 003370003370                                    
HR4G814050850010155390000316134                   ON8955768307  NHHCP    0078  
HR5G814050850012018013001A007A 003370003370                                    
HR4G814050850110155390000316135                   ON7976163878  NJHCP    0078  
HR5G814050850112018013001A007A 003370003370                                    
HR4G814050850210155390000316136                   ON3348332432  HGHCP    0078  
HR5G814050850212018013001K005A 006275006275                                    
HR4G814050850310155390000316137                   ON7871252768  FMHCP    0078  
HR5G814050850312018013001A007A 003370003370                                    
HR5G814050850312018013001G005A 000388000388                                    
HR4G814050850410155390000316138                   ON2517913287  AVHCP    0078  
HR5G814050850412018013001A007A 003370003370                                    
HR4G814050850510155390000316139                   ON2185256951  XJHCP    0078  
HR5G814050850512018013001A007A 003370003370                                    
HR5G814050850512018013001G010A 000207000207                                    
HR4G814050850610155390000316140                   ON9835374662  PWHCP    0078  
HR5G814050850612018013001A007A 003370003370                                    
HR4G814050850710155390000316142                   ON3314386768  ARHCP    0078  
HR5G814050850712018013001A007A 003370003370                                    
HR4G814050850810155390000316143                   ON4961909100  BYHCP    0078  
HR5G814050850812018013001A007A 003370003370                                    
HR4G814050850910155390000316144                   ON9953723831  WFHCP    0078  
HR5G814050850912018013001A007A 003370003370                                    
HR4G814050851010155390000316145                   ON8562255011  MWHCP    0078  
HR5G814050851012018013001A007A 003370003370                                    
HR4G814050851110155390000316146                   ON6921596182  CEHCP    0078  
HR5G814050851112018013001A007A 003370003370                                    
HR4G814050851210155390000316147                   ON7719028297  LFHCP    0078  
HR5G814050851212018013001A007A 003370003370                                    
HR4G814050851310155390000316148                   ON7728675518  XCHCP    0078  
HR5G814050851312018013001A001A 002170002170                                    
HR5G814050851312018013001G372A 000389000389                                    
HR4G814050851410155390000316149                   ON5363562439  RLHCP    0078  
HR5G814050851412018013001A007A 003370003370                                    
HR4G814050851510155390000316150                   ON9203465480  PHHCP    0078  
HR5G814050851512018013001A007A 003370003370                                    
HR4G814050851610155390000316151                   ON6060817795  EWHCP    0078  
HR5G814050851612018013001A007A 003370003370                                    
HR4G814050851710155390000316152                   ON4103630382  XXHCP    0078  
HR5G814050851712018013001A007A 003370003370                                    
HR4G814050851810155390000316153                   ON7198351020  FGHCP    0078  
HR5G814050851812018013001A007A 003370003370                                    
HR4G814050851910155390000316154                   ON7948685669  JDHCP    0078  
HR5G814050851912018013001A007A 003370003370                                    
HR5G814050851912018013002G372A 000778000778                                    
HR4G814050852010155390000316155                   ON4971318490  NWHCP    0078  
HR5G814050852012018013001A007A 003370003370                                    
HR4G814050852110155390000316156                   ON4920962448  PLHCP    0078  
HR5G814050852112018013001A007A 003370003370                                    
HR5G814050852112018013001G845A 000450000450                                    
HR4G814050852210155390000316157                   ON3195226745  RKHCP    0078  
HR5G814050852212018013001A007A 003370003370                                    
HR5G814050852212018013001G010A 000207000207                                    
HR4G814050852310155390000316158                   ON6904109797  WWHCP    0078  
HR5G814050852312018013001A007A 003370003370                                    
HR4G814050852410155390000316159                   ON1889649792  PNHCP    0078  
HR5G814050852412018013001A007A 003370003370                                    
HR4G814050852510155390000316160                   ON3295522621  NGHCP    0078  
HR5G814050852512018013001A007A 003370003370                                    
HR4G814050852610155390000316161                   ON7646428602  GYHCP    0078  
HR5G814050852612018013001A007A 003370003370                                    
HR5G814050852612018013001G844A 000450000450                                    
HR4G814050852710155390000316162                   ON5403908642  WPHCP    0078  
HR5G814050852712018013001A007A 003370003370                                    
HR4G814050852810155390000316163                   ON8406360605  PJHCP    0078  
HR5G814050852812018013001A007A 003370003370                                    
HR4G814050852910155390000316164                   ON4689322321  YDHCP    0078  
HR5G814050852912018013001A007A 003370003370                                    
HR4G814050853010155390000316165                   ON7857354968  KWHCP    0078  
HR5G814050853012018013001A007A 003370003370                                    
HR5G814050853012018013001G841A 000450000450                                    
HR4G802152757210155390000316166                   ON9599298172  EMHCP    0078  
HR5G802152757212018013001A007A 003370003370                                    
HR4G814050853210155390000316167                   ON3481726952  CYHCP    0078  
HR5G814050853212018013001A007A 003370003370                                    
HR4G814050853310155390000316168                   ON9907188628  PEHCP    0078  
HR5G814050853312018013001A003A 007720007720                                    
HR4G814050853410155390000316169                   ON7965718625  EEHCP    0078  
HR5G814050853412018013001A007A 003370003370                                    
HR4G814050853510155390000316170                   ON8738869125  TTHCP    0078  
HR5G814050853512018013001A007A 003370003370                                    
HR4G814050853610155390000316171                   ON7765950766  HTHCP    0078  
HR5G814050853612018013001A007A 003370003370                                    
HR4G814061881610155390000316293                   ON7031967990  RWHCP    0078  
HR5G814061881612018020101A001A 002170002170                                    
HR5G814061881612018020101G202A 000445000445                                    
HR4G814061881710155390000316295                   ON7551128841  RHHCP    0078  
HR5G814061881712018020101A007A 003370003370                                    
HR4G814061881810155390000316296                   ON8857117645  RHHCP    0078  
HR5G814061881812018020101A001A 002170002170                                    
HR5G814061881812018020101G372A 000389000389                                    
HR4G814061881910155390000316297                   ON2394848234    HCP    0078  
HR5G814061881912018020101A007A 003370003370                                    
HR4G814061882010155390000316298                   ON1738881802  KHHCP    0078  
HR5G814061882012018020101A007A 003370003370                                    
HR4G814061882110155390000316299                   ON4150246116  RLHCP    0078  
HR5G814061882112018020101A007A 003370003370                                    
HR4G814061882210155390000316300                   ON6585962894    HCP    0078  
HR5G814061882212018020101A007A 003370003370                                    
HR4G814061882310155390000316301                   ON1182603140  XNHCP    0078  
HR5G814061882312018020101A007A 003370003370                                    
HR5G814061882312018020101G847A 000450000450                                    
HR4G814061882410155390000316303                   ON1302780646  PWHCP    0078  
HR5G814061882412018020101A007A 003370003370                                    
HR4G814061882510155390000316304                   ON4940449459  TPHCP    0078  
HR5G814061882512018020101A007A 003370003370                                    
HR4G814061882610155390000316305                   ON1821956735  CVHCP    0078  
HR5G814061882612018020101A001A 002170002170                                    
HR5G814061882612018020101G202A 000445000445                                    
HR4G814061882710155390000316306                   ON6938594246  CMHCP    0078  
HR5G814061882712018020101A007A 003370003370                                    
HR4G814061882810155390000316307                   ON6533037138  TLHCP    0078  
HR5G814061882812018020101A007A 003370003370                                    
HR4G814061882910155390000316308                   ON2693821015  XYHCP    0078  
HR5G814061882912018020101A007A 003370003370                                    
HR4G814061883010155390000316309                   ON6269083868  NDHCP    0078  
HR5G814061883012018020101A007A 003370003370                                    
HR4G814061883110155390000316310                   ON8293623982  DLHCP    0078  
HR5G814061883112018020101A007A 003370003370                                    
HR4G814061883210155390000316311                   ON3409847716  FWHCP    0078  
HR5G814061883212018020101A007A 003370003370                                    
HR4G814061883310155390000316312                   ON6339718865  WAHCP    0078  
HR5G814061883312018020101A007A 003370003370                                    
HR4G814061883410155390000316313                   ON4480026402  HPHCP    0078  
HR5G814061883412018020101A007A 003370003370                                    
HR5G814061883412018020101G010A 000207000207                                    
HR4G814061883510155390000316314                   ON3800347688  LEHCP    0078  
HR5G814061883512018020101A007A 003370003370                                    
HR4G814061883610155390000316315                   ON8958002183  RMHCP    0078  
HR5G814061883612018020101A007A 003370003370                                    
HR4G814061883710155390000316316                   ON6040300334  LYHCP    0078  
HR5G814061883712018020101A007A 003370003370                                    
HR5G814061883712018020101G420A 001125001125                                    
HR4G814061883810155390000316317                   ON7863376815  KPHCP    0078  
HR5G814061883812018020101A007A 003370003370                                    
HR4G814061883910155390000316318                   ON4751548530  YBHCP    0078  
HR5G814061883912018020101A007A 003370003370                                    
HR4G814061884010155390000316319                   ON2312212703  FDHCP    0078  
HR5G814061884012018020101A007A 003370003370                                    
HR5G814061884012018020101G010A 000207000207                                    
HR4G814061884110155390000316321                   ON9689414069  RPHCP    0078  
HR5G814061884112018020101A007A 003370003370                                    
HR4G814061884210155390000316322                   ON4786518615  FLHCP    0078  
HR5G814061884212018020101A007A 003370003370                                    
HR4G814061884310155390000316323                   ON2396876233  MLHCP    0078  
HR5G814061884312018020101A007A 003370003370                                    
HR4G814061884410155390000316324                   ON2772061863  KBHCP    0078  
HR5G814061884412018020101A001A 002170002170                                    
HR4G814061884510155390000316325                   ON7819217493  CVHCP    0078  
HR5G814061884512018020101A007A 003370003370                                    
HR5G814061884512018020101G420A 001125001125                                    
HR4G814061884610155390000316326                   ON8398751092  HYHCP    0078  
HR5G814061884612018020101A007A 003370003370                                    
HR4G814061884710155390000316327                   ON1900752989  MJHCP    0078  
HR5G814061884712018020101K005A 006275006275                                    
HR4G814061884810155390000316328                   ON2070745506  CXHCP    0078  
HR5G814061884812018020101A007A 003370003370                                    
HR5G814061884812018020101G005A 000388000388                                    
HR4G814061884910155390000316329                   ON5237881692  VYHCP    0078  
HR5G814061884912018020101A007A 003370003370                                    
HR4G814061885010155390000316330                   ON6681408420  AJHCP    0078  
HR5G814061885012018020101A007A 003370003370                                    
HR4G814061885110155390000316331                   ON5694253203  XMHCP    0078  
HR5G814061885112018020101A007A 003370003370                                    
HR4G814061885210155390000316332                   ON7974080629  YEHCP    0078  
HR5G814061885212018020101A007A 003370003370                                    
HR5G814061885212018020101G372A 000389000389                                    
HR4G814061885310155390000316333                   ON8526379733  VTHCP    0078  
HR5G814061885312018020101A007A 003370003370                                    
HR4G814061885410155390000316334                   ON8907670460  WHHCP    0078  
HR5G814061885412018020101A007A 003370003370                                    
HR4G814061885510155390000316335                   ON6372000395  VGHCP    0078  
HR5G814061885512018020101A007A 003370003370                                    
HR4G814061885610155390000316336                   ON6805476030  DMHCP    0078  
HR5G814061885612018020101A007A 003370003370                                    
HR4G814061885710155390000316337                   ON8321958277  BFHCP    0078  
HR5G814061885712018020101A007A 003370003370                                    
HR4G814061885810155390000316338                   ON3373618820  PLHCP    0078  
HR5G814061885812018020101A007A 003370003370                                    
HR4G814061885910155390000316339                   ON3736182530  RJHCP    0078  
HR5G814061885912018020101A007A 003370003370                                    
HR4G814061886010155390000316340                   ON5647765121  JLHCP    0078  
HR5G814061886012018020101A007A 003370003370                                    
HR4G814061886110155390000316341                   ON4534261658  LBHCP    0078  
HR5G814061886112018020101K005A 006275006275                                    
HR4G814061886210155390000316342                   ON7410745009  PTHCP    0078  
HR5G814061886212018020101A007A 003370003370                                    
HR4G814061886310155390000316343                   ON5732661318  PGHCP    0078  
HR5G814061886312018020101A007A 003370003370                                    
HR4G814061886410155390000316344                   ON7003604241  MMHCP    0078  
HR5G814061886412018020101A007A 003370003370                                    
HR4G814061886510155390000316345                   ON5502876856  PHHCP    0078  
HR5G814061886512018020101A007A 003370003370                                    
HR4G802074692810155390000316434                   ON1954318695  VXHCP    0078  
HR5G802074692812018020301A007A 003370003370                                    
HR4G802074692910155390000316435                   ON1088712078  CVHCP    0078  
HR5G802074692912018020301A007A 003370003370                                    
HR4G802074693010155390000316436                   ON8382147752    HCP    0078  
HR5G802074693012018020301A007A 003370003370                                    
HR5G802074693012018020301G005A 000388000388                                    
HR4G802074693110155390000316437                   ON8122100517  CHHCP    0078  
HR5G802074693112018020301A007A 003370003370                                    
HR4G802074693210155390000316438                   ON4489862393  BTHCP    0078  
HR5G802074693212018020301A007A 003370003370                                    
HR5G802074693212018020301G010A 000207000207                                    
HR4G802074693310155390000316440                   ON7769168076  PVHCP    0078  
HR5G802074693312018020301A007A 003370003370                                    
HR5G802074693312018020301G010A 000207000207                                    
HR4G802074693410155390000316441                   ON3605383649  WFHCP    0078  
HR5G802074693412018020301A007A 003370003370                                    
HR4G802074693510155390000316442                   ON4777904741  RWHCP    0078  
HR5G802074693512018020301A007A 003370003370                                    
HR4G802074693610155390000316443                   ON2756485336  EEHCP    0078  
HR5G802074693612018020301A007A 003370003370                                    
HR4G802074693710155390000316444                   ON6197729392  TKHCP    0078  
HR5G802074693712018020301A007A 003370003370                                    
HR4G802074693810155390000316445                   ON2556251250  PBHCP    0078  
HR5G802074693812018020301A007A 003370003370                                    
HR4G802074693910155390000316446                   ON7222700853  MBHCP    0078  
HR5G802074693912018020301A007A 003370003370                                    
HR4G802074694010155390000316447                   ON2594931897  BKHCP    0078  
HR5G802074694012018020301A007A 003370003370                                    
HR4G802074694110155390000316448                   ON2923155705  BPHCP    0078  
HR5G802074694112018020301A007A 003370003370                                    
HR4G802074694210155390000316449                   ON7450041491  GGHCP    0078  
HR5G802074694212018020301A007A 003370003370                                    
HR4G802074694310155390000316450                   ON5266147890  YJHCP    0078  
HR5G802074694312018020301A007A 003370003370                                    
HR4G802074694410155390000316452                   ON5945630795  FYHCP    0078  
HR5G802074694412018020301A003A 007720007720                                    
HR4G802074694510155390000316453                   ON6014282260  VTHCP    0078  
HR5G802074694512018020301A007A 003370003370                                    
HR4G802074694610155390000316454                   ON4775108378  RPHCP    0078  
HR5G802074694612018020301A007A 003370003370                                    
HR4G802074694710155390000316455                   ON2563141726  FVHCP    0078  
HR5G802074694712018020301A007A 003370003370                                    
HR4G802074694810155390000316456                   ON4769357726  KPHCP    0078  
HR5G802074694812018020301A007A 003370003370                                    
HR4G802074694910155390000316457                   ON7742874543  XMHCP    0078  
HR5G802074694912018020301A007A 003370003370                                    
HR4G802074695010155390000316459                   ON2574481905  EKHCP    0078  
HR5G802074695012018020301A001A 002170002170                                    
HR4G802074695110155390000316460                   ON8413218085  NDHCP    0078  
HR5G802074695112018020301A007A 003370003370                                    
HR5G802074695112018020301G010A 000207000207                                    
HR4G802074695210155390000316461                   ON5988276712  LVHCP    0078  
HR5G802074695212018020301A007A 003370003370                                    
HR4G802074695310155390000316462                   ON5623253381  XVHCP    0078  
HR5G802074695312018020301A007A 003370003370                                    
HR4G802074695410155390000316463                   ON2319342529  TFHCP    0078  
HR5G802074695412018020301A007A 003370003370                                    
HR4G802074695510155390000316464                   ON3410722213  AGHCP    0078  
HR5G802074695512018020301A007A 003370003370                                    
HR4G802074695610155390000316465                   ON4603995681  BNHCP    0078  
HR5G802074695612018020301A007A 003370003370                                    
HR4G802074695710155390000316466                   ON5287694599  MHHCP    0078  
HR5G802074695712018020301A007A 003370003370                                    
HR4G802074695810155390000316467                   ON9334191286  REHCP    0078  
HR5G802074695812018020301A007A 003370003370                                    
HR4G802074695910155390000316468                   ON7071106657  LBHCP    0078  
HR5G802074695912018020301A007A 003370003370                                    
HR4G802074696010155390000316469                   ON7569549970  NLHCP    0078  
HR5G802074696012018020301A007A 003370003370                                    
HR4G802074696110155390000316470                   ON9773221354  CRHCP    0078  
HR5G802074696112018020301A007A 003370003370                                    
HR4G802074696210155390000316471                   ON1723278550  LFHCP    0078  
HR5G802074696212018020301A001A 002170002170                                    
HR5G802074696212018020301G372A 000389000389                                    
HR4G802074696310155390000316472                   ON2462157294  BGHCP    0078  
HR5G802074696312018020301A007A 003370003370                                    
HR4G802074696410155390000316473                   ON4098604202  LTHCP    0078  
HR5G802074696412018020301A007A 003370003370                                    
HR4G802074696510155390000316474                   ON4087713709  CPHCP    0078  
HR5G802074696512018020301A007A 003370003370                                    
HR4G802074696610155390000316475                   ON7520150835  YRHCP    0078  
HR5G802074696612018020301A007A 003370003370                                    
HR4G802074696710155390000316476                   ON8207313373    HCP    0078  
HR5G802074696712018020301A007A 003370003370                                    
HR4G802074696810155390000316477                   ON5364765585  DMHCP    0078  
HR5G802074696812018020301A007A 003370003370                                    
HR4G802074696910155390000316478                   ON4624838514  BGHCP    0078  
HR5G802074696912018020301A007A 003370003370                                    
HR4G802074697010155390000316479                   ON1334905393  WEHCP    0078  
HR5G802074697012018020301A007A 003370003370                                    
HR4G802074697110155390000316480                   ON3463426266  TRHCP    0078  
HR5G802074697112018020301A007A 003370003370                                    
HR4G802074697210155390000316481                   ON1559465008  MHHCP    0078  
HR5G802074697212018020301A007A 003370003370                                    
HR4G802074697310155390000316482                   ON7303054808  VEHCP    0078  
HR5G802074697312018020301A007A 003370003370                                    
HR4G802074697410155390000316483                   ON7547012265  BTHCP    0078  
HR5G802074697412018020301A007A 003370003370                                    
HR4G802074697510155390000316484                   ON9152446960  ATHCP    0078  
HR5G802074697512018020301A007A 003370003370                                    
HR5G802074697512018020301G010A 000207000207                                    
HR4G802074697610155390000316485                   ON8627408068  CRHCP    0078  
HR5G802074697612018020301A007A 003370003370                                    
HR4G802074697710155390000316486                   ON1916984345  NXHCP    0078  
HR5G802074697712018020301A007A 003370003370                                    
HR4G802074697810155390000316487                   ON5161207807  YAHCP    0078  
HR5G802074697812018020301A007A 003370003370                                    
HR4G802074697910155390000316488                   ON9610351349  KYHCP    0078  
HR5G802074697912018020301A007A 003370003370                                    
HR5G802074697912018020301G010A 000207000207                                    
HR4G802074698010155390000316489                   ON3056631280  WMHCP    0078  
HR5G802074698012018020301A007A 003370003370                                    
HR4G802075293710155390000316490                   ON3128055294  DHHCP    0078  
HR5G802075293712018020401A003A 007720007720                                    
HR4G802075293810155390000316491                   ON5493638802  XYHCP    0078  
HR5G802075293812018020401A007A 003370003370                                    
HR4G802075293910155390000316492                   ON9958281124  HNHCP    0078  
HR5G802075293912018020401A007A 003370003370                                    
HR5G802075293912018020401G847A 000450000450                                    
HR4G802075294010155390000316493                   ON4061976215  YKHCP    0078  
HR5G802075294012018020401A007A 003370003370                                    
HR4G802075294110155390000316494                   ON6756844731  MJHCP    0078  
HR5G802075294112018020401A007A 003370003370                                    
HR4G802075294210155390000316495                   ON7055229830  KXHCP    0078  
HR5G802075294212018020401A007A 003370003370                                    
HR5G802075294212018020401G010A 000207000207                                    
HR4G802075294310155390000316496                   ON4612113672  CEHCP    0078  
HR5G802075294312018020401A007A 003370003370                                    
HR4G802075294410155390000316497                   ON2280377835  YHHCP    0078  
HR5G802075294412018020401A007A 003370003370                                    
HR4G802075294510155390000316499                   ON2212359604  YHHCP    0078  
HR5G802075294512018020401A007A 003370003370                                    
HR4G802075294610155390000316500                   ON7280127593  BXHCP    0078  
HR5G802075294612018020401A007A 003370003370                                    
HR4G802075294710155390000316501                   ON2615841679  VMHCP    0078  
HR5G802075294712018020401A007A 003370003370                                    
HR4G802075294810155390000316502                   ON5737552512  EJHCP    0078  
HR5G802075294812018020401A007A 003370003370                                    
HR4G802075294910155390000316503                   ON4659397006  YYHCP    0078  
HR5G802075294912018020401A007A 003370003370                                    
HR4G802075295010155390000316504                   ON8432470790  CEHCP    0078  
HR5G802075295012018020401A007A 003370003370                                    
HR4G802075295110155390000316505                   ON2561272952  BLHCP    0078  
HR5G802075295112018020401A001A 002170002170                                    
HR4G802075295210155390000316506                   ON3261152924  WVHCP    0078  
HR5G802075295212018020401K005A 006275006275                                    
HR4G802075295310155390000316507                   ON2433859937  PYHCP    0078  
HR5G802075295312018020401A007A 003370003370                                    
HR4G802075295410155390000316508                   ON2977740857  TMHCP    0078  
HR5G802075295412018020401A007A 003370003370                                    
HR4G802075295510155390000316509                   ON3261428670  XAHCP    0078  
HR5G802075295512018020401A007A 003370003370                                    
HR4G802075295610155390000316510                   ON7772236035  TFHCP    0078  
HR5G802075295612018020401A007A 003370003370                                    
HR4G802075295710155390000316511                   ON2090638343  GBHCP    0078  
HR5G802075295712018020401A007A 003370003370                                    
HR4G802075295810155390000316512                   ON5750133547  WRHCP    0078  
HR5G802075295812018020401A007A 003370003370                                    
HR4G802075295910155390000316513                   ON2469651810  XAHCP    0078  
HR5G802075295912018020401A007A 003370003370                                    
HR4G802075296010155390000316514                   ON5399890242  WEHCP    0078  
HR5G802075296012018020401A007A 003370003370                                    
HR4G802075296110155390000316515                   ON8697022096  CEHCP    0078  
HR5G802075296112018020401A007A 003370003370                                    
HR4G802075296210155390000316516                   ON2643282003  RGHCP    0078  
HR5G802075296212018020401A007A 003370003370                                    
HR4G802075296310155390000316517                   ON7124343349  CDHCP    0078  
HR5G802075296312018020401A007A 003370003370                                    
HR4G802075296410155390000316518                   ON1094264973  RKHCP    0078  
HR5G802075296412018020401A007A 003370003370                                    
HR4G802075296510155390000316519                   ON1929637187  GWHCP    0078  
HR5G802075296512018020401A007A 003370003370                                    
HR4G802075296610155390000316520                   ON3816873057  LPHCP    0078  
HR5G802075296612018020401A007A 003370003370                                    
HR4G802075296710155390000316521                   ON4705805770  GAHCP    0078  
HR5G802075296712018020401A007A 003370003370                                    
HR4G802075296810155390000316522                   ON9531493337  CJHCP    0078  
HR5G802075296812018020401A007A 003370003370                                    
HR4G802075296910155390000316523                   ON8934527709  GTHCP    0078  
HR5G802075296912018020401A007A 003370003370                                    
HR5G802075296912018020401G202A 000445000445                                    
HR4G802075297010155390000316524                   ON9691408992  WVHCP    0078  
HR5G802075297012018020401A007A 003370003370                                    
HR4G802075297110155390000316525                   ON3632329318  KDHCP    0078  
HR5G802075297112018020401A007A 003370003370                                    
HR4G802075297210155390000316526                   ON5928148625  KHHCP    0078  
HR5G802075297212018020401A003A 007720007720                                    
HR4G802075297310155390000316527                   ON7178555319  JJHCP    0078  
HR5G802075297312018020401A007A 003370003370                                    
HR4G802075297410155390000316528                   ON2064386333  XHHCP    0078  
HR5G802075297412018020401A007A 003370003370                                    
HR4G802075297510155390000316529                   ON9411324420  YJHCP    0078  
HR5G802075297512018020401A007A 003370003370                                    
HR4G802075297610155390000316530                   ON7863376815  KPHCP    0078  
HR5G802075297612018020401A007A 003370003370                                    
HR4G802126987110155390000316531                   ON2097665265  FYHCP    0078  
HR5G802126987112018020401A007A 003370003370                                    
HR4G802075297810155390000316532                   ON7677084852  BLHCP    0078  
HR5G802075297812018020401A007A 003370003370                                    
HR4G802075297910155390000316535                   ON3435647338  DBHCP    0078  
HR5G802075297912018020401A007A 003370003370                                    
HR4G802075298010155390000316536                   ON2527957449  FMHCP    0078  
HR5G802075298012018020401A007A 003370003370                                    
HR4G802075298110155390000316537                   ON3226623878  GTHCP    0078  
HR5G802075298112018020401A007A 003370003370                                    
HR4G802075298210155390000316538                   ON1449674439  NRHCP    0078  
HR5G802075298212018020401A007A 003370003370                                    
HR4G802075298310155390000316539                   ON6914843336  KXHCP    0078  
HR5G802075298312018020401A007A 003370003370                                    
HR4G802075298410155390000316540                   ON3359933714  GKHCP    0078  
HR5G802075298412018020401A007A 003370003370                                    
HR4G802075298510155390000316541                   ON9712644161  PJHCP    0078  
HR5G802075298512018020401A007A 003370003370                                    
HR5G802075298512018020401G010A 000207000207                                    
HR4G802075298610155390000316542                   ON3088033455  MNHCP    0078  
HR5G802075298612018020401A007A 003370003370                                    
HR4G802075298710155390000316543                   ON9576216247  ENHCP    0078  
HR5G802075298712018020401A007A 003370003370                                    
HR5G802075298712018020401G420A 001125001125                                    
HR4G802075298810155390000316544                   ON2076120555  FYHCP    0078  
HR5G802075298812018020401A007A 003370003370                                    
HR4G802075298910155390000316545                   ON4016351480  KNHCP    0078  
HR5G802075298912018020401A007A 003370003370                                    
HR4G802075299010155390000316546                   ON5877277623  BCHCP    0078  
HR5G802075299012018020401A007A 003370003370                                    
HR4G802075299110155390000316547                   ON4624838514  BGHCP    0078  
HR5G802075299112018020401A007A 003370003370                                    
HR4G802075299210155390000316548                   ON2365579750  NTHCP    0078  
HR5G802075299212018020401A003A 007720007720                                    
HR4G802083198510155390000316587                   ON3261152924  WVHCP    0078  
HR5G802083198512018020501A007A 003370003370                                    
HR4G802083198610155390000316588                   ON8825372801  ABHCP    0078  
HR5G802083198612018020501A007A 003370003370                                    
HR4G802083198710155390000316589                   ON1575523517  LBHCP    0078  
HR5G802083198712018020501A007A 003370003370                                    
HR4G802083198810155390000316590                   ON3622756843  KMHCP    0078  
HR5G802083198812018020501A007A 003370003370                                    
HR4G802083198910155390000316591                   ON6953869440  CPHCP    0078  
HR5G802083198912018020501A007A 003370003370                                    
HR4G802083199110155390000316594                   ON5262992174  GDHCP    0078  
HR5G802083199112018020501A007A 003370003370                                    
HR4G802083199210155390000316595                   ON2563141726  FVHCP    0078  
HR5G802083199212018020501A001A 002170002170                                    
HR5G802083199212018020501G847A 000450000450                                    
HR4G802083199310155390000316596                   ON9494158893  YLHCP    0078  
HR5G802083199312018020501A007A 003370003370                                    
HR4G802083199410155390000316597                   ON9145406105  DAHCP    0078  
HR5G802083199412018020501A007A 003370003370                                    
HR4G802083199510155390000316598                   ON6913835861  VPHCP    0078  
HR5G802083199512018020501A007A 003370003370                                    
HR4G802083199610155390000316599                   ON5497431105  AFHCP    0078  
HR5G802083199612018020501A007A 003370003370                                    
HR5G802083199612018020501G848A 000450000450                                    
HR4G802083199710155390000316600                   ON6767799304  JHHCP    0078  
HR5G802083199712018020501A007A 003370003370                                    
HR4G802083199810155390000316601                   ON4790055927  KWHCP    0078  
HR5G802083199812018020501A007A 003370003370                                    
HR4G802083199910155390000316602                   ON4501718961  GJHCP    0078  
HR5G802083199912018020501A007A 003370003370                                    
HR4G802083200010155390000316603                   ON7949698562  VJHCP    0078  
HR5G802083200012018020501A007A 003370003370                                    
HR4G802083200110155390000316604                   ON6265934759  GFHCP    0078  
HR5G802083200112018020501A007A 003370003370                                    
HR4G802083200210155390000316605                   ON1295447849  BCHCP    0078  
HR5G802083200212018020501A007A 003370003370                                    
HR4G802083200310155390000316606                   ON7864319988  BXHCP    0078  
HR5G802083200312018020501A007A 003370003370                                    
HR4G802083200410155390000316607                   ON1224689644  YPHCP    0078  
HR5G802083200412018020501A007A 003370003370                                    
HR4G802083200510155390000316608                   ON5514333540  XWHCP    0078  
HR5G802083200512018020501A007A 003370003370                                    
HR4G802083200610155390000316609                   ON5849138671  YGHCP    0078  
HR5G802083200612018020501A007A 003370003370                                    
HR4G802083200710155390000316611                   ON3044414468  NFHCP    0078  
HR5G802083200712018020501A007A 003370003370                                    
HR4G802083200810155390000316612                   ON4638242737    HCP    0078  
HR5G802083200812018020501A007A 003370003370                                    
HR4G802083200910155390000316613                   ON5884470039  RTHCP    0078  
HR5G802083200912018020501A007A 003370003370                                    
HR4G802083201010155390000316614                   ON9246611603  VKHCP    0078  
HR5G802083201012018020501A007A 003370003370                                    
HR4G802083201110155390000316615                   ON6474261770  HHHCP    0078  
HR5G802083201112018020501A007A 003370003370                                    
HR5G802083201112018020501G005A 000388000388                                    
HR4G802083201210155390000316616                   ON5779064202  MNHCP    0078  
HR5G802083201212018020501A007A 003370003370                                    
HR4G802083201310155390000316617                   ON2904965718  YHHCP    0078  
HR5G802083201312018020501A007A 003370003370                                    
HR4G802083201410155390000316618                   ON9046303294  VLHCP    0078  
HR5G802083201412018020501A007A 003370003370                                    
HR5G802083201412018020501G010A 000207000207                                    
HR4G802083201510155390000316619                   ON3171113065  BVHCP    0078  
HR5G802083201512018020501A007A 003370003370                                    
HR4G802083201610155390000316620                   ON5502876856  PHHCP    0078  
HR5G802083201612018020501K005A 006275006275                                    
HR4G802083201710155390000316621                   ON8449312936  WXHCP    0078  
HR5G802083201712018020501A007A 003370003370                                    
HR4G802083201810155390000316622                   ON8443707974  WYHCP    0078  
HR5G802083201812018020501A007A 003370003370                                    
HR4G802083201910155390000316623                   ON3718063930  ANHCP    0078  
HR5G802083201912018020501A007A 003370003370                                    
HR4G802083202010155390000316624                   ON5783702359  WVHCP    0078  
HR5G802083202012018020501A007A 003370003370                                    
HR4G802083202110155390000316627                   ON3469839587  ARHCP    0078  
HR5G802083202112018020501A007A 003370003370                                    
HR4G802083202210155390000316628                   ON5550317027  MJHCP    0078  
HR5G802083202212018020501A007A 003370003370                                    
HR5G802083202212018020501G010A 000207000207                                    
HR4G802083202310155390000316629                   ON3983425244    HCP    0078  
HR5G802083202312018020501A007A 003370003370                                    
HR4G802083202410155390000316630                   ON5903830312  RJHCP    0078  
HR5G802083202412018020501A007A 003370003370                                    
HR4G802083202510155390000316631                   ON4535682167  YVHCP    0078  
HR5G802083202512018020501A007A 003370003370                                    
HR4G802083202610155390000316632                   ON2035116256  RGHCP    0078  
HR5G802083202612018020501A007A 003370003370                                    
HR4G802083202710155390000316633                   ON1310701527  AJHCP    0078  
HR5G802083202712018020501A007A 003370003370                                    
HR4G802083202810155390000316634                   ON5304509697  KPHCP    0078  
HR5G802083202812018020501A007A 003370003370                                    
HR4G802083202910155390000316635                   ON4723090108  BHHCP    0078  
HR5G802083202912018020501A007A 003370003370                                    
HR4G802083203010155390000316636                   ON5410319577  AVHCP    0078  
HR5G802083203012018020501A007A 003370003370                                    
HR4G802083203110155390000316637                   ON8843447247  FEHCP    0078  
HR5G802083203112018020501A003A 007720007720                                    
HR5G802083203112018020501G010A 000207000207                                    
HR4G802083203210155390000316638                   ON5834348046  VGHCP    0078  
HR5G802083203212018020501A007A 003370003370                                    
HR5G802083203212018020501G005A 000388000388                                    
HR4G802083203310155390000316639                   ON9305307853  GHHCP    0078  
HR5G802083203312018020501A007A 003370003370                                    
HR4G802083203410155390000316640                   ON3789848656  LBHCP    0078  
HR5G802083203412018020501A007A 003370003370                                    
HR4G802083203510155390000316641                   ON4580319855  CGHCP    0078  
HR5G802083203512018020501A007A 003370003370                                    
HR5G802083203512018020501G010A 000207000207                                    
HR4G802083203610155390000316642                   ON6981357327  EKHCP    0078  
HR5G802083203612018020501A001A 002170002170                                    
HR5G802083203612018020501G840A 000450000450                                    
HR4G802083203710155390000316643                   ON7421446415  MVHCP    0078  
HR5G802083203712018020501A007A 003370003370                                    
HR4G802083203810155390000316644                   ON6039088346  XLHCP    0078  
HR5G802083203812018020501A007A 003370003370                                    
HR4G814093309510155390000316846                   ON9569242986  KEHCP    0078  
HR5G814093309512018020801A007A 003370003370                                    
HR4G814093309610155390000316847                   ON6287435173  GBHCP    0078  
HR5G814093309612018020801A001A 002170002170                                    
HR5G814093309612018020801G847A 000450000450                                    
HR4G814093309710155390000316848                   ON2044161061  GRHCP    0078  
HR5G814093309712018020801A007A 003370003370                                    
HR4G814093309810155390000316849                   ON6860214508  KLHCP    0078  
HR5G814093309812018020801A007A 003370003370                                    
HR4G814093309910155390000316850                   ON7421446415  MVHCP    0078  
HR5G814093309912018020801A007A 003370003370                                    
HR4G814093310010155390000316851                   ON3000134399  PKHCP    0078  
HR5G814093310012018020801A007A 003370003370                                    
HR4G814093310110155390000316853                   ON7655912983  PMHCP    0078  
HR5G814093310112018020801A007A 003370003370                                    
HR4G814093310210155390000316854                   ON5550941156  VAHCP    0078  
HR5G814093310212018020801A007A 003370003370                                    
HR4G814093310310155390000316855                   ON6104806523  ETHCP    0078  
HR5G814093310312018020801A007A 003370003370                                    
HR4G814093310410155390000316856                   ON4612830820  JWHCP    0078  
HR5G814093310412018020801A007A 003370003370                                    
HR4G814093310510155390000316857                   ON5399497329  WYHCP    0078  
HR5G814093310512018020801A007A 003370003370                                    
HR4G814093310610155390000316858                   ON7742874543  XMHCP    0078  
HR5G814093310612018020801A007A 003370003370                                    
HR5G814093310612018020801G010A 000207000207                                    
HR5G814093310612018020801K055A 002000002000                                    
HR4G814093310710155390000316859                   ON3791633401  EXHCP    0078  
HR5G814093310712018020801A007A 003370003370                                    
HR4G814093310810155390000316860                   ON2298572138  CEHCP    0078  
HR5G814093310812018020801A007A 003370003370                                    
HR4G814093310910155390000316861                   ON3583248566  HAHCP    0078  
HR5G814093310912018020801A007A 003370003370                                    
HR4G814093311010155390000316862                   ON3481726952  CYHCP    0078  
HR5G814093311012018020801A007A 003370003370                                    
HR4G814093311110155390000316863                   ON8308058240  VNHCP    0078  
HR5G814093311112018020801A007A 003370003370                                    
HR5G814093311112018020801G010A 000207000207                                    
HR4G814093311210155390000316864                   ON1443509128  CLHCP    0078  
HR5G814093311212018020801A007A 003370003370                                    
HR5G814093311212018020801G202A 000445000445                                    
HR4G814093311310155390000316865                   ON3127734493  GRHCP    0078  
HR5G814093311312018020801A007A 003370003370                                    
HR4G814093311410155390000316866                   ON5897377965  YGHCP    0078  
HR5G814093311412018020801A007A 003370003370                                    
HR4G814093311510155390000316867                   ON6657313620  ERHCP    0078  
HR5G814093311512018020801A007A 003370003370                                    
HR4G814093311610155390000316869                   ON9482639599  CXHCP    0078  
HR5G814093311612018020801A007A 003370003370                                    
HR5G814093311612018020801G372A 000389000389                                    
HR4G814093311710155390000316870                   ON9225253575  PTHCP    0078  
HR5G814093311712018020801A007A 003370003370                                    
HR5G814093311712018020801G010A 000207000207                                    
HR4G814093311810155390000316871                   ON4014372694  FGHCP    0078  
HR5G814093311812018020801A007A 003370003370                                    
HR4G814093311910155390000316872                   ON6232918711  KDHCP    0078  
HR5G814093311912018020801A007A 003370003370                                    
HR4G814093312010155390000316873                   ON6448119377  ELHCP    0078  
HR5G814093312012018020801A007A 003370003370                                    
HR4G814093312110155390000316874                   ON6585962894    HCP    0078  
HR5G814093312112018020801A007A 003370003370                                    
HR5G814093312112018020801G372A 000389000389                                    
HR4G814093312210155390000316875                   ON1298405950  XDHCP    0078  
HR5G814093312212018020801A001A 002170002170                                    
HR5G814093312212018020801G848A 000450000450                                    
HR4G814093312310155390000316876                   ON7725500073  MTHCP    0078  
HR5G814093312312018020801A007A 003370003370                                    
HR5G814093312312018020801A903A 006505006505                                    
HR5G814093312312018020801G010A 000207000207                                    
HR4G814093312410155390000316877                   ON8478450870  XNHCP    0078  
HR5G814093312412018020801A007A 003370003370                                    
HR4G814093312510155390000316878                   ON9903177864  JFHCP    0078  
HR5G814093312512018020801A007A 003370003370                                    
HR4G814093312610155390000316879                   ON7103689605  KEHCP    0078  
HR5G814093312612018020801A007A 003370003370                                    
HR5G814093312612018020801G847A 000450000450                                    
HR4G814093312710155390000316880                   ON3771528381  YDHCP    0078  
HR5G814093312712018020801A007A 003370003370                                    
HR4G814093312810155390000316881                   ON8251187780  WTHCP    0078  
HR5G814093312812018020801A007A 003370003370                                    
HR4G814093312910155390000316882                   ON9091136730  KRHCP    0078  
HR5G814093312912018020801A007A 003370003370                                    
HR4G814093313010155390000316883                   ON9973909378  NCHCP    0078  
HR5G814093313012018020801A007A 003370003370                                    
HR4G814093313110155390000316884                   ON6400619133  RFHCP    0078  
HR5G814093313112018020801A007A 003370003370                                    
HR4G814093313210155390000316885                   ON5289030644  TDHCP    0078  
HR5G814093313212018020801A007A 003370003370                                    
HR5G814093313212018020801G372A 000389000389                                    
HR4G814093313310155390000316886                   ON9517767811  LJHCP    0078  
HR5G814093313312018020801A007A 003370003370                                    
HR4G814093313410155390000316887                   ON8216583107  WDHCP    0078  
HR5G814093313412018020801A007A 003370003370                                    
HR4G814093313510155390000316888                   ON2448977666  BNHCP    0078  
HR5G814093313512018020801A007A 003370003370                                    
HR4G814093313610155390000316889                   ON4316569476  MFHCP    0078  
HR5G814093313612018020801A007A 003370003370                                    
HR5G814093313612018020801G010A 000207000207                                    
HR4G814093313710155390000316890                   ON9156129836  YAHCP    0078  
HR5G814093313712018020801A007A 003370003370                                    
HR5G814093313712018020802G372A 000778000778                                    
HR4G814093313810155390000316891                   ON2691968495  THHCP    0078  
HR5G814093313812018020801A007A 003370003370                                    
HR4G814093313910155390000316892                   ON7974080629  YEHCP    0078  
HR5G814093313912018020801A001A 002170002170                                    
HR5G814093313912018020801G372A 000389000389                                    
HR4G814093314010155390000316893                   ON3454385976  VMHCP    0078  
HR5G814093314012018020801A007A 003370003370                                    
HR5G814093314012018020801G010A 000207000207                                    
HR4G814093314110155390000316894                   ON9403780720  TRHCP    0078  
HR5G814093314112018020801A007A 003370003370                                    
HR4G814093314210155390000316896                   ON6589016937  ELHCP    0078  
HR5G814093314212018020801A007A 003370003370                                    
HR5G814093314212018020801G372A 000389000389                                    
HR4G814093314310155390000316897                   ON6072395392  KYHCP    0078  
HR5G814093314312018020801A007A 003370003370                                    
HR5G814093314312018020801G372A 000389000389                                    
HR4G814093314410155390000316898                   ON7730042541  LNHCP    0078  
HR5G814093314412018020801A007A 003370003370                                    
HR4G814093314510155390000316899                   ON6574682586  PAHCP    0078  
HR5G814093314512018020801A007A 003370003370                                    
HR4G814093314610155390000316900                   ON6544087973  EBHCP    0078  
HR5G814093314612018020801A007A 003370003370                                    
HR4G814093314710155390000316901                   ON6675078676  KRHCP    0078  
HR5G814093314712018020801A007A 003370003370                                    
