HR1V030007800000000H720180413STONEY CREEK MEDICAL WALK IN C006469292 99999999  
HR2                              2A - 140 CENTENNIAL PARKW                     
HR3HAMILTON        ON L8E1H9                                                   
HR4G801173689410155390000314998                   ON5892406991    HCP    0078  
HR5G801173689412018011601A007A 003370003370 EV                                 
HR4G803274792710155390000316684                   ON5288159659  AJHCP    0078  
HR5G803274792712018020601A007A 003370003370                                    
HR4G803274792810155390000316686                   ON8542241495  WCHCP    0078  
HR5G803274792812018020601A001A 002170002170                                    
HR5G803274792812018020601G590A 000450000450                                    
HR4G803274792910155390000316687                   ON6752834298  CVHCP    0078  
HR5G803274792912018020601A007A 003370003370                                    
HR4G803092926110155390000316688                   ON7765950766  HTHCP    0078  
HR5G803092926112018020601A007A 003370003370                                    
HR4G803274793010155390000316688                   ON7765950766  HTHCP    0078  
HR5G803274793012018020601A007A 003370000000 35                                 
HR4G803274793110155390000316689                   ON6953869440  CPHCP    0078  
HR5G803274793112018020601A007A 003370003370                                    
HR4G803274793210155390000316691                   ON5425553921  XTHCP    0078  
HR5G803274793212018020601A007A 003370003370                                    
HR4G803274793310155390000316692                   ON6977449021  VBHCP    0078  
HR5G803274793312018020601A007A 003370003370                                    
HR4G803274793410155390000316693                   ON9805928265  YHHCP    0078  
HR5G803274793412018020601A007A 003370003370                                    
HR4G803274793510155390000316694                   ON8715772623  YEHCP    0078  
HR5G803274793512018020601A007A 003370003370                                    
HR4G803274793610155390000316695                   ON6654371498  RYHCP    0078  
HR5G803274793612018020601A007A 003370003370                                    
HR4G803274793710155390000316696                   ON6525624448  ATHCP    0078  
HR5G803274793712018020601A007A 003370003370                                    
HR4G803274793810155390000316697                   ON8496796650  TAHCP    0078  
HR5G803274793812018020601A007A 003370003370                                    
HR4G803274793910155390000316698                   ON6931296237  KBHCP    0078  
HR5G803274793912018020601A007A 003370003370                                    
HR4G803274794010155390000316699                   ON4965475603  RTHCP    0078  
HR5G803274794012018020601A007A 003370003370                                    
HR4G803274794110155390000316701                   ON7207074597  TPHCP    0078  
HR5G803274794112018020601A007A 003370003370                                    
HR4G803128056510155390000316702                   ON5985881167  XCHCP    0078  
HR5G803128056512018020601A007A 003370003370                                    
HR4G803231593110155390000316702                   ON5985881167  XHHCP    0078  
HR5G803231593112018020601A007A 003370000000 35                                 
HR4G803274794210155390000316702                   ON5985881167  XHHCP    0078  
HR5G803274794212018020601A007A 003370000000 35                                 
HR4G803274794310155390000316703                   ON4985032954  EAHCP    0078  
HR5G803274794312018020601A007A 003370003370                                    
HR4G803274794410155390000316704                   ON1114651894  B HCP    0078  
HR5G803274794412018020601A007A 003370003370                                    
HR4G803274794510155390000316705                   ON8685119433  JYHCP    0078  
HR5G803274794512018020601A007A 003370003370                                    
HR4G803274794610155390000316707                   ON5800192790  WEHCP    0078  
HR5G803274794612018020601A007A 003370003370                                    
HR4G803274794710155390000316709                   ON8838540873  LTHCP    0078  
HR5G803274794712018020601A007A 003370003370                                    
HR4G803274794810155390000316710                   ON6589016937  ELHCP    0078  
HR5G803274794812018020601A001A 002170002170                                    
HR5G803274794812018020601G372A 000389000389                                    
HR4G803274794910155390000316711                   ON6087304322  RWHCP    0078  
HR5G803274794912018020601A007A 003370003370                                    
HR4G803274795010155390000316712                   ON7124663506  XLHCP    0078  
HR5G803274795012018020601A007A 003370003370                                    
HR4G803274795110155390000316713                   ON4890905963  RGHCP    0078  
HR5G803274795112018020601A007A 003370003370                                    
HR5G803274795112018020601G372A 000389000389                                    
HR4G803274795210155390000316714                   ON6374273065  BLHCP    0078  
HR5G803274795212018020601A007A 003370003370                                    
HR4G803274795310155390000316715                   ON7519511096  BGHCP    0078  
HR5G803274795312018020601A007A 003370003370                                    
HR4G803092926210155390000316716                   ON7728675518  XCHCP    0078  
HR5G803092926212018020601A001A 002170002170                                    
HR5G803092926212018020601G372A 000389000389                                    
HR4G803274795410155390000316716                   ON7728675518  XCHCP    0078  
HR5G803274795412018020601A001A 002170000000 35                                 
HR5G803274795412018020601G372A 000389000000 35                                 
HR4G803274795510155390000316717                   ON4870108232  PDHCP    0078  
HR5G803274795512018020601A001A 002170002170                                    
HR5G803274795512018020601G372A 000389000389                                    
HR4G803274795610155390000316718                   ON7328110197  PVHCP    0078  
HR5G803274795612018020601A007A 003370003370                                    
HR4G803274795710155390000316719                   ON6981357327  EKHCP    0078  
HR5G803274795712018020601A001A 002170002170                                    
HR5G803274795712018020601G848A 000450000450                                    
HR4G803274795810155390000316720                   ON9588954470  JTHCP    0078  
HR5G803274795812018020601A001A 002170002170                                    
HR4G803274795910155390000316721                   ON9334032712  NYHCP    0078  
HR5G803274795912018020601A007A 003370003370                                    
HR4G803274796010155390000316722                   ON6475216971  PXHCP    0078  
HR5G803274796012018020601A001A 002170002170                                    
HR5G803274796012018020601G372A 000389000389                                    
HR4G803274796110155390000316723                   ON3580499949  RYHCP    0078  
HR5G803274796112018020601A007A 003370003370                                    
HR4G803274796210155390000316724                   ON2237298779  GTHCP    0078  
HR5G803274796212018020601A007A 003370003370                                    
HR4G803274796310155390000316725                   ON5356363415  MLHCP    0078  
HR5G803274796312018020601A007A 003370003370                                    
HR4G803274796410155390000316726                   ON5275387651  ATHCP    0078  
HR5G803274796412018020601A007A 003370003370                                    
HR4G803274796510155390000316727                   ON1897820369  FNHCP    0078  
HR5G803274796512018020601A007A 003370003370                                    
HR4G803274796610155390000316728                   ON6116573533    HCP    0078  
HR5G803274796612018020601A007A 003370003370                                    
HR4G803274796710155390000316729                   ON6211251696  GCHCP    0078  
HR5G803274796712018020601A007A 003370003370                                    
HR4G803274796810155390000316730                   ON6347895200  JXHCP    0078  
HR5G803274796812018020601A007A 003370003370                                    
HR4G803274796910155390000316731                   ON4807837457  GMHCP    0078  
HR5G803274796912018020601A007A 003370003370                                    
HR4G803274797010155390000316732                   ON4421734700  KYHCP    0078  
HR5G803274797012018020601A007A 003370003370                                    
HR4G803274797110155390000316733                   ON4705805770  GAHCP    0078  
HR5G803274797112018020601A007A 003370003370                                    
HR4G803274797210155390000316735                   ON5998832603  ADHCP    0078  
HR5G803274797212018020601A007A 003370003370                                    
HR4G803274797310155390000316736                   ON9205870612  CNHCP    0078  
HR5G803274797312018020601A007A 003370003370                                    
HR4G803274797410155390000316737                   ON3682580448  CNHCP    0078  
HR5G803274797412018020601A007A 003370003370                                    
HR4G803274797510155390000316738                   ON2369716135  CJHCP    0078  
HR5G803274797512018020601A007A 003370003370                                    
HR4G803274797610155390000316739                   ON9482960979  CNHCP    0078  
HR5G803274797612018020601A007A 003370003370                                    
HR4G803065418810155390000317249                   ON8185260505  FJHCP    0078  
HR5G803065418812018021301A007A 003370003370                                    
HR4G803065418910155390000317465                   ON3931474997  GAHCP    0078  
HR5G803065418912018021601A007A 003370003370                                    
HR4G803075960910155390000318409                   ON8738869125  TTHCP    0078  
HR5G803075960912018030101K038A 004515004515                                    
HR4G803078321510155390000318539                   ON8308058240  VNHCP    0078  
HR5G803078321512018030401A007A 003370003370                                    
HR4G803078321610155390000318541                   ON8895426891  HFHCP    0078  
HR5G803078321612018030401A007A 003370003370                                    
HR4G803078321710155390000318542                   ON8743751318  CVHCP    0078  
HR5G803078321712018030401A007A 003370003370                                    
HR4G803078321810155390000318543                   ON3354779260  XEHCP    0078  
HR5G803078321812018030401A007A 003370003370                                    
HR4G803078321910155390000318545                   ON6793092609  MKHCP    0078  
HR5G803078321912018030401A007A 003370003370                                    
HR4G803078322010155390000318546                   ON2772061863  KBHCP    0078  
HR5G803078322012018030401A007A 003370003370                                    
HR4G803078322110155390000318547                   ON9118703025  CRHCP    0078  
HR5G803078322112018030401A007A 003370003370                                    
HR5G803078322112018030401G010A 000207000207                                    
HR4G803078322210155390000318548                   ON2608293029  LBHCP    0078  
HR5G803078322212018030401A007A 003370003370                                    
HR4G803078322310155390000318549                   ON1251635130  ERHCP    0078  
HR5G803078322312018030401A007A 003370003370                                    
HR4G803078322410155390000318550                   ON6756844731  MJHCP    0078  
HR5G803078322412018030401A007A 003370003370                                    
HR4G803078322510155390000318551                   ON4061470623  GJHCP    0078  
HR5G803078322512018030401A001A 002170002170                                    
HR5G803078322512018030401G202A 000445000445                                    
HR4G803078322610155390000318552                   ON3748703711  WWHCP    0078  
HR5G803078322612018030401A007A 003370003370                                    
HR4G803078322710155390000318553                   ON7084273643  EPHCP    0078  
HR5G803078322712018030401A007A 003370003370                                    
HR4G803078322810155390000318554                   ON7142869762  LWHCP    0078  
HR5G803078322812018030401A007A 003370003370                                    
HR4G803078322910155390000318555                   ON7273169107  HHHCP    0078  
HR5G803078322912018030401A001A 002170002170                                    
HR5G803078322912018030401G372A 000389000389                                    
HR4G803078323010155390000318556                   ON1764143002  HKHCP    0078  
HR5G803078323012018030401A007A 003370003370                                    
HR4G803078323110155390000318557                   ON9443205225  MGHCP    0078  
HR5G803078323112018030401A007A 003370003370                                    
HR4G803078323210155390000318558                   ON9497835216  APHCP    0078  
HR5G803078323212018030401A007A 003370003370                                    
HR4G803078323310155390000318559                   ON5424944204  CVHCP    0078  
HR5G803078323312018030401A007A 003370003370                                    
HR4G803078323410155390000318560                   ON6782055245  CLHCP    0078  
HR5G803078323412018030401A007A 003370003370                                    
HR4G803078323510155390000318561                   ON7896321838  PWHCP    0078  
HR5G803078323512018030401A007A 003370003370                                    
HR4G803078323610155390000318562                   ON4283331108  THHCP    0078  
HR5G803078323612018030401A007A 003370003370                                    
HR5G803078323612018030401G372A 000389000389                                    
HR4G803078323710155390000318563                   ON8857117645  RHHCP    0078  
HR5G803078323712018030401A007A 003370003370                                    
HR4G803078323810155390000318564                   ON7428918127  LRHCP    0078  
HR5G803078323812018030401A007A 003370003370                                    
HR5G803078323812018030401G010A 000207000207                                    
HR4G803078323910155390000318565                   ON8838348368  RYHCP    0078  
HR5G803078323912018030401A007A 003370003370                                    
HR4G803078324010155390000318566                   ON8907670460  WHHCP    0078  
HR5G803078324012018030401A007A 003370003370                                    
HR5G803078324012018030401K054A 002500002500                                    
HR4G803078324110155390000318567                   ON4086727247  DJHCP    0078  
HR5G803078324112018030401A007A 003370003370                                    
HR4G803078324210155390000318570                   ON6324799086  RFHCP    0078  
HR5G803078324212018030401A007A 003370003370                                    
HR4G803078324310155390000318571                   ON9851831306  EMHCP    0078  
HR5G803078324312018030401A007A 003370003370                                    
HR4G803078324410155390000318572                   ON2576783183  PDHCP    0078  
HR5G803078324412018030401A007A 003370003370                                    
HR4G803078324510155390000318573                   ON7050993158  GBHCP    0078  
HR5G803078324512018030401A007A 003370003370                                    
HR4G803078324610155390000318574                   ON4769396443  ABHCP    0078  
HR5G803078324612018030401A007A 003370003370                                    
HR4G803078324710155390000318575                   ON6347145648  FKHCP    0078  
HR5G803078324712018030401A007A 003370003370                                    
HR4G803078324810155390000318576                   ON4829794728  JYHCP    0078  
HR5G803078324812018030401A007A 003370003370                                    
HR4G803078324910155390000318577                   ON2449787387  MEHCP    0078  
HR5G803078324912018030401A007A 003370003370                                    
HR4G803078325010155390000318578                   ON8934527709  GTHCP    0078  
HR5G803078325012018030401A001A 002170002170                                    
HR5G803078325012018030401G202A 000445000445                                    
HR4G803078325110155390000318579                   ON1012354492  BVHCP    0078  
HR5G803078325112018030401A007A 003370003370                                    
HR4G803078325210155390000318580                   ON8164031935  JLHCP    0078  
HR5G803078325212018030401A007A 003370003370                                    
HR4G803078325310155390000318581                   ON5046826748  VVHCP    0078  
HR5G803078325312018030401A007A 003370003370                                    
HR4G803078325410155390000318582                   ON1517789150  JLHCP    0078  
HR5G803078325412018030401A007A 003370003370                                    
HR4G803078325510155390000318583                   ON5061457635  XAHCP    0078  
HR5G803078325512018030401A007A 003370003370                                    
HR4G803078325610155390000318584                   ON4718928544  FXHCP    0078  
HR5G803078325612018030401A007A 003370003370                                    
HR4G803078325710155390000318585                   ON7140624466  GDHCP    0078  
HR5G803078325712018030401A007A 003370003370                                    
HR4G803078325810155390000318586                   ON2549781512  HDHCP    0078  
HR5G803078325812018030401A007A 003370003370                                    
HR4G803078325910155390000318587                   ON7195394908  HBHCP    0078  
HR5G803078325912018030401A007A 003370003370                                    
HR4G803078326010155390000318588                   ON7955308593  EBHCP    0078  
HR5G803078326012018030401A007A 003370003370                                    
HR4G803078326110155390000318589                   ON8995963744  BTHCP    0078  
HR5G803078326112018030401A001A 002170002170                                    
HR5G803078326112018030401G847A 000450000450                                    
HR4G803078326210155390000318590                   ON7374156938  GNHCP    0078  
HR5G803078326212018030401A001A 002170002170                                    
HR5G803078326212018030401G847A 000450000450                                    
HR4G803078326310155390000318591                   ON2332979810  XLHCP    0078  
HR5G803078326312018030401A007A 003370003370                                    
HR4G803078326410155390000318592                   ON1325372371  CTHCP    0078  
HR5G803078326412018030401A007A 003370003370                                    
HR5G803078326412018030401G010A 000207000207                                    
HR4G803078326510155390000318593                   ON9415988238  APHCP    0078  
HR5G803078326512018030401A007A 003370003370                                    
HR4G803078326610155390000318594                   ON2993385281  PNHCP    0078  
HR5G803078326612018030401A007A 003370003370                                    
HR5G803078326612018030401G010A 000207000207                                    
HR4G803084881610155390000318633                   ON6343463524  LAHCP    0078  
HR5G803084881612018030501A007A 003370003370                                    
HR4G803084881710155390000318635                   ON7380209929  GVHCP    0078  
HR5G803084881712018030501A007A 003370003370                                    
HR4G803084881810155390000318637                   ON1048085227  AGHCP    0078  
HR5G803084881812018030501A007A 003370003370                                    
HR4G803084881910155390000318638                   ON8784170089  PWHCP    0078  
HR5G803084881912018030501A007A 003370003370                                    
HR4G803084882010155390000318639                   ON9450001921  CAHCP    0078  
HR5G803084882012018030501A007A 003370003370                                    
HR4G803084882110155390000318640                   ON5615493342  PNHCP    0078  
HR5G803084882112018030501A007A 003370003370                                    
HR4G803084882210155390000318641                   ON3180189445  EEHCP    0078  
HR5G803084882212018030501A007A 003370003370                                    
HR5G803084882212018030501G420A 001125001125                                    
HR4G803084882310155390000318642                   ON7071106657  LBHCP    0078  
HR5G803084882312018030501A007A 003370003370                                    
HR4G803084882410155390000318643                   ON7289426053  NFHCP    0078  
HR5G803084882412018030501A007A 003370003370                                    
HR5G803084882412018030501G005A 000388000388                                    
HR4G803084882510155390000318644                   ON5029249215  FWHCP    0078  
HR5G803084882512018030501A007A 003370003370                                    
HR4G803084882610155390000318645                   ON8685119433  JYHCP    0078  
HR5G803084882612018030501A007A 003370003370                                    
HR4G803084882710155390000318646                   ON6400292568  TVHCP    0078  
HR5G803084882712018030501A007A 003370003370                                    
HR4G803084882810155390000318647                   ON5266147890  YJHCP    0078  
HR5G803084882812018030501A007A 003370003370                                    
HR4G803084882910155390000318648                   ON7143581812  BTHCP    0078  
HR5G803084882912018030501A007A 003370003370                                    
HR4G803084883010155390000318649                   ON2799459884  VJHCP    0078  
HR5G803084883012018030501A007A 003370003370                                    
HR5G803084883012018030501K053A 001500001500                                    
HR4G803084883110155390000318650                   ON6341442728  LKHCP    0078  
HR5G803084883112018030501A007A 003370003370                                    
HR4G803084883210155390000318651                   ON1575523517  LBHCP    0078  
HR5G803084883212018030501A007A 003370003370                                    
HR4G803084883310155390000318652                   ON8186165893  JFHCP    0078  
HR5G803084883312018030501A007A 003370003370                                    
HR4G803084883410155390000318653                   ON9171363345  CLHCP    0078  
HR5G803084883412018030501A007A 003370003370                                    
HR4G803084883510155390000318654                   ON8593167607  GPHCP    0078  
HR5G803084883512018030501A007A 003370003370                                    
HR4G803084883610155390000318655                   ON3594549523  ATHCP    0078  
HR5G803084883612018030501A007A 003370003370                                    
HR4G803084883710155390000318656                   ON3872455740  KFHCP    0078  
HR5G803084883712018030501A007A 003370003370                                    
HR4G803084883810155390000318657                   ON6831556789  VXHCP    0078  
HR5G803084883812018030501A001A 002170002170                                    
HR5G803084883812018030501G372A 000389000389                                    
HR4G803084883910155390000318658                   ON3772709980  MFHCP    0078  
HR5G803084883912018030501P005A 004515004515                                    
HR4G803084884010155390000318659                   ON8204051844  HXHCP    0078  
HR5G803084884012018030501A007A 003370003370                                    
HR4G803084884110155390000318660                   ON6760720224  GFHCP    0078  
HR5G803084884112018030501A007A 003370003370                                    
HR4G803084884210155390000318661                   ON7031967990  RWHCP    0078  
HR5G803084884212018030501A001A 002170002170                                    
HR5G803084884212018030501G202A 000445000445                                    
HR4G803084884310155390000318662                   ON9914072658  XJHCP    0078  
HR5G803084884312018030501A007A 003370003370                                    
HR4G803084884410155390000318663                   ON3832003838  VXHCP    0078  
HR5G803084884412018030501A001A 002170002170                                    
HR5G803084884412018030501G847A 000450000450                                    
HR4G803084884510155390000318664                   ON6835682946  AYHCP    0078  
HR5G803084884512018030501A007A 003370003370                                    
HR4G803131458710155390000318665                   ON9451690102  CTHCP    0078  
HR5G803131458712018030501A007A 003370003370                                    
HR4G803084884710155390000318666                   ON3294801794  JEHCP    0078  
HR5G803084884712018030501A003A 007720007720                                    
HR4G803084884810155390000318667                   ON8134394512  RGHCP    0078  
HR5G803084884812018030501A007A 003370003370                                    
HR4G803084884910155390000318668                   ON5707908256  NTHCP    0078  
HR5G803084884912018030501A001A 002170002170                                    
HR5G803084884912018030501G202A 000445000445                                    
HR4G803084885010155390000318669                   ON4094978881  DGHCP    0078  
HR5G803084885012018030501K131A 005000005000                                    
HR4G803084885110155390000318670                   ON8037011940  GFHCP    0078  
HR5G803084885112018030501A007A 003370003370                                    
HR4G803084885210155390000318671                   ON2371959707  WPHCP    0078  
HR5G803084885212018030501A007A 003370003370                                    
HR4G803084885310155390000318672                   ON2396876233  MLHCP    0078  
HR5G803084885312018030501A007A 003370003370                                    
HR4G803084885410155390000318673                   ON7347554656  XRHCP    0078  
HR5G803084885412018030501A007A 003370003370                                    
HR5G803084885412018030501G010A 000207000207                                    
HR4G803084885510155390000318674                   ON2560049237  YRHCP    0078  
HR5G803084885512018030501A007A 003370003370                                    
HR4G803084885610155390000318675                   ON1087894331  WAHCP    0078  
HR5G803084885612018030501A007A 003370003370                                    
HR4G803084885710155390000318676                   ON3443004092  LHHCP    0078  
HR5G803084885712018030501A007A 003370003370                                    
HR4G803084885810155390000318677                   ON2906217811  DDHCP    0078  
HR5G803084885812018030501A007A 003370003370                                    
HR4G803084885910155390000318678                   ON3501409761  XDHCP    0078  
HR5G803084885912018030501A007A 003370003370                                    
HR4G803084886010155390000318679                   ON9529752579  JWHCP    0078  
HR5G803084886012018030501A007A 003370003370                                    
HR4G803084886110155390000318680                   ON5430870054  GVHCP    0078  
HR5G803084886112018030501A007A 003370003370                                    
HR4G803084886210155390000318681                   ON9112729992  FXHCP    0078  
HR5G803084886212018030501A007A 003370003370                                    
HR5G803084886212018030501G010A 000207000207                                    
HR4G803084886310155390000318682                   ON5363562439  RLHCP    0078  
HR5G803084886312018030501A007A 003370003370                                    
HR4G803084886410155390000318683                   ON7483840125  HPHCP    0078  
HR5G803084886412018030501A007A 003370003370                                    
HR4G803084886510155390000318684                   ON5125514215  KJHCP    0078  
HR5G803084886512018030501A007A 003370003370                                    
HR4G803084886610155390000318685                   ON4366344275  VEHCP    0078  
HR5G803084886612018030501A007A 003370003370                                    
HR4G803084886710155390000318686                   ON6176733860  HNHCP    0078  
HR5G803084886712018030501A007A 003370003370                                    
HR4G803084886810155390000318687                   ON4020822658  PBHCP    0078  
HR5G803084886812018030501A007A 003370003370                                    
HR4G803084886910155390000318688                   ON5979017513  XPHCP    0078  
HR5G803084886912018030501A007A 003370003370                                    
HR4G803084887010155390000318689                   ON5745796390  PRHCP    0078  
HR5G803084887012018030501A007A 003370003370                                    
HR4G803084887110155390000318690                   ON4248068605  PYHCP    0078  
HR5G803084887112018030501A001A 002170002170                                    
HR5G803084887112018030501G847A 000450000450                                    
HR4G803084887210155390000318691                   ON6712513461  DXHCP    0078  
HR5G803084887212018030501A007A 003370003370                                    
HR5G803084887212018030501G840A 000450000450                                    
HR5G803084887212018030501G845A 000450000450                                    
HR4G803092294610155390000318728                   ON5305912668  XVHCP    0078  
HR5G803092294612018030601A007A 003370003370                                    
HR4G803092294710155390000318729                   ON6019536322  PNHCP    0078  
HR5G803092294712018030601A007A 003370003370                                    
HR4G803092294810155390000318730                   ON3816873057  LPHCP    0078  
HR5G803092294812018030601A007A 003370003370                                    
HR4G803092294910155390000318731                   ON3448057400  BXHCP    0078  
HR5G803092294912018030601A007A 003370003370                                    
HR4G803092295010155390000318732                   ON6469364860  WKHCP    0078  
HR5G803092295012018030601A007A 003370003370                                    
HR4G803274797710155390000318732                   ON6469364860  WKHCP    0078  
HR5G803274797712018030601A007A 003370000000 35                                 
HR4G803092295110155390000318733                   ON3724216647  LAHCP    0078  
HR5G803092295112018030601A007A 003370003370                                    
HR5G803092295112018030601G202A 000445000445                                    
HR4G803092344710155390000318734                   ON8178117720  DDHCP    0078  
HR5G803092344712018030601A007A 003370003370                                    
HR4G803092344910155390000318737                   ON3276378704  BDHCP    0078  
HR5G803092344912018030601A007A 003370003370                                    
HR4G803092345010155390000318739                   ON6285323934  TNHCP    0078  
HR5G803092345012018030601A001A 002170002170                                    
HR5G803092345012018030601G202A 000445000445                                    
HR4G803092345110155390000318741                   ON2319342529  TFHCP    0078  
HR5G803092345112018030601A007A 003370003370                                    
HR4G803092345210155390000318742                   ON7551128841  RHHCP    0078  
HR5G803092345212018030601A007A 003370003370                                    
HR4G803092345310155390000318743                   ON5248175019  GLHCP    0078  
HR5G803092345312018030601A007A 003370003370                                    
HR4G803092345410155390000318744                   ON8988983212  DJHCP    0078  
HR5G803092345412018030601A007A 003370003370                                    
HR5G803092345412018030601G010A 000207000207                                    
HR4G803092345510155390000318745                   ON1245031719  LLHCP    0078  
HR5G803092345512018030601A007A 003370003370                                    
HR4G803092345610155390000318746                   ON2823641457  JDHCP    0078  
HR5G803092345612018030601A003A 007720007720                                    
HR4G803092345710155390000318747                   ON2933397156  DKHCP    0078  
HR5G803092345712018030601K005A 006275006275                                    
HR4G803092926310155390000318748                   ON1161756976  HDHCP    0078  
HR5G803092926312018030601A007A 003370003370                                    
HR4G803092926410155390000318749                   ON6921578677  RRHCP    0078  
HR5G803092926412018030601A007A 003370003370                                    
HR4G803092926510155390000318750                   ON4802798241  EWHCP    0078  
HR5G803092926512018030601A007A 003370003370                                    
HR4G803092926610155390000318751                   ON6110795603  LXHCP    0078  
HR5G803092926612018030601A007A 003370003370                                    
HR4G803092926710155390000318752                   ON5977383909  GKHCP    0078  
HR5G803092926712018030601A007A 003370003370                                    
HR4G803092926810155390000318753                   ON6736783470  BWHCP    0078  
HR5G803092926812018030601A007A 003370003370                                    
HR4G803092926910155390000318754                   ON4367096296  TKHCP    0078  
HR5G803092926912018030601A007A 003370003370                                    
HR4G803092927010155390000318755                   ON5511610551  EGHCP    0078  
HR5G803092927012018030601A007A 003370003370                                    
HR5G803092927012018030601G010A 000207000207                                    
HR4G803092927110155390000318756                   ON9415988238  APHCP    0078  
HR5G803092927112018030601A007A 003370003370                                    
HR4G803092927210155390000318757                   ON5660095588  LLHCP    0078  
HR5G803092927212018030601A007A 003370003370                                    
HR4G803092927310155390000318758                   ON7728675518  XCHCP    0078  
HR5G803092927312018030601A001A 002170002170                                    
HR5G803092927312018030601G372A 000389000389                                    
HR4G803092927410155390000318759                   ON6620631447  ABHCP    0078  
HR5G803092927412018030601A007A 003370003370                                    
HR4G803092927510155390000318760                   ON5617510465  EGHCP    0078  
HR5G803092927512018030601A007A 003370003370                                    
HR4G803092927610155390000318761                   ON5293969464  NWHCP    0078  
HR5G803092927612018030601A007A 003370003370                                    
HR5G803092927612018030601G005A 000388000388                                    
HR5G803092927612018030601G010A 000207000207                                    
HR4G803092927710155390000318762                   ON5584420698  JJHCP    0078  
HR5G803092927712018030601A007A 003370003370                                    
HR4G803092927810155390000318763                   ON1531667051  RCHCP    0078  
HR5G803092927812018030601A007A 003370003370                                    
HR4G803092927910155390000318764                   ON7024790383  MWHCP    0078  
HR5G803092927912018030601A007A 003370003370                                    
HR4G803092928010155390000318765                   ON5839924171  DNHCP    0078  
HR5G803092928012018030601A007A 003370003370                                    
HR5G803092928012018030601G845A 000450000450                                    
HR4G803092928110155390000318766                   ON8439371264  EDHCP    0078  
HR5G803092928112018030601A007A 003370003370                                    
HR5G803092928112018030601G010A 000207000207                                    
HR4G803092928210155390000318767                   ON6681408420  AJHCP    0078  
HR5G803092928212018030601A007A 003370003370                                    
HR4G815190151210155390000318768                   ON9966401714  PYHCP    0078  
HR5G815190151212018030601A007A 003370003370                                    
HR4G803092928410155390000318769                   ON5463374289  TYHCP    0078  
HR5G803092928412018030601A007A 003370003370                                    
HR4G803092928510155390000318770                   ON5237881692  VYHCP    0078  
HR5G803092928512018030601A007A 003370003370                                    
HR4G803092928610155390000318771                   ON2240556395  WJHCP    0078  
HR5G803092928612018030601A007A 003370003370                                    
HR4G803092928710155390000318772                   ON7641216812  CRHCP    0078  
HR5G803092928712018030601A007A 003370003370                                    
HR4G803092928810155390000318773                   ON8457393711  FNHCP    0078  
HR5G803092928812018030601A007A 003370003370                                    
HR4G803092928910155390000318774                   ON7127480437  CGHCP    0078  
HR5G803092928912018030601A007A 003370003370                                    
HR4G803092929010155390000318775                   ON4167750126  YHHCP    0078  
HR5G803092929012018030601A007A 003370003370                                    
HR4G803092929110155390000318776                   ON5615493342  PNHCP    0078  
HR5G803092929112018030601A007A 003370003370                                    
HR4G803092929210155390000318777                   ON6835682946  AYHCP    0078  
HR5G803092929212018030601A007A 003370003370                                    
HR4G815190151310155390000318778                   ON6277907686  ANHCP    0078  
HR5G815190151312018030601A007A 003370003370                                    
HR4G803092929410155390000318779                   ON9877116716  MJHCP    0078  
HR5G803092929412018030601A007A 003370003370                                    
HR4G803092929510155390000318780                   ON7765950766  HTHCP    0078  
HR5G803092929512018030601A007A 003370003370                                    
HR4G803092929610155390000318781                   ON7299965009  NCHCP    0078  
HR5G803092929612018030601K050A 010000010000                                    
HR4G803128056610155390000318892                   ON9080740989  CGHCP    0078  
HR5G803128056612018030801A007A 003370003370                                    
HR4G803128056710155390000318893                   ON8037011940  GFHCP    0078  
HR5G803128056712018030801A007A 003370003370                                    
HR4G803128056810155390000318895                   ON3438584363  WVHCP    0078  
HR5G803128056812018030801A007A 003370003370                                    
HR4G803128056910155390000318896                   ON1435235062  KGHCP    0078  
HR5G803128056912018030801A007A 003370003370                                    
HR4G803128057010155390000318897                   ON1298405950  XDHCP    0078  
HR5G803128057012018030801A007A 003370003370                                    
HR4G803128057110155390000318898                   ON5305912668  XVHCP    0078  
HR5G803128057112018030801A007A 003370003370                                    
HR4G803128057210155390000318899                   ON9334191286  REHCP    0078  
HR5G803128057212018030801A007A 003370003370                                    
HR4G803128057310155390000318900                   ON9281485483  YLHCP    0078  
HR5G803128057312018030801A007A 003370003370                                    
HR4G803128057410155390000318901                   ON7612340229  NRHCP    0078  
HR5G803128057412018030801A007A 003370003370                                    
HR4G803128057510155390000318902                   ON2270612910  XGHCP    0078  
HR5G803128057512018030801A007A 003370003370                                    
HR4G803128057610155390000318903                   ON4462710049  FDHCP    0078  
HR5G803128057612018030801A007A 003370003370                                    
HR4G803128057710155390000318904                   ON6864500399  YEHCP    0078  
HR5G803128057712018030801A007A 003370003370                                    
HR4G803128057810155390000318905                   ON6465308770  FDHCP    0078  
HR5G803128057812018030801A007A 003370003370                                    
HR4G803128057910155390000318906                   ON5284625612  RXHCP    0078  
HR5G803128057912018030801A007A 003370003370                                    
HR4G803128058010155390000318907                   ON4446235097  HFHCP    0078  
HR5G803128058012018030801A007A 003370003370                                    
HR4G803128058110155390000318908                   ON5735410523  NAHCP    0078  
HR5G803128058112018030801A007A 003370003370                                    
HR4G803128058210155390000318909                   ON7669983343  FVHCP    0078  
HR5G803128058212018030801A007A 003370003370                                    
HR5G803128058212018030801G010A 000207000207                                    
HR4G803128058310155390000318910                   ON7727084811  XMHCP    0078  
HR5G803128058312018030801A007A 003370003370                                    
HR4G803128058410155390000318911                   ON2143513949  LLHCP    0078  
HR5G803128058412018030801A007A 003370003370                                    
HR4G803128058510155390000318912                   ON2992474680  LTHCP    0078  
HR5G803128058512018030801A007A 003370003370                                    
HR4G803128058610155390000318913                   ON5079100664  JHHCP    0078  
HR5G803128058612018030801A007A 003370003370                                    
HR5G803128058612018030801G010A 000207000207                                    
HR4G803128058710155390000318914                   ON9403780720  TRHCP    0078  
HR5G803128058712018030801A007A 003370003370                                    
HR4G803128058810155390000318915                   ON1368815633  JVHCP    0078  
HR5G803128058812018030801A007A 003370003370                                    
HR4G803128058910155390000318916                   ON8388872668  CBHCP    0078  
HR5G803128058912018030801A001A 002170002170                                    
HR5G803128058912018030801G845A 000450000450                                    
HR4G803128059010155390000318917                   ON2255036812  MMHCP    0078  
HR5G803128059012018030801A007A 003370003370                                    
HR4G803128059110155390000318918                   ON2076251947  MTHCP    0078  
HR5G803128059112018030801A007A 003370003370                                    
HR4G803128059210155390000318919                   ON4991409246  APHCP    0078  
HR5G803128059212018030801A007A 003370003370                                    
HR4G803128059310155390000318920                   ON3936295751  DCHCP    0078  
HR5G803128059312018030801A007A 003370003370                                    
HR4G803128059410155390000318921                   ON5794804798  HAHCP    0078  
HR5G803128059412018030801A007A 003370003370                                    
HR4G803128059510155390000318922                   ON8123317391  AHHCP    0078  
HR5G803128059512018030801A007A 003370003370                                    
HR5G803128059512018030801G010A 000207000207                                    
HR4G803128059610155390000318923                   ON9602427420  EGHCP    0078  
HR5G803128059612018030801A007A 003370003370                                    
HR4G803128059710155390000318924                   ON3916984234  VBHCP    0078  
HR5G803128059712018030801A007A 003370003370                                    
HR4G803128059810155390000318925                   ON4900517030  XBHCP    0078  
HR5G803128059812018030801A007A 003370003370                                    
HR4G803128059910155390000318926                   ON9537385156  XKHCP    0078  
HR5G803128059912018030801A007A 003370003370                                    
HR4G803128060010155390000318927                   ON9808131222  LEHCP    0078  
HR5G803128060012018030801A007A 003370003370                                    
HR5G803128060012018030801G010A 000207000207                                    
HR4G803128060110155390000318928                   ON7438862109  ABHCP    0078  
HR5G803128060112018030801A007A 003370003370                                    
HR4G803128060210155390000318929                   ON5518441810  DKHCP    0078  
HR5G803128060212018030801A007A 003370003370                                    
HR5G803128060212018030801G010A 000207000207                                    
HR4G803128060310155390000318930                   ON8989918142  ELHCP    0078  
HR5G803128060312018030801A007A 003370003370                                    
HR4G803128060410155390000318931                   ON2740034166  HDHCP    0078  
HR5G803128060412018030801A007A 003370003370                                    
HR4G803128060510155390000318932                   ON1785125723  BTHCP    0078  
HR5G803128060512018030801A007A 003370003370                                    
HR4G803128060610155390000318933                   ON7110537524  HMHCP    0078  
HR5G803128060612018030801A007A 003370003370                                    
HR5G803128060612018030801G010A 000207000207                                    
HR4G803128060710155390000318934                   ON7290261135  YAHCP    0078  
HR5G803128060712018030801A007A 003370003370                                    
HR4G803128060810155390000318935                   ON6523844733  JJHCP    0078  
HR5G803128060812018030801A007A 003370003370                                    
HR4G803128060910155390000318936                   ON8500684496  FEHCP    0078  
HR5G803128060912018030801A007A 003370003370                                    
HR4G815125838710155390000318937                   ON4540119502  BLHCP    0078  
HR5G815125838712018030801A007A 003370003370                                    
HR4G815125838810155390000318938                   ON2162160010  NKHCP    0078  
HR5G815125838812018030801A007A 003370003370                                    
HR4G815125838910155390000318939                   ON7965718625  EEHCP    0078  
HR5G815125838912018030801A007A 003370003370                                    
HR4G803132202710155390000319060                   ON4908195045  YLHCP    0078  
HR5G803132202712018031101A007A 003370003370                                    
HR4G803132202810155390000319061                   ON2433859937  PYHCP    0078  
HR5G803132202812018031101A007A 003370003370                                    
HR4G803132202910155390000319062                   ON2599281629  GEHCP    0078  
HR5G803132202912018031101A007A 003370003370                                    
HR4G803132203010155390000319063                   ON7772236035  TFHCP    0078  
HR5G803132203012018031101A007A 003370003370                                    
HR4G803132203110155390000319064                   ON2507041586  APHCP    0078  
HR5G803132203112018031101A007A 003370003370                                    
HR4G803132203210155390000319065                   ON1883527309  DFHCP    0078  
HR5G803132203212018031101A903A 006505006505                                    
HR4G803132203310155390000319066                   ON1963316987    HCP    0078  
HR5G803132203312018031101A007A 003370003370                                    
HR4G803132203410155390000319067                   ON4096387727  XAHCP    0078  
HR5G803132203412018031101A007A 003370003370                                    
HR4G803132203510155390000319068                   ON9108539454  BKHCP    0078  
HR5G803132203512018031101A007A 003370003370                                    
HR4G803132203610155390000319069                   ON5691311954  CKHCP    0078  
HR5G803132203612018031101A007A 003370003370                                    
HR4G803132203710155390000319070                   ON7881640812  NLHCP    0078  
HR5G803132203712018031101A001A 002170002170                                    
HR5G803132203712018031101G372A 000389000389                                    
HR4G803132203810155390000319071                   ON3961911744  CTHCP    0078  
HR5G803132203812018031101A007A 003370003370                                    
HR5G803132203812018031101K055A 002000002000                                    
HR4G803132203910155390000319072                   ON4585687686  GDHCP    0078  
HR5G803132203912018031101A007A 003370003370                                    
HR5G803132203912018031101K055A 002000002000                                    
HR4G803132204010155390000319074                   ON2697698781  HEHCP    0078  
HR5G803132204012018031101A007A 003370003370                                    
HR4G803132204110155390000319075                   ON1969969730  DGHCP    0078  
HR5G803132204112018031101A003A 007720007720                                    
HR4G803132204210155390000319076                   ON8650557443  XTHCP    0078  
HR5G803132204212018031101A007A 003370003370                                    
HR4G803132204310155390000319077                   ON4947266799  RTHCP    0078  
HR5G803132204312018031101A007A 003370003370                                    
HR4G803132204410155390000319078                   ON3523758856  VJHCP    0078  
HR5G803132204412018031101A007A 003370003370                                    
HR4G803132204510155390000319079                   ON8743751318  CVHCP    0078  
HR5G803132204512018031101A007A 003370003370                                    
HR4G803132204610155390000319080                   ON4158781304  MFHCP    0078  
HR5G803132204612018031101A007A 003370003370                                    
HR4G803132204710155390000319081                   ON4862683952    HCP    0078  
HR5G803132204712018031101A007A 003370003370                                    
HR4G803132204810155390000319082                   ON5463374289  TYHCP    0078  
HR5G803132204812018031101A007A 003370003370                                    
HR4G803132204910155390000319083                   ON7872256586  REHCP    0078  
HR5G803132204912018031101A007A 003370003370                                    
HR4G803132205010155390000319084                   ON9524119493  BKHCP    0078  
HR5G803132205012018031101A007A 003370003370                                    
HR5G803132205012018031101G010A 000207000207                                    
HR4G803132205110155390000319085                   ON9752690520  CLHCP    0078  
HR5G803132205112018031101A007A 003370003370                                    
HR4G803132205210155390000319086                   ON3337129328  LRHCP    0078  
HR5G803132205212018031101A001A 002170002170                                    
HR5G803132205212018031101G372A 000389000389                                    
HR4G803132205310155390000319088                   ON2156452159  MHHCP    0078  
HR5G803132205312018031101A007A 003370003370                                    
HR4G803132205410155390000319089                   ON5985881167  XCHCP    0078  
HR5G803132205412018031101A007A 003370003370                                    
HR4G803132205510155390000319090                   ON3556381352  HLHCP    0078  
HR5G803132205512018031101A007A 003370003370                                    
HR4G803132205610155390000319091                   ON5591888689  HDHCP    0078  
HR5G803132205612018031101A007A 003370003370                                    
HR4G803132205710155390000319092                   ON3665987511  GBHCP    0078  
HR5G803132205712018031101A007A 003370003370                                    
HR4G803132205810155390000319093                   ON8995963744  BTHCP    0078  
HR5G803132205812018031101A007A 003370003370                                    
HR4G803132205910155390000319094                   ON4526880176  GEHCP    0078  
HR5G803132205912018031101A001A 002170002170                                    
HR5G803132205912018031101G372A 000389000389                                    
HR4G803132206010155390000319095                   ON6014845629  VXHCP    0078  
HR5G803132206012018031101A007A 003370003370                                    
HR5G803132206012018031101G010A 000207000207                                    
HR4G803132206110155390000319096                   ON5584420698  JJHCP    0078  
HR5G803132206112018031101A007A 003370003370                                    
HR4G803132206210155390000319097                   ON6653905379  ADHCP    0078  
HR5G803132206212018031101A007A 003370003370                                    
HR4G803132206310155390000319098                   ON9757388328  TEHCP    0078  
HR5G803132206312018031101A007A 003370003370                                    
HR4G803132206410155390000319099                   ON6336202525  FFHCP    0078  
HR5G803132206412018031101A007A 003370003370                                    
HR4G803132206510155390000319100                   ON7742874543  XMHCP    0078  
HR5G803132206512018031101A007A 003370003370                                    
HR4G803132206610155390000319101                   ON2449787387  MEHCP    0078  
HR5G803132206612018031101A007A 003370003370                                    
HR4G803132206710155390000319102                   ON7654765820  HAHCP    0078  
HR5G803132206712018031101A007A 003370003370                                    
HR4G803132206810155390000319103                   ON6874204214  KCHCP    0078  
HR5G803132206812018031101A007A 003370003370                                    
HR4G803137032810155390000319104                   ON3702867718  CJHCP    0078  
HR5G803137032812018031201A007A 003370003370                                    
HR4G803137032910155390000319105                   ON7347554656  XRHCP    0078  
HR5G803137032912018031201A007A 003370003370                                    
HR4G803137033010155390000319106                   ON1346422676  AWHCP    0078  
HR5G803137033012018031201A007A 003370003370                                    
HR4G803137033110155390000319107                   ON3214534772  DDHCP    0078  
HR5G803137033112018031201A007A 003370003370                                    
HR4G803137032710155390000319108                   ON7458675688  MEHCP    0078  
HR5G803137032712018030401A007A 003370003370                                    
HR4G803137033210155390000319109                   ON1166922359  BLHCP    0078  
HR5G803137033212018031201A007A 003370003370                                    
HR4G803137033310155390000319110                   ON6196978057  KVHCP    0078  
HR5G803137033312018031201A007A 003370003370                                    
HR4G803137033410155390000319111                   ON1547720688  HFHCP    0078  
HR5G803137033412018031201A007A 003370003370                                    
HR4G803137033510155390000319112                   ON5766354442  TFHCP    0078  
HR5G803137033512018031201A003A 007720007720                                    
HR4G803137033610155390000319113                   ON5814753322  YEHCP    0078  
HR5G803137033612018031201A001A 002170002170                                    
HR5G803137033612018031201G372A 000389000389                                    
HR4G803137033710155390000319114                   ON7798037052  PCHCP    0078  
HR5G803137033712018031201A007A 003370003370                                    
HR4G803137033810155390000319115                   ON6684662874  DHHCP    0078  
HR5G803137033812018031201A007A 003370003370                                    
HR4G803137033910155390000319116                   ON6681314958  FYHCP    0078  
HR5G803137033912018031201A007A 003370003370                                    
HR4G803152832010155390000319117                   ON3147639193  GVHCP    0078  
HR5G803152832012018031201A007A 003370003370                                    
HR5G803152832012018031201G010A 000207000207                                    
HR4G803152832110155390000319118                   ON7396173275  PMHCP    0078  
HR5G803152832112018031201A007A 003370003370                                    
HR4G803152832210155390000319119                   ON3067558365  HGHCP    0078  
HR5G803152832212018031201A007A 003370003370                                    
HR4G803152832310155390000319120                   ON1244746150  LLHCP    0078  
HR5G803152832312018031201A007A 003370003370                                    
HR4G803152832410155390000319121                   ON1925042564  YEHCP    0078  
HR5G803152832412018031201A007A 003370003370                                    
HR4G803152832510155390000319122                   ON9148270680  EXHCP    0078  
HR5G803152832512018031201A007A 003370003370                                    
HR4G803152832610155390000319123                   ON2371959707  WPHCP    0078  
HR5G803152832612018031201A007A 003370003370                                    
HR4G803152832710155390000319124                   ON5981298754  TVHCP    0078  
HR5G803152832712018031201A007A 003370003370                                    
HR4G803152832810155390000319125                   ON7374128846  NGHCP    0078  
HR5G803152832812018031201A007A 003370003370                                    
HR4G803152832910155390000319126                   ON9382638600  WBHCP    0078  
HR5G803152832912018031201A007A 003370003370                                    
HR4G803152833010155390000319127                   ON9623428605  TMHCP    0078  
HR5G803152833012018031201A007A 003370003370                                    
HR4G803152833110155390000319128                   ON7126672844  FBHCP    0078  
HR5G803152833112018031201A007A 003370003370                                    
HR4G803152833210155390000319129                   ON1177534615  CVHCP    0078  
HR5G803152833212018031201A007A 003370003370                                    
HR4G803152833310155390000319130                   ON5885791037  RYHCP    0078  
HR5G803152833312018031201A007A 003370003370                                    
HR4G803152833410155390000319131                   ON4979447630  TNHCP    0078  
HR5G803152833412018031201A007A 003370003370                                    
HR4G803152833510155390000319132                   ON1479586891  DVHCP    0078  
HR5G803152833512018031201A007A 003370003370                                    
HR5G803152833512018031201G372A 000389000389                                    
HR4G803152833610155390000319133                   ON3098382595  HYHCP    0078  
HR5G803152833612018031201A007A 003370003370                                    
HR4G803152833710155390000319134                   ON9775657118  DEHCP    0078  
HR5G803152833712018031201A007A 003370003370                                    
HR4G803152833810155390000319135                   ON4082392467  WVHCP    0078  
HR5G803152833812018031201A007A 003370003370                                    
HR5G803152833812018031201G372A 000389000389                                    
HR4G803152833910155390000319136                   ON4926149032  PRHCP    0078  
HR5G803152833912018031201A007A 003370003370                                    
HR4G803152834010155390000319137                   ON9420760432  AFHCP    0078  
HR5G803152834012018031201A007A 003370003370                                    
HR4G803152834110155390000319138                   ON2651816353  YYHCP    0078  
HR5G803152834112018031201A001A 002170002170                                    
HR5G803152834112018031201G372A 000389000389                                    
HR4G803152834210155390000319139                   ON8761509713  KDHCP    0078  
HR5G803152834212018031201A007A 003370003370                                    
HR4G803152834310155390000319140                   ON7717498690  ALHCP    0078  
HR5G803152834312018031201A007A 003370003370                                    
HR4G803152834410155390000319141                   ON5507398468  KLHCP    0078  
HR5G803152834412018031201A007A 003370003370                                    
HR4G803152834510155390000319142                   ON9334191286  REHCP    0078  
HR5G803152834512018031201A007A 003370003370                                    
HR4G803152834610155390000319143                   ON5126181451  RCHCP    0078  
HR5G803152834612018031201A007A 003370003370                                    
HR4G803152834710155390000319144                   ON9339676703  XVHCP    0078  
HR5G803152834712018031201A007A 003370003370                                    
HR4G803274797810155390000319145                   ON8455986391  KFHCP    0078  
HR5G803274797812018031201A007A 003370003370                                    
HR4G803152834910155390000319146                   ON7120106153  WCHCP    0078  
HR5G803152834912018031201A007A 003370003370                                    
HR4G803152835010155390000319147                   ON6269083868  NDHCP    0078  
HR5G803152835012018031201A007A 003370003370                                    
HR5G803152835012018031201G845A 000450000450                                    
HR4G803152835110155390000319150                   ON7663573983  KWHCP    0078  
HR5G803152835112018031201P005A 004515004515                                    
HR4G803152835210155390000319153                   ON5620113059  KYHCP    0078  
HR5G803152835212018031201A007A 003370003370                                    
HR5G803152835212018031201G010A 000207000207                                    
HR4G803152835310155390000319157                   ON3877603823  KVHCP    0078  
HR5G803152835312018031201A007A 003370003370                                    
HR4G803152818010155390000319221                   ON5287694599  MHHCP    0078  
HR5G803152818012018031301A007A 003370003370                                    
HR5G803152818012018031301G372A 000389000389                                    
HR4G803152818110155390000319222                   ON5320722175  DYHCP    0078  
HR5G803152818112018031301A007A 003370003370                                    
HR4G803152818210155390000319223                   ON5584420698  JJHCP    0078  
HR5G803152818212018031301A007A 003370003370                                    
HR4G803152818310155390000319224                   ON6448119377  ELHCP    0078  
HR5G803152818312018031301A007A 003370003370                                    
HR4G803152818410155390000319225                   ON3155199635  FWHCP    0078  
HR5G803152818412018031301A007A 003370003370                                    
HR4G803152818510155390000319226                   ON8205439725  KMHCP    0078  
HR5G803152818512018031301A007A 003370003370                                    
HR4G803152818610155390000319227                   ON9229524443  RLHCP    0078  
HR5G803152818612018031301A007A 003370003370                                    
HR4G803152818710155390000319228                   ON2737854279  RTHCP    0078  
HR5G803152818712018031301A007A 003370003370                                    
HR4G803152818810155390000319229                   ON1632245393  TKHCP    0078  
HR5G803152818812018031301A007A 003370003370                                    
HR4G803152818910155390000319230                   ON5539960707  BPHCP    0078  
HR5G803152818912018031301A007A 003370003370                                    
HR4G803152819010155390000319231                   ON5870193819  XHHCP    0078  
HR5G803152819012018031301A007A 003370003370                                    
HR5G803152819012018031301G010A 000207000207                                    
HR4G803152819110155390000319232                   ON8685119433  JYHCP    0078  
HR5G803152819112018031301A007A 003370003370                                    
HR4G803152819210155390000319233                   ON6938594246  CMHCP    0078  
HR5G803152819212018031301A001A 002170002170                                    
HR5G803152819212018031301G372A 000389000389                                    
HR4G803152819310155390000319234                   ON7073124864  BWHCP    0078  
HR5G803152819312018031301A007A 003370003370                                    
HR4G803152819410155390000319235                   ON9334040806  RMHCP    0078  
HR5G803152819412018031301A007A 003370003370                                    
HR4G803152819610155390000319237                   ON7037511545  NEHCP    0078  
HR5G803152819612018031301A007A 003370003370                                    
HR4G803152819710155390000319238                   ON1575523517  LBHCP    0078  
HR5G803152819712018031301A007A 003370003370                                    
HR5G803152819712018031301G841A 000450000450                                    
HR4G803152819810155390000319239                   ON9136339919  ATHCP    0078  
HR5G803152819812018031301A007A 003370003370                                    
HR5G803152819812018031301G372A 000389000389                                    
HR4G803152819910155390000319240                   ON7188595537  AJHCP    0078  
HR5G803152819912018031301A007A 003370003370                                    
HR4G803152820010155390000319241                   ON7569549970  NLHCP    0078  
HR5G803152820012018031301A007A 003370003370                                    
HR4G803152820110155390000319242                   ON7628182284  RHHCP    0078  
HR5G803152820112018031301A007A 003370003370                                    
HR4G803152820210155390000319243                   ON3488490115  WWHCP    0078  
HR5G803152820212018031301A007A 003370003370                                    
HR4G803152820310155390000319244                   ON5949130131  KYHCP    0078  
HR5G803152820312018031301A007A 003370003370                                    
HR4G803152820410155390000319245                   ON5079100664  JHHCP    0078  
HR5G803152820412018031301A007A 003370003370                                    
HR5G803152820412018031301G010A 000207000207                                    
HR4G803152820510155390000319246                   ON4714820729  GPHCP    0078  
HR5G803152820512018031301A007A 003370003370                                    
HR4G803152820610155390000319247                   ON3878739279  YKHCP    0078  
HR5G803152820612018031301A007A 003370003370                                    
HR4G803152820710155390000319248                   ON5635234635  PAHCP    0078  
HR5G803152820712018031301A007A 003370003370                                    
HR4G803152820810155390000319249                   ON5632145198  FJHCP    0078  
HR5G803152820812018031301A007A 003370003370                                    
HR4G803152820910155390000319251                   ON2519857052  YWHCP    0078  
HR5G803152820912018031301A007A 003370003370                                    
HR4G803152821010155390000319252                   ON7728675518  XCHCP    0078  
HR5G803152821012018031301A001A 002170002170                                    
HR5G803152821012018031301G372A 000389000389                                    
HR4G803152821110155390000319254                   ON8736966535  XDHCP    0078  
HR5G803152821112018031301A001A 002170002170                                    
HR4G803152821210155390000319255                   ON2107988038  FAHCP    0078  
HR5G803152821212018031301K005A 006275006275                                    
HR4G803152821310155390000319256                   ON6294543621  BGHCP    0078  
HR5G803152821312018031301A007A 003370003370                                    
HR4G803152821410155390000319257                   ON6304539585  XCHCP    0078  
HR5G803152821412018031301A007A 003370003370                                    
HR5G803152821412018031301G372A 000389000389                                    
HR4G803152821510155390000319258                   ON2574481905  EEHCP    0078  
HR5G803152821512018031301A001A 002170002170                                    
HR5G803152821512018031301G845A 000450000450                                    
HR4G803152821610155390000319259                   ON9973909378  NCHCP    0078  
HR5G803152821612018031301A007A 003370003370                                    
HR4G803152821710155390000319260                   ON5125514215  KJHCP    0078  
HR5G803152821712018031301A007A 003370003370                                    
HR4G803152821810155390000319261                   ON3312130960  ABHCP    0078  
HR5G803152821812018031301A007A 003370003370                                    
HR4G803152821910155390000319262                   ON5117875483  CMHCP    0078  
HR5G803152821912018031301A007A 003370003370                                    
HR4G803152822010155390000319263                   ON7974080629  YEHCP    0078  
HR5G803152822012018031301A001A 002170002170                                    
HR5G803152822012018031301G372A 000389000389                                    
HR4G803152822110155390000319264                   ON3126306509  BXHCP    0078  
HR5G803152822112018031301A007A 003370003370                                    
HR4G803152822210155390000319265                   ON9768898380  BCHCP    0078  
HR5G803152822212018031301A007A 003370003370                                    
HR4G803152822310155390000319266                   ON5707908256  NTHCP    0078  
HR5G803152822312018031301A001A 002170002170                                    
HR5G803152822312018031301G202A 000445000445                                    
HR4G803152822410155390000319267                   ON9545174527  VJHCP    0078  
HR5G803152822412018031301A007A 003370003370                                    
HR4G803152822510155390000319268                   ON7765950766  HTHCP    0078  
HR5G803152822512018031301A007A 003370003370                                    
HR4G803152822610155390000319269                   ON4047103975  LNHCP    0078  
HR5G803152822612018031301A007A 003370003370                                    
HR4G803152822710155390000319270                   ON6231174720  LDHCP    0078  
HR5G803152822712018031301A007A 003370003370                                    
HR4G803152822810155390000319271                   ON9156129836  YAHCP    0078  
HR5G803152822812018031301A001A 002170002170                                    
HR5G803152822812018031302G372A 000778000778                                    
HR4G803152822910155390000319272                   ON9249235434  WAHCP    0078  
HR5G803152822912018031301A007A 003370003370                                    
HR4G803152823010155390000319273                   ON1814764724  ECHCP    0078  
HR5G803152823012018031301A001A 002170002170                                    
HR5G803152823012018031301G847A 000450000450                                    
HR4G803152823110155390000319274                   ON3505300164  LAHCP    0078  
HR5G803152823112018031301A007A 003370003370                                    
HR4G803152823210155390000319275                   ON5032034950  HLHCP    0078  
HR5G803152823212018031301A007A 003370003370                                    
HR4G803274797910155390000319276                   ON3047206358  XKHCP    0078  
HR5G803274797912018031301A007A 003370003370                                    
HR4G803152823410155390000319277                   ON9800261241  ADHCP    0078  
HR5G803152823412018031301A007A 003370003370                                    
HR4G803152823510155390000319278                   ON7891585684  VJHCP    0078  
HR5G803152823512018031301A007A 003370003370                                    
HR4G803152823610155390000319279                   ON4968620544  LGHCP    0078  
HR5G803152823612018031301A007A 003370003370                                    
HR4G815190151410155390000319386                   ON1599781091  BRHCP    0078  
HR5G815190151412018031501A007A 003370003370                                    
HR5G815190151412018031501G538A 000450000450                                    
HR4G815190151510155390000319387                   ON1730248919  ETHCP    0078  
HR5G815190151512018031501A007A 003370003370                                    
HR4G815190151610155390000319388                   ON8142677478  HNHCP    0078  
HR5G815190151612018031501A903A 006505006505                                    
HR4G815190151710155390000319389                   ON5764518170  KJHCP    0078  
HR5G815190151712018031501A007A 003370003370                                    
HR4G815190151810155390000319390                   ON5715078324  NLHCP    0078  
HR5G815190151812018031501A007A 003370003370                                    
HR4G815190151910155390000319391                   ON7909211810    HCP    0078  
HR5G815190151912018031501A007A 003370003370                                    
HR5G815190151912018031501G538A 000450000450                                    
HR4G815190152010155390000319392                   ON1435235062  KGHCP    0078  
HR5G815190152012018031501A007A 003370003370                                    
HR4G815190152110155390000319393                   ON8107540380  WPHCP    0078  
HR5G815190152112018031501A007A 003370003370                                    
HR4G815190152210155390000319394                   ON4094978881  DGHCP    0078  
HR5G815190152212018031501A007A 003370003370                                    
HR4G815190152310155390000319395                   ON5281963727  DYHCP    0078  
HR5G815190152312018031501A007A 003370003370                                    
HR4G815190152410155390000319396                   ON6681314958  FYHCP    0078  
HR5G815190152412018031501A007A 003370003370                                    
HR4G815190152510155390000319397                   ON3916984234  VBHCP    0078  
HR5G815190152512018031501A007A 003370003370                                    
HR4G815190152610155390000319398                   ON1021056815  TRHCP    0078  
HR5G815190152612018031501A007A 003370003370                                    
HR4G815190152710155390000319399                   ON5289030644  TDHCP    0078  
HR5G815190152712018031501A007A 003370003370                                    
HR5G815190152712018031501G372A 000389000389                                    
HR4G815190152810155390000319402                   ON4167563024  DDHCP    0078  
HR5G815190152812018031501A007A 003370003370                                    
HR5G815190152812018031501G010A 000207000207                                    
HR4G815190152910155390000319403                   ON4371434061  YMHCP    0078  
HR5G815190152912018031501A007A 003370003370                                    
HR4G815190153010155390000319404                   ON3154044089  PKHCP    0078  
HR5G815190153012018031501A007A 003370003370                                    
HR4G815190153110155390000319405                   ON2163258607  DXHCP    0078  
HR5G815190153112018031501A007A 003370003370                                    
HR4G815190153210155390000319406                   ON2903840714  NAHCP    0078  
HR5G815190153212018031501A001A 002170002170                                    
HR5G815190153212018031501G372A 000389000389                                    
HR4G815190153310155390000319408                   ON1321305714  CAHCP    0078  
HR5G815190153312018031501A007A 003370003370                                    
HR4G815190153410155390000319409                   ON8906752954  TLHCP    0078  
HR5G815190153412018031501A007A 003370003370                                    
HR4G815190153510155390000319410                   ON2190604096  CEHCP    0078  
HR5G815190153512018031501A001A 002170002170                                    
HR4G815190153610155390000319411                   ON3795432701  WPHCP    0078  
HR5G815190153612018031501A007A 003370003370                                    
HR4G815190153710155390000319412                   ON4071871679  XJHCP    0078  
HR5G815190153712018031501A007A 003370003370                                    
HR4G815190153810155390000319413                   ON5056914434  NWHCP    0078  
HR5G815190153812018031501A007A 003370003370                                    
HR4G815190153910155390000319414                   ON2573047780  CDHCP    0078  
HR5G815190153912018031501A007A 003370003370                                    
HR4G815190154010155390000319415                   ON3552149365  VEHCP    0078  
HR5G815190154012018031501A007A 003370003370                                    
HR5G815190154012018031501G420A 001125001125                                    
HR4G815190154110155390000319416                   ON3411656360  XNHCP    0078  
HR5G815190154112018031501A007A 003370003370                                    
HR4G815190154210155390000319417                   ON5923487663  YLHCP    0078  
HR5G815190154212018031501A007A 003370003370                                    
HR4G815190154310155390000319418                   ON1199914514  HTHCP    0078  
HR5G815190154312018031501A007A 003370003370                                    
HR4G815190154410155390000319419                   ON9790366901  FAHCP    0078  
HR5G815190154412018031501A007A 003370003370                                    
HR4G815190154510155390000319420                   ON6461834506  MCHCP    0078  
HR5G815190154512018031501A007A 003370003370                                    
HR4G815190154610155390000319421                   ON9615336568  RMHCP    0078  
HR5G815190154612018031501A007A 003370003370                                    
HR4G815190154710155390000319422                   ON5698780672  GRHCP    0078  
HR5G815190154712018031501A007A 003370003370                                    
HR4G815190154810155390000319423                   ON3411638665  CXHCP    0078  
HR5G815190154812018031501A007A 003370003370                                    
HR4G815190154910155390000319424                   ON9021416590  CBHCP    0078  
HR5G815190154912018031501A007A 003370003370                                    
HR4G815190155010155390000319425                   ON5387282865  LRHCP    0078  
HR5G815190155012018031501A007A 003370003370                                    
HR4G815190155110155390000319426                   ON5820347069  GTHCP    0078  
HR5G815190155112018031501A007A 003370003370                                    
HR4G815190155210155390000319427                   ON6247677203  CPHCP    0078  
HR5G815190155212018031501A007A 003370003370                                    
HR4G815190155310155390000319428                   ON6742301143  KBHCP    0078  
HR5G815190155312018031501A007A 003370003370                                    
HR4G815190155410155390000319429                   ON3777993530  KLHCP    0078  
HR5G815190155412018031501A007A 003370003370                                    
HR4G815190155510155390000319430                   ON3524679580  DKHCP    0078  
HR5G815190155512018031501A007A 003370003370                                    
HR4G815190155610155390000319431                   ON9670401794  RFHCP    0078  
HR5G815190155612018031501A007A 003370003370                                    
HR4G815190155710155390000319432                   ON1959608413  NMHCP    0078  
HR5G815190155712018031501A007A 003370003370                                    
HR4G815190155810155390000319433                   ON9458360436  TRHCP    0078  
HR5G815190155812018031601A007A 003370003370                                    
HR4G815190155910155390000319434                   ON1364271955  VFHCP    0078  
HR5G815190155912018031601A007A 003370003370                                    
HR5G815190155912018031601G010A 000207000207                                    
HR4G815190156010155390000319435                   ON7380602065  LRHCP    0078  
HR5G815190156012018031601A007A 003370003370                                    
HR4G815190156110155390000319436                   ON4240172413  BBHCP    0078  
HR5G815190156112018031601A007A 003370003370                                    
HR4G815190156210155390000319437                   ON7543781103  LVHCP    0078  
HR5G815190156212018031601A007A 003370003370                                    
HR4G815190156310155390000319438                   ON1914921067  JWHCP    0078  
HR5G815190156312018031601A007A 003370003370                                    
HR4G815190156510155390000319440                   ON7628182284  RHHCP    0078  
HR5G815190156512018031601A007A 003370003370                                    
HR4G815190156610155390000319441                   ON7804553290  ABHCP    0078  
HR5G815190156612018031601A007A 003370003370                                    
HR4G815190156710155390000319442                   ON9959070351  VCHCP    0078  
HR5G815190156712018031601A007A 003370003370                                    
HR5G815190156712018031601G420A 001125001125                                    
HR4G815190156810155390000319443                   ON3214534772  DDHCP    0078  
HR5G815190156812018031601A003A 007720007720                                    
HR4G815190156910155390000319444                   ON2208448791  JGHCP    0078  
HR5G815190156912018031601A007A 003370003370                                    
HR4G815190157010155390000319445                   ON9684664890  NVHCP    0078  
HR5G815190157012018031601A003A 007720007720                                    
HR4G815190157110155390000319446                   ON5622416526  JDHCP    0078  
HR5G815190157112018031601A007A 003370003370                                    
HR4G815190157210155390000319447                   ON2907769976  GVHCP    0078  
HR5G815190157212018031601A007A 003370003370                                    
HR4G815190157310155390000319448                   ON9087676442  XAHCP    0078  
HR5G815190157312018031601A007A 003370003370                                    
HR4G815190157410155390000319449                   ON8129081819  LPHCP    0078  
HR5G815190157412018031601A007A 003370003370                                    
HR4G815190157510155390000319450                   ON8849417137  MVHCP    0078  
HR5G815190157512018031601A007A 003370003370                                    
HR4G815190157610155390000319451                   ON2335137218  JEHCP    0078  
HR5G815190157612018031601A007A 003370003370                                    
HR4G815190157710155390000319452                   ON9897216470  TDHCP    0078  
HR5G815190157712018031601A001A 002170002170                                    
HR5G815190157712018031601G202A 000445000445                                    
HR4G815190157810155390000319453                   ON1641390826  FNHCP    0078  
HR5G815190157812018031601A007A 003370003370                                    
HR4G815190157910155390000319454                   ON5165529511  LLHCP    0078  
HR5G815190157912018031601A007A 003370003370                                    
HR4G815190158010155390000319455                   ON4208071474  HJHCP    0078  
HR5G815190158012018031601A007A 003370003370                                    
HR5G815190158012018031601G005A 000388000388                                    
HR5G815190158012018031601G010A 000207000207                                    
HR4G815190158110155390000319456                   ON8102079285  MJHCP    0078  
HR5G815190158112018031601A007A 003370003370                                    
HR4G815190158210155390000319457                   ON5832411507  EDHCP    0078  
HR5G815190158212018031601A007A 003370003370                                    
HR4G815190158310155390000319458                   ON1664454541  RKHCP    0078  
HR5G815190158312018031601A007A 003370003370                                    
HR5G815190158312018031601G420A 001125001125                                    
HR4G815190158410155390000319459                   ON3259871493  JMHCP    0078  
HR5G815190158412018031601A007A 003370003370                                    
HR4G815190158510155390000319460                   ON1054718554  NTHCP    0078  
HR5G815190158512018031601A007A 003370003370                                    
HR4G815190158610155390000319461                   ON9318058592  KDHCP    0078  
HR5G815190158612018031601A007A 003370003370                                    
HR4G815190158710155390000319462                   ON8057940499  HFHCP    0078  
HR5G815190158712018031601A007A 003370003370                                    
HR5G815190158712018031601G010A 000207000207                                    
HR4G815190158810155390000319463                   ON2177018575  BKHCP    0078  
HR5G815190158812018031601A007A 003370003370                                    
HR4G815190158910155390000319464                   ON1331432425  LFHCP    0078  
HR5G815190158912018031601A007A 003370003370                                    
HR4G815190159010155390000319465                   ON6270481473  LRHCP    0078  
HR5G815190159012018031601A007A 003370003370                                    
HR4G815190159110155390000319466                   ON2380152054  YXHCP    0078  
HR5G815190159112018031601A007A 003370003370                                    
HR4G815190159210155390000319467                   ON6968126448  AGHCP    0078  
HR5G815190159212018031601A007A 003370003370                                    
HR4G815190159310155390000319468                   ON8907041118  CKHCP    0078  
HR5G815190159312018031601A007A 003370003370                                    
HR4G815190159410155390000319469                   ON4409160969  LLHCP    0078  
HR5G815190159412018031601A007A 003370003370                                    
HR4G815190159510155390000319470                   ON5058401349  LPHCP    0078  
HR5G815190159512018031601A007A 003370003370                                    
HR4G815190159610155390000319471                   ON4152831766  HDHCP    0078  
HR5G815190159612018031601A007A 003370003370                                    
HR4G815190159710155390000319472                   ON6734940007  KBHCP    0078  
HR5G815190159712018031601A007A 003370003370                                    
HR4G815190159810155390000319484                   ON6176733860  HNHCP    0078  
HR5G815190159812018031601K050A 010000010000                                    
HR4G815190159910155390000319488                   ON7450041491  GGHCP    0078  
HR5G815190159912018031601A001A 002170002170                                    
HR4G815190160010155390000319489                   ON2516897937  DDHCP    0078  
HR5G815190160012018031601A007A 003370003370                                    
HR4G815190160110155390000319517                   ON5063531908  WWHCP    0078  
HR5G815190160112018031701A007A 003370003370                                    
HR4G815190160210155390000319518                   ON7725071844  FNHCP    0078  
HR5G815190160212018031701A007A 003370003370                                    
HR4G815190160310155390000319519                   ON6654197067  LGHCP    0078  
HR5G815190160312018031701A007A 003370003370                                    
HR4G815190160410155390000319520                   ON5667725468  JBHCP    0078  
HR5G815190160412018031701A007A 003370003370                                    
HR5G815190160412018031701G372A 000389000389                                    
HR4G815190160510155390000319521                   ON3545559670  XVHCP    0078  
HR5G815190160512018031701A007A 003370003370                                    
HR4G815190160610155390000319522                   ON7684508711  ARHCP    0078  
HR5G815190160612018031701A007A 003370003370                                    
HR4G815190160710155390000319523                   ON1668609553  MTHCP    0078  
HR5G815190160712018031701A007A 003370003370                                    
HR4G815190160810155390000319524                   ON5618290646  EHHCP    0078  
HR5G815190160812018031701A007A 003370003370                                    
HR4G815190160910155390000319526                   ON6654619227  XTHCP    0078  
HR5G815190160912018031701A007A 003370003370                                    
HR4G815190161010155390000319527                   ON7749421793  YMHCP    0078  
HR5G815190161012018031701A007A 003370003370                                    
HR4G815190161110155390000319528                   ON3772709980  MFHCP    0078  
HR5G815190161112018031701A007A 003370003370                                    
HR4G815190161210155390000319529                   ON5462944470  RBHCP    0078  
HR5G815190161212018031701A007A 003370003370                                    
HR4G815190161310155390000319530                   ON1547720688  HFHCP    0078  
HR5G815190161312018031701A007A 003370003370                                    
HR5G815190161312018031701G372A 000389000389                                    
HR4G815190161410155390000319531                   ON1165687581  RGHCP    0078  
HR5G815190161412018031701A007A 003370003370                                    
HR4G815190161510155390000319532                   ON3566885681  LXHCP    0078  
HR5G815190161512018031701A007A 003370003370                                    
HR4G815190161610155390000319533                   ON8869691850  NFHCP    0078  
HR5G815190161612018031701A007A 003370003370                                    
HR4G815190161710155390000319534                   ON6825117200  XKHCP    0078  
HR5G815190161712018031701A001A 002170002170                                    
HR5G815190161712018031701G845A 000450000450                                    
HR4G815190161810155390000319535                   ON1778949055  HEHCP    0078  
HR5G815190161812018031701A007A 003370003370                                    
HR4G815190161910155390000319536                   ON6358910484  MBHCP    0078  
HR5G815190161912018031701A007A 003370003370                                    
HR4G815190162010155390000319537                   ON4937467746  RDHCP    0078  
HR5G815190162012018031701A007A 003370003370                                    
HR4G815190162110155390000319538                   ON6154119785  XYHCP    0078  
HR5G815190162112018031701A007A 003370003370                                    
HR4G815190162210155390000319539                   ON3627443942  YYHCP    0078  
HR5G815190162212018031701A001A 002170002170                                    
HR5G815190162212018031701G202A 000445000445                                    
HR4G815190162310155390000319540                   ON7050993158  GBHCP    0078  
HR5G815190162312018031701A007A 003370003370                                    
HR4G815190162410155390000319541                   ON7535392364  CAHCP    0078  
HR5G815190162412018031701A007A 003370003370                                    
HR4G815190162510155390000319542                   ON5501509326  DKHCP    0078  
HR5G815190162512018031701A007A 003370003370                                    
HR4G815190162610155390000319543                   ON2208431227  FRHCP    0078  
HR5G815190162612018031701A007A 003370003370                                    
HR4G815190162710155390000319544                   ON4281201451  MXHCP    0078  
HR5G815190162712018031701A007A 003370003370                                    
HR5G815190162712018031701K055A 002000002000                                    
HR4G815190162810155390000319545                   ON6435779696  LXHCP    0078  
HR5G815190162812018031701A001A 002170002170                                    
HR5G815190162812018031701G202A 000445000445                                    
HR4G815190162910155390000319546                   ON6461834506  MCHCP    0078  
HR5G815190162912018031701A007A 003370003370                                    
HR5G815190162912018031701G372A 000389000389                                    
HR4G815190163010155390000319547                   ON9184908771  VNHCP    0078  
HR5G815190163012018031701A007A 003370003370                                    
HR4G815190163110155390000319548                   ON9757388328  TEHCP    0078  
HR5G815190163112018031701A007A 003370003370                                    
HR4G815190163210155390000319549                   ON2693821015  XYHCP    0078  
HR5G815190163212018031701A007A 003370003370                                    
HR4G815190163310155390000319550                   ON8467516632  ECHCP    0078  
HR5G815190163312018031701A007A 003370003370                                    
HR4G815190163410155390000319551                   ON4373070293  BEHCP    0078  
HR5G815190163412018031701A007A 003370003370                                    
HR4G815190163510155390000319552                   ON7663573983  KWHCP    0078  
HR5G815190163512018031701A007A 003370003370                                    
HR4G815190163610155390000319553                   ON6340199444  CBHCP    0078  
HR5G815190163612018031701A007A 003370003370                                    
HR4G815190163710155390000319554                   ON5266147890  YJHCP    0078  
HR5G815190163712018031701A007A 003370003370                                    
HR4G815190163810155390000319555                   ON8222523527  VMHCP    0078  
HR5G815190163812018031701A007A 003370003370                                    
HR4G803213855510155390000319556                   ON4796868398  MWHCP    0078  
HR5G803213855512018031801A007A 003370003370                                    
HR5G803213855512018031801G010A 000207000207                                    
HR4G803213855610155390000319557                   ON5704349033  HCHCP    0078  
HR5G803213855612018031801A007A 003370003370                                    
HR4G803213855710155390000319558                   ON5262268799  XFHCP    0078  
HR5G803213855712018031801A007A 003370003370                                    
HR4G803213855810155390000319562                   ON4697782458  BWHCP    0078  
HR5G803213855812018031801A007A 003370003370                                    
HR4G803213855910155390000319563                   ON8984241706    HCP    0078  
HR5G803213855912018031801A007A 003370003370                                    
HR4G803213856010155390000319564                   ON3037566530  WMHCP    0078  
HR5G803213856012018031801A007A 003370003370                                    
HR5G803213856012018031801G010A 000207000207                                    
HR4G803213856110155390000319565                   ON5349964162  RXHCP    0078  
HR5G803213856112018031801A007A 003370003370                                    
HR4G803213856210155390000319566                   ON5654242600  HJHCP    0078  
HR5G803213856212018031801A007A 003370003370                                    
HR4G803213856310155390000319567                   ON5363251595  PYHCP    0078  
HR5G803213856312018031801A007A 003370003370                                    
HR4G803213856410155390000319568                   ON8645078851  AHHCP    0078  
HR5G803213856412018031801A007A 003370003370                                    
HR4G803213856510155390000319569                   ON6124162436  RWHCP    0078  
HR5G803213856512018031801A007A 003370003370                                    
HR4G803213856610155390000319570                   ON3651159638  DKHCP    0078  
HR5G803213856612018031801A007A 003370003370                                    
HR4G815211961810155390000319687                   ON5794183300  HLHCP    0078  
HR5G815211961812018032001A007A 003370003370                                    
HR4G815211961910155390000319688                   ON3238621761  BEHCP    0078  
HR5G815211961912018032001A007A 003370003370                                    
HR4G815211962010155390000319689                   ON5386061732  GJHCP    0078  
HR5G815211962012018032001A007A 003370003370                                    
HR4G815211962110155390000319690                   ON6019536322  PNHCP    0078  
HR5G815211962112018032001A007A 003370003370                                    
HR5G815211962112018032001G010A 000207000207                                    
HR4G815211962210155390000319691                   ON1165716414  CHHCP    0078  
HR5G815211962212018032001A001A 002170002170                                    
HR5G815211962212018032001G420A 001125001125                                    
HR4G815211962310155390000319692                   ON2695917332  RDHCP    0078  
HR5G815211962312018032001A007A 003370003370                                    
HR5G815211962312018032001G841A 000450000450                                    
HR4G815211962410155390000319693                   ON5425553921  XTHCP    0078  
HR5G815211962412018032001A007A 003370003370                                    
HR4G815211962510155390000319694                   ON8715772623  YEHCP    0078  
HR5G815211962512018032001A007A 003370003370                                    
HR5G815211962512018032001G372A 000389000389                                    
HR4G815211962610155390000319695                   ON8746229148  AHHCP    0078  
HR5G815211962612018032001A007A 003370003370                                    
HR4G815211962710155390000319696                   ON5808866742  TGHCP    0078  
HR5G815211962712018032001A007A 003370003370                                    
HR4G815211962810155390000319697                   ON7071106657  LBHCP    0078  
HR5G815211962812018032001A007A 003370003370                                    
HR4G815211962910155390000319698                   ON6070976904  HPHCP    0078  
HR5G815211962912018032001A007A 003370003370                                    
HR4G815211963010155390000319699                   ON5971863773  YJHCP    0078  
HR5G815211963012018032001A007A 003370003370                                    
HR4G815211963110155390000319700                   ON1541340012  AVHCP    0078  
HR5G815211963112018032001A001A 002170002170                                    
HR5G815211963112018032001G202A 000445000445                                    
HR4G815211963210155390000319701                   ON5096158711  TPHCP    0078  
HR5G815211963212018032001A007A 003370003370                                    
HR5G815211963212018032001G847A 000450000450                                    
HR4G815211963310155390000319702                   ON9908138374  RWHCP    0078  
HR5G815211963312018032001A007A 003370003370                                    
HR4G815211963410155390000319703                   ON9724804209  RXHCP    0078  
HR5G815211963412018032001A007A 003370003370                                    
HR4G815211963510155390000319704                   ON4446235097  HFHCP    0078  
HR5G815211963512018032001A007A 003370003370                                    
HR4G815211963610155390000319705                   ON1900752989  MJHCP    0078  
