HR1V030007800000000H720180514STONEY CREEK MEDICAL WALK IN C005989055 99999999  
HR2                              2A - 140 CENTENNIAL PARKW                     
HR3HAMILTON        ON L8E1H9                                                   
HR4G816103065410155390000316690                   ON6039088346  XLHCP    0078  
HR5G816103065412018020501K070A 003175003175                                    
HR4G816122832310155390000318353                   ON6031464529  RKHCP    0078  
HR5G816122832312018030101A007A 003370003370                                    
HR4G816122832410155390000318354                   ON5814753322  YEHCP    0078  
HR5G816122832412018030101A007A 003370003370                                    
HR4G816122832510155390000318355                   ON3152604249  JTHCP    0078  
HR5G816122832512018030101A007A 003370003370                                    
HR4G816122832610155390000318356                   ON5053368923  YKHCP    0078  
HR5G816122832612018030101A007A 003370003370                                    
HR4G816122832710155390000318357                   ON5911038874  KLHCP    0078  
HR5G816122832712018030101A007A 003370003370                                    
HR5G816122832712018030101G372A 000389000389                                    
HR4G816122832810155390000318358                   ON9195152708  LEHCP    0078  
HR5G816122832812018030101A007A 003370003370                                    
HR4G816122832910155390000318359                   ON3370712733  BWHCP    0078  
HR5G816122832912018030101A007A 003370003370                                    
HR4G816122833010155390000318360                   ON3756260034  FAHCP    0078  
HR5G816122833012018030101A007A 003370003370                                    
HR4G816122833110155390000318361                   ON9877116716  MJHCP    0078  
HR5G816122833112018030101A007A 003370003370                                    
HR5G816122833112018030101E430A 001155001155                                    
HR5G816122833112018030101G365A 000675000675                                    
HR4G816122833210155390000318362                   ON9339676703  XVHCP    0078  
HR5G816122833212018030101A007A 003370003370                                    
HR4G816122833310155390000318363                   ON7737061163  TEHCP    0078  
HR5G816122833312018030101A007A 003370003370                                    
HR4G816122833410155390000318364                   ON1821956735  CVHCP    0078  
HR5G816122833412018030101A007A 003370003370                                    
HR5G816122833412018030102G202A 000890000890                                    
HR4G816122833510155390000318366                   ON6766596313  NKHCP    0078  
HR5G816122833512018030101A007A 003370003370                                    
HR4G816122833610155390000318367                   ON9724804209  RXHCP    0078  
HR5G816122833612018030101A003A 007720007720                                    
HR4G816122833710155390000318368                   ON7088528281  WXHCP    0078  
HR5G816122833712018030101A007A 003370003370                                    
HR4G816122833810155390000318369                   ON9281485483  YLHCP    0078  
HR5G816122833812018030101A007A 003370003370                                    
HR4G816122833910155390000318370                   ON9439669798  LLHCP    0078  
HR5G816122833912018030101A007A 003370003370                                    
HR4G816122834010155390000318371                   ON5125514215  KJHCP    0078  
HR5G816122834012018030101A007A 003370003370                                    
HR4G816122834110155390000318372                   ON4258520859  NCHCP    0078  
HR5G816122834112018030101A007A 003370003370                                    
HR4G816122834210155390000318373                   ON1644176677  YRHCP    0078  
HR5G816122834212018030101A007A 003370003370                                    
HR4G816122834310155390000318374                   ON5526158794  YPHCP    0078  
HR5G816122834312018030101A007A 003370003370                                    
HR4G816122834410155390000318375                   ON1326348206  FNHCP    0078  
HR5G816122834412018030101A001A 002170002170                                    
HR5G816122834412018030101G847A 000450000450                                    
HR4G816122834510155390000318376                   ON5384102728  RXHCP    0078  
HR5G816122834512018030101A007A 003370003370                                    
HR4G816122834610155390000318377                   ON6087304322  RWHCP    0078  
HR5G816122834612018030101A007A 003370003370                                    
HR4G816122834710155390000318378                   ON5655711843  MXHCP    0078  
HR5G816122834712018030101A007A 003370003370                                    
HR4G816122834810155390000318379                   ON4860149626  NKHCP    0078  
HR5G816122834812018030101A007A 003370003370                                    
HR4G816122834910155390000318380                   ON7703420948  EDHCP    0078  
HR5G816122834912018030101A007A 003370003370                                    
HR4G816122835010155390000318381                   ON5173845628  YXHCP    0078  
HR5G816122835012018030101A007A 003370003370                                    
HR5G816122835012018030101G847A 000450000450                                    
HR4G816122835110155390000318382                   ON6778255387  BKHCP    0078  
HR5G816122835112018030101A007A 003370003370                                    
HR4G816122835210155390000318383                   ON6903753900  KCHCP    0078  
HR5G816122835212018030101A007A 003370003370                                    
HR4G816122835310155390000318384                   ON8588022312  HNHCP    0078  
HR5G816122835312018030101A007A 003370003370                                    
HR4G816122835410155390000318386                   ON7783732931  MJHCP    0078  
HR5G816122835412018030101A007A 003370003370                                    
HR4G816122835510155390000318387                   ON8828643067  KGHCP    0078  
HR5G816122835512018030101A007A 003370003370                                    
HR4G816122835610155390000318388                   ON8923548138  DXHCP    0078  
HR5G816122835612018030101A007A 003370003370                                    
HR4G816122835710155390000318389                   ON9956747829  YPHCP    0078  
HR5G816122835712018030101A007A 003370003370                                    
HR4G816122835810155390000318390                   ON1110791637  PRHCP    0078  
HR5G816122835812018030101A007A 003370003370                                    
HR4G816122835910155390000318391                   ON6339718865  WAHCP    0078  
HR5G816122835912018030101A007A 003370003370                                    
HR4G816122836010155390000318392                   ON6859839869  FMHCP    0078  
HR5G816122836012018030101A007A 003370003370                                    
HR4G816122836110155390000318393                   ON5484758163  NVHCP    0078  
HR5G816122836112018030101A007A 003370003370                                    
HR4G816122836210155390000318395                   ON2639628805  ADHCP    0078  
HR5G816122836212018030101A003A 007720007720                                    
HR4G816122836310155390000318396                   ON6546321701  XGHCP    0078  
HR5G816122836312018030101A007A 003370003370                                    
HR4G816122836410155390000318397                   ON4489557001  LXHCP    0078  
HR5G816122836412018030101A007A 003370003370                                    
HR4G816122836510155390000318398                   ON8857117645  RHHCP    0078  
HR5G816122836512018030101A007A 003370003370                                    
HR5G816122836512018030101G372A 000389000389                                    
HR4G816122836610155390000318399                   ON9984137159  YPHCP    0078  
HR5G816122836612018030101A007A 003370003370                                    
HR4G816122836710155390000318400                   ON6752254307  VJHCP    0078  
HR5G816122836712018030101A007A 003370003370                                    
HR4G816122836810155390000318401                   ON2762938419  ABHCP    0078  
HR5G816122836812018030101A007A 003370003370                                    
HR4G816122836910155390000318402                   ON1368815633  JVHCP    0078  
HR5G816122836912018030101A007A 003370003370                                    
HR4G816122837010155390000318403                   ON3819438478  PAHCP    0078  
HR5G816122837012018030101A007A 003370003370                                    
HR4G816122837110155390000318404                   ON9462980443  XTHCP    0078  
HR5G816122837112018030101A007A 003370003370                                    
HR5G816122837112018030101G840A 000450000450                                    
HR5G816122837112018030101G845A 000450000450                                    
HR4G816122837210155390000318405                   ON5660010785  TEHCP    0078  
HR5G816122837212018030101A007A 003370003370                                    
HR4G816122837310155390000318406                   ON4802660219  XRHCP    0078  
HR5G816122837312018030101A007A 003370003370                                    
HR4G816122837410155390000318408                   ON5224624907  JWHCP    0078  
HR5G816122837412018030101A007A 003370003370                                    
HR4G803152819510155390000319236                   ON6144157838    HCP    0078  
HR5G803152819512018031301A007A 003370003370 EV                                 
HR4G815190156410155390000319439                   ON6144157838    HCP    0078  
HR5G815190156412018031601A007A 003370003370 EV                                 
HR4G804055920710155390000320352                   ON8335344811  PKHCP    0078  
HR5G804055920712018032901A001A 002170002170                                    
HR5G804055920712018032901G372A 000389000389                                    
HR4G804055920810155390000320355                   ON6309567896  GFHCP    0078  
HR5G804055920812018032901A007A 003370003370                                    
HR4G804055920910155390000320356                   ON5358004249  RYHCP    0078  
HR5G804055920912018032901A007A 003370003370                                    
HR4G804055921010155390000320357                   ON6828738259  WMHCP    0078  
HR5G804055921012018032901A007A 003370003370                                    
HR4G804055921110155390000320358                   ON9770452077  JFHCP    0078  
HR5G804055921112018032901A007A 003370003370                                    
HR5G804055921112018032901G420A 001125001125                                    
HR4G804055921210155390000320359                   ON3208839864  NGHCP    0078  
HR5G804055921212018032901A007A 003370003370                                    
HR5G804055921212018032901G010A 000207000207                                    
HR4G804055921310155390000320360                   ON1134909298  HBHCP    0078  
HR5G804055921312018032901A007A 003370003370                                    
HR4G804055921410155390000320361                   ON5911038874  KLHCP    0078  
HR5G804055921412018032901A007A 003370003370                                    
HR5G804055921412018032901G372A 000389000389                                    
HR4G804055921510155390000320362                   ON5264858977  DKHCP    0078  
HR5G804055921512018032901A007A 003370003370                                    
HR4G804055921610155390000320363                   ON3877603823  KVHCP    0078  
HR5G804055921612018032901A007A 003370003370                                    
HR4G804055921710155390000320364                   ON8507371899  EJHCP    0078  
HR5G804055921712018032901A007A 003370003370                                    
HR4G804055921810155390000320365                   ON3037566530  WMHCP    0078  
HR5G804055921812018032901A007A 003370003370                                    
HR5G804055921812018032901G010A 000207000207                                    
HR4G804055921910155390000320366                   ON1730351168  GDHCP    0078  
HR5G804055921912018032901A007A 003370003370                                    
HR4G804055922010155390000320367                   ON5104767891  EYHCP    0078  
HR5G804055922012018032901A007A 003370003370                                    
HR4G804055922110155390000320368                   ON5947317334  XXHCP    0078  
HR5G804055922112018032901A007A 003370003370                                    
HR4G804055922210155390000320369                   ON2376270514  BTHCP    0078  
HR5G804055922212018032901A007A 003370003370                                    
HR5G804055922212018032901G420A 001125001125                                    
HR4G804055922310155390000320370                   ON5537886482  CDHCP    0078  
HR5G804055922312018032901A007A 003370003370                                    
HR4G804055922410155390000320371                   ON9821201283  KYHCP    0078  
HR5G804055922412018032901A007A 003370003370                                    
HR4G804055922510155390000320372                   ON5532502498  HDHCP    0078  
HR5G804055922512018032901A007A 003370003370                                    
HR4G804055922610155390000320373                   ON9976227927  XHHCP    0078  
HR5G804055922612018032901A007A 003370003370                                    
HR4G804055922710155390000320374                   ON1380848406  HCHCP    0078  
HR5G804055922712018032901A007A 003370003370                                    
HR4G804055922810155390000320375                   ON8481540733  KEHCP    0078  
HR5G804055922812018032901A007A 003370003370                                    
HR4G804055922910155390000320376                   ON7548027353  LKHCP    0078  
HR5G804055922912018032901A007A 003370003370                                    
HR4G804055923010155390000320377                   ON4344656840  DFHCP    0078  
HR5G804055923012018032901A007A 003370003370                                    
HR4G804055923110155390000320378                   ON6235323042  YLHCP    0078  
HR5G804055923112018032901A007A 003370003370                                    
HR4G804055923210155390000320379                   ON2750742278  AMHCP    0078  
HR5G804055923212018032901A007A 003370003370                                    
HR5G804055923212018032901G010A 000207000207                                    
HR4G804055923310155390000320380                   ON2755966781  YFHCP    0078  
HR5G804055923312018032901A007A 003370003370                                    
HR5G804055923312018032901G005A 000388000388                                    
HR5G804055923312018032901G010A 000207000207                                    
HR4G804055923410155390000320381                   ON7886465520  KLHCP    0078  
HR5G804055923412018032901A007A 003370003370                                    
HR4G804055923510155390000320382                   ON9415988238  APHCP    0078  
HR5G804055923512018032901A007A 003370003370                                    
HR5G804055923512018032901G372A 000389000389                                    
HR4G804055923610155390000320383                   ON1052556816  HMHCP    0078  
HR5G804055923612018032901A007A 003370003370                                    
HR4G804055923710155390000320384                   ON3649858572  LMHCP    0078  
HR5G804055923712018032901A007A 003370003370                                    
HR4G804055923810155390000320385                   ON3627443942  YYHCP    0078  
HR5G804055923812018032901A001A 002170002170                                    
HR5G804055923812018032901G202A 000445000445                                    
HR4G804055923910155390000320386                   ON9042985573  VPHCP    0078  
HR5G804055923912018032901A007A 003370003370                                    
HR5G804055923912018032901G010A 000207000207                                    
HR4G804055924010155390000320387                   ON7667731850  BWHCP    0078  
HR5G804055924012018032901A007A 003370003370                                    
HR4G804055924110155390000320388                   ON4947266799  RTHCP    0078  
HR5G804055924112018032901A007A 003370003370                                    
HR4G804055924210155390000320389                   ON8318224642  KTHCP    0078  
HR5G804055924212018032901A007A 003370003370                                    
HR4G804055924310155390000320390                   ON7890074003  LNHCP    0078  
HR5G804055924312018032901A007A 003370003370                                    
HR4G804055924410155390000320391                   ON6350955487  PYHCP    0078  
HR5G804055924412018032901A007A 003370003370                                    
HR4G804055924510155390000320392                   ON9504907545  MLHCP    0078  
HR5G804055924512018032901A007A 003370003370                                    
HR4G804055924610155390000320393                   ON1015535634  VBHCP    0078  
HR5G804055924612018032901A007A 003370003370                                    
HR4G804055924710155390000320394                   ON3509832238  AMHCP    0078  
HR5G804055924712018032901A007A 003370003370                                    
HR4G804055924810155390000320395                   ON5258639037  YVHCP    0078  
HR5G804055924812018032901A007A 003370003370                                    
HR4G804055924910155390000320396                   ON4047074606  RJHCP    0078  
HR5G804055924912018032901K005A 006275006275                                    
HR4G804055925010155390000320397                   ON5687862291  WEHCP    0078  
HR5G804055925012018032901A007A 003370003370                                    
HR4G804055925110155390000320398                   ON3814904359  JPHCP    0078  
HR5G804055925112018032901A007A 003370003370                                    
HR4G804055925210155390000320399                   ON1187653330  RAHCP    0078  
HR5G804055925212018032901A007A 003370003370                                    
HR4G804058408110155390000320400                   ON1505928299  MCHCP    0078  
HR5G804058408112018033001A007A 003370003370                                    
HR5G804058408112018033001Q150A 000700000700                                    
HR4G804058408210155390000320401                   ON6849407439  GGHCP    0078  
HR5G804058408212018033001A007A 003370003370                                    
HR4G804058408310155390000320402                   ON5530476737  LMHCP    0078  
HR5G804058408312018033001A007A 003370003370                                    
HR4G804058408410155390000320403                   ON1058107515  FPHCP    0078  
HR5G804058408412018033001A007A 003370003370                                    
HR4G804058408510155390000320404                   ON3563297575  NTHCP    0078  
HR5G804058408512018033001A007A 003370003370                                    
HR4G804058408610155390000320405                   ON2686532306  TPHCP    0078  
HR5G804058408612018033001A007A 003370003370                                    
HR4G804058408710155390000320406                   ON4180695092  KXHCP    0078  
HR5G804058408712018033001A007A 003370003370                                    
HR4G804058408810155390000320407                   ON4796868398  MWHCP    0078  
HR5G804058408812018033001A007A 003370003370                                    
HR5G804058408812018033001G010A 000207000207                                    
HR4G804058408910155390000320408                   ON4856422094  HKHCP    0078  
HR5G804058408912018033001A007A 003370003370                                    
HR4G804058409010155390000320409                   ON7347554656  XRHCP    0078  
HR5G804058409012018033001A007A 003370003370                                    
HR4G804058409110155390000320410                   ON5814753322  YEHCP    0078  
HR5G804058409112018033001A007A 003370003370                                    
HR5G804058409112018033001G372A 000389000389                                    
HR4G804058409210155390000320411                   ON4732478658  RKHCP    0078  
HR5G804058409212018033001A007A 003370003370                                    
HR4G804058409310155390000320412                   ON7462301164  AKHCP    0078  
HR5G804058409312018033001A007A 003370003370                                    
HR4G804058409410155390000320413                   ON6700319897  AEHCP    0078  
HR5G804058409412018033001A007A 003370003370                                    
HR4G804058409510155390000320414                   ON8981986386  WLHCP    0078  
HR5G804058409512018033001A007A 003370003370                                    
HR4G804058409610155390000320415                   ON6343463524  LAHCP    0078  
HR5G804058409612018033001A007A 003370003370                                    
HR5G804058409612018033001G005A 000388000388                                    
HR4G804058409710155390000320416                   ON5139582828  MYHCP    0078  
HR5G804058409712018033001A007A 003370003370                                    
HR4G804058409810155390000320417                   ON7318333924  VRHCP    0078  
HR5G804058409812018033001A007A 003370003370                                    
HR4G816103065510155390000320517                   ON3860537046  XXHCP    0078  
HR5G816103065512018040201A007A 003370003370                                    
HR4G816103065610155390000320518                   ON6654371498  RYHCP    0078  
HR5G816103065612018040201A007A 003370003370                                    
HR4G816103065710155390000320519                   ON8859160098  DAHCP    0078  
HR5G816103065712018040201A007A 003370003370                                    
HR4G816103065810155390000320521                   ON4301502706  CGHCP    0078  
HR5G816103065812018040201A007A 003370003370                                    
HR4G816103065910155390000320522                   ON6654197067  LGHCP    0078  
HR5G816103065912018040201A007A 003370003370                                    
HR4G816103066010155390000320523                   ON7595683181  WCHCP    0078  
HR5G816103066012018040201A007A 003370003370                                    
HR4G816103066110155390000320524                   ON7725071844  FNHCP    0078  
HR5G816103066112018040201A007A 003370003370                                    
HR4G816103066210155390000320525                   ON8909585898    HCP    0078  
HR5G816103066212018040201A007A 003370003370 EV                                 
HR4G816103066310155390000320526                   ON2621152574  YHHCP    0078  
HR5G816103066312018040201A007A 003370003370                                    
HR4G816103066410155390000320527                   ON4049058441  BHHCP    0078  
HR5G816103066412018040201A007A 003370003370                                    
HR4G816103066510155390000320528                   ON2143513949  LLHCP    0078  
HR5G816103066512018040201A007A 003370003370                                    
HR4G816103066610155390000320529                   ON4965475603  RTHCP    0078  
HR5G816103066612018040201A007A 003370003370                                    
HR4G816103066710155390000320530                   ON6039088346  XLHCP    0078  
HR5G816103066712018040201A007A 003370003370                                    
HR4G816103066810155390000320531                   ON3503027439  DHHCP    0078  
HR5G816103066812018040201A007A 003370003370                                    
HR4G816103066910155390000320532                   ON1611631506  VCHCP    0078  
HR5G816103066912018040201A007A 003370003370                                    
HR4G816103067010155390000320533                   ON1110339940  XEHCP    0078  
HR5G816103067012018040201A007A 003370003370                                    
HR4G816103067110155390000320534                   ON3509389643  KGHCP    0078  
HR5G816103067112018040201A007A 003370003370                                    
HR4G816103067210155390000320535                   ON4582619930  TJHCP    0078  
HR5G816103067212018040201A007A 003370003370                                    
HR4G816103067310155390000320536                   ON8614299017  AMHCP    0078  
HR5G816103067312018040201A007A 003370003370                                    
HR4G816103067410155390000320538                   ON1489280188  LNHCP    0078  
HR5G816103067412018040201A007A 003370003370                                    
HR4G816103067510155390000320539                   ON6798315237  WKHCP    0078  
HR5G816103067512018040201A007A 003370003370                                    
HR4G816103067610155390000320541                   ON3334137779  TDHCP    0078  
HR5G816103067612018040201A007A 003370003370                                    
HR4G816103067710155390000320542                   ON6121071788  DWHCP    0078  
HR5G816103067712018040201A007A 003370003370                                    
HR4G816103067810155390000320543                   ON3483296822  BKHCP    0078  
HR5G816103067812018040201A007A 003370003370                                    
HR4G816103067910155390000320544                   ON5310948061  CXHCP    0078  
HR5G816103067912018040201A007A 003370003370                                    
HR4G816103068010155390000320545                   ON1551775230  GHHCP    0078  
HR5G816103068012018040201A007A 003370003370                                    
HR4G816103068110155390000320546                   ON1107229898  EXHCP    0078  
HR5G816103068112018040201A007A 003370003370                                    
HR4G816103068210155390000320547                   ON2371959707  WPHCP    0078  
HR5G816103068212018040201A007A 003370003370                                    
HR4G816103068310155390000320548                   ON1868834100  EMHCP    0078  
HR5G816103068312018040201A007A 003370003370                                    
HR4G816103068410155390000320549                   ON3325992018  LCHCP    0078  
HR5G816103068412018040201A007A 003370003370                                    
HR4G816103068510155390000320550                   ON6159036786  FAHCP    0078  
HR5G816103068512018040201A007A 003370003370                                    
HR4G816103068610155390000320551                   ON5695976182  FXHCP    0078  
HR5G816103068612018040201A007A 003370003370                                    
HR5G816103068612018040201G010A 000207000207                                    
HR4G816103068710155390000320552                   ON2369589797  XDHCP    0078  
HR5G816103068712018040201A007A 003370003370                                    
HR4G816103068810155390000320553                   ON9838315076  DVHCP    0078  
HR5G816103068812018040201A007A 003370003370                                    
HR4G816103068910155390000320554                   ON2232991667  VTHCP    0078  
HR5G816103068912018040201A001A 002170002170                                    
HR5G816103068912018040201G372A 000389000389                                    
HR4G816103069010155390000320555                   ON5691311954  CKHCP    0078  
HR5G816103069012018040201A007A 003370003370                                    
HR4G816103069110155390000320556                   ON5485119274  PKHCP    0078  
HR5G816103069112018040201A007A 003370003370                                    
HR4G816103069210155390000320557                   ON7178679259  BCHCP    0078  
HR5G816103069212018040201A007A 003370003370                                    
HR4G816103069310155390000320558                   ON3461942264  NEHCP    0078  
HR5G816103069312018040201A007A 003370003370                                    
HR5G816103069312018040201G010A 000207000207                                    
HR4G816103069410155390000320559                   ON2781127762  CPHCP    0078  
HR5G816103069412018040201A007A 003370003370                                    
HR4G816103069510155390000320560                   ON2707702953  EWHCP    0078  
HR5G816103069512018040201A007A 003370003370                                    
HR4G816103069610155390000320561                   ON9156129836  YAHCP    0078  
HR5G816103069612018040201A001A 002170002170                                    
HR5G816103069612018040202G372A 000778000778                                    
HR4G816103069710155390000320562                   ON7208709092  FWHCP    0078  
HR5G816103069712018040201A007A 003370003370                                    
HR4G816103069810155390000320563                   ON4819463615  DFHCP    0078  
HR5G816103069812018040201A007A 003370003370                                    
HR4G816103069910155390000320564                   ON3545732202  GYHCP    0078  
HR5G816103069912018040201A007A 003370003370                                    
HR4G816103070010155390000320565                   ON3551450087  RAHCP    0078  
HR5G816103070012018040201A007A 003370003370                                    
HR4G816103070110155390000320566                   ON6723402316  NXHCP    0078  
HR5G816103070112018040201A007A 003370003370                                    
HR4G816103070210155390000320567                   ON8000128382  DBHCP    0078  
HR5G816103070212018040201A007A 003370003370                                    
HR4G816103070310155390000320568                   ON9044069541  CYHCP    0078  
HR5G816103070312018040201A007A 003370003370                                    
HR5G816103070312018040201G844A 000450000450                                    
HR4G816103070410155390000320569                   ON5747812062  HDHCP    0078  
HR5G816103070412018040201A007A 003370003370                                    
HR4G816103070510155390000320570                   ON2479036283  EWHCP    0078  
HR5G816103070512018040201A007A 003370003370                                    
HR4G816103070610155390000320571                   ON1864042187  MBHCP    0078  
HR5G816103070612018040201A007A 003370003370                                    
HR4G816103070710155390000320572                   ON2382205975  TEHCP    0078  
HR5G816103070712018040201A007A 003370003370                                    
HR4G816103070810155390000320573                   ON7919534748  FYHCP    0078  
HR5G816103070812018040201A007A 003370003370                                    
HR4G816103070910155390000320574                   ON6304539585  XCHCP    0078  
HR5G816103070912018040201A007A 003370003370                                    
HR4G816103071010155390000320575                   ON9371007460  KMHCP    0078  
HR5G816103071012018040201A007A 003370003370                                    
HR5G816103071012018040201G847A 000450000450                                    
HR4G816103071110155390000320576                   ON6659768029  FJHCP    0078  
HR5G816103071112018040201A007A 003370003370                                    
HR4G816103071210155390000320577                   ON4016702005  BPHCP    0078  
HR5G816103071212018040201A007A 003370003370                                    
HR4G804100530310155390000320616                   ON1539919140  DAHCP    0078  
HR5G804100530312018040301A007A 003370003370                                    
HR5G804100530312018040301G841A 000450000450                                    
HR4G804100530410155390000320617                   ON2743143782  CEHCP    0078  
HR5G804100530412018040301A007A 003370003370                                    
HR4G804100530510155390000320618                   ON6343463524  LAHCP    0078  
HR5G804100530512018040301A001A 002170002170                                    
HR5G804100530512018040301G847A 000450000450                                    
HR4G804100530610155390000320619                   ON9850044398  YEHCP    0078  
HR5G804100530612018040301A007A 003370003370                                    
HR4G804100530710155390000320620                   ON1934223023  THHCP    0078  
HR5G804100530712018040301A007A 003370003370                                    
HR5G804100530712018040301G010A 000207000207                                    
HR4G804100530810155390000320621                   ON7519511096  BGHCP    0078  
HR5G804100530812018040301A007A 003370003370                                    
HR4G804100530910155390000320622                   ON4689322321  YDHCP    0078  
HR5G804100530912018040301A007A 003370003370                                    
HR4G804100531010155390000320623                   ON6886193025  TPHCP    0078  
HR5G804100531012018040301A007A 003370003370                                    
HR5G804100531012018040301G372A 000389000389                                    
HR4G804100531110155390000320624                   ON3741553055  ETHCP    0078  
HR5G804100531112018040301A007A 003370003370                                    
HR4G804100531210155390000320625                   ON1105137200  XMHCP    0078  
HR5G804100531212018040301A001A 002170002170                                    
HR5G804100531212018040301G372A 000389000389                                    
HR4G804100531310155390000320626                   ON6517113178  YPHCP    0078  
HR5G804100531312018040301A007A 003370003370                                    
HR5G804100531312018040301G010A 000207000207                                    
HR4G804100531410155390000320627                   ON7969179006  VWHCP    0078  
HR5G804100531412018040301A007A 003370003370                                    
HR4G804100531510155390000320628                   ON9177443455  EFHCP    0078  
HR5G804100531512018040301A007A 003370003370                                    
HR4G804100531610155390000320629                   ON9156129836  YAHCP    0078  
HR5G804100531612018040301A007A 003370003370                                    
HR4G804100531710155390000320630                   ON9744581720  EKHCP    0078  
HR5G804100531712018040301A007A 003370003370                                    
HR4G804100531810155390000320631                   ON8555044687  TFHCP    0078  
HR5G804100531812018040301A001A 002170002170                                    
HR5G804100531812018040301G847A 000450000450                                    
HR4G816130346110155390000320632                   ON8500545176  NTHCP    0078  
HR5G816130346112018040301A007A 003370003370                                    
HR5G816130346112018040301G840A 000450000450                                    
HR4G804100532010155390000320633                   ON4909676365  RGHCP    0078  
HR5G804100532012018040301A007A 003370003370                                    
HR5G804100532012018040301G840A 000450000450                                    
HR5G804100532012018040301G841A 000450000450                                    
HR4G804100532110155390000320634                   ON8435488757  KXHCP    0078  
HR5G804100532112018040301A007A 003370003370                                    
HR4G804100532210155390000320635                   ON7046006032  PHHCP    0078  
HR5G804100532212018040301A007A 003370003370                                    
HR4G804100532310155390000320636                   ON6337560392  FLHCP    0078  
HR5G804100532312018040301A007A 003370003370                                    
HR4G804100532410155390000320637                   ON6350955487  PYHCP    0078  
HR5G804100532412018040301A001A 002170002170                                    
HR4G804100532510155390000320638                   ON5502876856  PHHCP    0078  
HR5G804100532512018040301A007A 003370003370                                    
HR4G804100532610155390000320639                   ON5779064202  MNHCP    0078  
HR5G804100532612018040301A007A 003370003370                                    
HR4G804100532710155390000320640                   ON3878739279  YKHCP    0078  
HR5G804100532712018040301A007A 003370003370                                    
HR4G804100532810155390000320641                   ON5550980923  GVHCP    0078  
HR5G804100532812018040301A007A 003370003370                                    
HR4G804100532910155390000320642                   ON8362900758  BHHCP    0078  
HR5G804100532912018040301A007A 003370003370                                    
HR4G804100533010155390000320643                   ON2874467638  XLHCP    0078  
HR5G804100533012018040301A007A 003370003370                                    
HR4G804100533110155390000320644                   ON9943136342  JVHCP    0078  
HR5G804100533112018040301K005A 006275006275                                    
HR4G804100533210155390000320645                   ON9724804209  RXHCP    0078  
HR5G804100533212018040301A007A 003370003370                                    
HR4G804100533310155390000320646                   ON8550916814  VXHCP    0078  
HR5G804100533312018040301A007A 003370003370                                    
HR4G804100533410155390000320647                   ON8857117645  RHHCP    0078  
HR5G804100533412018040301A007A 003370003370                                    
HR4G804100533510155390000320648                   ON9496071573  RCHCP    0078  
HR5G804100533512018040301A007A 003370003370                                    
HR4G804100533610155390000320649                   ON3463426266  TRHCP    0078  
HR5G804100533612018040301A007A 003370003370                                    
HR4G804100533710155390000320650                   ON4632037257  EBHCP    0078  
HR5G804100533712018040301A007A 003370003370                                    
HR5G804100533712018040301G848A 000450000450                                    
HR4G804100533810155390000320651                   ON7464171961  WCHCP    0078  
HR5G804100533812018040301A007A 003370003370                                    
HR4G804100533910155390000320652                   ON7728675518  XCHCP    0078  
HR5G804100533912018040301A001A 002170002170                                    
HR5G804100533912018040301G372A 000389000389                                    
HR4G804100534010155390000320653                   ON5843534081  JMHCP    0078  
HR5G804100534012018040301A007A 003370003370                                    
HR4G804100534110155390000320654                   ON7619432235  XRHCP    0078  
HR5G804100534112018040301A007A 003370003370                                    
HR4G804100534210155390000320655                   ON4526880176  GEHCP    0078  
HR5G804100534212018040301A001A 002170002170                                    
HR5G804100534212018040301G372A 000389000389                                    
HR4G804100534310155390000320656                   ON8906752954  TLHCP    0078  
HR5G804100534312018040301A007A 003370003370                                    
HR4G804100534410155390000320657                   ON5499401817  ERHCP    0078  
HR5G804100534412018040301A007A 003370003370                                    
HR4G804100534510155390000320658                   ON1641355449  NXHCP    0078  
HR5G804100534512018040301A007A 003370003370                                    
HR4G804100534610155390000320659                   ON3705594988  PTHCP    0078  
HR5G804100534612018040301A007A 003370003370                                    
HR4G804100534710155390000320660                   ON4496794647  MNHCP    0078  
HR5G804100534712018040301A007A 003370003370                                    
HR4G804100534810155390000320661                   ON8588022312  HNHCP    0078  
HR5G804100534812018040301A007A 003370003370                                    
HR4G804100534910155390000320662                   ON7026017272  CYHCP    0078  
HR5G804100534912018040301A007A 003370003370                                    
HR4G804100535010155390000320663                   ON6716081630  HKHCP    0078  
HR5G804100535012018040301A007A 003370003370                                    
HR4G804100535110155390000320664                   ON6778255387  BKHCP    0078  
HR5G804100535112018040301A007A 003370003370                                    
HR4G804100535210155390000320665                   ON6903753900  KCHCP    0078  
HR5G804100535212018040301A007A 003370003370                                    
HR4G804100535310155390000320666                   ON7657248691  DBHCP    0078  
HR5G804100535312018040301A007A 003370003370                                    
HR4G804100535410155390000320667                   ON7783732931  MJHCP    0078  
HR5G804100535412018040301A007A 003370003370                                    
HR4G804100526010155390000320763                   ON8743751318  CVHCP    0078  
HR5G804100526012018040501A007A 003370003370                                    
HR5G804100526012018040501K054A 002500002500                                    
HR4G804100526110155390000320764                   ON9415988238  APHCP    0078  
HR5G804100526112018040501A001A 002170002170                                    
HR5G804100526112018040501G372A 000389000389                                    
HR4G804100526210155390000320765                   ON3816873057  LPHCP    0078  
HR5G804100526212018040501A007A 003370003370                                    
HR4G816103071310155390000320767                   ON5911038874  KLHCP    0078  
HR5G816103071312018040501A007A 003370003370                                    
HR4G816103071410155390000320768                   ON2319342529  TFHCP    0078  
HR5G816103071412018040501A007A 003370003370                                    
HR4G816103071510155390000320769                   ON8907041118  CKHCP    0078  
HR5G816103071512018040501A007A 003370003370                                    
HR4G816103071610155390000320770                   ON2724478306  MWHCP    0078  
HR5G816103071612018040501A007A 003370003370                                    
HR4G816130346210155390000320787                   ON9724373221  DHHCP    0078  
HR5G816130346212018040501A007A 003370003370                                    
HR4G816103071710155390000320855                   ON8335344811  PKHCP    0078  
HR5G816103071712018040601A001A 002170002170                                    
HR5G816103071712018040601G372A 000389000389                                    
HR4G816104926110155390000320857                   ON4808553491  PAHCP    0078  
HR5G816104926112018040201A007A 003370003370                                    
HR4G816104926210155390000320859                   ON2099862613  JHHCP    0078  
HR5G816104926212018040601A007A 003370003370                                    
HR4G816104926310155390000320860                   ON9730321701  XBHCP    0078  
HR5G816104926312018040601A007A 003370003370                                    
HR4G816104926410155390000320861                   ON7286231266  PFHCP    0078  
HR5G816104926412018040601A007A 003370003370                                    
HR4G816104926510155390000320862                   ON6034015229  CYHCP    0078  
HR5G816104926512018040601A007A 003370003370                                    
HR4G816104926610155390000320863                   ON3037566530  WMHCP    0078  
HR5G816104926612018040601A007A 003370003370                                    
HR5G816104926612018040601G010A 000207000207                                    
HR4G816104926710155390000320864                   ON9897216470  TDHCP    0078  
HR5G816104926712018040601A001A 002170002170                                    
HR5G816104926712018040601G202A 000445000445                                    
HR4G816104926810155390000320865                   ON1821956735  CVHCP    0078  
HR5G816104926812018040601A007A 003370003370                                    
HR5G816104926812018040602G202A 000890000890                                    
HR4G816104926910155390000320866                   ON1790838559  DWHCP    0078  
HR5G816104926912018040601A001A 002170002170                                    
HR5G816104926912018040601G372A 000389000389                                    
HR4G816104927010155390000320867                   ON7178679259  BCHCP    0078  
HR5G816104927012018040601A007A 003370003370                                    
HR4G816104927110155390000320868                   ON9437519813  RFHCP    0078  
HR5G816104927112018040601A007A 003370003370                                    
HR4G816104927210155390000320869                   ON1976372159  MLHCP    0078  
HR5G816104927212018040601A007A 003370003370                                    
HR4G816104927310155390000320870                   ON7569549970  NLHCP    0078  
HR5G816104927312018040601A007A 003370003370                                    
HR4G816104927410155390000320871                   ON8729985930  DJHCP    0078  
HR5G816104927412018040601A007A 003370003370                                    
HR4G816104927510155390000320872                   ON7036872732  JJHCP    0078  
HR5G816104927512018040601A007A 003370003370                                    
HR4G816104927610155390000320873                   ON8000128382  DBHCP    0078  
HR5G816104927612018040601A007A 003370003370                                    
HR4G816104927710155390000320874                   ON9760453523  KNHCP    0078  
HR5G816104927712018040601A007A 003370003370                                    
HR4G816104927810155390000320875                   ON7162445949  GMHCP    0078  
HR5G816104927812018040601A007A 003370003370                                    
HR5G816104927812018040601K053A 001500001500                                    
HR4G816104927910155390000320876                   ON4672039494  EBHCP    0078  
HR5G816104927912018040601A007A 003370003370                                    
HR4G816104928010155390000320877                   ON1839849997  FEHCP    0078  
HR5G816104928012018040601A007A 003370003370                                    
HR4G816104928110155390000320878                   ON4316569476  MFHCP    0078  
HR5G816104928112018040601A007A 003370003370                                    
HR4G816104928210155390000320879                   ON9156129836  YAHCP    0078  
HR5G816104928212018040601A007A 003370003370                                    
HR4G816104928310155390000320880                   ON9133675653  FKHCP    0078  
HR5G816104928312018040601A007A 003370003370                                    
HR4G816104928410155390000320881                   ON3248743019  BVHCP    0078  
HR5G816104928412018040601A007A 003370003370                                    
HR4G816104928510155390000320882                   ON5310948061  CXHCP    0078  
HR5G816104928512018040601A007A 003370003370                                    
HR4G816104928610155390000320883                   ON1979617261  EXHCP    0078  
HR5G816104928612018040601A007A 003370003370                                    
HR5G816104928612018040601G372A 000389000389                                    
HR4G816104928710155390000320886                   ON8978420118  VWHCP    0078  
HR5G816104928712018040601A007A 003370003370                                    
HR4G816104928810155390000320887                   ON6074864148  EEHCP    0078  
HR5G816104928812018040601A007A 003370003370                                    
HR4G816104928910155390000320888                   ON7414573563  WKHCP    0078  
HR5G816104928912018040601A007A 003370003370                                    
HR4G816104929010155390000320889                   ON2174013314  RFHCP    0078  
HR5G816104929012018040601A007A 003370003370                                    
HR4G816104929110155390000320890                   ON5664003828  KMHCP    0078  
HR5G816104929112018040601A007A 003370003370                                    
HR4G816104929210155390000320891                   ON9573667038  FTHCP    0078  
HR5G816104929212018040601A007A 003370003370                                    
HR4G816104929310155390000320892                   ON1199914514  HTHCP    0078  
HR5G816104929312018040601A007A 003370003370                                    
HR4G816104929410155390000320893                   ON1745169118  KWHCP    0078  
HR5G816104929412018040601A007A 003370003370                                    
HR5G816104929412018040601G010A 000207000207                                    
HR4G816104929510155390000320894                   ON4933593586  KNHCP    0078  
HR5G816104929512018040601A007A 003370003370                                    
HR4G816104929610155390000320895                   ON2786159059  HRHCP    0078  
HR5G816104929612018040601A007A 003370003370                                    
HR4G816104929710155390000320896                   ON8351903797  DYHCP    0078  
HR5G816104929712018040601A007A 003370003370                                    
HR4G816104929810155390000320897                   ON6395084608  NAHCP    0078  
HR5G816104929812018040601A007A 003370003370                                    
HR5G816104929812018040601G538A 000450000450                                    
HR4G816104929910155390000320898                   ON9347591837  YWHCP    0078  
HR5G816104929912018040601A007A 003370003370                                    
HR4G816104930010155390000320899                   ON9434608346  EVHCP    0078  
HR5G816104930012018040601A007A 003370003370                                    
HR4G816104930110155390000320900                   ON7653726468  GRHCP    0078  
HR5G816104930112018040601A007A 003370003370                                    
HR4G816104930210155390000320901                   ON4907388443  WKHCP    0078  
HR5G816104930212018040601A007A 003370003370                                    
HR4G816104930310155390000320902                   ON6845534210  PMHCP    0078  
HR5G816104930312018040601A007A 003370003370                                    
HR4G816104930410155390000320903                   ON3028169179  DLHCP    0078  
HR5G816104930412018040601A007A 003370003370                                    
HR4G816104930510155390000320904                   ON4357498668  DAHCP    0078  
HR5G816104930512018040601A007A 003370003370                                    
HR4G816104930610155390000320905                   ON3665987511  GBHCP    0078  
HR5G816104930612018040601A007A 003370003370                                    
HR5G816104930612018040601G010A 000207000207                                    
HR4G816104930710155390000320906                   ON5265039270  REHCP    0078  
HR5G816104930712018040601A007A 003370003370                                    
HR4G816104930810155390000320907                   ON7299872262  DLHCP    0078  
HR5G816104930812018040601A007A 003370003370                                    
HR5G816104930812018040601G010A 000207000207                                    
HR4G816104930910155390000320908                   ON5406772854  WVHCP    0078  
HR5G816104930912018040601A007A 003370003370                                    
HR4G816104931010155390000320909                   ON1950801033  KWHCP    0078  
HR5G816104931012018040601A007A 003370003370                                    
HR4G816104931110155390000320910                   ON8547088867  KCHCP    0078  
HR5G816104931112018040601A007A 003370003370                                    
HR4G804119294210155390000321010                   ON8933164801  GJHCP    0078  
HR5G804119294212018040901A007A 003370003370                                    
HR4G804119294310155390000321011                   ON6996242175  WDHCP    0078  
HR5G804119294312018040901A007A 003370003370                                    
HR4G804119294410155390000321012                   ON3560971271  VLHCP    0078  
HR5G804119294412018040901A007A 003370003370                                    
HR4G804119294510155390000321013                   ON6272534378  CBHCP    0078  
HR5G804119294512018040901A007A 003370003370                                    
HR5G804119294512018040901E430A 001155001155                                    
HR5G804119294512018040901G365A 000675000675                                    
HR4G804119294610155390000321014                   ON3425950346  KVHCP    0078  
HR5G804119294612018040901A007A 003370003370                                    
HR4G804119294710155390000321015                   ON1943614410  TGHCP    0078  
HR5G804119294712018040901A007A 003370003370                                    
HR4G804119294810155390000321016                   ON1406198091  WNHCP    0078  
HR5G804119294812018040901A001A 002170002170                                    
HR4G804119294910155390000321017                   ON9188443619  BLHCP    0078  
HR5G804119294912018040901A007A 003370003370                                    
HR4G804119295010155390000321018                   ON9420760432  AFHCP    0078  
HR5G804119295012018040901A007A 003370003370                                    
HR4G804119295110155390000321019                   ON4768253306  WVHCP    0078  
HR5G804119295112018040901A001A 002170002170                                    
HR5G804119295112018040901G372A 000389000389                                    
HR4G804119295210155390000321020                   ON6304539585  XCHCP    0078  
HR5G804119295212018040901A007A 003370003370                                    
HR5G804119295212018040901G372A 000389000389                                    
HR4G804119295310155390000321021                   ON7919534748  FYHCP    0078  
HR5G804119295312018040901A007A 003370003370                                    
HR4G804119295410155390000321022                   ON4094978881  DGHCP    0078  
HR5G804119295412018040901A007A 003370003370                                    
HR4G804119295510155390000321023                   ON8753466070  ENHCP    0078  
HR5G804119295512018040901A001A 002170002170                                    
HR4G804119295610155390000321024                   ON1299390862  YVHCP    0078  
HR5G804119295612018040901A007A 003370003370                                    
HR4G804119295710155390000321025                   ON4906598810  KPHCP    0078  
HR5G804119295712018040901A007A 003370003370                                    
HR5G804119295712018040901G010A 000207000207                                    
HR4G804119295810155390000321026                   ON1976989259  PRHCP    0078  
HR5G804119295812018040901A007A 003370003370                                    
HR4G804119295910155390000321027                   ON6167985495  TDHCP    0078  
HR5G804119295912018040901A007A 003370003370                                    
HR4G804119296010155390000321028                   ON7966139078  MWHCP    0078  
HR5G804119296012018040901A007A 003370003370                                    
HR4G804119296110155390000321029                   ON5973195570  XRHCP    0078  
HR5G804119296112018040901A007A 003370003370                                    
HR5G804119296112018040901G010A 000207000207                                    
HR4G804119296210155390000321030                   ON4484275674  NFHCP    0078  
HR5G804119296212018040901A007A 003370003370                                    
HR4G804119296310155390000321031                   ON2874467638  XLHCP    0078  
HR5G804119296312018040901A007A 003370003370                                    
HR4G804119296410155390000321032                   ON7717555242  EEHCP    0078  
HR5G804119296412018040901A007A 003370003370                                    
HR4G804119296510155390000321033                   ON6121071788  DWHCP    0078  
HR5G804119296512018040901A007A 003370003370                                    
HR4G804119296610155390000321034                   ON5891244534  CHHCP    0078  
HR5G804119296612018040901A007A 003370003370                                    
HR4G804119296710155390000321035                   ON6006051681  EYHCP    0078  
HR5G804119296712018040901A007A 003370003370                                    
HR4G804119296810155390000321036                   ON3028169179  DLHCP    0078  
HR5G804119296812018040901A007A 003370003370                                    
HR4G804119296910155390000321037                   ON6845534210  PMHCP    0078  
HR5G804119296912018040901A007A 003370003370                                    
HR4G804119297010155390000321038                   ON4544232699    HCP    0078  
HR5G804119297012018040901A007A 003370003370                                    
HR4G804119297110155390000321039                   ON4907388443  WKHCP    0078  
HR5G804119297112018040901A007A 003370003370                                    
HR4G804119297210155390000321040                   ON4698143189  HGHCP    0078  
HR5G804119297212018040901A001A 002170002170                                    
HR4G804119297310155390000321041                   ON4947266799  RTHCP    0078  
HR5G804119297312018040901A001A 002170002170                                    
HR4G804119297410155390000321042                   ON7855228214  MKHCP    0078  
HR5G804119297412018040901A007A 003370003370                                    
HR4G804119297510155390000321043                   ON8265992613  KXHCP    0078  
HR5G804119297512018040901A007A 003370003370                                    
HR4G804119297610155390000321044                   ON2473425862  XCHCP    0078  
HR5G804119297612018040901A007A 003370003370                                    
HR4G804119297710155390000321045                   ON6853069588  RHHCP    0078  
HR5G804119297712018040901A007A 003370003370                                    
HR4G804119297810155390000321046                   ON5324937613  APHCP    0078  
HR5G804119297812018040901A007A 003370003370                                    
HR5G804119297812018040901G010A 000207000207                                    
HR4G804119297910155390000321047                   ON2354372340  TJHCP    0078  
HR5G804119297912018040901A007A 003370003370                                    
HR4G804119298010155390000321048                   ON9125156530  YEHCP    0078  
HR5G804119298012018040901A007A 003370003370                                    
HR4G804119298110155390000321049                   ON8110378588  FLHCP    0078  
HR5G804119298112018040901A003A 007720007720                                    
HR4G804119298210155390000321050                   ON3658840842  CFHCP    0078  
HR5G804119298212018040901A007A 003370003370                                    
HR4G804119298310155390000321051                   ON6094691067  LVHCP    0078  
HR5G804119298312018040901A007A 003370003370                                    
HR4G804119298410155390000321052                   ON4836930166  FBHCP    0078  
HR5G804119298412018040901A007A 003370003370                                    
HR5G804119298412018040901G010A 000207000207                                    
HR4G804119298510155390000321053                   ON1987946371  YFHCP    0078  
HR5G804119298512018040901A007A 003370003370                                    
HR4G804119298610155390000321054                   ON5689295698  YXHCP    0078  
HR5G804119298612018040901A007A 003370003370                                    
HR4G804119298710155390000321055                   ON1048085227  AGHCP    0078  
HR5G804119298712018040901A007A 003370003370                                    
HR4G804119298810155390000321056                   ON7694034237  PRHCP    0078  
HR5G804119298812018040901A007A 003370003370                                    
HR4G804119298910155390000321057                   ON5116575894  CKHCP    0078  
HR5G804119298912018040901A007A 003370003370                                    
HR4G804119299010155390000321058                   ON2750742278  AMHCP    0078  
HR5G804119299012018040901A007A 003370003370                                    
HR5G804119299012018040901G010A 000207000207                                    
HR4G804119299110155390000321059                   ON2375915598  TTHCP    0078  
HR5G804119299112018040901K028A 006275006275                                    
HR4G804126830510155390000321091                   ON7428918127  LRHCP    0078  
HR5G804126830512018041001A007A 003370003370                                    
HR4G804126830610155390000321092                   ON3525980862  AYHCP    0078  
HR5G804126830612018041001A001A 002170002170                                    
HR5G804126830612018041001G202A 000445000445                                    
HR4G804126830710155390000321093                   ON3303851947  JXHCP    0078  
HR5G804126830712018041001A007A 003370003370                                    
HR4G804126830810155390000321094                   ON6009299568  YEHCP    0078  
HR5G804126830812018041001A007A 003370003370                                    
HR4G804126830910155390000321095                   ON6696372900  YHHCP    0078  
HR5G804126830912018041001A007A 003370003370                                    
HR4G804126831010155390000321096                   ON2125025607  WAHCP    0078  
HR5G804126831012018041001A001A 002170002170                                    
HR5G804126831012018041001G372A 000389000389                                    
HR4G804126831110155390000321097                   ON3916984234  VBHCP    0078  
HR5G804126831112018041001A007A 003370003370                                    
HR4G804126831210155390000321098                   ON6852145694  WTHCP    0078  
HR5G804126831212018041001A007A 003370003370                                    
HR5G804126831212018041001G010A 000207000207                                    
HR4G804126831310155390000321100                   ON6144157838    HCP    0078  
HR5G804126831312018041001A007A 003370003370 EV                                 
HR4G804126831410155390000321101                   ON7628182284  RHHCP    0078  
HR5G804126831412018041001A007A 003370003370                                    
HR4G804126831510155390000321102                   ON6111746142  EEHCP    0078  
HR5G804126831512018041001A007A 003370003370                                    
HR4G804126831610155390000321103                   ON9015959704  FBHCP    0078  
HR5G804126831612018041001A007A 003370003370                                    
HR4G804126831710155390000321104                   ON6654197067  LGHCP    0078  
HR5G804126831712018041001A007A 003370003370                                    
HR4G804126831810155390000321105                   ON7725071844  FNHCP    0078  
HR5G804126831812018041001A007A 003370003370                                    
HR5G804126831812018041001D001A 005750005750                                    
HR4G804126831910155390000321106                   ON9913105616  WBHCP    0078  
HR5G804126831912018041001A001A 002170002170                                    
HR4G804126832010155390000321107                   ON1978125597  HGHCP    0078  
HR5G804126832012018041001A007A 003370003370                                    
HR4G804126832110155390000321108                   ON8722117127  CBHCP    0078  
HR5G804126832112018041001A007A 003370003370                                    
HR4G804126832210155390000321109                   ON4256687387  BXHCP    0078  
HR5G804126832212018041001A007A 003370003370                                    
HR4G804126832310155390000321110                   ON6916638312  PJHCP    0078  
HR5G804126832312018041001A007A 003370003370                                    
HR4G804126832410155390000321111                   ON2272342813  DYHCP    0078  
HR5G804126832412018041001A007A 003370003370                                    
HR4G804126832510155390000321112                   ON3223952098  TGHCP    0078  
HR5G804126832512018041001A007A 003370003370                                    
HR4G804126832610155390000321113                   ON7431147169  KHHCP    0078  
HR5G804126832612018041001A007A 003370003370                                    
HR5G804126832612018041001G002A 000218000218                                    
HR5G804126832612018041001G010A 000207000207                                    
HR4G804126832710155390000321114                   ON7980647304  HAHCP    0078  
HR5G804126832712018041001A007A 003370003370                                    
HR4G804126832810155390000321115                   ON5550980923  GVHCP    0078  
HR5G804126832812018041001A007A 003370003370                                    
HR4G804126832910155390000321116                   ON5793439992  NAHCP    0078  
HR5G804126832912018041001A007A 003370003370                                    
HR4G804126833010155390000321117                   ON1721709176  VJHCP    0078  
HR5G804126833012018041001A007A 003370003370                                    
HR4G804126833110155390000321118                   ON7649253650  VJHCP    0078  
HR5G804126833112018041001A007A 003370003370                                    
HR4G804126833210155390000321119                   ON1566409403  DWHCP    0078  
HR5G804126833212018041001A007A 003370003370                                    
HR5G804126833212018041001G372A 000389000389                                    
HR4G804126833310155390000321120                   ON8907041118  CKHCP    0078  
HR5G804126833312018041001A007A 003370003370                                    
HR4G804126833410155390000321121                   ON7332475875  PJHCP    0078  
HR5G804126833412018041001A007A 003370003370                                    
HR4G804126833510155390000321122                   ON1872796915  EJHCP    0078  
HR5G804126833512018041001A007A 003370003370                                    
HR4G804126833610155390000321123                   ON5464138477  JFHCP    0078  
HR5G804126833612018041001A007A 003370003370                                    
HR4G804126833710155390000321124                   ON2380152054  YXHCP    0078  
HR5G804126833712018041001A001A 002170002170                                    
HR4G804126833810155390000321125                   ON3983425244    HCP    0078  
HR5G804126833812018041001A007A 003370003370                                    
HR5G804126833812018041001G847A 000450000450                                    
HR4G804126833910155390000321126                   ON7586331972  YBHCP    0078  
HR5G804126833912018041001A007A 003370003370                                    
HR4G804126834010155390000321127                   ON5655956679  ARHCP    0078  
HR5G804126834012018041001A007A 003370003370                                    
HR4G804126834110155390000321128                   ON4680176759  BTHCP    0078  
HR5G804126834112018041001A007A 003370003370                                    
HR4G804126834210155390000321129                   ON1976989259  PRHCP    0078  
HR5G804126834212018041001K005A 006275006275                                    
HR4G804126834310155390000321130                   ON4659397006  YYHCP    0078  
HR5G804126834312018041001A007A 003370003370                                    
HR5G804126834312018041001G010A 000207000207                                    
HR4G804126834410155390000321131                   ON9880410775  BWHCP    0078  
HR5G804126834412018041001A007A 003370003370                                    
HR4G804126834510155390000321132                   ON4582619930  TJHCP    0078  
HR5G804126834512018041001A007A 003370003370                                    
HR4G804126834610155390000321133                   ON2683099929  TAHCP    0078  
HR5G804126834612018041001A007A 003370003370                                    
HR5G804126834612018041001G010A 000207000207                                    
HR4G804126834710155390000321134                   ON7963917237  FDHCP    0078  
HR5G804126834712018041001A007A 003370003370                                    
HR4G804126834810155390000321135                   ON3702867718  CJHCP    0078  
HR5G804126834812018041001A007A 003370003370                                    
HR4G804126834910155390000321136                   ON6159036786  FAHCP    0078  
HR5G804126834912018041001A007A 003370003370                                    
HR4G804126835010155390000321137                   ON6829991345  NDHCP    0078  
HR5G804126835012018041001A007A 003370003370                                    
HR4G804126835110155390000321138                   ON1611631506  VCHCP    0078  
HR5G804126835112018041001A007A 003370003370                                    
HR4G804126835210155390000321139                   ON4180828198  VMHCP    0078  
HR5G804126835212018041001A007A 003370003370                                    
HR4G804126835310155390000321140                   ON3717397727  TRHCP    0078  
HR5G804126835312018041001A007A 003370003370                                    
HR4G804126835410155390000321141                   ON2523165435  ARHCP    0078  
HR5G804126835412018041001A007A 003370003370                                    
HR4G816122837510155390000321197                   ON9573362820  TRHCP    0078  
HR5G816122837512018041101A007A 003370003370                                    
HR4G816122837610155390000321198                   ON4979171974  CGHCP    0078  
HR5G816122837612018041101A007A 003370003370                                    
HR4G816122837710155390000321199                   ON3095962480  LDHCP    0078  
HR5G816122837712018041101A007A 003370003370                                    
HR5G816122837712018041101G010A 000207000207                                    
HR4G816122837810155390000321200                   ON1793083815  MKHCP    0078  
HR5G816122837812018041101A007A 003370003370                                    
HR4G816122837910155390000321201                   ON1888690771  TNHCP    0078  
HR5G816122837912018041101A007A 003370003370                                    
HR4G804204095910155390000321202                   ON7642643865  VBHCP    0078  
HR5G804204095912018041101A007A 003370003370                                    
HR5G804204095912018041101G010A 000207000207                                    
HR4G816122838110155390000321203                   ON7857744333  FDHCP    0078  
HR5G816122838112018041101A007A 003370003370                                    
HR4G816122838210155390000321204                   ON5655711843  MXHCP    0078  
HR5G816122838212018041101A007A 003370003370                                    
HR4G816122838310155390000321205                   ON8961206508  CHHCP    0078  
HR5G816122838312018041101A007A 003370003370                                    
HR4G816122838410155390000321206                   ON9320758718  FBHCP    0078  
HR5G816122838412018041101A007A 003370003370                                    
HR4G816122838510155390000321207                   ON4589221557  FKHCP    0078  
HR5G816122838512018041101A007A 003370003370                                    
HR4G816122838610155390000321208                   ON7188595537  AJHCP    0078  
HR5G816122838612018041101A007A 003370003370                                    
HR4G816122838710155390000321209                   ON6422457462  WBHCP    0078  
HR5G816122838712018041101A007A 003370003370                                    
HR4G816122838810155390000321210                   ON6039134397  RXHCP    0078  
HR5G816122838812018041101A007A 003370003370                                    
HR4G816122838910155390000321211                   ON6589016937  ELHCP    0078  
HR5G816122838912018041101A007A 003370003370                                    
HR5G816122838912018041101G372A 000389000389                                    
HR4G816122839010155390000321212                   ON6072395392  KYHCP    0078  
HR5G816122839012018041101A007A 003370003370                                    
HR5G816122839012018041101G372A 000389000389                                    
HR4G816122839110155390000321213                   ON9446740699  LNHCP    0078  
HR5G816122839112018041101A007A 003370003370                                    
HR4G816122839210155390000321214                   ON9677972110  XTHCP    0078  
HR5G816122839212018041101A007A 003370003370                                    
HR5G816122839212018041101G840A 000450000450                                    
HR4G816122839310155390000321215                   ON9178870672  BTHCP    0078  
HR5G816122839312018041101A001A 002170002170                                    
HR4G816122839410155390000321216                   ON8930534808  WTHCP    0078  
HR5G816122839412018041101A007A 003370003370                                    
HR4G816122839510155390000321217                   ON5208520774    HCP    0078  
HR5G816122839512018041101A007A 003370003370                                    
HR4G816122839610155390000321218                   ON3902348923  RXHCP    0078  
HR5G816122839612018041101A007A 003370003370                                    
HR4G816122839710155390000321219                   ON6096843112  NGHCP    0078  
HR5G816122839712018041101A007A 003370003370                                    
HR4G816122839810155390000321220                   ON9650706410  NPHCP    0078  
HR5G816122839812018041101A007A 003370003370                                    
HR4G816122839910155390000321222                   ON3156645586  GKHCP    0078  
HR5G816122839912018041101A001A 002170002170                                    
HR5G816122839912018041101G372A 000389000389                                    
HR4G816122840010155390000321224                   ON4659561577  ANHCP    0078  
HR5G816122840012018041101A007A 003370003370                                    
HR4G816122840110155390000321225                   ON4988634384  KPHCP    0078  
HR5G816122840112018041101A007A 003370003370                                    
HR4G816122840210155390000321226                   ON5779064202  MNHCP    0078  
HR5G816122840212018041101A007A 003370003370                                    
HR4G816122840310155390000321227                   ON8839357046  HEHCP    0078  
HR5G816122840312018041101A003A 007720007720                                    
HR4G816122840410155390000321228                   ON2479036283  EWHCP    0078  
HR5G816122840412018041101A007A 003370003370                                    
HR4G816122840510155390000321229                   ON2468956681  HGHCP    0078  
HR5G816122840512018041101A007A 003370003370                                    
HR4G816122840610155390000321230                   ON9529752579  JWHCP    0078  
HR5G816122840612018041101A007A 003370003370                                    
HR4G816122840710155390000321231                   ON9696564872  RMHCP    0078  
HR5G816122840712018041101A007A 003370003370                                    
HR5G816122840712018041101G010A 000207000207                                    
HR4G816122840810155390000321232                   ON2932537877  JPHCP    0078  
HR5G816122840812018041101A007A 003370003370                                    
HR4G816122840910155390000321233                   ON5930125744  CRHCP    0078  
HR5G816122840912018041101A007A 003370003370                                    
HR4G816122841010155390000321234                   ON3777993530  KLHCP    0078  
HR5G816122841012018041101A007A 003370003370                                    
HR4G816130346310155390000321270                   ON9415988238  APHCP    0078  
HR5G816130346312018041201A001A 002170002170                                    
HR5G816130346312018041201G372A 000389000389                                    
HR4G816130346410155390000321274                   ON2162934372  YHHCP    0078  
HR5G816130346412018041201A007A 003370003370                                    
HR4G816130346510155390000321275                   ON9586965007  JDHCP    0078  
HR5G816130346512018041201A007A 003370003370                                    
HR4G816130346610155390000321276                   ON9008046790  CCHCP    0078  
HR5G816130346612018041201A007A 003370003370                                    
HR5G816130346612018041201G841A 000450000450                                    
HR4G816130346710155390000321277                   ON7431147169  KHHCP    0078  
HR5G816130346712018041201A007A 003370003370                                    
HR4G816130346810155390000321278                   ON6269083868  NDHCP    0078  
HR5G816130346812018041201A007A 003370003370                                    
HR4G816130346910155390000321279                   ON6339515931  GKHCP    0078  
HR5G816130346912018041201A007A 003370003370                                    
HR4G816130347010155390000321280                   ON9789825065  LCHCP    0078  
HR5G816130347012018041201A007A 003370003370                                    
HR5G816130347012018041201K055A 002000002000                                    
HR4G816130347110155390000321281                   ON9094236768  NEHCP    0078  
HR5G816130347112018041201A007A 003370003370                                    
HR4G816130347210155390000321282                   ON1199914514  HTHCP    0078  
HR5G816130347212018041201A007A 003370003370                                    
HR4G816130347310155390000321283                   ON5783702359  WVHCP    0078  
HR5G816130347312018041201A007A 003370003370                                    
HR5G816130347312018041201G010A 000207000207                                    
HR4G816130347410155390000321284                   ON2462218781  KLHCP    0078  
HR5G816130347412018041201A007A 003370003370                                    
HR4G816130347510155390000321285                   ON6858064733  WTHCP    0078  
HR5G816130347512018041201A007A 003370003370                                    
HR4G816130347610155390000321286                   ON3627443942  YYHCP    0078  
HR5G816130347612018041201A007A 003370003370                                    
HR5G816130347612018041201G202A 000445000445                                    
HR4G816130347710155390000321287                   ON5118176634  TWHCP    0078  
HR5G816130347712018041201A007A 003370003370                                    
HR4G816130347810155390000321288                   ON4108301351  BHHCP    0078  
HR5G816130347812018041201A007A 003370003370                                    
HR4G816130347910155390000321289                   ON3792367835  PFHCP    0078  
HR5G816130347912018041201A007A 003370003370                                    
HR4G816130348010155390000321290                   ON4621722034  ACHCP    0078  
HR5G816130348012018041201A007A 003370003370                                    
HR4G816130348110155390000321291                   ON6796819198  LHHCP    0078  
HR5G816130348112018041201A007A 003370003370                                    
HR4G816130348210155390000321292                   ON8491221878  RXHCP    0078  
HR5G816130348212018041201A007A 003370003370                                    
HR4G816130348310155390000321293                   ON9724373221  DHHCP    0078  
HR5G816130348312018041201A007A 003370003370                                    
HR4G816130346010155390000321294                   ON9724373221  DHHCP    0078  
HR5G816130346012018032901A007A 003370003370                                    
HR4G816130348410155390000321295                   ON4829534165  XEHCP    0078  
HR5G816130348412018041201A007A 003370003370                                    
HR4G816130348510155390000321296                   ON6479297969  RBHCP    0078  
HR5G816130348512018041201A007A 003370003370                                    
HR4G816130348610155390000321297                   ON2903840714  NAHCP    0078  
HR5G816130348612018041201A001A 002170002170                                    
HR5G816130348612018041201G372A 000389000389                                    
HR4G816130348710155390000321298                   ON7628755865  VBHCP    0078  
HR5G816130348712018041201A007A 003370003370                                    
HR4G816130348810155390000321299                   ON2094340847  YEHCP    0078  
HR5G816130348812018041201A007A 003370003370                                    
HR4G816130348910155390000321300                   ON7396503893  EWHCP    0078  
HR5G816130348912018041201A007A 003370003370                                    
HR4G816130349010155390000321301                   ON6423520870  CHHCP    0078  
HR5G816130349012018041201A007A 003370003370                                    
HR4G816130349110155390000321302                   ON2494929769  JFHCP    0078  
HR5G816130349112018041201A007A 003370003370                                    
HR5G816130349112018041201G010A 000207000207                                    
HR4G816130349210155390000321303                   ON7483156365  JYHCP    0078  
HR5G816130349212018041201A007A 003370003370                                    
HR4G816130349310155390000321304                   ON1224689644  YPHCP    0078  
HR5G816130349312018041201A007A 003370003370                                    
HR4G816130349410155390000321305                   ON1665723308  PLHCP    0078  
HR5G816130349412018041201A007A 003370003370                                    
HR4G816130349510155390000321306                   ON2097665265  FYHCP    0078  
HR5G816130349512018041201A007A 003370003370                                    
HR4G816130349610155390000321307                   ON9187956090  HKHCP    0078  
HR5G816130349612018041201A007A 003370003370                                    
HR4G816130349710155390000321308                   ON7606377336  TAHCP    0078  
HR5G816130349712018041201A003A 007720007720                                    
HR4G816130349810155390000321309                   ON2107988038  FAHCP    0078  
HR5G816130349812018041201A007A 003370003370                                    
HR4G816130349910155390000321310                   ON3921219162  FVHCP    0078  
HR5G816130349912018041201A001A 002170002170                                    
HR4G816130350010155390000321311                   ON9793143885  YFHCP    0078  
HR5G816130350012018041201A007A 003370003370                                    
HR4G816130350110155390000321312                   ON3412727939  TGHCP    0078  
HR5G816130350112018041201A007A 003370003370                                    
HR4G816130350210155390000321313                   ON1575523517  LBHCP    0078  
HR5G816130350212018041201A007A 003370003370                                    
HR4G816130350310155390000321314                   ON7037511545  NEHCP    0078  
HR5G816130350312018041201A007A 003370003370                                    
HR4G816130350410155390000321315                   ON1094017306  REHCP    0078  
HR5G816130350412018041201A007A 003370003370                                    
HR4G816130350510155390000321316                   ON7382095722  EJHCP    0078  
HR5G816130350512018041201A007A 003370003370                                    
HR4G816130350610155390000321317                   ON5404280348  WLHCP    0078  
HR5G816130350612018041201A007A 003370003370                                    
HR4G816130350710155390000321318                   ON4986012542  EVHCP    0078  
HR5G816130350712018041201A007A 003370003370                                    
HR4G816130350810155390000321319                   ON9296259733  HJHCP    0078  
HR5G816130350812018041201A007A 003370003370                                    
HR5G816130350812018041201G010A 000207000207                                    
HR5G816130350812018041201G840A 000450000450                                    
HR4G816130350910155390000321320                   ON5622847308  LCHCP    0078  
HR5G816130350912018041201A003A 007720007720                                    
HR4G816130351010155390000321321                   ON9744581720  EKHCP    0078  
HR5G816130351012018041201A007A 003370003370                                    
HR4G816130351110155390000321322                   ON2683099929  TAHCP    0078  
HR5G816130351112018041201A007A 003370003370                                    
HR5G816130351112018041201G010A 000207000207                                    
HR4G816130351210155390000321323                   ON5011326534  XRHCP    0078  
HR5G816130351212018041201A007A 003370003370                                    
HR4G816130351310155390000321324                   ON4945733386  WHHCP    0078  
HR5G816130351312018041201A007A 003370003370                                    
HR4G816130351410155390000321325                   ON8416987108  PJHCP    0078  
HR5G816130351412018041201A007A 003370003370                                    
HR4G816130351510155390000321326                   ON6128902753  XGHCP    0078  
HR5G816130351512018041201A007A 003370003370                                    
HR4G804165699610155390000321399                   ON2070269770  TLHCP    0078  
HR5G804165699612018040601A007A 003370003370                                    
HR4G804175864010155390000321458                   ON1914921067  JWHCP    0078  
HR5G804175864012018041601A007A 003370003370                                    
HR4G804175864110155390000321461                   ON5915862238  FGHCP    0078  
HR5G804175864112018041601A007A 003370003370                                    
HR4G804175864210155390000321462                   ON6517113178  YPHCP    0078  
HR5G804175864212018041601A007A 003370003370                                    
HR5G804175864212018041601G010A 000207000207                                    
HR4G804175864310155390000321466                   ON2642066183  XFHCP    0078  
HR5G804175864312018041601A007A 003370003370                                    
HR4G804175864410155390000321467                   ON3145071787  LNHCP    0078  
HR5G804175864412018041601A007A 003370003370                                    
HR5G804175864412018041601G010A 000207000207                                    
HR4G804175864510155390000321468                   ON3378345080  LPHCP    0078  
HR5G804175864512018041601A007A 003370003370                                    
HR4G804175864610155390000321469                   ON4906598810  KPHCP    0078  
HR5G804175864612018041601A007A 003370003370                                    
HR4G804175864710155390000321470                   ON8575891448  CHHCP    0078  
HR5G804175864712018041601A003A 007720007720                                    
HR4G804175864810155390000321471                   ON6361781971  DFHCP    0078  
HR5G804175864812018041601A003A 007720007720                                    
HR4G804175864910155390000321472                   ON9035660225  DEHCP    0078  
HR5G804175864912018041601A007A 003370003370                                    
HR4G804175865010155390000321473                   ON7188595537  AJHCP    0078  
HR5G804175865012018041601A007A 003370003370                                    
HR4G804175865110155390000321474                   ON6173871481  WFHCP    0078  
HR5G804175865112018041601A007A 003370003370                                    
HR4G804175865210155390000321475                   ON5809047813  BHHCP    0078  
HR5G804175865212018041601A007A 003370003370                                    
HR4G804175865310155390000321476                   ON9894237362  BLHCP    0078  
HR5G804175865312018041601A007A 003370003370                                    
HR4G804175865410155390000321477                   ON9154367842  AVHCP    0078  
HR5G804175865412018041601A007A 003370003370                                    
HR4G804175865510155390000321478                   ON7241083307  FCHCP    0078  
HR5G804175865512018041601A007A 003370003370                                    
HR4G804175865610155390000321479                   ON3468239649  CXHCP    0078  
HR5G804175865612018041601A007A 003370003370                                    
HR4G804175865710155390000321480                   ON6805425334  TAHCP    0078  
HR5G804175865712018041601A007A 003370003370                                    
HR5G804175865712018041601G010A 000207000207                                    
HR4G804175865810155390000321481                   ON6093068721  GEHCP    0078  
HR5G804175865812018041601A007A 003370003370                                    
HR4G804175865910155390000321482                   ON8864020352  NBHCP    0078  
HR5G804175865912018041601A007A 003370003370                                    
HR5G804175865912018041601G420A 001125001125                                    
HR4G804175866010155390000321483                   ON4093988691  LEHCP    0078  
HR5G804175866012018041601A007A 003370003370                                    
HR4G804175866110155390000321484                   ON3037566530  WMHCP    0078  
HR5G804175866112018041601A007A 003370003370                                    
HR4G804175866210155390000321485                   ON5953773735  HGHCP    0078  
HR5G804175866212018041601A007A 003370003370                                    
HR5G804175866212018041601G010A 000207000207                                    
HR4G804175866310155390000321486                   ON1876429240  YEHCP    0078  
HR5G804175866312018041601A007A 003370003370                                    
HR4G804175866410155390000321487                   ON1087691521  BXHCP    0078  
HR5G804175866412018041601A007A 003370003370                                    
HR4G804175866510155390000321488                   ON6039088346  XLHCP    0078  
HR5G804175866512018041601A007A 003370003370                                    
HR4G804175866610155390000321489                   ON1535149619  HKHCP    0078  
HR5G804175866612018041601A007A 003370003370                                    
HR4G804175866710155390000321490                   ON1868834100  EMHCP    0078  
HR5G804175866712018041601A007A 003370003370                                    
HR4G804175866810155390000321491                   ON2378206532  TGHCP    0078  
HR5G804175866812018041601A007A 003370003370                                    
HR4G804175866910155390000321492                   ON4426454718  BRHCP    0078  
HR5G804175866912018041601A007A 003370003370                                    
HR4G804175867010155390000321493                   ON2579759180  MLHCP    0078  
HR5G804175867012018041601A007A 003370003370                                    
HR4G804175867110155390000321494                   ON9129627858  HGHCP    0078  
HR5G804175867112018041601A007A 003370003370                                    
HR4G804175867210155390000321495                   ON7628755865  VBHCP    0078  
HR5G804175867212018041601A007A 003370003370                                    
HR4G804175867310155390000321497                   ON7682876060  XJHCP    0078  
HR5G804175867312018041601A007A 003370003370                                    
HR4G804175867410155390000321498                   ON6490648695  RLHCP    0078  
HR5G804175867412018041601A007A 003370003370                                    
HR4G804175867510155390000321499                   ON4014372694  FGHCP    0078  
HR5G804175867512018041601A007A 003370003370                                    
HR4G804175867610155390000321500                   ON9913105616  WBHCP    0078  
HR5G804175867612018041601A007A 003370003370                                    
HR4G804175867710155390000321501                   ON2155547165  NNHCP    0078  
HR5G804175867712018041601A007A 003370003370                                    
HR4G804175867810155390000321502                   ON8060750364  DMHCP    0078  
HR5G804175867812018041601A007A 003370003370                                    
HR4G804175867910155390000321503                   ON3860537046  XXHCP    0078  
HR5G804175867912018041601A007A 003370003370                                    
HR4G804175868010155390000321504                   ON3440471534  JMHCP    0078  
HR5G804175868012018041601A007A 003370003370                                    
HR4G804175868110155390000321505                   ON8273847346  FLHCP    0078  
HR5G804175868112018041601A007A 003370003370                                    
HR5G804175868112018041601G845A 000450000450                                    
HR4G804175868210155390000321506                   ON1484762412  HGHCP    0078  
HR5G804175868212018041601A007A 003370003370                                    
HR4G804175868310155390000321507                   ON1454548577  MKHCP    0078  
HR5G804175868312018041601A007A 003370003370                                    
HR4G804175868410155390000321508                   ON7983093662  PWHCP    0078  
HR5G804175868412018041601A007A 003370003370                                    
HR4G804175868510155390000321509                   ON9056032551  WXHCP    0078  
HR5G804175868512018041601A007A 003370003370                                    
HR4G804175868610155390000321510                   ON4714296938  CKHCP    0078  
HR5G804175868612018041601A007A 003370003370                                    
HR4G804175868710155390000321511                   ON2519857052  YWHCP    0078  
HR5G804175868712018041601A007A 003370003370                                    
HR4G804175868810155390000321512                   ON9094236768  NEHCP    0078  
HR5G804175868812018041601A007A 003370003370                                    
HR4G804175868910155390000321513                   ON1078159702  VRHCP    0078  
HR5G804175868912018041601A007A 003370003370                                    
HR4G804175869010155390000321514                   ON5225837912    HCP    0078  
HR5G804175869012018041601A007A 003370003370                                    
HR4G804175869110155390000321515                   ON5106211831  BGHCP    0078  
HR5G804175869112018041601A007A 003370003370                                    
HR4G804188448310155390000321553                   ON6019536322  PNHCP    0078  
HR5G804188448312018041701A007A 003370003370                                    
HR4G804188448410155390000321554                   ON4047074606  RJHCP    0078  
HR5G804188448412018041701A007A 003370003370                                    
HR4G804188448510155390000321555                   ON5667725468  JBHCP    0078  
HR5G804188448512018041701A007A 003370003370                                    
HR5G804188448512018041701G010A 000207000207                                    
HR4G804188448610155390000321556                   ON1499514147  MMHCP    0078  
HR5G804188448612018041701A007A 003370003370                                    
HR4G804188448710155390000321557                   ON7071106657  LBHCP    0078  
HR5G804188448712018041701A007A 003370003370                                    
HR4G804188448810155390000321558                   ON9281485483  YLHCP    0078  
HR5G804188448812018041701A007A 003370003370                                    
HR5G804188448812018041701G010A 000207000207                                    
HR4G804188448210155390000321560                   ON8907041118  CKHCP    0078  
HR5G804188448212018041001K058A 012500012500                                    
HR4G804188448110155390000321561                   ON6947816192  DFHCP    0078  
HR5G804188448112018040201A771A 002060002060                                    
HR4G804188448910155390000321563                   ON4672411321  PEHCP    0078  
HR5G804188448912018041701A007A 003370003370                                    
HR5G804188448912018041701G010A 000207000207                                    
HR4G804188449010155390000321564                   ON1310212608  ARHCP    0078  
HR5G804188449012018041701A007A 003370003370                                    
HR4G804188449110155390000321565                   ON2616412207  NAHCP    0078  
HR5G804188449112018041701A007A 003370003370                                    
HR4G804188449210155390000321566                   ON1852545050  VWHCP    0078  
HR5G804188449212018041701A007A 003370003370                                    
HR4G804188449310155390000321567                   ON2426031726  HHHCP    0078  
HR5G804188449312018041701A007A 003370003370                                    
HR4G804188449410155390000321568                   ON1541340012  AVHCP    0078  
HR5G804188449412018041701A001A 002170002170                                    
HR5G804188449412018041701G202A 000445000445                                    
HR4G804188449510155390000321569                   ON5734153819  CBHCP    0078  
HR5G804188449512018041701A007A 003370003370                                    
HR4G804188449610155390000321570                   ON1048085227  AGHCP    0078  
HR5G804188449612018041701A007A 003370003370                                    
HR4G804188449710155390000321571                   ON5311249824  MJHCP    0078  
HR5G804188449712018041701A007A 003370003370                                    
HR4G804188449810155390000321572                   ON7976163878  NJHCP    0078  
HR5G804188449812018041701A007A 003370003370                                    
HR4G804188449910155390000321573                   ON3560061990  RKHCP    0078  
HR5G804188449912018041701A001A 002170002170                                    
HR5G804188449912018041701G420A 001125001125                                    
HR4G804188450010155390000321574                   ON6089907098  VEHCP    0078  
HR5G804188450012018041701A007A 003370003370                                    
HR4G804188450110155390000321575                   ON4086727247  DJHCP    0078  
HR5G804188450112018041701A007A 003370003370                                    
HR4G804188450210155390000321576                   ON5973195570  XRHCP    0078  
HR5G804188450212018041701A007A 003370003370                                    
HR5G804188450212018041701G010A 000207000207                                    
HR4G804188450310155390000321577                   ON7519511096  BGHCP    0078  
HR5G804188450312018041701A007A 003370003370                                    
HR4G804188450410155390000321578                   ON8317794884  XRHCP    0078  
HR5G804188450412018041701A007A 003370003370                                    
HR4G804188450510155390000321579                   ON7207074597  TPHCP    0078  
HR5G804188450512018041701A007A 003370003370                                    
HR5G804188450512018041701G010A 000207000207                                    
HR4G804188450610155390000321580                   ON7447515961  YXHCP    0078  
HR5G804188450612018041701A007A 003370003370                                    
HR4G804188450710155390000321581                   ON9976001009  VEHCP    0078  
HR5G804188450712018041701A007A 003370003370                                    
HR4G804188450810155390000321582                   ON3724216647  LAHCP    0078  
HR5G804188450812018041701A001A 002170002170                                    
HR5G804188450812018041701G010A 000207000207                                    
HR4G804188450910155390000321583                   ON9724804209  RXHCP    0078  
HR5G804188450912018041701A007A 003370003370                                    
HR4G804188451010155390000321584                   ON3181046800  CLHCP    0078  
HR5G804188451012018041701A007A 003370003370                                    
