HR1V030007800000000H720180614STONEY CREEK MEDICAL WALK IN C007183295 99999999  
HR2                              2A - 140 CENTENNIAL PARKW                     
HR3HAMILTON        ON L8E1H9                                                   
HR4G805153780810155390000320771                   ON4914280674  WKHCP    0078  
HR5G805153780812018040501A007A 003370003370                                    
HR4G805153780910155390000320772                   ON7949698562  VJHCP    0078  
HR5G805153780912018040501A007A 003370003370                                    
HR4G805153781010155390000320773                   ON6613636049  TXHCP    0078  
HR5G805153781012018040501A007A 003370003370                                    
HR5G805153781012018040501G010A 000207000207                                    
HR4G805153781110155390000320774                   ON9608514411  KAHCP    0078  
HR5G805153781112018040501A007A 003370003370                                    
HR5G805153781112018040501G841A 000450000450                                    
HR5G805153781112018040501G846A 000450000450                                    
HR4G805153781210155390000320775                   ON7974398518  NRHCP    0078  
HR5G805153781212018040501A007A 003370003370                                    
HR5G805153781212018040501G845A 000450000450                                    
HR4G805153781310155390000320776                   ON1505928299  MCHCP    0078  
HR5G805153781312018040501A003A 007720007720                                    
HR4G805153781410155390000320777                   ON8989918142  ELHCP    0078  
HR5G805153781412018040501A007A 003370003370                                    
HR4G805153781510155390000320778                   ON1239513649  CXHCP    0078  
HR5G805153781512018040501A007A 003370003370                                    
HR4G805153781610155390000320779                   ON6716081630  HKHCP    0078  
HR5G805153781612018040501A007A 003370003370                                    
HR5G805153781612018040501G538A 000450000450                                    
HR4G805153781710155390000320780                   ON2892151222  CMHCP    0078  
HR5G805153781712018040501A007A 003370003370                                    
HR4G805153781810155390000320781                   ON7864319988  BXHCP    0078  
HR5G805153781812018040501A007A 003370003370                                    
HR4G805153781910155390000320782                   ON7677653649  HTHCP    0078  
HR5G805153781912018040501A007A 003370003370                                    
HR4G805153782010155390000320783                   ON8016558234  HEHCP    0078  
HR5G805153782012018040501A007A 003370003370                                    
HR4G805153782110155390000320784                   ON5311249824  MJHCP    0078  
HR5G805153782112018040501A007A 003370003370                                    
HR4G805153782210155390000320785                   ON8801092670  DTHCP    0078  
HR5G805153782212018040501A007A 003370003370                                    
HR4G805153782310155390000320786                   ON7871252768  FMHCP    0078  
HR5G805153782312018040501A007A 003370003370                                    
HR4G805153782410155390000320789                   ON1969083920  DBHCP    0078  
HR5G805153782412018040501A007A 003370003370                                    
HR4G805153782510155390000320790                   ON6428248329  BYHCP    0078  
HR5G805153782512018040501A007A 003370003370                                    
HR4G805153782610155390000320791                   ON9350959061  YJHCP    0078  
HR5G805153782612018040501A007A 003370003370                                    
HR4G805153782710155390000320792                   ON7290261135  MHHCP    0078  
HR5G805153782712018040501A001A 002170002170                                    
HR5G805153782712018040501G847A 000450000450                                    
HR4G805153782810155390000320795                   ON7460081230  YEHCP    0078  
HR5G805153782812018040501A007A 003370003370                                    
HR4G805153782910155390000320796                   ON4531094292  YVHCP    0078  
HR5G805153782912018040501A007A 003370003370                                    
HR4G805153783010155390000320797                   ON2258473137  ALHCP    0078  
HR5G805153783012018040501A007A 003370003370                                    
HR4G805153783110155390000320799                   ON4974476089  HHHCP    0078  
HR5G805153783112018040501A007A 003370003370                                    
HR5G805153783112018040501G420A 001125001125                                    
HR4G805153783210155390000320800                   ON5266147890  YJHCP    0078  
HR5G805153783212018040501A007A 003370003370                                    
HR4G805153783310155390000320801                   ON3119754533  NEHCP    0078  
HR5G805153783312018040501A007A 003370003370                                    
HR4G805153783410155390000320802                   ON7804553290  ABHCP    0078  
HR5G805153783412018040501A007A 003370003370                                    
HR4G805153783510155390000320803                   ON3154304533  LTHCP    0078  
HR5G805153783512018040501A007A 003370003370                                    
HR4G805153783610155390000320804                   ON8406360605  PJHCP    0078  
HR5G805153783612018040501A007A 003370003370                                    
HR4G805153783710155390000320805                   ON7749887043  YJHCP    0078  
HR5G805153783712018040501A007A 003370003370                                    
HR4G805153783810155390000320806                   ON5171253767  AWHCP    0078  
HR5G805153783812018040501A007A 003370003370                                    
HR4G805153783910155390000320807                   ON1611631506  VCHCP    0078  
HR5G805153783912018040501A007A 003370003370                                    
HR4G805153784010155390000320808                   ON6226566344  NLHCP    0078  
HR5G805153784012018040501A007A 003370003370                                    
HR4G805153784110155390000320809                   ON3822398677  YTHCP    0078  
HR5G805153784112018040501A007A 003370003370                                    
HR5G805153784112018040501G005A 000388000388                                    
HR4G805153784210155390000320810                   ON5042107259  BXHCP    0078  
HR5G805153784212018040501A007A 003370003370                                    
HR4G805153784310155390000320811                   ON5882616161  VHHCP    0078  
HR5G805153784312018040501A007A 003370003370                                    
HR4G805153784410155390000320812                   ON1301097695  JBHCP    0078  
HR5G805153784412018040501A007A 003370003370                                    
HR4G805153784510155390000320813                   ON3504286984  JXHCP    0078  
HR5G805153784512018040501A007A 003370003370                                    
HR4G805153784610155390000320814                   ON3491318212  MNHCP    0078  
HR5G805153784612018040501A007A 003370003370                                    
HR4G805153784710155390000320815                   ON4706925163  TXHCP    0078  
HR5G805153784712018040501A007A 003370003370                                    
HR4G805153784810155390000320816                   ON6547646106  YTHCP    0078  
HR5G805153784812018040501A001A 002170002170                                    
HR4G805153784910155390000320817                   ON1916180266  TCHCP    0078  
HR5G805153784912018040501A007A 003370003370                                    
HR4G805153785010155390000320818                   ON7856073130  KEHCP    0078  
HR5G805153785012018040501A007A 003370003370                                    
HR4G816104931210155390000320911                   ON3298298856    HCP    0078  
HR5G816104931212018040601A007A 003370003370 EV                                 
HR4G805153785110155390000321733                   ON4802798241  EWHCP    0078  
HR5G805153785112018041901A007A 003370003370                                    
HR4G805012737410155390000321774                   ON6678887198  VNHCP    0078  
HR5G805012737412018041901K005A 006275006275                                    
HR4G805012737510155390000321960                   ON9897598752  CHHCP    0078  
HR5G805012737512018042301A007A 003370003370                                    
HR4G805012737610155390000321968                   ON2201418338  GMHCP    0078  
HR5G805012737612018042301A007A 003370003370                                    
HR4G816250255110155390000322080                   ON3298298856    HCP    0078  
HR5G816250255112018042401A007A 003370003370 EV                                 
HR4G805012737710155390000322168                   ON4531094292  YVHCP    0078  
HR5G805012737712018042601A007A 003370003370                                    
HR4G805012737810155390000322169                   ON3213730645  RBHCP    0078  
HR5G805012737812018042601A007A 003370003370                                    
HR4G805012737910155390000322170                   ON9477727631  EMHCP    0078  
HR5G805012737912018042601A007A 003370003370                                    
HR4G805012738010155390000322171                   ON8907041118  CKHCP    0078  
HR5G805012738012018042601A007A 003370003370                                    
HR4G805012738110155390000322172                   ON5915777642  PGHCP    0078  
HR5G805012738112018042601A007A 003370003370                                    
HR5G805012738112018042601G372A 000389000389                                    
HR4G805012738210155390000322173                   ON5801832410  YRHCP    0078  
HR5G805012738212018042601A007A 003370003370                                    
HR4G805012738310155390000322174                   ON9289388424  VYHCP    0078  
HR5G805012738312018042601A007A 003370003370                                    
HR5G805012738312018042601G010A 000207000207                                    
HR4G805012738410155390000322175                   ON6368502578    HCP    0078  
HR5G805012738412018042601A007A 003370003370                                    
HR4G805012738510155390000322176                   ON9060950475  AJHCP    0078  
HR5G805012738512018042601A007A 003370003370                                    
HR4G805012738610155390000322177                   ON9466848778  GMHCP    0078  
HR5G805012738612018042601A007A 003370003370                                    
HR5G805012738612018042601G420A 001125001125                                    
HR4G805012738710155390000322178                   ON4890905963  EPHCP    0078  
HR5G805012738712018042601A007A 003370003370                                    
HR5G805012738712018042601G372A 000389000389                                    
HR4G805012738810155390000322179                   ON1326348206  FNHCP    0078  
HR5G805012738812018042601A003A 007720007720                                    
HR4G805012738910155390000322180                   ON5287694599  MHHCP    0078  
HR5G805012738912018042601A007A 003370003370                                    
HR5G805012738912018042601G372A 000389000389                                    
HR4G805012739010155390000322181                   ON9986107259  FKHCP    0078  
HR5G805012739012018042601A007A 003370003370                                    
HR5G805012739012018042601G372A 000389000389                                    
HR4G805012739110155390000322183                   ON7997375857  FFHCP    0078  
HR5G805012739112018042601A007A 003370003370                                    
HR4G805012739210155390000322184                   ON8572128190  KWHCP    0078  
HR5G805012739212018042601A007A 003370003370                                    
HR4G805012739310155390000322185                   ON7611869517  NVHCP    0078  
HR5G805012739312018042601A007A 003370003370                                    
HR4G805012739410155390000322186                   ON8667338332  JBHCP    0078  
HR5G805012739412018042601A003A 007720007720                                    
HR4G805012739510155390000322187                   ON7691886837  NFHCP    0078  
HR5G805012739512018042601A007A 003370003370                                    
HR4G805012739610155390000322188                   ON7660601290  FWHCP    0078  
HR5G805012739612018042601A007A 003370003370                                    
HR4G805012739710155390000322189                   ON5374591591  LYHCP    0078  
HR5G805012739712018042601A007A 003370003370                                    
HR4G805012739810155390000322191                   ON8691242047  JXHCP    0078  
HR5G805012739812018042601A007A 003370003370                                    
HR4G805012739910155390000322192                   ON3430300230  CJHCP    0078  
HR5G805012739912018042601A007A 003370003370                                    
HR4G805012740010155390000322193                   ON9569242986  KEHCP    0078  
HR5G805012740012018042601A007A 003370003370                                    
HR4G805012740110155390000322194                   ON9415988238  APHCP    0078  
HR5G805012740112018042601A001A 002170002170                                    
HR5G805012740112018042601G372A 000389000389                                    
HR4G805012740210155390000322195                   ON5763422499  XAHCP    0078  
HR5G805012740212018042601A007A 003370003370                                    
HR4G805012740310155390000322196                   ON1804956520  NAHCP    0078  
HR5G805012740312018042601A007A 003370003370                                    
HR4G805012740410155390000322197                   ON9317775568  YEHCP    0078  
HR5G805012740412018042601A007A 003370003370                                    
HR4G805012740510155390000322198                   ON2510947688  LRHCP    0078  
HR5G805012740512018042601A007A 003370003370                                    
HR5G805012740512018042601G840A 000450000450                                    
HR5G805012740512018042601G845A 000450000450                                    
HR4G805012740610155390000322199                   ON8954678457    HCP    0078  
HR5G805012740612018042601A007A 003370003370                                    
HR4G805012740710155390000322200                   ON3418759407  MLHCP    0078  
HR5G805012740712018042601A007A 003370003370                                    
HR4G805012740810155390000322201                   ON7958287687  JLHCP    0078  
HR5G805012740812018042601A007A 003370003370                                    
HR5G805012740812018042601G840A 000450000450                                    
HR5G805012740812018042601G840A 000450000000 35                                 
HR4G805012740910155390000322202                   ON4306218258  CKHCP    0078  
HR5G805012740912018042601A003A 007720007720                                    
HR4G805012741010155390000322203                   ON2661256624  PHHCP    0078  
HR5G805012741012018042601A007A 003370003370                                    
HR4G805012741110155390000322204                   ON2748979271  GBHCP    0078  
HR5G805012741112018042601A007A 003370003370                                    
HR5G805012741112018042601G840A 000450000450                                    
HR4G805012741210155390000322205                   ON5856471262  CPHCP    0078  
HR5G805012741212018042601A007A 003370003370                                    
HR4G805012741310155390000322206                   ON3739577223  KEHCP    0078  
HR5G805012741312018042601A007A 003370003370                                    
HR5G805012741312018042601G010A 000207000207                                    
HR4G805012741410155390000322207                   ON7769168076  PVHCP    0078  
HR5G805012741412018042601A007A 003370003370                                    
HR4G805012741510155390000322208                   ON4398781007  KPHCP    0078  
HR5G805012741512018042601A007A 003370003370                                    
HR4G805012741610155390000322209                   ON2233785688  PEHCP    0078  
HR5G805012741612018042601A007A 003370003370                                    
HR4G805145651010155390000323259                   ON2819176989  PCHCP    0078  
HR5G805145651012018051301A007A 003370003370                                    
HR4G805145651110155390000323260                   ON4659397006  YYHCP    0078  
HR5G805145651112018051301A007A 003370003370                                    
HR4G805145651210155390000323261                   ON2618687566  YPHCP    0078  
HR5G805145651212018051301A007A 003370003370                                    
HR4G805145651310155390000323262                   ON2473425862  XCHCP    0078  
HR5G805145651312018051301A007A 003370003370                                    
HR5G805145651312018051301G372A 000389000389                                    
HR4G805145651410155390000323263                   ON7362569068  ECHCP    0078  
HR5G805145651412018051301A007A 003370003370                                    
HR4G805145651510155390000323264                   ON7356841267  TFHCP    0078  
HR5G805145651512018051301A007A 003370003370                                    
HR4G805145651610155390000323265                   ON5369725972  BFHCP    0078  
HR5G805145651612018051301A007A 003370003370                                    
HR5G805145651612018051301G010A 000207000207                                    
HR4G805145651710155390000323266                   ON4061976215  YKHCP    0078  
HR5G805145651712018051301A007A 003370003370                                    
HR5G805145651712018051301G010A 000207000207                                    
HR4G805145651810155390000323267                   ON3977592181  RAHCP    0078  
HR5G805145651812018051301A007A 003370003370                                    
HR4G805145651910155390000323268                   ON9015959704  FBHCP    0078  
HR5G805145651912018051301A007A 003370003370                                    
HR4G805145652010155390000323269                   ON5814753322  YEHCP    0078  
HR5G805145652012018051301A007A 003370003370                                    
HR5G805145652012018051301G372A 000389000389                                    
HR4G805145652110155390000323271                   ON9087293297  VWHCP    0078  
HR5G805145652112018051301A007A 003370003370                                    
HR4G805145652210155390000323273                   ON5287694599  MHHCP    0078  
HR5G805145652212018051301A007A 003370003370                                    
HR5G805145652212018051301G372A 000389000389                                    
HR4G805145652310155390000323274                   ON1547720688  HFHCP    0078  
HR5G805145652312018051301A007A 003370003370                                    
HR5G805145652312018051301G372A 000389000389                                    
HR4G805145652410155390000323275                   ON6022523853  BHHCP    0078  
HR5G805145652412018051301A007A 003370003370                                    
HR4G805145652510155390000323276                   ON6215748937  JJHCP    0078  
HR5G805145652512018051301A007A 003370003370                                    
HR5G805145652512018051301G841A 000450000450                                    
HR4G805145652610155390000323277                   ON5135869906  FJHCP    0078  
HR5G805145652612018051301A007A 003370003370                                    
HR5G805145652612018051301G847A 000450000450                                    
HR4G805145652710155390000323278                   ON9757388328  TEHCP    0078  
HR5G805145652712018051301A007A 003370003370                                    
HR4G805145652810155390000323279                   ON4047074606  NLHCP    0078  
HR5G805145652812018051301A007A 003370003370                                    
HR4G805145652910155390000323280                   ON4526880176  GEHCP    0078  
HR5G805145652912018051301A001A 002170002170                                    
HR5G805145652912018051301G372A 000389000389                                    
HR4G805145653010155390000323281                   ON4962341584  VRHCP    0078  
HR5G805145653012018051301A007A 003370003370                                    
HR4G805145653110155390000323282                   ON3924610706  HRHCP    0078  
HR5G805145653112018051301A007A 003370003370                                    
HR4G805145653210155390000323283                   ON4531258517  GTHCP    0078  
HR5G805145653212018051301A007A 003370003370                                    
HR4G805145653310155390000323284                   ON2939643942  CAHCP    0078  
HR5G805145653312018051301A001A 002170002170                                    
HR4G805145653410155390000323285                   ON7749887043  YJHCP    0078  
HR5G805145653412018051301A007A 003370003370                                    
HR4G805145653510155390000323286                   ON6272247377  WGHCP    0078  
HR5G805145653512018051301A007A 003370003370                                    
HR5G805145653512018051301G845A 000450000450                                    
HR4G805145653610155390000323287                   ON9622614155  MJHCP    0078  
HR5G805145653612018051301A007A 003370003370                                    
HR5G805145653612018051301G010A 000207000207                                    
HR4G805145653710155390000323288                   ON4725629325  PWHCP    0078  
HR5G805145653712018051301A007A 003370003370                                    
HR5G805145653712018051301G010A 000207000207                                    
HR4G805145653810155390000323289                   ON4705805770  GAHCP    0078  
HR5G805145653812018051301A007A 003370003370                                    
HR4G805145653910155390000323290                   ON8037011940  GFHCP    0078  
HR5G805145653912018051301A007A 003370003370                                    
HR4G805145654010155390000323291                   ON2710792561  KJHCP    0078  
HR5G805145654012018051301A007A 003370003370                                    
HR4G805145654110155390000323292                   ON1118346483  FDHCP    0078  
HR5G805145654112018051301A007A 003370003370                                    
HR5G805145654112018051301G847A 000450000450                                    
HR4G805145654210155390000323293                   ON4969866328  LHHCP    0078  
HR5G805145654212018051301A007A 003370003370                                    
HR4G805145654310155390000323294                   ON1052556816  HMHCP    0078  
HR5G805145654312018051301A007A 003370003370                                    
HR4G805145654410155390000323295                   ON8017602544  XFHCP    0078  
HR5G805145654412018051301A007A 003370003370                                    
HR4G805145654510155390000323296                   ON1979617261  EXHCP    0078  
HR5G805145654512018051301A007A 003370003370                                    
HR4G805145654610155390000323297                   ON1295447849  BCHCP    0078  
HR5G805145654612018051301A007A 003370003370                                    
HR4G805145654710155390000323298                   ON8054084796  PFHCP    0078  
HR5G805145654712018051301A007A 003370003370                                    
HR4G805145654810155390000323299                   ON5980039944  CGHCP    0078  
HR5G805145654812018051301A007A 003370003370                                    
HR4G805145654910155390000323300                   ON9142048843  AKHCP    0078  
HR5G805145654912018051301A007A 003370003370                                    
HR4G805145655010155390000323301                   ON5463374289  TYHCP    0078  
HR5G805145655012018051301A007A 003370003370                                    
HR4G805153785210155390000323342                   ON8803398091  JNHCP    0078  
HR5G805153785212018051401A007A 003370003370                                    
HR4G805153785310155390000323343                   ON4098604202  LTHCP    0078  
HR5G805153785312018051401A007A 003370003370                                    
HR4G805153785410155390000323344                   ON4365554635  VPHCP    0078  
HR5G805153785412018051401A007A 003370003370                                    
HR5G805153785412018051401G538A 000450000450                                    
HR4G805153785510155390000323345                   ON6427362063  MBHCP    0078  
HR5G805153785512018051401A007A 003370003370                                    
HR5G805153785512018051401G010A 000207000207                                    
HR4G805153785610155390000323346                   ON7881419175  PBHCP    0078  
HR5G805153785612018051401A007A 003370003370                                    
HR4G805153785710155390000323350                   ON2068887112  GBHCP    0078  
HR5G805153785712018051401A007A 003370003370                                    
HR4G805153785810155390000323351                   ON4663425967  HRHCP    0078  
HR5G805153785812018051401A007A 003370003370                                    
HR4G805153785910155390000323352                   ON7480192165  KGHCP    0078  
HR5G805153785912018051401A007A 003370003370                                    
HR5G805153785912018051401G010A 000207000207                                    
HR4G805153786010155390000323353                   ON5104767891  EYHCP    0078  
HR5G805153786012018051401A007A 003370003370                                    
HR4G805153786110155390000323354                   ON1012354492  BVHCP    0078  
HR5G805153786112018051401A007A 003370003370                                    
HR4G805153786210155390000323356                   ON6585962894    HCP    0078  
HR5G805153786212018051401A903A 006505006505                                    
HR4G805153786310155390000323357                   ON1032120444  GEHCP    0078  
HR5G805153786312018051401A007A 003370003370                                    
HR4G805153786410155390000323359                   ON2661256624  PHHCP    0078  
HR5G805153786412018051401A007A 003370003370                                    
HR4G805153786510155390000323360                   ON8054395036  CPHCP    0078  
HR5G805153786512018051401A007A 003370003370                                    
HR4G805153786610155390000323361                   ON5526180533  XEHCP    0078  
HR5G805153786612018051401A007A 003370003370                                    
HR4G805153786710155390000323362                   ON5774048275  DAHCP    0078  
HR5G805153786712018051401A007A 003370003370                                    
HR4G805153786810155390000323365                   ON1754397535  VCHCP    0078  
HR5G805153786812018051401A001A 002170002170                                    
HR5G805153786812018051401G372A 000389000389                                    
HR4G805153786910155390000323366                   ON7922635706  FNHCP    0078  
HR5G805153786912018051401A001A 002170002170                                    
HR5G805153786912018051401G372A 000389000389                                    
HR4G805153787010155390000323367                   ON2155547165  NNHCP    0078  
HR5G805153787012018051401A007A 003370003370                                    
HR5G805153787012018051401G845A 000450000450                                    
HR4G805157452010155390000323368                   ON3852331747  VVHCP    0078  
HR5G805157452012018051401A007A 003370003370                                    
HR4G805157452110155390000323369                   ON5309575693  KVHCP    0078  
HR5G805157452112018051401A007A 003370003370                                    
HR4G805157452210155390000323370                   ON7993379325  CRHCP    0078  
HR5G805157452212018051401A007A 003370003370                                    
HR5G805157452212018051401K054A 002500002500                                    
HR4G805157452310155390000323371                   ON6475977127  JDHCP    0078  
HR5G805157452312018051401A007A 003370003370                                    
HR4G805157452410155390000323373                   ON6647321865  PCHCP    0078  
HR5G805157452412018051401A007A 003370003370                                    
HR4G805157452510155390000323374                   ON9137124104  NWHCP    0078  
HR5G805157452512018051401A007A 003370003370                                    
HR4G805157452610155390000323375                   ON2473425862  XCHCP    0078  
HR5G805157452612018051401A007A 003370003370                                    
HR4G805157452710155390000323376                   ON9614837095  LVHCP    0078  
HR5G805157452712018051401K005A 006275006275                                    
HR4G805157452810155390000323377                   ON6173871481  WFHCP    0078  
HR5G805157452812018051401A007A 003370003370                                    
HR4G805157452910155390000323378                   ON5311249824  MJHCP    0078  
HR5G805157452912018051401A007A 003370003370                                    
HR4G805157453010155390000323379                   ON9871518651  CNHCP    0078  
HR5G805157453012018051401A001A 002170002170                                    
HR4G805157453110155390000323380                   ON5783064149  XYHCP    0078  
HR5G805157453112018051401A007A 003370003370                                    
HR4G805157453210155390000323381                   ON4672411321  PEHCP    0078  
HR5G805157453212018051401A007A 003370003370                                    
HR4G805157453310155390000323382                   ON8857117645  RHHCP    0078  
HR5G805157453312018051401A007A 003370003370                                    
HR5G805157453312018051401G372A 000389000389                                    
HR4G805157453410155390000323383                   ON3476818129  FBHCP    0078  
HR5G805157453412018051401A007A 003370003370                                    
HR4G805157453510155390000323384                   ON4931706388  LWHCP    0078  
HR5G805157453512018051401A007A 003370003370                                    
HR4G805157453610155390000323385                   ON2143298806  JJHCP    0078  
HR5G805157453612018051401A007A 003370003370                                    
HR5G805157453612018051401G010A 000207000207                                    
HR4G805157453710155390000323386                   ON8806761576  YVHCP    0078  
HR5G805157453712018051401A007A 003370003370                                    
HR4G805157453810155390000323387                   ON3321934766  GRHCP    0078  
HR5G805157453812018051401A007A 003370003370                                    
HR4G805157453910155390000323388                   ON9610565088  NRHCP    0078  
HR5G805157453912018051401A007A 003370003370                                    
HR4G805157454010155390000323389                   ON4988634384  KPHCP    0078  
HR5G805157454012018051401A007A 003370003370                                    
HR4G805164183210155390000323429                   ON5667725468  JBHCP    0078  
HR5G805164183212018051501A007A 003370003370                                    
HR5G805164183212018051501G372A 000389000389                                    
HR4G805164183310155390000323430                   ON5142440337  ENHCP    0078  
HR5G805164183312018051501A007A 003370003370                                    
HR4G805164183410155390000323431                   ON6358910484  MBHCP    0078  
HR5G805164183412018051501A007A 003370003370                                    
HR4G805164183510155390000323432                   ON3213730645  RBHCP    0078  
HR5G805164183512018051501A007A 003370003370                                    
HR4G805164183610155390000323433                   ON3724216647  LAHCP    0078  
HR5G805164183612018051501A001A 002170002170                                    
HR5G805164183612018051501G202A 000445000445                                    
HR4G805283124410155390000323435                   ON1105137200  NLHCP    0078  
HR5G805283124412018051501A001A 002170002170                                    
HR5G805283124412018051501G372A 000389000389                                    
HR4G805164183810155390000323436                   ON5289030644  TDHCP    0078  
HR5G805164183812018051501A007A 003370003370                                    
HR5G805164183812018051501G372A 000389000389                                    
HR4G805164183910155390000323437                   ON5320722175  DYHCP    0078  
HR5G805164183912018051501A007A 003370003370                                    
HR5G805164183912018051501G010A 000207000207                                    
HR4G805164184010155390000323439                   ON9599914042  FKHCP    0078  
HR5G805164184012018051501A007A 003370003370                                    
HR4G805164184110155390000323440                   ON3916984234  VBHCP    0078  
HR5G805164184112018051501A007A 003370003370                                    
HR4G805164184210155390000323441                   ON6144157838  KTHCP    0078  
HR5G805164184212018051501A007A 003370003370                                    
HR5G805164184212018051501G841A 000450000450                                    
HR5G805164184212018051501G846A 000450000450                                    
HR4G805164184310155390000323442                   ON8826301908  MEHCP    0078  
HR5G805164184312018051501A007A 003370003370                                    
HR4G805164184410155390000323443                   ON7936059133  AGHCP    0078  
HR5G805164184412018051501A007A 003370003370                                    
HR4G805164184510155390000323444                   ON1908729476  ALHCP    0078  
HR5G805164184512018051501A007A 003370003370                                    
HR4G805164184610155390000323445                   ON4419811866  BXHCP    0078  
HR5G805164184612018051501A007A 003370003370                                    
HR4G805164184710155390000323446                   ON5423191872  TEHCP    0078  
HR5G805164184712018051501A007A 003370003370                                    
HR4G805164184810155390000323447                   ON6352945882  PHHCP    0078  
HR5G805164184812018051501A007A 003370003370                                    
HR4G805164184910155390000323448                   ON3450434646  NDHCP    0078  
HR5G805164184912018051501A007A 003370003370                                    
HR4G805164185010155390000323449                   ON7380209929  GVHCP    0078  
HR5G805164185012018051501A007A 003370003370                                    
HR4G805164185110155390000323450                   ON1547720688  HFHCP    0078  
HR5G805164185112018051501A007A 003370003370                                    
HR4G805164185210155390000323451                   ON7763534802  HFHCP    0078  
HR5G805164185212018051501A007A 003370003370                                    
HR4G805164185310155390000323452                   ON5591413769  RTHCP    0078  
HR5G805164185312018051501A007A 003370003370                                    
HR5G805164185312018051501G010A 000207000207                                    
HR4G805164185410155390000323453                   ON5290761377  JLHCP    0078  
HR5G805164185412018051501A007A 003370003370                                    
HR4G805164185510155390000323454                   ON1616961247  CMHCP    0078  
HR5G805164185512018051501A007A 003370003370                                    
HR4G805164185610155390000323455                   ON4950591281  GNHCP    0078  
HR5G805164185612018051501A007A 003370003370                                    
HR4G805164185710155390000323456                   ON3303851947  JXHCP    0078  
HR5G805164185712018051501A007A 003370003370                                    
HR4G805164185810155390000323457                   ON8308058240  VNHCP    0078  
HR5G805164185812018051501A007A 003370003370                                    
HR4G805164185910155390000323458                   ON5315817030  TYHCP    0078  
HR5G805164185912018051501A007A 003370003370                                    
HR4G805164186010155390000323460                   ON8776735899  LXHCP    0078  
HR5G805164186012018051501A007A 003370003370                                    
HR4G805164186110155390000323461                   ON8413108484  MEHCP    0078  
HR5G805164186112018051501A007A 003370003370                                    
HR4G805164186210155390000323462                   ON3581592940  BLHCP    0078  
HR5G805164186212018051501A007A 003370003370                                    
HR4G805164186310155390000323463                   ON5690518757  LWHCP    0078  
HR5G805164186312018051501A007A 003370003370                                    
HR5G805164186312018051501G010A 000207000207                                    
HR4G805164186410155390000323464                   ON5382043205  RBHCP    0078  
HR5G805164186412018051501A007A 003370003370                                    
HR4G805164186510155390000323465                   ON9490411734    HCP    0078  
HR5G805164186512018051501A007A 003370003370                                    
HR4G805164186610155390000323466                   ON5240971704  AYHCP    0078  
HR5G805164186612018051501A007A 003370003370                                    
HR4G805164186710155390000323467                   ON7407688378  XEHCP    0078  
HR5G805164186712018051501A007A 003370003370                                    
HR4G805164186810155390000323468                   ON7162445949  GMHCP    0078  
HR5G805164186812018051501A007A 003370003370                                    
HR4G805164186910155390000323469                   ON5636760786  NGHCP    0078  
HR5G805164186912018051501A007A 003370003370                                    
HR4G805164187010155390000323470                   ON4047074606  NLHCP    0078  
HR5G805164187012018051501A007A 003370003370                                    
HR4G805283124310155390000323989                   ON4488454473  RXHCP    0078  
HR5G805283124312018051401A007A 003370003370                                    
HR4G805290533510155390000324104                   ON6160884307  ADHCP    0078  
HR5G805290533512018052701A007A 003370003370                                    
HR5G805290533512018052701G010A 000207000207                                    
HR4G805290533610155390000324105                   ON6241233128  MYHCP    0078  
HR5G805290533612018052701A007A 003370003370                                    
HR4G805290533710155390000324106                   ON3042200281  EGHCP    0078  
HR5G805290533712018052701K005A 006275006275                                    
HR4G805290533810155390000324107                   ON8984241706    HCP    0078  
HR5G805290533812018052701A007A 003370003370                                    
HR4G805290533910155390000324108                   ON6501834474  PWHCP    0078  
HR5G805290533912018052701A007A 003370003370                                    
HR4G805290534010155390000324109                   ON7882892719  RXHCP    0078  
HR5G805290534012018052701A007A 003370003370                                    
HR5G805290534012018052701G420A 001125001125                                    
HR4G805290534110155390000324110                   ON9275364496  PYHCP    0078  
HR5G805290534112018052701A001A 002170002170                                    
HR5G805290534112018052701G372A 000389000389                                    
HR4G805290534210155390000324111                   ON3401567635  EFHCP    0078  
HR5G805290534212018052701A007A 003370003370                                    
HR4G805290534310155390000324112                   ON6599373237  JGHCP    0078  
HR5G805290534312018052701A007A 003370003370                                    
HR4G805290534410155390000324113                   ON2974019099  KWHCP    0078  
HR5G805290534412018052701A007A 003370003370                                    
HR4G805290534510155390000324114                   ON6811276861  LCHCP    0078  
HR5G805290534512018052701A007A 003370003370                                    
HR4G805290534610155390000324115                   ON7206369931  RBHCP    0078  
HR5G805290534612018052701A001A 002170002170                                    
HR5G805290534612018052701G372A 000389000389                                    
HR4G805290534710155390000324116                   ON4194543965  LLHCP    0078  
HR5G805290534712018052701A007A 003370003370                                    
HR4G805290534810155390000324117                   ON5540960712  XMHCP    0078  
HR5G805290534812018052701A007A 003370003370                                    
HR4G805290534910155390000324118                   ON7364124375  MKHCP    0078  
HR5G805290534912018052701A007A 003370003370                                    
HR4G805290535010155390000324119                   ON3741553055  ETHCP    0078  
HR5G805290535012018052701A007A 003370003370                                    
HR4G805290535110155390000324120                   ON1899689614  KBHCP    0078  
HR5G805290535112018052701A007A 003370003370                                    
HR4G805290535210155390000324121                   ON3358914285  LWHCP    0078  
HR5G805290535212018052701A007A 003370003370                                    
HR4G805290535310155390000324122                   ON6777870103  KAHCP    0078  
HR5G805290535312018052701A007A 003370003370                                    
HR4G805290535410155390000324124                   ON8312669354  RRHCP    0078  
HR5G805290535412018052701A007A 003370003370                                    
HR4G805290535510155390000324125                   ON8934527709  GTHCP    0078  
HR5G805290535512018052701A001A 002170002170                                    
HR5G805290535512018052701G202A 000445000445                                    
HR4G805290535610155390000324126                   ON9186544756  PKHCP    0078  
HR5G805290535612018052701A007A 003370003370                                    
HR5G805290535612018052701G010A 000207000207                                    
HR4G805290535710155390000324127                   ON6654371498  RYHCP    0078  
HR5G805290535712018052701A007A 003370003370                                    
HR4G805290535810155390000324128                   ON3191606247  TRHCP    0078  
HR5G805290535812018052701A007A 003370003370                                    
HR4G805290535910155390000324129                   ON7194624974  RRHCP    0078  
HR5G805290535912018052701A007A 003370003370                                    
HR4G805290536010155390000324130                   ON2319342529  TFHCP    0078  
HR5G805290536012018052701A007A 003370003370                                    
HR4G805290536110155390000324131                   ON8970622406  XYHCP    0078  
HR5G805290536112018052701A007A 003370003370                                    
HR4G805290536210155390000324132                   ON9912055622  JMHCP    0078  
HR5G805290536212018052701A007A 003370003370                                    
HR4G805290536310155390000324133                   ON6475977127  JDHCP    0078  
HR5G805290536312018052701A007A 003370003370                                    
HR4G805290536410155390000324134                   ON5768729542  KDHCP    0078  
HR5G805290536412018052701A007A 003370003370                                    
HR4G805290536510155390000324135                   ON5655711843  MXHCP    0078  
HR5G805290536512018052701A007A 003370003370                                    
HR5G805290536512018052701G010A 000207000207                                    
HR4G805290536610155390000324136                   ON6798944481  ACHCP    0078  
HR5G805290536612018052701A007A 003370003370                                    
HR5G805290536612018052701K054A 002500002500                                    
HR4G805290536710155390000324137                   ON4350552081  WAHCP    0078  
HR5G805290536712018052701A007A 003370003370                                    
HR5G805290536712018052701K055A 002000002000                                    
HR4G805290536810155390000324138                   ON5268934527  GJHCP    0078  
HR5G805290536812018052701A007A 003370003370                                    
HR4G805290536910155390000324139                   ON6886193025  TPHCP    0078  
HR5G805290536912018052701A007A 003370003370                                    
HR5G805290536912018052701G372A 000389000389                                    
HR4G805290537010155390000324140                   ON1969969730  DGHCP    0078  
HR5G805290537012018052701A007A 003370003370                                    
HR4G805290537210155390000324142                   ON4951007527  EGHCP    0078  
HR5G805290537212018052701A007A 003370003370                                    
HR4G805290537310155390000324143                   ON4497652786  CHHCP    0078  
HR5G805290537312018052701A007A 003370003370                                    
HR4G805290537410155390000324144                   ON4869908089  EBHCP    0078  
HR5G805290537412018052701A007A 003370003370                                    
HR4G805290537510155390000324145                   ON6585962894    HCP    0078  
HR5G805290537512018052701A007A 003370003370                                    
HR4G805290537610155390000324146                   ON5698780672  GRHCP    0078  
HR5G805290537612018052701A007A 003370003370                                    
HR4G805290537710155390000324147                   ON8114616538  XAHCP    0078  
HR5G805290537712018052701A007A 003370003370                                    
HR4G805290537810155390000324148                   ON3540800582  MNHCP    0078  
HR5G805290537812018052701A007A 003370003370                                    
HR4G805290537910155390000324149                   ON6461834506  MCHCP    0078  
HR5G805290537912018052701A007A 003370003370                                    
HR5G805290537912018052701G372A 000389000389                                    
HR4G805290538010155390000324150                   ON7749887043  YJHCP    0078  
HR5G805290538012018052701A007A 003370003370                                    
HR4G805290538110155390000324151                   ON7111045873  MBHCP    0078  
HR5G805290538112018052701A007A 003370003370                                    
HR4G805290538210155390000324152                   ON9418146974  NWHCP    0078  
HR5G805290538212018052701A007A 003370003370                                    
HR4G805290538310155390000324153                   ON1089735821  DLHCP    0078  
HR5G805290538312018052701A007A 003370003370                                    
HR5G805290538312018052701G010A 000207000207                                    
HR4G805290538410155390000324154                   ON4672411321  PEHCP    0078  
HR5G805290538412018052701A007A 003370003370                                    
HR4G805290538510155390000324155                   ON6295466509  WHHCP    0078  
HR5G805290538512018052701A007A 003370003370                                    
HR4G805290538610155390000324156                   ON9614837095  LVHCP    0078  
HR5G805290538612018052701A007A 003370003370                                    
HR4G805290538710155390000324157                   ON1475917850  NLHCP    0078  
HR5G805290538712018052701A007A 003370003370                                    
HR4G805290538810155390000324158                   ON2618687566  YPHCP    0078  
HR5G805290538812018052701A007A 003370003370                                    
HR4G805290538910155390000324159                   ON9527421490  EMHCP    0078  
HR5G805290538912018052701A003A 007720007720                                    
HR4G805290539010155390000324160                   ON6926582385  MEHCP    0078  
HR5G805290539012018052701A007A 003370003370                                    
HR4G805290539110155390000324161                   ON2414036273  FYHCP    0078  
HR5G805290539112018052701A003A 007720007720                                    
HR4G805290539210155390000324162                   ON4860149626  WEHCP    0078  
HR5G805290539212018052701A007A 003370003370                                    
HR4G805292691510155390000324201                   ON3695677223  GFHCP    0078  
HR5G805292691512018052801A007A 003370003370                                    
HR5G805292691512018052801G005A 000388000388                                    
HR4G805292691610155390000324202                   ON5311249824  MJHCP    0078  
HR5G805292691612018052801A007A 003370003370                                    
HR4G805292691710155390000324203                   ON9693123003  CPHCP    0078  
HR5G805292691712018052801A007A 003370003370                                    
HR4G805292691810155390000324204                   ON2414429148  BDHCP    0078  
HR5G805292691812018052801A007A 003370003370                                    
HR4G805292691910155390000324205                   ON3626695013  BPHCP    0078  
HR5G805292691912018052801A007A 003370003370                                    
HR4G805292692010155390000324206                   ON2772515207  KVHCP    0078  
HR5G805292692012018052801A007A 003370003370                                    
HR4G805292692110155390000324207                   ON1134909298  HBHCP    0078  
HR5G805292692112018052801A007A 003370003370                                    
HR4G805292692210155390000324208                   ON6742709626  CMHCP    0078  
HR5G805292692212018052801A007A 003370003370                                    
HR5G805292692212018052801G010A 000207000207                                    
HR4G805292692310155390000324209                   ON7825891521  LEHCP    0078  
HR5G805292692312018052801A007A 003370003370                                    
HR4G805292692410155390000324210                   ON7230631660  XMHCP    0078  
HR5G805292692412018052801A007A 003370003370                                    
HR4G805292692510155390000324211                   ON5289030644  TDHCP    0078  
HR5G805292692512018052801A007A 003370003370                                    
HR4G805292692610155390000324212                   ON1188950438  YWHCP    0078  
HR5G805292692612018052801A007A 003370003370                                    
HR4G805292692710155390000324213                   ON7283539224  WCHCP    0078  
HR5G805292692712018052801A007A 003370003370                                    
HR4G805292692810155390000324216                   ON5514591428  NVHCP    0078  
HR5G805292692812018052801A007A 003370003370                                    
HR5G805292692812018052801G420A 001125001125                                    
HR4G805292692910155390000324217                   ON7668253037  GYHCP    0078  
HR5G805292692912018052801A007A 003370003370                                    
HR4G805292693010155390000324218                   ON1206143263  EVHCP    0078  
HR5G805292693012018052801A007A 003370003370                                    
HR5G805292693012018052801G372A 000389000389                                    
HR4G805292693110155390000324219                   ON6312234419  WFHCP    0078  
HR5G805292693112018052801A007A 003370003370                                    
HR4G805292693210155390000324220                   ON5733585961  JHHCP    0078  
HR5G805292693212018052801A007A 003370003370                                    
HR4G805292693310155390000324221                   ON1785125723  BTHCP    0078  
HR5G805292693312018052801A007A 003370003370                                    
HR4G805292693410155390000324222                   ON1073756056  JJHCP    0078  
HR5G805292693412018052801A007A 003370003370                                    
HR5G805292693412018052801G010A 000207000207                                    
HR4G805292693510155390000324223                   ON8508159889  BLHCP    0078  
HR5G805292693512018052801A007A 003370003370                                    
HR5G805292693512018052801G010A 000207000207                                    
HR4G805292693610155390000324224                   ON7489728084  HYHCP    0078  
HR5G805292693612018052801A007A 003370003370                                    
HR5G805292693612018052801G010A 000207000207                                    
HR4G805292693710155390000324225                   ON5890200925  DYHCP    0078  
HR5G805292693712018052801A007A 003370003370                                    
HR4G805292693810155390000324226                   ON6325132766  EVHCP    0078  
HR5G805292693812018052801A007A 003370003370                                    
HR4G805292693910155390000324227                   ON8491221878  RXHCP    0078  
HR5G805292693912018052801K005A 006275006275                                    
HR4G805292694010155390000324228                   ON6751463776  GXHCP    0078  
HR5G805292694012018052801A007A 003370003370                                    
HR4G805292694110155390000324229                   ON2258473137  ALHCP    0078  
HR5G805292694112018052801A007A 003370003370                                    
HR4G805292694210155390000324232                   ON5486531519  MMHCP    0078  
HR5G805292694212018052801A007A 003370003370                                    
HR4G805292694310155390000324233                   ON5340164697  BEHCP    0078  
HR5G805292694312018052801A007A 003370003370                                    
HR4G805292694410155390000324235                   ON4928481490  GRHCP    0078  
HR5G805292694412018052801A007A 003370003370                                    
HR4G805292694510155390000324236                   ON5935688217  YKHCP    0078  
HR5G805292694512018052801A007A 003370003370                                    
HR4G805292694610155390000324237                   ON2681956252  CCHCP    0078  
HR5G805292694612018052801A007A 003370003370                                    
HR4G805292694710155390000324238                   ON9249104093  PFHCP    0078  
HR5G805292694712018052801A007A 003370003370                                    
HR5G805292694712018052801G010A 000207000207                                    
HR4G805292694810155390000324239                   ON1738881802  KHHCP    0078  
HR5G805292694812018052801A007A 003370003370                                    
HR4G805292694910155390000324240                   ON2799459884  VJHCP    0078  
HR5G805292694912018052801A007A 003370003370                                    
HR5G805292694912018052801K060A 002500002500                                    
HR4G805292695010155390000324241                   ON3281139364  BYHCP    0078  
HR5G805292695012018052801A007A 003370003370                                    
HR4G805292695110155390000324242                   ON1209129392  AYHCP    0078  
HR5G805292695112018052801A007A 003370003370                                    
HR4G805292695210155390000324243                   ON8257424906  TLHCP    0078  
HR5G805292695212018052801A007A 003370003370                                    
HR5G805292695212018052801G005A 000388000388                                    
HR4G805292695310155390000324244                   ON6849407439  GGHCP    0078  
HR5G805292695312018052801A007A 003370003370                                    
HR4G805292695410155390000324245                   ON8906752954  TLHCP    0078  
HR5G805292695412018052801A007A 003370003370                                    
HR4G805292695510155390000324246                   ON5911038874  KLHCP    0078  
HR5G805292695512018052801A007A 003370003370                                    
HR4G805292695610155390000324247                   ON3022345759  WHHCP    0078  
HR5G805292695612018052801A007A 003370003370                                    
HR4G805292695710155390000324248                   ON7271196854  PBHCP    0078  
HR5G805292695712018052801A007A 003370003370                                    
HR4G805292695810155390000324249                   ON2885378261  VHHCP    0078  
HR5G805292695812018052801A007A 003370003370                                    
HR4G805292695910155390000324250                   ON6352945882  PHHCP    0078  
HR5G805292695912018052801A007A 003370003370                                    
HR4G805292696010155390000324251                   ON7188946037  RKHCP    0078  
HR5G805292696012018052801A007A 003370003370                                    
HR5G805292696012018052801G010A 000207000207                                    
HR4G805301101210155390000324292                   ON5264858977  DKHCP    0078  
HR5G805301101212018052901A007A 003370003370                                    
HR4G805301101310155390000324293                   ON1443509128  CLHCP    0078  
HR5G805301101312018052901A001A 002170002170                                    
HR5G805301101312018052901G202A 000445000445                                    
HR4G805301101410155390000324294                   ON2396815850  KPHCP    0078  
HR5G805301101412018052901A007A 003370003370                                    
HR5G805301101412018052901G845A 000450000450                                    
HR4G805301101510155390000324295                   ON1962182422  LWHCP    0078  
HR5G805301101512018052901A007A 003370003370                                    
HR4G805301101610155390000324296                   ON3724216647  LAHCP    0078  
HR5G805301101612018052901A001A 002170002170                                    
HR5G805301101612018052901G202A 000445000445                                    
HR4G805301101710155390000324297                   ON5853517414    HCP    0078  
HR5G805301101712018052901A007A 003370003370                                    
HR4G805301101810155390000324298                   ON5233372050  GAHCP    0078  
HR5G805301101812018052901A007A 003370003370                                    
HR4G805301101910155390000324299                   ON4094978881  DGHCP    0078  
HR5G805301101912018052901A007A 003370003370                                    
HR4G805301102010155390000324300                   ON7695471149  JHHCP    0078  
HR5G805301102012018052901A007A 003370003370                                    
HR5G805301102012018052901G841A 000450000450                                    
HR5G805301102012018052901G846A 000450000450                                    
HR4G805301102110155390000324301                   ON5104767891  EYHCP    0078  
HR5G805301102112018052901A007A 003370003370                                    
HR4G805301102210155390000324302                   ON4721777151  XRHCP    0078  
HR5G805301102212018052901A007A 003370003370                                    
HR4G805301102310155390000324303                   ON8922315752  LKHCP    0078  
HR5G805301102312018052901A007A 003370003370                                    
HR4G805301102410155390000324304                   ON7699098989  JEHCP    0078  
HR5G805301102412018052901A007A 003370003370                                    
HR4G805301102610155390000324306                   ON1542009848  BKHCP    0078  
HR5G805301102612018052901A007A 003370003370                                    
HR5G805301102612018052901G010A 000207000207                                    
HR4G805301102710155390000324307                   ON3977592181  RAHCP    0078  
HR5G805301102712018052901A007A 003370003370                                    
HR4G805301102810155390000324308                   ON1754397535  VCHCP    0078  
HR5G805301102812018052901A001A 002170002170                                    
HR5G805301102812018052901G372A 000389000389                                    
HR4G805301102910155390000324309                   ON7081480910  WDHCP    0078  
HR5G805301102912018052901A007A 003370003370                                    
HR4G805301103010155390000324310                   ON6358910484  MBHCP    0078  
HR5G805301103012018052901A007A 003370003370                                    
HR4G805301103110155390000324311                   ON4412945950    HCP    0078  
HR5G805301103112018052901A007A 003370003370 EV                                 
HR4G805301103210155390000324312                   ON8681434109  WRHCP    0078  
HR5G805301103212018052901A007A 003370003370                                    
HR4G805301103310155390000324313                   ON2832032524  JTHCP    0078  
HR5G805301103312018052901A007A 003370003370                                    
HR4G805301103410155390000324314                   ON2437852821  FPHCP    0078  
HR5G805301103412018052901A007A 003370003370                                    
HR4G805301103510155390000324315                   ON2736133287  AKHCP    0078  
HR5G805301103512018052901A007A 003370003370                                    
HR4G805301103610155390000324316                   ON7171104834  EWHCP    0078  
HR5G805301103612018052901A007A 003370003370                                    
HR4G805301103710155390000324317                   ON5383960845  WKHCP    0078  
HR5G805301103712018052901A007A 003370003370                                    
HR5G805301103712018052901G010A 000207000207                                    
HR4G805301103810155390000324318                   ON7551128841  RHHCP    0078  
HR5G805301103812018052901A007A 003370003370                                    
HR4G805301103910155390000324319                   ON5595145722  GTHCP    0078  
HR5G805301103912018052901A007A 003370003370                                    
HR5G805301103912018052901G372A 000389000389                                    
HR4G805301104010155390000324320                   ON8491221878  RXHCP    0078  
HR5G805301104012018052901A007A 003370003370                                    
HR4G805301104110155390000324321                   ON2737854279  RTHCP    0078  
HR5G805301104112018052901A007A 003370003370                                    
HR4G805301104210155390000324322                   ON3459124867  RDHCP    0078  
HR5G805301104212018052901A007A 003370003370                                    
HR5G805301104212018052901G010A 000207000207                                    
HR4G805301104310155390000324323                   ON5988276712  LVHCP    0078  
HR5G805301104312018052901A007A 003370003370                                    
HR4G805301104410155390000324324                   ON9015959704  FBHCP    0078  
HR5G805301104412018052901A007A 003370003370                                    
HR4G805301104510155390000324325                   ON3718063930  ANHCP    0078  
HR5G805301104512018052901A007A 003370003370                                    
HR4G805301104610155390000324326                   ON4542404779  AHHCP    0078  
HR5G805301104612018052901A007A 003370003370                                    
HR5G805301104612018052901G010A 000207000207                                    
HR4G805301104710155390000324327                   ON4117436545  KTHCP    0078  
HR5G805301104712018052901A007A 003370003370                                    
HR4G805301104810155390000324328                   ON5698978268  LVHCP    0078  
HR5G805301104812018052901A007A 003370003370                                    
HR4G805301104910155390000324329                   ON1853977872  VHHCP    0078  
HR5G805301104912018052901A007A 003370003370                                    
HR4G805301105010155390000324330                   ON8907041118  CKHCP    0078  
HR5G805301105012018052901A007A 003370003370                                    
HR4G805301105110155390000324331                   ON3992917249  KXHCP    0078  
HR5G805301105112018052901A007A 003370003370                                    
HR4G805301105210155390000324332                   ON1021056815  TRHCP    0078  
HR5G805301105212018052901A007A 003370003370                                    
HR4G805301105310155390000324333                   ON6149495829  RLHCP    0078  
HR5G805301105312018052901A007A 003370003370                                    
HR4G805301105410155390000324334                   ON7948685669  JDHCP    0078  
HR5G805301105412018052901A007A 003370003370                                    
HR5G805301105412018052902G372A 000778000778                                    
HR4G805301105510155390000324335                   ON1309973806  NMHCP    0078  
HR5G805301105512018052901A007A 003370003370                                    
HR4G805301105610155390000324336                   ON7347554656  XRHCP    0078  
HR5G805301105612018052901A007A 003370003370                                    
HR4G805301105710155390000324337                   ON6867262088  GAHCP    0078  
HR5G805301105712018052901A007A 003370003370                                    
HR4G805301105810155390000324338                   ON5928475622  FTHCP    0078  
HR5G805301105812018052901A007A 003370003370                                    
HR4G805301105910155390000324339                   ON4819474950  VWHCP    0078  
HR5G805301105912018052901A001A 002170002170                                    
HR4G805301106010155390000324340                   ON2211486796  HTHCP    0078  
HR5G805301106012018052901A007A 003370003370                                    
HR4G805301106110155390000324341                   ON7965718625  EEHCP    0078  
HR5G805301106112018052901A007A 003370003370                                    
HR4G805301106210155390000324342                   ON4705805770  GAHCP    0078  
HR5G805301106212018052901A007A 003370003370                                    
HR4G805301106310155390000324343                   ON9411601827  FAHCP    0078  
HR5G805301106312018052901A007A 003370003370                                    
HR4G805301106410155390000324344                   ON1705934865  KTHCP    0078  
HR5G805301106412018052901A007A 003370003370                                    
HR4G805301106510155390000324345                   ON2177198815  GVHCP    0078  
HR5G805301106512018052901A007A 003370003370                                    
HR4G805301106610155390000324346                   ON3600241461  HEHCP    0078  
HR5G805301106612018052901A007A 003370003370                                    
HR4G805301106710155390000324347                   ON1421705334  WMHCP    0078  
HR5G805301106712018052901A007A 003370003370                                    
HR4G805301106810155390000324348                   ON1988083570  GHHCP    0078  
HR5G805301106812018052901A007A 003370003370                                    
HR4G805026252910163730000322317                   ON2672882459  JDHCP    0078  
HR5G805026252912018042801A007A 003370003370                                    
HR4G805026253010163730000322318                   ON1828009116  CGHCP    0078  
HR5G805026253012018042801A001A 002170002170                                    
HR5G805026253012018042801G420A 001125001125                                    
HR4G805026253110163730000322319                   ON1370140251  AXHCP    0078  
HR5G805026253112018042801A007A 003370003370                                    
HR4G805026253210163730000322320                   ON1903424636  DGHCP    0078  
HR5G805026253212018042801A007A 003370003370                                    
HR5G805026253212018042801G010A 000207000207                                    
HR4G805026253310163730000322321                   ON4725629325  PWHCP    0078  
HR5G805026253312018042801A007A 003370003370                                    
HR4G805026253410163730000322322                   ON3928095771  TCHCP    0078  
HR5G805026253412018042801A007A 003370003370                                    
HR4G805026253510163730000322323                   ON1309973806  NMHCP    0078  
HR5G805026253512018042801A007A 003370003370                                    
HR4G805026253610163730000322324                   ON7060709917  ERHCP    0078  
HR5G805026253612018042801A007A 003370003370                                    
HR4G805026253710163730000322325                   ON2741898536  NAHCP    0078  
HR5G805026253712018042801A001A 002170002170                                    
HR4G805026253810163730000322326                   ON3150223505  FEHCP    0078  
HR5G805026253812018042801A007A 003370003370                                    
HR4G805026253910163730000322327                   ON4501718961  GJHCP    0078  
HR5G805026253912018042801A007A 003370003370                                    
HR4G805026254010163730000322328                   ON6072481564  TLHCP    0078  
HR5G805026254012018042801A007A 003370003370                                    
HR4G805026254110163730000322329                   ON6681314958  FYHCP    0078  
HR5G805026254112018042801A007A 003370003370                                    
HR4G805026254210163730000322330                   ON7142560924  JGHCP    0078  
HR5G805026254212018042801A007A 003370003370                                    
HR4G805026254310163730000322331                   ON7479083516    HCP    0078  
HR5G805026254312018042801A007A 003370003370                                    
HR4G805026254410163730000322332                   ON3434582148  WNHCP    0078  
HR5G805026254412018042801A007A 003370003370                                    
HR4G805026254510163730000322334                   ON1216096964  KVHCP    0078  
HR5G805026254512018042801A007A 003370003370                                    
HR4G805026254610163730000322335                   ON2197073170  DKHCP    0078  
HR5G805026254612018042801A007A 003370003370                                    
HR4G805026254710163730000322336                   ON1274290988  RPHCP    0078  
HR5G805026254712018042801A007A 003370003370                                    
HR4G805026254810163730000322337                   ON2888238959  KKHCP    0078  
HR5G805026254812018042801A007A 003370003370                                    
HR4G805026254910163730000322338                   ON8908034856  EAHCP    0078  
HR5G805026254912018042801A007A 003370003370                                    
HR5G805026254912018042801G420A 001125001125                                    
HR4G805026255010163730000322339                   ON7689462419  DKHCP    0078  
HR5G805026255012018042801A007A 003370003370                                    
HR4G805026255110163730000322340                   ON4391647478  NYHCP    0078  
HR5G805026255112018042801A007A 003370003370                                    
HR4G805026255210163730000322341                   ON8849758399  KKHCP    0078  
HR5G805026255212018042801A007A 003370003370                                    
HR4G805026255310163730000322342                   ON7273169107  HHHCP    0078  
HR5G805026255312018042801A001A 002170002170                                    
HR5G805026255312018042801G372A 000389000389                                    
HR4G805026255410163730000322343                   ON1764143002  HKHCP    0078  
HR5G805026255412018042801A007A 003370003370                                    
HR4G805026255510163730000322344                   ON8659876521  MXHCP    0078  
HR5G805026255512018042801A007A 003370003370                                    
HR4G805026255610163730000322345                   ON5877973684  YPHCP    0078  
HR5G805026255612018042801A003A 007720007720                                    
HR4G805026255710163730000322346                   ON7402181098  EYHCP    0078  
HR5G805026255712018042801A007A 003370003370                                    
HR4G805026255810163730000322347                   ON8287903812  AWHCP    0078  
HR5G805026255812018042801A007A 003370003370                                    
HR4G805026255910163730000322348                   ON9013209748  FRHCP    0078  
HR5G805026255912018042801A007A 003370003370                                    
HR4G805026256010163730000322349                   ON4693472278  RJHCP    0078  
HR5G805026256012018042801A007A 003370003370                                    
HR4G805026256110163730000322350                   ON8528631636  DHHCP    0078  
HR5G805026256112018042801A007A 003370003370                                    
HR4G805026252810163730000322351                   ON1547720688  HFHCP    0078  
HR5G805026252812018041401G372A 000389000389                                    
HR4G805026256210163730000322352                   ON4725972600  PTHCP    0078  
HR5G805026256212018042801A007A 003370003370                                    
HR4G805026256310163730000322353                   ON6885919875  JMHCP    0078  
HR5G805026256312018042801A007A 003370003370                                    
HR4G805026256410163730000322354                   ON4860149626  WEHCP    0078  
HR5G805026256412018042801K013A 006275006275                                    
HR4G805026256510163730000322356                   ON7893506332  AXHCP    0078  
HR5G805026256512018042801A007A 003370003370                                    
HR4G805026256610163730000322357                   ON9129227667  MWHCP    0078  
HR5G805026256612018042801A007A 003370003370                                    
HR4G805026256710163730000322358                   ON7269357625  GLHCP    0078  
HR5G805026256712018042801A007A 003370003370                                    
HR4G805077155110163730000322765                   ON2076251947  MTHCP    0078  
HR5G805077155112018050501A007A 003370003370                                    
HR4G805077155210163730000322766                   ON6524525919  GBHCP    0078  
HR5G805077155212018050501A007A 003370003370                                    
HR4G805077155310163730000322767                   ON8726777447  AVHCP    0078  
HR5G805077155312018050501A007A 003370003370                                    
HR4G805077155410163730000322768                   ON8239139903  XMHCP    0078  
HR5G805077155412018050501A007A 003370003370                                    
HR4G805077155510163730000322769                   ON8808547346  TGHCP    0078  
HR5G805077155512018050501A007A 003370003370                                    
HR5G805077155512018050501G010A 000207000207                                    
HR4G805077155610163730000322770                   ON1989199870  TCHCP    0078  
HR5G805077155612018050501K028A 006275006275                                    
HR4G805077155710163730000322771                   ON2534874348  EWHCP    0078  
HR5G805077155712018050501A007A 003370003370                                    
HR5G805077155712018050501G372A 000389000389                                    
HR4G805077155810163730000322772                   ON7791218782  KKHCP    0078  
HR5G805077155812018050501K028A 006275006275                                    
HR4G805077155910163730000322773                   ON7603412722  VFHCP    0078  
HR5G805077155912018050501A007A 003370003370                                    
HR4G805077156010163730000322774                   ON5120953137  TRHCP    0078  
HR5G805077156012018050501A007A 003370003370                                    
HR4G805077156110163730000322775                   ON5513188879  FNHCP    0078  
HR5G805077156112018050501A007A 003370003370                                    
HR5G805077156112018050501G010A 000207000207                                    
HR4G805077156210163730000322776                   ON5493638802  XYHCP    0078  
HR5G805077156212018050501A007A 003370003370                                    
HR4G805077156310163730000322777                   ON4030999710  THHCP    0078  
HR5G805077156312018050501A007A 003370003370                                    
HR5G805077156312018050501G010A 000207000207                                    
HR4G805077156410163730000322778                   ON2690624818  XCHCP    0078  
HR5G805077156412018050501A007A 003370003370                                    
HR4G805077156510163730000322779                   ON9897216470  TDHCP    0078  
HR5G805077156512018050501A001A 002170002170                                    
HR5G805077156512018050501G202A 000445000445                                    
HR4G805077156610163730000322780                   ON4534439254  CKHCP    0078  
HR5G805077156612018050501A007A 003370003370                                    
HR4G805077156710163730000322781                   ON1382485223  CVHCP    0078  
HR5G805077156712018050501G010A 000207000207                                    
HR5G805077156712018050501K013A 006275006275                                    
HR4G805077156810163730000322782                   ON5623281515  RRHCP    0078  
HR5G805077156812018050501A007A 003370003370                                    
HR5G805077156812018050501G010A 000207000207                                    
HR4G805077156910163730000322783                   ON9980294582  TWHCP    0078  
HR5G805077156912018050501K028A 006275006275                                    
HR4G805077157010163730000322785                   ON3657091421  PGHCP    0078  
HR5G805077157012018050501A007A 003370003370                                    
HR4G805077157110163730000322786                   ON8744847842  YMHCP    0078  
HR5G805077157112018050501A007A 003370003370                                    
HR4G805077157210163730000322787                   ON7996240383  DWHCP    0078  
HR5G805077157212018050501A001A 002170002170                                    
HR4G805077157310163730000322788                   ON9312294656  JVHCP    0078  
HR5G805077157312018050501A007A 003370003370                                    
HR4G805077157410163730000322789                   ON4971685302  BNHCP    0078  
HR5G805077157412018050501A007A 003370003370                                    
HR4G805077157510163730000322790                   ON6435779696  LXHCP    0078  
HR5G805077157512018050501A001A 002170002170                                    
HR5G805077157512018050501G202A 000445000445                                    
HR4G805077157610163730000322791                   ON7818432903  EGHCP    0078  
HR5G805077157612018050501A001A 002170002170                                    
HR4G805077157710163730000322792                   ON8335344811  PKHCP    0078  
HR5G805077157712018050501A001A 002170002170                                    
HR5G805077157712018050501G372A 000389000389                                    
HR4G805077157810163730000322793                   ON5879539616  CPHCP    0078  
HR5G805077157812018050501A001A 002170002170                                    
HR4G805077157910163730000322794                   ON4958088306  XLHCP    0078  
HR5G805077157912018050501A007A 003370003370                                    
HR4G805077158010163730000322795                   ON1254665829  LLHCP    0078  
HR5G805077158012018050501A001A 002170002170                                    
HR5G805077158012018050501G372A 000389000389                                    
HR4G805077158110163730000322796                   ON3658840842  CFHCP    0078  
HR5G805077158112018050501A007A 003370003370                                    
HR4G805077158210163730000322797                   ON1037696703  CVHCP    0078  
HR5G805077158212018050501A007A 003370003370                                    
HR5G805077158212018050501G420A 001125001125                                    
HR4G805077158310163730000322798                   ON2759983816  HJHCP    0078  
HR5G805077158312018050501A007A 003370003370                                    
HR4G805144452410163730000323230                   ON8573533240  PDHCP    0078  
HR5G805144452412018051201A003A 007720007720                                    
HR4G805144452510163730000323231                   ON9763347045  GKHCP    0078  
HR5G805144452512018051201A007A 003370003370                                    
HR4G805144452610163730000323232                   ON6357987913  YXHCP    0078  
HR5G805144452612018051201A007A 003370003370                                    
HR4G805144452710163730000323233                   ON1226725982  HKHCP    0078  
HR5G805144452712018051201A007A 003370003370                                    
HR4G805144452810163730000323234                   ON7453000296  MVHCP    0078  
HR5G805144452812018051201A007A 003370003370                                    
HR4G805144452910163730000323235                   ON7524704835  GRHCP    0078  
HR5G805144452912018051201A007A 003370003370                                    
HR4G805144453010163730000323236                   ON4301947174  HNHCP    0078  
HR5G805144453012018051201A007A 003370003370                                    
HR4G805144453110163730000323237                   ON4765748019  VWHCP    0078  
HR5G805144453112018051201A007A 003370003370                                    
HR4G805144453210163730000323238                   ON9510535579  FNHCP    0078  
HR5G805144453212018051201A007A 003370003370                                    
HR4G805144453310163730000323239                   ON4716125499  DVHCP    0078  
HR5G805144453312018051201A007A 003370003370                                    
HR4G805144453410163730000323240                   ON8744847842  YMHCP    0078  
HR5G805144453412018051201A007A 003370003370                                    
HR5G805144453412018051201G840A 000450000450                                    
HR5G805144453412018051201G845A 000450000450                                    
HR4G805144453510163730000323242                   ON9102684983  CJHCP    0078  
HR5G805144453512018051201A007A 003370003370                                    
HR4G805144453610163730000323243                   ON8895426891  HFHCP    0078  
HR5G805144453612018051201A007A 003370003370                                    
HR4G805144453710163730000323244                   ON6233620514  GDHCP    0078  
HR5G805144453712018051201A007A 003370003370                                    
HR4G805144453810163730000323245                   ON4416871095  NEHCP    0078  
HR5G805144453812018051201A001A 002170002170                                    
HR4G805144453910163730000323246                   ON6290330015  KWHCP    0078  
HR5G805144453912018051201A007A 003370003370                                    
HR4G805144454010163730000323247                   ON8415639791  AWHCP    0078  
HR5G805144454012018051201A007A 003370003370                                    
HR4G805144454110163730000323248                   ON3097634244  JNHCP    0078  
HR5G805144454112018051201A007A 003370003370                                    
HR4G805144454210163730000323249                   ON5521937218  JEHCP    0078  
HR5G805144454212018051201A007A 003370003370                                    
HR4G805144454310163730000323250                   ON3073096095  DHHCP    0078  
HR5G805144454312018051201A007A 003370003370                                    
HR5G805144454312018051201G010A 000207000207                                    
HR4G805144454410163730000323251                   ON9897216470  TDHCP    0078  
HR5G805144454412018051201A001A 002170002170                                    
HR5G805144454412018051201G202A 000445000445                                    
HR4G805144454510163730000323252                   ON6435779696  LXHCP    0078  
HR5G805144454512018051201A001A 002170002170                                    
HR5G805144454512018051201G202A 000445000445                                    
HR4G805144454610163730000323253                   ON9190700766  EGHCP    0078  
HR5G805144454612018051201A007A 003370003370                                    
HR4G805144454710163730000323254                   ON8680262808  LDHCP    0078  
HR5G805144454712018051201A007A 003370003370                                    
HR4G805144454810163730000323255                   ON7299965009  NCHCP    0078  
HR5G805144454812018051201A007A 003370003370                                    
HR5G805144454812018051201G010A 000207000207                                    
HR4G805144454910163730000323256                   ON1059146090  RTHCP    0078  
HR5G805144454912018051201A007A 003370003370                                    
HR4G817220094810163730000323681                   ON8253244092  LWHCP    0078  
HR5G817220094812018051901A007A 003370003370                                    
HR4G817220094910163730000323682                   ON2719004240  KNHCP    0078  
HR5G817220094912018051901A007A 003370003370                                    
HR4G817220095010163730000323683                   ON4125325151  WGHCP    0078  
HR5G817220095012018051901A007A 003370003370                                    
HR4G817220095110163730000323684                   ON6435779696  LXHCP    0078  
HR5G817220095112018051901A001A 002170002170                                    
HR5G817220095112018051901G202A 000445000445                                    
HR4G817220095210163730000323685                   ON7293901554  DBHCP    0078  
HR5G817220095212018051901A007A 003370003370                                    
HR4G817220095310163730000323686                   ON6204341389  CCHCP    0078  
HR5G817220095312018051901A007A 003370003370                                    
HR4G817220095410163730000323687                   ON7765950766  HTHCP    0078  
HR5G817220095412018051901A007A 003370003370                                    
HR4G817220095510163730000323688                   ON9907188628  PEHCP    0078  
HR5G817220095512018051901A007A 003370003370                                    
HR4G817220095610163730000323689                   ON3252923341  DAHCP    0078  
HR5G817220095612018051901A007A 003370003370                                    
HR4G817220095710163730000323690                   ON8573533240  PDHCP    0078  
HR5G817220095712018051901A007A 003370003370                                    
HR4G817220095810163730000323691                   ON2403587070  YYHCP    0078  
HR5G817220095812018051901A007A 003370003370                                    
HR4G817220095910163730000323692                   ON7872256586  REHCP    0078  
HR5G817220095912018051901A007A 003370003370                                    
HR4G817220096010163730000323694                   ON9279380621  XVHCP    0078  
HR5G817220096012018051901A007A 003370003370                                    
HR4G817220096110163730000323695                   ON3608535096  XCHCP    0078  
HR5G817220096112018051901A001A 002170002170                                    
HR4G817220096210163730000323696                   ON2298572138  CEHCP    0078  
HR5G817220096212018051901A007A 003370003370                                    
HR4G817220096310163730000323697                   ON6916638312  PJHCP    0078  
HR5G817220096312018051901A007A 003370003370                                    
HR5G817220096312018051901G010A 000207000207                                    
HR4G817220096410163730000323698                   ON1791781618  WGHCP    0078  
HR5G817220096412018051901A007A 003370003370                                    
HR4G817220096510163730000323699                   ON4958095483  HYHCP    0078  
HR5G817220096512018051901A001A 002170002170                                    
HR4G817220096610163730000323700                   ON4906459955  BDHCP    0078  
HR5G817220096612018051901A007A 003370003370                                    
HR4G817220096710163730000323701                   ON3627443942  YYHCP    0078  
HR5G817220096712018051901A001A 002170002170                                    
HR5G817220096712018051901G202A 000445000445                                    
HR4G817220096810163730000323702                   ON9607961258  TTHCP    0078  
HR5G817220096812018051901A001A 002170002170                                    
HR4G817220096910163730000323703                   ON9897216470  TDHCP    0078  
HR5G817220096912018051901A001A 002170002170                                    
HR5G817220096912018051901G202A 000445000445                                    
HR4G817220097010163730000323704                   ON9997446506  AKHCP    0078  
HR5G817220097012018051901A007A 003370003370                                    
HR4G817220097110163730000323705                   ON1935499473  KCHCP    0078  
HR5G817220097112018051901A007A 003370003370                                    
HR4G817220097210163730000323706                   ON4900368335  VYHCP    0078  
HR5G817220097212018051901A007A 003370003370                                    
HR4G817220097310163730000323707                   ON3601097870  GLHCP    0078  
HR5G817220097312018051901A007A 003370003370                                    
HR4G817220097410163730000323708                   ON8392280213  JPHCP    0078  
HR5G817220097412018051901A007A 003370003370                                    
HR4G817220097510163730000323709                   ON9190700766  EGHCP    0078  
HR5G817220097512018051901A001A 002170002170                                    
HR5G817220097512018051901G372A 000389000389                                    
HR4G817220097610163730000323710                   ON8680262808  LDHCP    0078  
HR5G817220097612018051901K005A 006275006275                                    
HR4G817220097710163730000323712                   ON1705934865  KTHCP    0078  
HR5G817220097712018051901A007A 003370003370                                    
HR5G817220097712018051901E430A 001155001155                                    
HR5G817220097712018051901G365A 000675000675                                    
HR4G817220097810163730000323713                   ON6277341316  EYHCP    0078  
HR5G817220097812018051901A007A 003370003370                                    
HR4G817220097910163730000323714                   ON3410289320  FTHCP    0078  
HR5G817220097912018051901A007A 003370003370                                    
HR4G817220098010163730000323715                   ON5834348046  VGHCP    0078  
HR5G817220098012018051901A007A 003370003370                                    
HR4G817220098110163730000323716                   ON8189316683  XGHCP    0078  
HR5G817220098112018051901A007A 003370003370                                    
HR4G817220098210163730000323717                   ON3326822552  BYHCP    0078  
HR5G817220098212018051901A007A 003370003370                                    
HR5G817220098212018051901G010A 000207000207                                    
HR4G817220098310163730000323718                   ON7612340229  NRHCP    0078  
HR5G817220098312018051901A007A 003370003370                                    
HR4G817220098410163730000323719                   ON5135869906  FJHCP    0078  
HR5G817220098412018051901A001A 002170002170                                    
HR5G817220098412018051901G845A 000450000450                                    
HR4G817220098510163730000323720                   ON5368112586  LEHCP    0078  
HR5G817220098512018051901A007A 003370003370                                    
HR4G817220098610163730000323721                   ON3143907057  KMHCP    0078  
HR5G817220098612018051901A007A 003370003370                                    
HR4G817220098710163730000323722                   ON1237453210  WJHCP    0078  
HR5G817220098712018051901A007A 003370003370                                    
HR4G817220098810163730000323723                   ON7299965009  FYHCP    0078  
HR5G817220098812018051901A007A 003370003370                                    
HR5G817220098812018051901G010A 000207000207                                    
HR4G817220098910163730000323724                   ON6105298142  CEHCP    0078  
HR5G817220098912018051901A007A 003370003370                                    
HR4G805283124710163730000324063                   ON4396351266  JKHCP    0078  
HR5G805283124712018052601A003A 007720007720                                    
HR5G805283124712018052601G005A 000388000388                                    
HR4G805283124810163730000324064                   ON2237323452  GBHCP    0078  
HR5G805283124812018052601A007A 003370003370                                    
HR4G805283124910163730000324065                   ON1539401412  MKHCP    0078  
HR5G805283124912018052601A007A 003370003370                                    
HR4G805283125010163730000324066                   ON4542404779  AHHCP    0078  
HR5G805283125012018052601A007A 003370003370                                    
HR4G805283125110163730000324067                   ON5884470039  JTHCP    0078  
HR5G805283125112018052601A007A 003370003370                                    
HR4G805283125210163730000324068                   ON7772929118  DFHCP    0078  
HR5G805283125212018052601K028A 006275006275                                    
HR4G805283125310163730000324069                   ON4576110334  XDHCP    0078  
HR5G805283125312018052601A007A 003370003370                                    
HR4G805283125410163730000324070                   ON8573533240  PDHCP    0078  
HR5G805283125412018052601A007A 003370003370                                    
HR4G805283125510163730000324071                   ON5046826748  VVHCP    0078  
HR5G805283125512018052601A007A 003370003370                                    
HR4G805283125610163730000324072                   ON2927930236    HCP    0078  
HR5G805283125612018052601A007A 003370003370                                    
HR4G805283125710163730000324073                   ON3112604255  PBHCP    0078  
HR5G805283125712018052601A007A 003370003370                                    
HR4G805283125810163730000324074                   ON3767682424  JJHCP    0078  
HR5G805283125812018052601A007A 003370003370                                    
HR4G805283125910163730000324075                   ON3170499085  PRHCP    0078  
HR5G805283125912018052601A007A 003370003370                                    
HR4G805283126010163730000324076                   ON9808183017  GGHCP    0078  
HR5G805283126012018052601A001A 002170002170                                    
HR4G805283126110163730000324077                   ON2135268569  TTHCP    0078  
HR5G805283126112018052601A003A 007720007720                                    
HR4G805283126210163730000324078                   ON6640153844  FLHCP    0078  
HR5G805283126212018052601A007A 003370003370                                    
HR4G805283126310163730000324079                   ON6213926857  RLHCP    0078  
HR5G805283126312018052601A007A 003370003370                                    
HR4G805283126410163730000324080                   ON1344684228  WLHCP    0078  
HR5G805283126412018052601A007A 003370003370                                    
HR4G805283126510163730000324081                   ON1254665829  LLHCP    0078  
HR5G805283126512018052601A001A 002170002170                                    
HR5G805283126512018052601G372A 000389000389                                    
HR4G805283126610163730000324082                   ON1795951456  WBHCP    0078  
HR5G805283126612018052601A007A 003370003370                                    
HR5G805283126612018052601E430A 001155001155                                    
HR5G805283126612018052601G365A 000675000675                                    
HR4G805283126710163730000324083                   ON4391647478  NYHCP    0078  
HR5G805283126712018052601A007A 003370003370                                    
HR4G805283126810163730000324084                   ON7869358551  DYHCP    0078  
HR5G805283126812018052601A007A 003370003370                                    
HR4G805283126910163730000324085                   ON4938465889  KKHCP    0078  
HR5G805283126912018052601A007A 003370003370                                    
HR4G805283127010163730000324086                   ON2473425862  XCHCP    0078  
HR5G805283127012018052601A001A 002170002170                                    
HR5G805283127012018052601G372A 000389000389                                    
HR4G805283127110163730000324087                   ON6448119377  ELHCP    0078  
HR5G805283127112018052601A007A 003370003370                                    
HR4G805283127210163730000324088                   ON4624057586  TDHCP    0078  
HR5G805283127212018052601A001A 002170002170                                    
HR4G805283127310163730000324089                   ON8715827625  MJHCP    0078  
HR5G805283127312018052601A007A 003370003370                                    
HR4G805283127410163730000324090                   ON2517913287  AVHCP    0078  
HR5G805283127412018052601A007A 003370003370                                    
HR4G805283127510163730000324091                   ON5324661403  MCHCP    0078  
HR5G805283127512018052601A007A 003370003370                                    
HR4G805283127610163730000324092                   ON5494235152  RMHCP    0078  
HR5G805283127612018052601A007A 003370003370                                    
HR4G805283127710163730000324093                   ON9336804084  LYHCP    0078  
HR5G805283127712018052601A007A 003370003370                                    
HR5G805283127712018052601G420A 001125001125                                    
HR4G805283127810163730000324094                   ON9728157323  CPHCP    0078  
HR5G805283127812018052601A007A 003370003370                                    
HR4G805283127910163730000324095                   ON3097634244  JNHCP    0078  
HR5G805283127912018052601A007A 003370003370                                    
HR5G805283127912018052601G010A 000207000207                                    
HR4G805283128010163730000324096                   ON3488612692  XAHCP    0078  
HR5G805283128012018052601A001A 002170002170                                    
HR4G805283128110163730000324097                   ON1708036577  VWHCP    0078  
HR5G805283128112018052601A007A 003370003370                                    
HR4G805283128210163730000324098                   ON6279579582  NVHCP    0078  
HR5G805283128212018052601A007A 003370003370                                    
HR4G805283128310163730000324099                   ON1449674439  NRHCP    0078  
HR5G805283128312018052601A007A 003370003370                                    
HR4G805283128410163730000324100                   ON3056104353  TWHCP    0078  
HR5G805283128412018052601K005A 006275006275                                    
HR4G805283128510163730000324101                   ON8491221878  RXHCP    0078  
HR5G805283128512018052601A007A 003370003370                                    
HR4G805283128610163730000324102                   ON6435779696  LXHCP    0078  
HR5G805283128612018052601A007A 003370003370                                    
HR5G805283128612018052601G202A 000445000445                                    
HR4G805026246310223370000322287                   ON2837761879  RCHCP    0078  
HR5G805026246312018042701A001A 002170002170                                    
HR4G805026246410223370000322288                   ON9897216470  TDHCP    0078  
HR5G805026246412018042701A001A 002170002170                                    
HR5G805026246412018042701G202A 000445000445                                    
