HR1V030007800000000H720180713STONEY CREEK MEDICAL WALK IN C006113082 99999999  
HR2                              2A - 140 CENTENNIAL PARKW                     
HR3HAMILTON        ON L8E1H9                                                   
HR4G81811051951015539000004OKXR                   ON4526880176  GEHCP    0078  
HR5G818110519512018061001A001A 002170002170                                    
HR5G818110519512018061001G372A 000389000389                                    
HR4G81811052071015539000004OKXT                   ON6538049534  YJHCP    0078  
HR5G818110520712018061001A007A 003370003370                                    
HR4G81811052291015539000004OKXU                   ON7125609292  VWHCP    0078  
HR5G818110522912018061001A007A 003370003370                                    
HR4G81811052161015539000004OKXV                   ON2695551313  RVHCP    0078  
HR5G818110521612018061001A007A 003370003370                                    
HR4G81811051991015539000004OKXW                   ON4739969931  XVHCP    0078  
HR5G818110519912018061001A003A 007720007720                                    
HR4G81811052031015539000004OKXY                   ON3126432032  XVHCP    0078  
HR5G818110520312018061001A007A 003370003370                                    
HR4G81811052121015539000004OKXZ                   ON2162934372  YHHCP    0078  
HR5G818110521212018061001A007A 003370003370                                    
HR4G81811052011015539000004OKYB                   ON8291178252  LCHCP    0078  
HR5G818110520112018061001A007A 003370003370                                    
HR5G818110520112018061001G840A 000450000450                                    
HR4G80614592011015539000004OKYC                   ON5818773565  ACHCP    0078  
HR5G806145920112018061001A007A 003370003370                                    
HR4G81811052271015539000004OKYD                   ON6714745152  VJHCP    0078  
HR5G818110522712018061001A007A 003370003370                                    
HR4G81811052251015539000004OKYF                   ON6996646334  LLHCP    0078  
HR5G818110522512018061001A007A 003370003370                                    
HR4G81811052301015539000004OKYG                   ON8697818394  RHHCP    0078  
HR5G818110523012018061001A007A 003370003370                                    
HR4G81811051871015539000004OKYH                   ON9273191818  MGHCP    0078  
HR5G818110518712018061001A007A 003370003370                                    
HR4G80614592231015539000004OKYI                   ON6094691067  LVHCP    0078  
HR5G806145922312018061001A007A 003370003370                                    
HR4G81811052181015539000004OKYJ                   ON7362569068  ECHCP    0078  
HR5G818110521812018061001A007A 003370003370                                    
HR4G81811052281015539000004OKYL                   ON1589218203  TKHCP    0078  
HR5G818110522812018061001A007A 003370003370                                    
HR4G81811052101015539000004OKYM                   ON6154119785  XYHCP    0078  
HR5G818110521012018061001A007A 003370003370                                    
HR4G81811051971015539000004OKYN                   ON3471197388  DWHCP    0078  
HR5G818110519712018061001A007A 003370003370                                    
HR4G80614592111015539000004OKYP                   ON2141805503  LWHCP    0078  
HR5G806145921112018061001A007A 003370003370                                    
HR4G80614592321015539000004OKYQ                   ON3536769023  TGHCP    0078  
HR5G806145923212018061001A007A 003370003370                                    
HR4G81811051881015539000004OKYR                   ON4288779954  YVHCP    0078  
HR5G818110518812018061001A007A 003370003370                                    
HR4G81811052091015539000004OKYT                   ON2728245990  XLHCP    0078  
HR5G818110520912018061001A007A 003370003370                                    
HR4G81811052311015539000004OKYW                   ON5994730868  KTHCP    0078  
HR5G818110523112018061001A007A 003370003370                                    
HR5G818110523112018061001Q150A 000700000700                                    
HR4G81811052111015539000004OKYX                   ON5423578839  DYHCP    0078  
HR5G818110521112018061001A003A 007720007720                                    
HR4G80614592131015539000004OKYY                   ON5025737163  VAHCP    0078  
HR5G806145921312018061001A007A 003370003370                                    
HR4G81811051911015539000004OKYZ                   ON2848037814  EEHCP    0078  
HR5G818110519112018061001A007A 003370003370                                    
HR5G818110519112018061001G010A 000207000207                                    
HR5G818110519112018061001Q150A 000700000700                                    
HR4G81811052051015539000004OKY0                   ON4689731729  GYHCP    0078  
HR5G818110520512018061001A007A 003370003370                                    
HR4G81811052081015539000004OKY1                   ON1246644916  LGHCP    0078  
HR5G818110520812018061001A007A 003370003370                                    
HR4G81811051901015539000004OKY2                   ON7656525628  FRHCP    0078  
HR5G818110519012018061001A007A 003370003370                                    
HR5G818110519012018061001G010A 000207000207                                    
HR4G80614592241015539000004OKY3                   ON1945347241  JGHCP    0078  
HR5G806145922412018061001A007A 003370003370                                    
HR4G81811052021015539000004OKY4                   ON2764329153  YXHCP    0078  
HR5G818110520212018061001A007A 003370003370                                    
HR4G81811051941015539000004OKY6                   ON9724373221  DHHCP    0078  
HR5G818110519412018061001A007A 003370003370                                    
HR5G818110519412018061001G841A 000450000450                                    
HR4G80615576361015539000004OKY7                   ON3613262926  CFHCP    0078  
HR5G806155763612018061001A007A 003370003370                                    
HR4G81811052001015539000004OKY8                   ON5768729542  KDHCP    0078  
HR5G818110520012018061001A007A 003370003370                                    
HR4G81811051961015539000004OKZ1                   ON5667892409  JFHCP    0078  
HR5G818110519612018061001A007A 003370003370                                    
HR4G81811052151015539000004OKZ2                   ON8896168401  XWHCP    0078  
HR5G818110521512018061001A007A 003370003370                                    
HR4G80614592001015539000004OKZ3                   ON2341145817  WAHCP    0078  
HR5G806145920012018061001A007A 003370003370                                    
HR4G81811052241015539000004OKZ4                   ON3970794370  MFHCP    0078  
HR5G818110522412018061001A003A 007720007720                                    
HR4G81811052201015539000004OKZ5                   ON6479297969  RBHCP    0078  
HR5G818110522012018061001A007A 003370003370                                    
HR4G81811051891015539000004OKZ6                   ON6599373237  JGHCP    0078  
HR5G818110518912018061001A007A 003370003370                                    
HR4G81811052191015539000004OKZ7                   ON6517113178  YPHCP    0078  
HR5G818110521912018061001A007A 003370003370                                    
HR4G81811052231015539000004OKZ8                   ON6475977127  JDHCP    0078  
HR5G818110522312018061001A007A 003370003370                                    
HR4G81811052221015539000004OKZ9                   ON9912055622  JMHCP    0078  
HR5G818110522212018061001A007A 003370003370                                    
HR4G80613587011015539000004OLYU                   ON9510871040  FHHCP    0078  
HR5G806135870112018061001A007A 003370003370                                    
HR4G81811052171015539000004OL9A                   ON5395090805  MMHCP    0078  
HR5G818110521712018061001G010A 000207000207                                    
HR5G818110521712018061001K005A 006275006275                                    
HR4G80613587241015539000004OWSY                   ON8082801815  BCHCP    0078  
HR5G806135872412018061201A007A 003370003370                                    
HR4G80613586921015539000004OWSZ                   ON2381529722  RWHCP    0078  
HR5G806135869212018061201A007A 003370003370                                    
HR4G80613587191015539000004OWTA                   ON7678769170  VBHCP    0078  
HR5G806135871912018061201A007A 003370003370                                    
HR4G80613587061015539000004OWTB                   ON1281627123  MVHCP    0078  
HR5G806135870612018061201A007A 003370003370                                    
HR4G80613587261015539000004OWTC                   ON9213568919  JEHCP    0078  
HR5G806135872612018061201A007A 003370003370                                    
HR4G80613587171015539000004OWTD                   ON3325503690  WEHCP    0078  
HR5G806135871712018061201A007A 003370003370                                    
HR4G80613587211015539000004OWTE                   ON5814032891  HMHCP    0078  
HR5G806135872112018061201A007A 003370003370                                    
HR4G80613587091015539000004OWTF                   ON3298298856  JJHCP    0078  
HR5G806135870912018061201A007A 003370003370                                    
HR5G806135870912018061201G841A 000450000450                                    
HR4G80613587251015539000004OWTG                   ON4582751477  WYHCP    0078  
HR5G806135872512018061201A007A 003370003370                                    
HR4G80613587331015539000004OWTH                   ON9476856688  FAHCP    0078  
HR5G806135873312018061201A007A 003370003370                                    
HR4G80613587311015539000004OWTI                   ON7992076294  VMHCP    0078  
HR5G806135873112018061201A007A 003370003370                                    
HR4G80613587231015539000004OWTJ                   ON3754292385  PNHCP    0078  
HR5G806135872312018061201A007A 003370003370                                    
HR4G80613586981015539000004OWTK                   ON5729140813  PWHCP    0078  
HR5G806135869812018061201A007A 003370003370                                    
HR4G80613587071015539000004OWTL                   ON6788029764  DKHCP    0078  
HR5G806135870712018061201A007A 003370003370                                    
HR4G80613587081015539000004OWTM                   ON2549781512  HDHCP    0078  
HR5G806135870812018061201A001A 002170002170                                    
HR4G80613586881015539000004OWTN                   ON2258473137  ALHCP    0078  
HR5G806135868812018061201A007A 003370003370                                    
HR4G80613586951015539000004OWTO                   ON5911038874  KLHCP    0078  
HR5G806135869512018061201A007A 003370003370                                    
HR4G80613587001015539000004OWTP                   ON9411324420  YJHCP    0078  
HR5G806135870012018061201K005A 006275006275                                    
HR4G80613587151015539000004OWTQ                   ON9258800409  BYHCP    0078  
HR5G806135871512018061201A007A 003370003370                                    
HR4G80613587281015539000004OWTR                   ON1956472359  JTHCP    0078  
HR5G806135872812018061201A007A 003370003370                                    
HR4G80613586971015539000004OWTS                   ON7388222031  WMHCP    0078  
HR5G806135869712018061201A007A 003370003370                                    
HR4G80613587051015539000004OWTT                   ON3735084778  GTHCP    0078  
HR5G806135870512018061201A007A 003370003370                                    
HR5G806135870512018061201G847A 000450000450                                    
HR4G80613587161015539000004OWTU                   ON6609543803  ENHCP    0078  
HR5G806135871612018061201A007A 003370003370                                    
HR4G80613586991015539000004OWTV                   ON5287694599  MHHCP    0078  
HR5G806135869912018061201A007A 003370003370                                    
HR4G80613587021015539000004OWTW                   ON8016558234  HEHCP    0078  
HR5G806135870212018061201A007A 003370003370                                    
HR4G80613587221015539000004OWTX                   ON8317794884  XRHCP    0078  
HR5G806135872212018061201A007A 003370003370                                    
HR4G80613587131015539000004OWTY                   ON4937020222  GCHCP    0078  
HR5G806135871312018061201A007A 003370003370                                    
HR4G80613586911015539000004OWTZ                   ON2301697146  NAHCP    0078  
HR5G806135869112018061201A007A 003370003370                                    
HR4G80613586901015539000004OWT0                   ON7515632995  RAHCP    0078  
HR5G806135869012018061201A007A 003370003370                                    
HR4G80613587141015539000004OWT1                   ON6078835094  NWHCP    0078  
HR5G806135871412018061201A007A 003370003370                                    
HR4G80613586961015539000004OWT2                   ON2674214503  JBHCP    0078  
HR5G806135869612018061201A007A 003370003370                                    
HR4G80613587301015539000004OWT3                   ON2885597423  WGHCP    0078  
HR5G806135873012018061201A007A 003370003370                                    
HR4G80613587041015539000004OWT4                   ON9259547991    HCP    0078  
HR5G806135870412018061201A007A 003370003370                                    
HR4G80613587111015539000004OWT5                   ON8742101309  FJHCP    0078  
HR5G806135871112018061201A007A 003370003370                                    
HR4G80613586891015539000004OWT6                   ON9670401794  RFHCP    0078  
HR5G806135868912018061201A007A 003370003370                                    
HR5G806135868912018061201G372A 000389000389                                    
HR4G80613587101015539000004OWT7                   ON1959608413  NMHCP    0078  
HR5G806135871012018061201A007A 003370003370                                    
HR4G80615576261015539000004OWT8                   ON1048085227  KRHCP    0078  
HR5G806155762612018061201A007A 003370003370                                    
HR4G80613587271015539000004OWT9                   ON5111952791  VBHCP    0078  
HR5G806135872712018061201A007A 003370003370                                    
HR4G80613587321015539000004OWU0                   ON5104767891  EYHCP    0078  
HR5G806135873212018061201A007A 003370003370                                    
HR4G80613587291015539000004OWU1                   ON2580602718  THHCP    0078  
HR5G806135872912018061201A007A 003370003370                                    
HR4G80613586871015539000004OWU2                   ON7237882340  PMHCP    0078  
HR5G806135868712018061201A007A 003370003370                                    
HR4G80613586941015539000004OWU3                   ON2346977909  WNHCP    0078  
HR5G806135869412018061201A003A 007720007720                                    
HR4G80613587201015539000004OWU4                   ON4094978881  DGHCP    0078  
HR5G806135872012018061201A007A 003370003370                                    
HR4G80613587031015539000004OWU5                   ON2319342529  TFHCP    0078  
HR5G806135870312018061201A007A 003370003370                                    
HR4G80613587121015539000004OWU6                   ON8037011940  GFHCP    0078  
HR5G806135871212018061201A007A 003370003370                                    
HR4G80613587181015539000004OWU7                   ON6019536322  PNHCP    0078  
HR5G806135871812018061201A007A 003370003370                                    
HR4G80620470731015539000004PI3A                   ON8012424944  NLHCP    0078  
HR5G806204707312018061601A001A 002170002170                                    
HR5G806204707312018061601G372A 000389000389                                    
HR4G80620470941015539000004PI3B                   ON9923226691  VPHCP    0078  
HR5G806204709412018061601A007A 003370003370                                    
HR5G806204709412018061601G010A 000207000207                                    
HR4G80620470381015539000004PI3C                   ON4790055927  KWHCP    0078  
HR5G806204703812018061601A007A 003370003370                                    
HR4G80620470931015539000004PI3D                   ON7246449503  XHHCP    0078  
HR5G806204709312018061601A007A 003370003370                                    
HR4G80620470491015539000004PI3E                   ON4764425072  CDHCP    0078  
HR5G806204704912018061601A007A 003370003370                                    
HR4G80620470831015539000004PI3F                   ON9524792299  AVHCP    0078  
HR5G806204708312018061601A007A 003370003370                                    
HR5G806204708312018061601G005A 000388000388                                    
HR5G806204708312018061601G010A 000207000207                                    
HR4G80620470651015539000004PI3G                   ON7493749688  WCHCP    0078  
HR5G806204706512018061601A007A 003370003370                                    
HR4G80620470591015539000004PI3H                   ON6202562507  LPHCP    0078  
HR5G806204705912018061601A007A 003370003370                                    
HR4G80620470431015539000004PI3I                   ON6109895943  GWHCP    0078  
HR5G806204704312018061601A007A 003370003370                                    
HR4G80620470481015539000004PI3J                   ON9731780905  JTHCP    0078  
HR5G806204704812018061601A007A 003370003370                                    
HR4G80620470461015539000004PI3K                   ON9545174527  TEHCP    0078  
HR5G806204704612018061601A007A 003370003370                                    
HR4G80620470601015539000004PI3L                   ON6435779696  LXHCP    0078  
HR5G806204706012018061601A001A 002170002170                                    
HR5G806204706012018061601G202A 000445000445                                    
HR4G80620470421015539000004PI3M                   ON1159426038  EDHCP    0078  
HR5G806204704212018061601A007A 003370003370                                    
HR4G80620470621015539000004PI3N                   ON4862839372  AGHCP    0078  
HR5G806204706212018061601A001A 002170002170                                    
HR5G806204706212018061601G372A 000389000389                                    
HR4G80620470571015539000004PI3O                   ON5617510465  EGHCP    0078  
HR5G806204705712018061601A007A 003370003370                                    
HR4G80620471001015539000004PI3P                   ON3689099723  LJHCP    0078  
HR5G806204710012018061601A007A 003370003370                                    
HR4G80620470501015539000004PI3Q                   ON2415854922  HAHCP    0078  
HR5G806204705012018061601A007A 003370003370                                    
HR4G80620470911015539000004PI3R                   ON8009839377  DMHCP    0078  
HR5G806204709112018061601A007A 003370003370                                    
HR4G80620470981015539000004PI3S                   ON8999703906  EDHCP    0078  
HR5G806204709812018061601A007A 003370003370                                    
HR4G80620470871015539000004PI3T                   ON2539016358  YTHCP    0078  
HR5G806204708712018061601A007A 003370003370                                    
HR4G80620470401015539000004PI3U                   ON7164142106  TVHCP    0078  
HR5G806204704012018061601A007A 003370003370                                    
HR4G80620471031015539000004PI3V                   ON1723278550  LFHCP    0078  
HR5G806204710312018061601A007A 003370003370                                    
HR4G80620470791015539000004PI3W                   ON9496071573  RCHCP    0078  
HR5G806204707912018061601A007A 003370003370                                    
HR4G80620470521015539000004PI3X                   ON8857117645  RHHCP    0078  
HR5G806204705212018061601A007A 003370003370                                    
HR5G806204705212018061601G372A 000389000389                                    
HR4G80620470851015539000004PI3Y                   ON3276740689  MWHCP    0078  
HR5G806204708512018061601A007A 003370003370                                    
HR4G80620470471015539000004PI3Z                   ON9118703025  CRHCP    0078  
HR5G806204704712018061601A007A 003370003370                                    
HR5G806204704712018061601G010A 000207000207                                    
HR4G80620470881015539000004PI4A                   ON8896168401  XWHCP    0078  
HR5G806204708812018061601A007A 003370003370                                    
HR4G80620470661015539000004PI4B                   ON8746229148  AHHCP    0078  
HR5G806204706612018061601A007A 003370003370                                    
HR5G806204706612018061601G372A 000389000389                                    
HR4G80620470951015539000004PI4C                   ON8715772623  YEHCP    0078  
HR5G806204709512018061601A007A 003370003370                                    
HR5G806204709512018061601G372A 000389000389                                    
HR4G80620470641015539000004PI4D                   ON1611910751  ALHCP    0078  
HR5G806204706412018061601A007A 003370003370                                    
HR5G806204706412018061601G005A 000388000388                                    
HR5G806204706412018061601G010A 000207000207                                    
HR4G80620470751015539000004PI4E                   ON5965286619  FYHCP    0078  
HR5G806204707512018061601A007A 003370003370                                    
HR4G80620471041015539000004PI4F                   ON2341145817  WAHCP    0078  
HR5G806204710412018061601A007A 003370003370                                    
HR4G80620470631015539000004PI4G                   ON1664454541  RKHCP    0078  
HR5G806204706312018061601A007A 003370003370                                    
HR4G80620470821015539000004PI4H                   ON9347591837  YWHCP    0078  
HR5G806204708212018061601A007A 003370003370                                    
HR4G80620470581015539000004PI40                   ON2490229214  TLHCP    0078  
HR5G806204705812018061601A007A 003370003370                                    
HR4G80620470861015539000004PI41                   ON6235323042  YLHCP    0078  
HR5G806204708612018061601A007A 003370003370                                    
HR4G80620470971015539000004PI42                   ON5602745951  ARHCP    0078  
HR5G806204709712018061601A007A 003370003370                                    
HR4G80620470771015539000004PI43                   ON9198139405  FVHCP    0078  
HR5G806204707712018061601A007A 003370003370                                    
HR4G80620470741015539000004PI44                   ON1705934865  KTHCP    0078  
HR5G806204707412018061601A007A 003370003370                                    
HR4G80620470761015539000004PI45                   ON1059146090  RTHCP    0078  
HR5G806204707612018061601A007A 003370003370                                    
HR4G80620470671015539000004PI46                   ON8265623671  PRHCP    0078  
HR5G806204706712018061601A007A 003370003370                                    
HR4G80620470991015539000004PI47                   ON5988276712  LVHCP    0078  
HR5G806204709912018061601A007A 003370003370                                    
HR4G80620470921015539000004PI48                   ON8073228994  MBHCP    0078  
HR5G806204709212018061601A007A 003370003370                                    
HR4G80620470811015539000004PI49                   ON5305912668  HEHCP    0078  
HR5G806204708112018061601A007A 003370003370                                    
HR4G80620470611015539000004PLPA                   ON1144897251  CFHCP    0078  
HR5G806204706112018061701A007A 003370003370                                    
HR4G80625414531015539000004PLPB                   ON9966401714  PYHCP    0078  
HR5G806254145312018061701A007A 003370003370                                    
HR4G80620470701015539000004PLPC                   ON2551140680  NFHCP    0078  
HR5G806204707012018061701A007A 003370003370                                    
HR5G806204707012018061701G372A 000389000389                                    
HR4G80620470551015539000004PLPD                   ON6584399353  GFHCP    0078  
HR5G806204705512018061701A007A 003370003370                                    
HR4G80620471051015539000004PLPE                   ON8763681809  BTHCP    0078  
HR5G806204710512018061701A007A 003370003370                                    
HR5G806204710512018061701Q150A 000700000700                                    
HR4G80620470441015539000004PLPF                   ON9410018031  GGHCP    0078  
HR5G806204704412018061701A007A 003370003370                                    
HR4G80620470721015539000004PLPH                   ON7237994319  BVHCP    0078  
HR5G806204707212018061701A007A 003370003370                                    
HR4G80620470901015539000004PLPJ                   ON4439800121  HRHCP    0078  
HR5G806204709012018061701A007A 003370003370                                    
HR4G80620470561015539000004PLPK                   ON4062095411  LYHCP    0078  
HR5G806204705612018061701A007A 003370003370                                    
HR4G80620470391015539000004PLPL                   ON1316722352  JNHCP    0078  
HR5G806204703912018061701A007A 003370003370                                    
HR4G80620470411015539000004PLPM                   ON9110102796  MLHCP    0078  
HR5G806204704112018061701A007A 003370003370                                    
HR5G806204704112018061701G010A 000207000207                                    
HR4G80620470511015539000004PLPN                   ON7083031711  RWHCP    0078  
HR5G806204705112018061701A007A 003370003370                                    
HR5G806204705112018061701G420A 001125001125                                    
HR4G80620470801015539000004PLPO                   ON4391647478  NYHCP    0078  
HR5G806204708012018061701A001A 002170002170                                    
HR5G806204708012018061701G372A 000389000389                                    
HR4G80620470711015539000004PLPP                   ON9573452316  VEHCP    0078  
HR5G806204707112018061701A007A 003370003370                                    
HR4G80620471021015539000004PLPQ                   ON7872256586  REHCP    0078  
HR5G806204710212018061701K005A 006275006275                                    
HR5G806204710212018061701K053A 001500001500                                    
HR4G80620470781015539000004PLPR                   ON5550980923  GVHCP    0078  
HR5G806204707812018061701A007A 003370003370                                    
HR4G80620470961015539000004PLP0                   ON7717498690  ALHCP    0078  
HR5G806204709612018061701A003A 007720007720                                    
HR4G80620470531015539000004PLP2                   ON4072062351  ERHCP    0078  
HR5G806204705312018061701A007A 003370003370                                    
HR4G80620470841015539000004PLP3                   ON6835682946  AYHCP    0078  
HR5G806204708412018061701A007A 003370003370                                    
HR4G80620470541015539000004PLP4                   ON3627443942  YYHCP    0078  
HR5G806204705412018061701A007A 003370003370                                    
HR4G80620470451015539000004PLP5                   ON2517913287  AVHCP    0078  
HR5G806204704512018061701A007A 003370003370                                    
HR4G80620470691015539000004PLP6                   ON5266147890  YJHCP    0078  
HR5G806204706912018061701A007A 003370003370                                    
HR4G80620470681015539000004PLP7                   ON5801884783  HNHCP    0078  
HR5G806204706812018061701A007A 003370003370                                    
HR4G80620470891015539000004PLP8                   ON4936704651  XJHCP    0078  
HR5G806204708912018061701A007A 003370003370                                    
HR4G80614592151015539000004P2IO                   ON9125728452  PTHCP    0078  
HR5G806145921512018061301A007A 003370003370                                    
HR4G80614592331015539000004P2IP                   ON7347554656  XRHCP    0078  
HR5G806145923312018061301A007A 003370003370                                    
HR5G806145923312018061301G010A 000207000207                                    
HR4G80614591991015539000004P2IQ                   ON4278440187  ALHCP    0078  
HR5G806145919912018061301A007A 003370003370                                    
HR4G80614591861015539000004P2IR                   ON1351660939  VTHCP    0078  
HR5G806145918612018061301A001A 002170002170                                    
HR5G806145918612018061301G202A 000445000445                                    
HR4G80614591951015539000004P2IS                   ON5911938289  ADHCP    0078  
HR5G806145919512018061301A007A 003370003370                                    
HR4G80614592341015539000004P2IT                   ON6639738431  WTHCP    0078  
HR5G806145923412018061301A007A 003370003370                                    
HR4G80614592261015539000004P2IU                   ON7672000697  DEHCP    0078  
HR5G806145922612018061301A007A 003370003370                                    
HR4G80614591931015539000004P2IV                   ON5530252765  MYHCP    0078  
HR5G806145919312018061301A007A 003370003370                                    
HR4G80614592201015539000004P2IW                   ON1881638330  DBHCP    0078  
HR5G806145922012018061301A007A 003370003370                                    
HR4G80614592171015539000004P2IX                   ON7588989827  TLHCP    0078  
HR5G806145921712018061301A007A 003370003370                                    
HR4G80614592181015539000004P2IY                   ON8375200204  ELHCP    0078  
HR5G806145921812018061301A007A 003370003370                                    
HR4G80614592211015539000004P2IZ                   ON5058764134  EXHCP    0078  
HR5G806145922112018061301K028A 006275006275                                    
HR4G80614592081015539000004P2JA                   ON9264657710  AXHCP    0078  
HR5G806145920812018061301A007A 003370003370                                    
HR4G80614591921015539000004P2JB                   ON9415183954  WKHCP    0078  
HR5G806145919212018061301A007A 003370003370                                    
HR4G80614592141015539000004P2JC                   ON5171731986  XEHCP    0078  
HR5G806145921412018061301A007A 003370003370                                    
HR4G80614591891015539000004P2JD                   ON2989188111  MHHCP    0078  
HR5G806145918912018061301A007A 003370003370                                    
HR4G80614592101015539000004P2JE                   ON9450001921  CAHCP    0078  
HR5G806145921012018061301A007A 003370003370                                    
HR4G80614592121015539000004P2JF                   ON3676103140  PRHCP    0078  
HR5G806145921212018061301A007A 003370003370                                    
HR4G80614592191015539000004P2JG                   ON7350247362  HRHCP    0078  
HR5G806145921912018061301A007A 003370003370                                    
HR4G80614592281015539000004P2JH                   ON4450775814  ERHCP    0078  
HR5G806145922812018061301A001A 002170002170                                    
HR5G806145922812018061301G420A 001125001125                                    
HR4G80614592271015539000004P2JI                   ON3724216647  LAHCP    0078  
HR5G806145922712018061301A001A 002170002170                                    
HR5G806145922712018061301G202A 000445000445                                    
HR4G80614592221015539000004P2JJ                   ON6534684052  ABHCP    0078  
HR5G806145922212018061301A001A 002170002170                                    
HR4G80614592061015539000004P2JK                   ON9788985613  KNHCP    0078  
HR5G806145920612018061301A007A 003370003370                                    
HR4G80614592311015539000004P2JL                   ON5499672243  PNHCP    0078  
HR5G806145923112018061301A007A 003370003370                                    
HR5G806145923112018061301B994A 006600006600                                    
HR5G806145923112018061301G010A 000207000207                                    
HR4G80614592301015539000004P2JM                   ON5667725468  JBHCP    0078  
HR5G806145923012018061301A007A 003370003370                                    
HR5G806145923012018061301G372A 000389000389                                    
HR4G80614592251015539000004P2JN                   ON9663678978  CCHCP    0078  
HR5G806145922512018061301A007A 003370003370                                    
HR4G80614592041015539000004P2JO                   ON1337427148  NTHCP    0078  
HR5G806145920412018061301A003A 007720007720                                    
HR4G80614591901015539000004P2JP                   ON3874710522  MHHCP    0078  
HR5G806145919012018061301A007A 003370003370                                    
HR4G80614591971015539000004P2JQ                   ON2697698781  HEHCP    0078  
HR5G806145919712018061301K005A 006275006275                                    
HR4G80614592021015539000004P2JT                   ON7525956491  NWHCP    0078  
HR5G806145920212018061301A007A 003370003370                                    
HR5G806145920212018061301G010A 000207000207                                    
HR4G80614591961015539000004P2JW                   ON1846347571  XXHCP    0078  
HR5G806145919612018061301A007A 003370003370                                    
HR4G80614592351015539000004P2JX                   ON1661591634  TWHCP    0078  
HR5G806145923512018061301A007A 003370003370                                    
HR4G80614592031015539000004P2JY                   ON5289030644  TDHCP    0078  
HR5G806145920312018061301A007A 003370003370                                    
HR5G806145920312018061301G372A 000389000389                                    
HR4G80614591881015539000004P2JZ                   ON5799949309  MBHCP    0078  
HR5G806145918812018061301A007A 003370003370                                    
HR4G80614592091015539000004P2J0                   ON4863182087  XJHCP    0078  
HR5G806145920912018061301A007A 003370003370                                    
HR4G80614591911015539000004P2J1                   ON3769008859  RGHCP    0078  
HR5G806145919112018061301G005A 000388000388                                    
HR5G806145919112018061301G010A 000207000207                                    
HR4G80614592291015539000004P2J2                   ON9056671820  RXHCP    0078  
HR5G806145922912018061301A007A 003370003370                                    
HR5G806145922912018061301G010A 000207000207                                    
HR4G80614591871015539000004P2J3                   ON3689099723  LJHCP    0078  
HR5G806145918712018061301A007A 003370003370                                    
HR4G80614592051015539000004P2J4                   ON3143443137  BNHCP    0078  
HR5G806145920512018061301A007A 003370003370                                    
HR4G80614592161015539000004P2J5                   ON5794804798  HAHCP    0078  
HR5G806145921612018061301A007A 003370003370                                    
HR4G80614591941015539000004P2J6                   ON5363427831  XNHCP    0078  
HR5G806145919412018061301A007A 003370003370                                    
HR4G80614592071015539000004P2J7                   ON8257328172  DHHCP    0078  
HR5G806145920712018061301A007A 003370003370                                    
HR4G80614591981015539000004P2J9                   ON6860499653  KEHCP    0078  
HR5G806145919812018061301A003A 007720007720                                    
HR4G80615576561015539000004P97C                   ON5351170021  GPHCP    0078  
HR5G806155765612018061401A007A 003370003370                                    
HR4G80615576291015539000004P97D                   ON2635573054  WCHCP    0078  
HR5G806155762912018061401A007A 003370003370                                    
HR5G806155762912018061401G010A 000207000207                                    
HR4G80615576191015539000004P97E                   ON9650699946  DGHCP    0078  
HR5G806155761912018061401A007A 003370003370                                    
HR5G806155761912018061401G010A 000207000207                                    
HR4G80615576541015539000004P97F                   ON5690518757  LWHCP    0078  
HR5G806155765412018061401A007A 003370003370                                    
HR5G806155765412018061401G010A 000207000207                                    
HR4G80615576281015539000004P97H                   ON7765950766  HTHCP    0078  
HR5G806155762812018061401A007A 003370003370                                    
HR4G80615576621015539000004P97I                   ON5171253767  AWHCP    0078  
HR5G806155766212018061401A007A 003370003370                                    
HR4G80615576211015539000004P97J                   ON1501283509  YDHCP    0078  
HR5G806155762112018061401A007A 003370003370                                    
HR4G80615576461015539000004P97K                   ON4582619930  TJHCP    0078  
HR5G806155764612018061401A007A 003370003370                                    
HR4G80615576391015539000004P97L                   ON3540800582  MNHCP    0078  
HR5G806155763912018061401A007A 003370003370                                    
HR4G80615576551015539000004P97M                   ON5842167834  DHHCP    0078  
HR5G806155765512018061401A007A 003370003370                                    
HR4G80615576311015539000004P97N                   ON8989918142  ELHCP    0078  
HR5G806155763112018061401A007A 003370003370                                    
HR4G80615576611015539000004P97O                   ON8969614901  PTHCP    0078  
HR5G806155766112018061401A007A 003370003370                                    
HR4G80615576371015539000004P97P                   ON3119086019  VJHCP    0078  
HR5G806155763712018061401A007A 003370003370                                    
HR4G80615576591015539000004P97Q                   ON2503697845  MWHCP    0078  
HR5G806155765912018061401A007A 003370003370                                    
HR4G80615576171015539000004P97R                   ON5700744302  DEHCP    0078  
HR5G806155761712018061401A007A 003370003370                                    
HR4G80615576451015539000004P97S                   ON8819364103  RDHCP    0078  
HR5G806155764512018061401A007A 003370003370                                    
HR4G80615576131015539000004P97T                   ON6536211771  EGHCP    0078  
HR5G806155761312018061401A007A 003370003370                                    
HR5G806155761312018061401G010A 000207000207                                    
HR4G80615576581015539000004P97U                   ON9008046790  CCHCP    0078  
HR5G806155765812018061401A007A 003370003370                                    
HR5G806155765812018061401G848A 000450000450                                    
HR4G80615576181015539000004P97V                   ON2036149090  JTHCP    0078  
HR5G806155761812018061401A007A 003370003370                                    
HR5G806155761812018061401G845A 000450000450                                    
HR4G80615576321015539000004P97W                   ON7438862109  ABHCP    0078  
HR5G806155763212018061401A007A 003370003370                                    
HR4G80615576511015539000004P97X                   ON3891166211  MCHCP    0078  
HR5G806155765112018061401A007A 003370003370                                    
HR5G806155765112018061401G005A 000388000388                                    
HR5G806155765112018061401G010A 000207000207                                    
HR4G80615576341015539000004P97Y                   ON8505630304  AGHCP    0078  
HR5G806155763412018061401A007A 003370003370                                    
HR4G80615576251015539000004P97Z                   ON6634187204  XBHCP    0078  
HR5G806155762512018061401A007A 003370003370                                    
HR4G80615576481015539000004P98A                   ON9973909378  NCHCP    0078  
HR5G806155764812018061401A007A 003370003370                                    
HR4G80615576601015539000004P98B                   ON6723274376  NBHCP    0078  
HR5G806155766012018061401A007A 003370003370                                    
HR4G80615576491015539000004P98C                   ON8096440105  DYHCP    0078  
HR5G806155764912018061401A007A 003370003370                                    
HR4G80615576401015539000004P98D                   ON1499514147  MMHCP    0078  
HR5G806155764012018061401A007A 003370003370                                    
HR4G80615576571015539000004P98E                   ON1310212608  ARHCP    0078  
HR5G806155765712018061401A007A 003370003370                                    
HR4G80615576271015539000004P98F                   ON9415988238  APHCP    0078  
HR5G806155762712018061401A001A 002170002170                                    
HR5G806155762712018061401G372A 000389000389                                    
HR4G80615576531015539000004P98G                   ON7162445949  GMHCP    0078  
HR5G806155765312018061401A007A 003370003370                                    
HR4G80615576641015539000004P98H                   ON3347085247  RHHCP    0078  
HR5G806155766412018061401A007A 003370003370                                    
HR5G806155766412018061401E430A 001155001155                                    
HR5G806155766412018061401G365A 000675000675                                    
HR4G80615576411015539000004P98I                   ON5569813081  NXHCP    0078  
HR5G806155764112018061401A007A 003370003370                                    
HR4G80615576471015539000004P98J                   ON9724804209  RXHCP    0078  
HR5G806155764712018061401A007A 003370003370                                    
HR5G806155764712018061401K055A 002000002000                                    
HR4G80615576231015539000004P98K                   ON6868984078  WJHCP    0078  
HR5G806155762312018061401A007A 003370003370                                    
HR4G80615576201015539000004P98L                   ON4047074606  NLHCP    0078  
HR5G806155762012018061401K005A 006275006275                                    
HR4G80615576351015539000004P98M                   ON9021416590  CBHCP    0078  
HR5G806155763512018061401A007A 003370003370                                    
HR4G80615576151015539000004P98N                   ON8923548138  DXHCP    0078  
HR5G806155761512018061401A007A 003370003370                                    
HR4G80615576331015539000004P98O                   ON2462218781  KLHCP    0078  
HR5G806155763312018061401A007A 003370003370                                    
HR5G806155763312018061401K053A 001500001500                                    
HR4G80615576501015539000004P98P                   ON8092496713  TWHCP    0078  
HR5G806155765012018061401A007A 003370003370                                    
HR4G80615576631015539000004P98Q                   ON4534439254  CKHCP    0078  
HR5G806155766312018061401A007A 003370003370                                    
HR4G80615576421015539000004P98R                   ON6936760955  CLHCP    0078  
HR5G806155764212018061401A007A 003370003370                                    
HR4G80615576651015539000004P980                   ON9913177730  XNHCP    0078  
HR5G806155766512018061401A007A 003370003370                                    
HR4G80615576141015539000004P981                   ON7747832819  HKHCP    0078  
HR5G806155761412018061401A007A 003370003370                                    
HR4G80615576441015539000004P982                   ON8780315084  MKHCP    0078  
HR5G806155764412018061401A007A 003370003370                                    
HR4G80615576301015539000004P983                   ON5633811319  TWHCP    0078  
HR5G806155763012018061401A007A 003370003370                                    
HR4G80615576521015539000004P984                   ON7054857912  MBHCP    0078  
HR5G806155765212018061401K028A 006275006275                                    
HR4G80615576381015539000004P985                   ON7520794558  VCHCP    0078  
HR5G806155763812018061401A007A 003370003370                                    
HR4G80615576431015539000004P986                   ON3191606247  TRHCP    0078  
HR5G806155764312018061401A007A 003370003370                                    
HR4G80615576241015539000004P987                   ON7772929118  DFHCP    0078  
HR5G806155762412018061401A007A 003370003370                                    
HR4G80615576161015539000004P988                   ON9905065505  RAHCP    0078  
HR5G806155761612018061401A007A 003370003370                                    
HR4G80615576221015539000004P989                   ON3157753033  JHHCP    0078  
HR5G806155762212018061401A007A 003370003370                                    
HR5G806155762212018061401G010A 000207000207                                    
HR4G80622225961015539000004QA4Y                   ON4632037257  EBHCP    0078  
HR5G806222259612018062001A007A 003370003370                                    
HR5G806222259612018062001G841A 000450000450                                    
HR4G80622226121015539000004QA4Z                   ON1351660939  VTHCP    0078  
HR5G806222261212018062001A001A 002170002170                                    
HR5G806222261212018062001G202A 000445000445                                    
HR4G80622226021015539000004QA5A                   ON8818518873  BEHCP    0078  
HR5G806222260212018062001A007A 003370003370                                    
HR5G806222260212018062001G010A 000207000207                                    
HR4G80622225921015539000004QA5B                   ON4838705491  VVHCP    0078  
HR5G806222259212018062001A007A 003370003370                                    
HR4G80622225981015539000004QA5C                   ON7314036802  GYHCP    0078  
HR5G806222259812018062001A007A 003370003370                                    
HR4G80622226031015539000004QA5D                   ON9431583690  XWHCP    0078  
HR5G806222260312018062001A007A 003370003370                                    
HR4G80622226001015539000004QA5E                   ON5804756012  XNHCP    0078  
HR5G806222260012018062001A007A 003370003370                                    
HR4G80622225871015539000004QA5F                   ON8978086885  KHHCP    0078  
HR5G806222258712018062001A007A 003370003370                                    
HR5G806222258712018062001G841A 000450000450                                    
HR4G80622226191015539000004QA5G                   ON3203248087  WCHCP    0078  
HR5G806222261912018062001A007A 003370003370                                    
HR4G80622226061015539000004QA5H                   ON2453311850  CXHCP    0078  
HR5G806222260612018062001A007A 003370003370                                    
HR4G80622226181015539000004QA5I                   ON1281724078  TLHCP    0078  
HR5G806222261812018062001A007A 003370003370                                    
HR4G80622226251015539000004QA5J                   ON4489445488  DBHCP    0078  
HR5G806222262512018062001A007A 003370003370                                    
HR4G80622226041015539000004QA5K                   ON5311249824  MJHCP    0078  
HR5G806222260412018062001A007A 003370003370                                    
HR4G80622225971015539000004QA5L                   ON2082147865  VTHCP    0078  
HR5G806222259712018062001A007A 003370003370                                    
HR4G80628303921015539000004QA5M                   ON2856586454  FCHCP    0078  
HR5G806283039212018062001A007A 003370003370                                    
HR4G80622226071015539000004QA5N                   ON2197579309  EYHCP    0078  
HR5G806222260712018062001A007A 003370003370                                    
HR4G80622226171015539000004QA5O                   ON1889929921  EHHCP    0078  
HR5G806222261712018062001A007A 003370003370                                    
HR4G80622226111015539000004QA5P                   ON9789825065  LCHCP    0078  
HR5G806222261112018062001A007A 003370003370                                    
HR4G80628303751015539000004QA5Q                   ON6923111998  XAHCP    0078  
HR5G806283037512018062001A007A 003370003370                                    
HR4G80622226051015539000004QA5R                   ON5885791037  RYHCP    0078  
HR5G806222260512018062001A007A 003370003370                                    
HR4G80622226211015539000004QA5S                   ON5287694599  MHHCP    0078  
HR5G806222262112018062001A007A 003370003370                                    
HR4G80622226151015539000004QA5T                   ON3902348923  RXHCP    0078  
HR5G806222261512018062001A007A 003370003370                                    
HR4G80622225951015539000004QA5U                   ON3987765637  GMHCP    0078  
HR5G806222259512018062001A007A 003370003370                                    
HR5G806222259512018062001G010A 000207000207                                    
HR4G80622226201015539000004QA5V                   ON5164240045  CYHCP    0078  
HR5G806222262012018062001A007A 003370003370                                    
HR4G80622225861015539000004QA5W                   ON7410745009  PTHCP    0078  
HR5G806222258612018062001A007A 003370003370                                    
HR5G806222258612018062001G372A 000389000389                                    
HR4G80622226011015539000004QA5X                   ON4534261658  LBHCP    0078  
HR5G806222260112018062001A007A 003370003370                                    
HR4G80622226141015539000004QA5Y                   ON5590610456  FLHCP    0078  
HR5G806222261412018062001A007A 003370003370                                    
HR4G80622225891015539000004QA5Z                   ON9910525683  JEHCP    0078  
HR5G806222258912018062001A007A 003370003370                                    
HR4G80622226081015539000004QA50                   ON8002479510  DWHCP    0078  
HR5G806222260812018062001A007A 003370003370                                    
HR4G80622226091015539000004QA51                   ON1874411406  FNHCP    0078  
HR5G806222260912018062001A007A 003370003370                                    
HR4G80622226261015539000004QA52                   ON8763681809  BTHCP    0078  
HR5G806222262612018062001A007A 003370003370                                    
HR5G806222262612018062001E430A 001155001155                                    
HR5G806222262612018062001G365A 000675000675                                    
HR4G80622225941015539000004QA53                   ON2926261468  JKHCP    0078  
HR5G806222259412018062001A007A 003370003370                                    
HR4G80622226241015539000004QA54                   ON7948685669  JDHCP    0078  
HR5G806222262412018062001A007A 003370003370                                    
HR5G806222262412018062002G372A 000778000778                                    
HR4G80622226131015539000004QA55                   ON6332220612  MYHCP    0078  
HR5G806222261312018062001A001A 002170002170                                    
HR4G80622225901015539000004QA56                   ON5498400257  CDHCP    0078  
HR5G806222259012018062001A001A 002170002170                                    
HR4G80622226271015539000004QA57                   ON4667457065  LTHCP    0078  
HR5G806222262712018062001A001A 002170002170                                    
HR4G80622226221015539000004QA58                   ON8678238729  YEHCP    0078  
HR5G806222262212018062001A001A 002170002170                                    
HR5G806222262212018062001G420A 001125001125                                    
HR4G80622225931015539000004QA59                   ON4991409246  APHCP    0078  
HR5G806222259312018062001A007A 003370003370                                    
HR4G80622226101015539000004QA60                   ON9411324420  YJHCP    0078  
HR5G806222261012018062001K005A 006275006275                                    
HR4G80622226161015539000004QA61                   ON4296440862  PYHCP    0078  
HR5G806222261612018062001A007A 003370003370                                    
HR4G80622225911015539000004QA62                   ON1628933903  PFHCP    0078  
HR5G806222259112018062001A007A 003370003370                                    
HR4G80622225881015539000004QA63                   ON3107632824  TMHCP    0078  
HR5G806222258812018062001A007A 003370003370                                    
HR4G80622656701015539000004QEVQ                   ON9100661652  JFHCP    0078  
HR5G806226567012018062101A007A 003370003370                                    
HR4G80622656561015539000004QEVR                   ON6696372900  YHHCP    0078  
HR5G806226565612018062101A007A 003370003370                                    
HR4G80622656951015539000004QEVS                   ON9591622189  CNHCP    0078  
HR5G806226569512018062101A007A 003370003370                                    
HR4G80622656891015539000004QEVT                   ON4087713709  CPHCP    0078  
HR5G806226568912018062101A007A 003370003370                                    
HR4G80622656711015539000004QEVU                   ON4098604202  LMHCP    0078  
HR5G806226567112018062101A007A 003370003370                                    
HR4G80622656631015539000004QEVV                   ON4940993753  KKHCP    0078  
HR5G806226566312018062101A007A 003370003370                                    
HR4G80622656641015539000004QEVW                   ON2674214503  JBHCP    0078  
HR5G806226566412018062101A001A 002170002170                                    
HR5G806226566412018062101G372A 000389000389                                    
HR4G80622656871015539000004QEVX                   ON2419517582  ETHCP    0078  
HR5G806226568712018062101A007A 003370003370                                    
HR4G80622656571015539000004QEVY                   ON4047103975  LNHCP    0078  
HR5G806226565712018062101A007A 003370003370                                    
HR4G80622656861015539000004QEVZ                   ON8430503204  LEHCP    0078  
HR5G806226568612018062101A007A 003370003370                                    
HR5G806226568612018062101G010A 000207000207                                    
HR4G80622656721015539000004QEWA                   ON9730595718  HHHCP    0078  
HR5G806226567212018062101A007A 003370003370                                    
HR4G80622656611015539000004QEWB                   ON9885629866  BPHCP    0078  
HR5G806226566112018062101A007A 003370003370                                    
HR4G80622656661015539000004QEWC                   ON6861190889  HHHCP    0078  
HR5G806226566612018062101A007A 003370003370                                    
HR4G80622656921015539000004QEWD                   ON5858581308  CXHCP    0078  
HR5G806226569212018062101A007A 003370003370                                    
HR4G80622656831015539000004QEWE                   ON5841878712  KCHCP    0078  
HR5G806226568312018062101A007A 003370003370                                    
HR4G80622656531015539000004QEWF                   ON6422457462  WBHCP    0078  
HR5G806226565312018062101A007A 003370003370                                    
HR4G80622656751015539000004QEWG                   ON3196692077  PWHCP    0078  
HR5G806226567512018062101A007A 003370003370                                    
HR5G806226567512018062101G010A 000207000207                                    
HR4G80622656901015539000004QEWH                   ON6267038401  EWHCP    0078  
HR5G806226569012018062101A007A 003370003370                                    
HR4G80622656681015539000004QEWI                   ON2338902642  NHHCP    0078  
HR5G806226566812018062101A007A 003370003370                                    
HR4G80622656931015539000004QEWJ                   ON1723278550  LFHCP    0078  
HR5G806226569312018062101K005A 006275006275                                    
HR4G80622656801015539000004QEWK                   ON2653153342  YWHCP    0078  
HR5G806226568012018062101A007A 003370003370                                    
HR4G80622656821015539000004QEWL                   ON6766596313  RTHCP    0078  
HR5G806226568212018062101A007A 003370003370                                    
HR4G80622656791015539000004QEWM                   ON8144289173  GDHCP    0078  
HR5G806226567912018062101K005A 006275006275                                    
HR4G80622656601015539000004QEWN                   ON6654197067  LGHCP    0078  
HR5G806226566012018062101A007A 003370003370                                    
HR4G80622656941015539000004QEWP                   ON7725071844  FNHCP    0078  
HR5G806226569412018062101A001A 002170002170                                    
HR5G806226569412018062101G372A 000389000389                                    
HR4G80622656881015539000004QEWQ                   ON2490229214  TLHCP    0078  
HR5G806226568812018062101A007A 003370003370                                    
HR4G80622656851015539000004QEWR                   ON9118703025  CRHCP    0078  
HR5G806226568512018062101A007A 003370003370                                    
HR5G806226568512018062101G372A 000389000389                                    
HR4G80622656741015539000004QEWS                   ON7414573563  WKHCP    0078  
HR5G806226567412018062101A007A 003370003370                                    
HR5G806226567412018062101G010A 000207000207                                    
HR4G80622656691015539000004QEWT                   ON1138025844  LGHCP    0078  
HR5G806226566912018062101A007A 003370003370                                    
HR4G80622656651015539000004QEWU                   ON4879129882  NMHCP    0078  
HR5G806226566512018062101A001A 002170002170                                    
HR4G80622656961015539000004QEWV                   ON9415988238  APHCP    0078  
HR5G806226569612018062101A001A 002170002170                                    
HR5G806226569612018062101G372A 000389000389                                    
HR4G80622656911015539000004QEWW                   ON5574873658  NWHCP    0078  
HR5G806226569112018062101A001A 002170002170                                    
HR5G806226569112018062101G202A 000445000445                                    
HR4G80622656811015539000004QEWX                   ON7699098989  JEHCP    0078  
HR5G806226568112018062101A007A 003370003370                                    
HR4G80622656781015539000004QEWY                   ON5994730868  KTHCP    0078  
HR5G806226567812018062101A007A 003370003370                                    
HR4G80622656591015539000004QEW0                   ON3274650823  LVHCP    0078  
HR5G806226565912018062101A007A 003370003370                                    
HR4G80622656761015539000004QEW1                   ON8877910235  FTHCP    0078  
HR5G806226567612018062101A007A 003370003370                                    
HR4G80622656841015539000004QEW2                   ON8298246946  BNHCP    0078  
HR5G806226568412018062101A001A 002170002170                                    
HR5G806226568412018062101G202A 000445000445                                    
HR4G80622656731015539000004QEW3                   ON6094476980  YJHCP    0078  
HR5G806226567312018062101A007A 003370003370                                    
HR4G80622656621015539000004QEW4                   ON6501834474  PWHCP    0078  
HR5G806226566212018062101A007A 003370003370                                    
HR5G806226566212018062101G845A 000450000450                                    
HR4G80622656551015539000004QEW5                   ON6783116277  XJHCP    0078  
HR5G806226565512018062101A007A 003370003370                                    
HR4G80622656541015539000004QEW6                   ON9131807316  TWHCP    0078  
HR5G806226565412018062101A007A 003370003370                                    
HR4G80622656771015539000004QEW7                   ON7949303080  NWHCP    0078  
HR5G806226567712018062101A007A 003370003370                                    
HR4G80622656671015539000004QEW8                   ON1180431825  FHHCP    0078  
HR5G806226566712018062101A007A 003370003370                                    
HR4G80622656581015539000004QEW9                   ON1310212608  ARHCP    0078  
HR5G806226565812018062101A007A 003370003370                                    
HR4G80625414521015539000004QGKH                   ON6204319708  KHHCP    0078  
HR5G806254145212018062001A001A 002170002170                                    
HR4G80628303611015539000004QO4A                   ON3898513902  PLHCP    0078  
HR5G806283036112018062401A007A 003370003370                                    
HR4G80625711851015539000004QO4B                   ON2138464546  TPHCP    0078  
HR5G806257118512018062401A007A 003370003370                                    
HR4G80625711991015539000004QO4C                   ON7889115585  YRHCP    0078  
HR5G806257119912018062401A007A 003370003370                                    
HR4G80625712001015539000004QO4D                   ON9537385156  XKHCP    0078  
HR5G806257120012018062401A007A 003370003370                                    
HR4G80625712101015539000004QO4E                   ON5518441810  DGHCP    0078  
HR5G806257121012018062401A007A 003370003370                                    
HR4G80625711821015539000004QO4F                   ON8659876521  MXHCP    0078  
HR5G806257118212018062401A007A 003370003370                                    
HR4G80625711711015539000004QO4G                   ON8454676555  TEHCP    0078  
HR5G806257117112018062401A007A 003370003370                                    
HR5G806257117112018062401G846A 000450000450                                    
HR4G80625711891015539000004QO4H                   ON1508589718  BPHCP    0078  
HR5G806257118912018062401A007A 003370003370                                    
HR4G80625711931015539000004QO4I                   ON2263000347  XLHCP    0078  
HR5G806257119312018062401A007A 003370003370                                    
HR4G80625711981015539000004QO4J                   ON9610351349  KYHCP    0078  
HR5G806257119812018062401A007A 003370003370                                    
HR4G80625712121015539000004QO4K                   ON9490411734    HCP    0078  
HR5G806257121212018062401A007A 003370003370                                    
HR4G80625711871015539000004QO4M                   ON2346977909  WNHCP    0078  
HR5G806257118712018062401A007A 003370003370                                    
HR4G80625712021015539000004QO4N                   ON5547847698  MFHCP    0078  
HR5G806257120212018062401A007A 003370003370                                    
HR4G80625711741015539000004QO4O                   ON3689099723  LJHCP    0078  
HR5G806257117412018062401A007A 003370003370                                    
HR4G80625712091015539000004QO4P                   ON1920308572  LJHCP    0078  
HR5G806257120912018062401A007A 003370003370                                    
HR4G80625711881015539000004QO4Q                   ON2517913287  AVHCP    0078  
HR5G806257118812018062401A007A 003370003370                                    
HR4G80625712011015539000004QO4R                   ON4327617447  CYHCP    0078  
HR5G806257120112018062401A007A 003370003370                                    
HR4G80625711771015539000004QO4S                   ON3049581923  AHHCP    0078  
HR5G806257117712018062401A007A 003370003370                                    
HR4G80625712041015539000004QO4T                   ON8481540733  KEHCP    0078  
HR5G806257120412018062401A007A 003370003370                                    
HR4G80625711921015539000004QO4U                   ON5900808295  EXHCP    0078  
HR5G806257119212018062401A007A 003370003370                                    
HR4G80625711941015539000004QO4V                   ON4557502400  BVHCP    0078  
HR5G806257119412018062401A007A 003370003370                                    
HR4G80625712061015539000004QO4W                   ON9078467389  GNHCP    0078  
HR5G806257120612018062401A007A 003370003370                                    
HR4G80625712051015539000004QO4X                   ON4380393936  NPHCP    0078  
HR5G806257120512018062401A007A 003370003370                                    
HR4G80625711801015539000004QO4Y                   ON6312776211  LTHCP    0078  
HR5G806257118012018062401A007A 003370003370                                    
HR4G80625711831015539000004QO4Z                   ON4655729632  VEHCP    0078  
HR5G806257118312018062401A007A 003370003370                                    
HR4G80628303851015539000004QO48                   ON9588330663  FJHCP    0078  
HR5G806283038512018062401A007A 003370003370                                    
HR5G806283038512018062401G005A 000388000388                                    
HR5G806283038512018062401G010A 000207000207                                    
HR4G80625711901015539000004QO49                   ON5854852620  RVHCP    0078  
HR5G806257119012018062401A007A 003370003370                                    
HR4G80625711721015539000004QO5A                   ON3913413377  NGHCP    0078  
HR5G806257117212018062401A007A 003370003370                                    
HR5G806257117212018062401G372A 000389000389                                    
HR4G80625711761015539000004QO5B                   ON8984241706    HCP    0078  
HR5G806257117612018062401A007A 003370003370                                    
HR4G80625711841015539000004QO5C                   ON5655711843  MXHCP    0078  
HR5G806257118412018062401A007A 003370003370                                    
HR4G80625712081015539000004QO5D                   ON5768729542  KDHCP    0078  
HR5G806257120812018062401A007A 003370003370                                    
HR4G80625711951015539000004QO5E                   ON8444164761  TNHCP    0078  
HR5G806257119512018062401A007A 003370003370                                    
HR4G80625711911015539000004QO50                   ON7669495439  DWHCP    0078  
HR5G806257119112018062401A007A 003370003370                                    
HR4G80625712071015539000004QO51                   ON7483156365  JYHCP    0078  
HR5G806257120712018062401A007A 003370003370                                    
HR5G806257120712018062401G010A 000207000207                                    
HR4G80625711751015539000004QO52                   ON1954318695  VXHCP    0078  
HR5G806257117512018062401A007A 003370003370                                    
HR4G80625711961015539000004QO53                   ON8790834512  WMHCP    0078  
HR5G806257119612018062401A007A 003370003370                                    
HR4G80625711811015539000004QO54                   ON3276740689  MWHCP    0078  
HR5G806257118112018062401A007A 003370003370                                    
HR4G80625711791015539000004QO55                   ON8449703548  CXHCP    0078  
HR5G806257117912018062401A007A 003370003370                                    
HR4G80625711861015539000004QO56                   ON8896168401  XWHCP    0078  
HR5G806257118612018062401A007A 003370003370                                    
HR4G80625711731015539000004QO57                   ON3058632237  JPHCP    0078  
HR5G806257117312018062401A003A 007720007720                                    
HR4G80625712031015539000004QO58                   ON7237882340  PMHCP    0078  
HR5G806257120312018062401A007A 003370003370                                    
HR4G80625712111015539000004QO59                   ON2156452159  MHHCP    0078  
HR5G806257121112018062401A007A 003370003370                                    
HR4G80627232541015539000004QUTH                   ON3321934766  GRHCP    0078  
HR5G806272325412018062501A007A 003370003370                                    
HR5G806272325412018062501G010A 000207000207                                    
HR4G80627232141015539000004QUTI                   ON9610565088  NRHCP    0078  
HR5G806272321412018062501A007A 003370003370                                    
HR5G806272321412018062501G010A 000207000207                                    
HR4G80627232631015539000004QUTJ                   ON6176410154  FFHCP    0078  
HR5G806272326312018062501A007A 003370003370                                    
HR4G80627232601015539000004QUTK                   ON4028160796  AXHCP    0078  
HR5G806272326012018062501A007A 003370003370                                    
HR4G80627232361015539000004QUTL                   ON7261326297  HMHCP    0078  
HR5G806272323612018062501A007A 003370003370                                    
HR4G80627232221015539000004QUTM                   ON5705709094  AYHCP    0078  
HR5G806272322212018062501A007A 003370003370                                    
HR4G80627232461015539000004QUTN                   ON6377562837  KPHCP    0078  
HR5G806272324612018062501A007A 003370003370                                    
HR4G80627232511015539000004QUTO                   ON3628253779  TMHCP    0078  
HR5G806272325112018062501A007A 003370003370                                    
HR5G806272325112018062501G010A 000207000207                                    
HR4G80627232621015539000004QUTP                   ON5542573703  ABHCP    0078  
HR5G806272326212018062501A007A 003370003370                                    
HR4G80627232191015539000004QUTQ                   ON6408199120  WNHCP    0078  
HR5G806272321912018062501A007A 003370003370                                    
HR4G80627232271015539000004QUTR                   ON2190604096  CEHCP    0078  
HR5G806272322712018062501A007A 003370003370                                    
HR4G80627232321015539000004QUTS                   ON1463711711  FYHCP    0078  
HR5G806272323212018062501A007A 003370003370                                    
HR4G80627232471015539000004QUTT                   ON5139533706  DGHCP    0078  
HR5G806272324712018062501A001A 002170002170                                    
HR4G80627232571015539000004QUTU                   ON8796747718  VAHCP    0078  
HR5G806272325712018062501A007A 003370003370                                    
HR4G80627232551015539000004QUTV                   ON9112732566  DBHCP    0078  
HR5G806272325512018062501A007A 003370003370                                    
HR4G80627232661015539000004QUTW                   ON5284280756  HCHCP    0078  
HR5G806272326612018062501A007A 003370003370                                    
HR4G80627232181015539000004QUTX                   ON7350247362  HRHCP    0078  
HR5G806272321812018062501A007A 003370003370                                    
HR4G80627232291015539000004QUTY                   ON5801716480  KNHCP    0078  
HR5G806272322912018062501A007A 003370003370                                    
HR4G80627232521015539000004QUTZ                   ON2319342529  TFHCP    0078  
HR5G806272325212018062501A007A 003370003370                                    
HR4G80627232161015539000004QUUA                   ON7662236921  CPHCP    0078  
HR5G806272321612018062501A007A 003370003370                                    
HR4G80627232591015539000004QUUB                   ON3434582148  WNHCP    0078  
HR5G806272325912018062501A007A 003370003370                                    
HR4G80627232641015539000004QUUC                   ON4526880176  GEHCP    0078  
HR5G806272326412018062501A001A 002170002170                                    
HR5G806272326412018062501G372A 000389000389                                    
HR4G80627232201015539000004QUUD                   ON8784989611  VMHCP    0078  
HR5G806272322012018062501A007A 003370003370                                    
HR4G80627232301015539000004QUUF                   ON5350750989  RGHCP    0078  
HR5G806272323012018062501A007A 003370003370                                    
HR4G80627232251015539000004QUUG                   ON3169749094  ARHCP    0078  
HR5G806272322512018062501A007A 003370003370                                    
HR5G806272322512018062501G372A 000389000389                                    
HR4G80627232211015539000004QUUH                   ON3041087705  YWHCP    0078  
HR5G806272322112018062501A007A 003370003370                                    
HR4G80627232611015539000004QUUI                   ON4794034480  NAHCP    0078  
HR5G806272326112018062501A007A 003370003370                                    
HR4G80627232431015539000004QUUJ                   ON6733042904  RBHCP    0078  
HR5G806272324312018062501A007A 003370003370                                    
HR4G80627232341015539000004QUUK                   ON1328431695  VBHCP    0078  
HR5G806272323412018062501A007A 003370003370                                    
HR4G80627232231015539000004QUUL                   ON3415126873  XLHCP    0078  
HR5G806272322312018062501A007A 003370003370                                    
HR4G80627232411015539000004QUUM                   ON4400971000  LYHCP    0078  
HR5G806272324112018062501A007A 003370003370                                    
HR4G80627232351015539000004QUUN                   ON3342140963  TAHCP    0078  
HR5G806272323512018062501A007A 003370003370                                    
HR4G80627232311015539000004QUUP                   ON6652173276  VEHCP    0078  
HR5G806272323112018062501A007A 003370003370                                    
HR4G80627232481015539000004QUUQ                   ON4544232699    HCP    0078  
HR5G806272324812018062501A007A 003370003370                                    
HR4G80627232491015539000004QUUR                   ON1971078959  FGHCP    0078  
HR5G806272324912018062501A007A 003370003370                                    
HR4G80627232391015539000004QUUS                   ON9420760432  AFHCP    0078  
HR5G806272323912018062501A001A 002170002170                                    
HR5G806272323912018062501G202A 000445000445                                    
HR4G80627232581015539000004QUUT                   ON6953869440  CPHCP    0078  
HR5G806272325812018062501A007A 003370003370                                    
HR4G80627232241015539000004QUUU                   ON9482639599  CXHCP    0078  
HR5G806272322412018062501A007A 003370003370                                    
HR4G80627232451015539000004QUUV                   ON6926582385  MEHCP    0078  
HR5G806272324512018062501A007A 003370003370                                    
HR4G80627232501015539000004QUUW                   ON6336202525  FFHCP    0078  
HR5G806272325012018062501A007A 003370003370                                    
HR4G80627232421015539000004QUUX                   ON1730248919  ETHCP    0078  
HR5G806272324212018062501A007A 003370003370                                    
HR4G80627232151015539000004QUU0                   ON5453080920  ARHCP    0078  
HR5G806272321512018062501A007A 003370003370                                    
HR4G80627232561015539000004QUU1                   ON8325357187  WTHCP    0078  
HR5G806272325612018062501A007A 003370003370                                    
HR4G80627232171015539000004QUU2                   ON7805461535  BWHCP    0078  
HR5G806272321712018062501A007A 003370003370                                    
HR4G80627232651015539000004QUU3                   ON5081351461  XCHCP    0078  
HR5G806272326512018062501A007A 003370003370                                    
HR4G80627232381015539000004QUU4                   ON5108550624  TVHCP    0078  
HR5G806272323812018062501A007A 003370003370                                    
HR4G80627232371015539000004QUU5                   ON5135869906  FJHCP    0078  
HR5G806272323712018062501A007A 003370003370                                    
HR4G80627232331015539000004QUU6                   ON1107894816  YYHCP    0078  
HR5G806272323312018062501A001A 002170002170                                    
HR4G80627232281015539000004QUU7                   ON1858289430  TTHCP    0078  
HR5G806272322812018062501A007A 003370003370                                    
HR4G80627232401015539000004QUU8                   ON8316993651  PXHCP    0078  
HR5G806272324012018062501A007A 003370003370                                    
HR4G80627232261015539000004QUU9                   ON4367096296  DDHCP    0078  
HR5G806272322612018062501A007A 003370003370                                    
HR4G81820372511015539000004Q4SH                   ON1563007374  NMHCP    0078  
HR5G818203725112018061901A007A 003370003370                                    
HR4G81820372851015539000004Q4SI                   ON8098269627  PKHCP    0078  
HR5G818203728512018061901A007A 003370003370                                    
HR4G81820372781015539000004Q4SJ                   ON8857117645  RHHCP    0078  
HR5G818203727812018061901A007A 003370003370                                    
HR4G81820372561015539000004Q4SK                   ON5780490099  XRHCP    0078  
HR5G818203725612018061901A007A 003370003370                                    
HR5G818203725612018061901G010A 000207000207                                    
HR4G81820372411015539000004Q4SL                   ON3128055294  DHHCP    0078  
HR5G818203724112018061901A007A 003370003370                                    
HR4G81820372471015539000004Q4SM                   ON8210691393  MVHCP    0078  
HR5G818203724712018061901A007A 003370003370                                    
HR4G81820372461015539000004Q4SN                   ON2141805503  LWHCP    0078  
HR5G818203724612018061901A007A 003370003370                                    
HR4G81820372691015539000004Q4SO                   ON6532667638  WRHCP    0078  
HR5G818203726912018061901A007A 003370003370                                    
HR4G81820372771015539000004Q4SP                   ON6428248329  BYHCP    0078  
HR5G818203727712018061901A007A 003370003370                                    
HR4G81820372581015539000004Q4SQ                   ON5611661462  BPHCP    0078  
HR5G818203725812018061901A007A 003370003370                                    
HR4G81820372611015539000004Q4SR                   ON9902991265  XBHCP    0078  
HR5G818203726112018061901A007A 003370003370                                    
HR4G81820372801015539000004Q4SS                   ON7412512738  RHHCP    0078  
HR5G818203728012018061901A007A 003370003370                                    
HR4G81820372631015539000004Q4ST                   ON7789589707  FVHCP    0078  
HR5G818203726312018061901A007A 003370003370                                    
HR4G81820372881015539000004Q4SU                   ON1853977872  VHHCP    0078  
HR5G818203728812018061901A007A 003370003370                                    
HR4G81820372331015539000004Q4SV                   ON4150246116  RLHCP    0078  
HR5G818203723312018061901A007A 003370003370                                    
HR4G81820372381015539000004Q4SW                   ON1052556816  HMHCP    0078  
HR5G818203723812018061901K005A 006275006275                                    
HR4G81820372481015539000004Q4SX                   ON7728675518  XCHCP    0078  
HR5G818203724812018061901A001A 002170002170                                    
HR5G818203724812018061901G372A 000389000389                                    
HR4G81820372721015539000004Q4SY                   ON1962182422  LWHCP    0078  
HR5G818203727212018061901A007A 003370003370                                    
HR4G81820372641015539000004Q4SZ                   ON3689099723  LJHCP    0078  
HR5G818203726412018061901A007A 003370003370                                    
HR4G81820372401015539000004Q4TA                   ON9156129836  YAHCP    0078  
HR5G818203724012018061901A001A 002170002170                                    
HR5G818203724012018061902G372A 000778000778                                    
HR4G81820372571015539000004Q4TB                   ON8448486772  BEHCP    0078  
HR5G818203725712018061901A007A 003370003370                                    
HR4G81820372841015539000004Q4TC                   ON3298298856  JJHCP    0078  
HR5G818203728412018061901A007A 003370003370                                    
HR5G818203728412018061901G846A 000450000450                                    
HR4G81820372711015539000004Q4TD                   ON2510947688  LRHCP    0078  
HR5G818203727112018061901A007A 003370003370                                    
HR4G81820372821015539000004Q4TE                   ON2517913287  AVHCP    0078  
HR5G818203728212018061901A007A 003370003370                                    
HR4G81820372871015539000004Q4TF                   ON5284280756  HCHCP    0078  
HR5G818203728712018061901A007A 003370003370                                    
HR4G81820372751015539000004Q4TG                   ON9655790039  JBHCP    0078  
HR5G818203727512018061901A007A 003370003370                                    
HR4G81820372421015539000004Q4TH                   ON5287694599  MHHCP    0078  
HR5G818203724212018061901A007A 003370003370                                    
HR5G818203724212018061901G372A 000389000389                                    
HR4G81820372681015539000004Q4TI                   ON4441552850  TTHCP    0078  
HR5G818203726812018061901A007A 003370003370                                    
HR4G81820372761015539000004Q4TJ                   ON2054014879  NJHCP    0078  
HR5G818203727612018061901A007A 003370003370                                    
HR4G81820372521015539000004Q4TK                   ON7239418168  BDHCP    0078  
HR5G818203725212018061901A007A 003370003370                                    
HR4G81820372591015539000004Q4TL                   ON3916984234  VBHCP    0078  
HR5G818203725912018061901A007A 003370003370                                    
HR5G818203725912018061901G372A 000389000389                                    
HR4G80625414511015539000004Q4TM                   ON9689463579  MVHCP    0078  
HR5G806254145112018061901A007A 003370003370                                    
HR5G806254145112018061901G420A 001125001125                                    
HR4G81820372371015539000004Q4TN                   ON4728126964  CEHCP    0078  
HR5G818203723712018061901A007A 003370003370                                    
HR4G81820372351015539000004Q4TO                   ON2417513526  LVHCP    0078  
HR5G818203723512018061901A007A 003370003370                                    
HR4G81820372531015539000004Q4TP                   ON6871119316  XJHCP    0078  
HR5G818203725312018061901A007A 003370003370                                    
HR4G81820372741015539000004Q4TQ                   ON9452714026  LMHCP    0078  
HR5G818203727412018061901A007A 003370003370                                    
HR4G81820372621015539000004Q4TR                   ON7162445949  GMHCP    0078  
HR5G818203726212018061901A007A 003370003370                                    
HR4G81820372391015539000004Q4TS                   ON9420760432  AFHCP    0078  
HR5G818203723912018061901A001A 002170002170                                    
HR5G818203723912018061901G202A 000445000445                                    
HR4G81820372341015539000004Q4TT                   ON6696372900  YHHCP    0078  
HR5G818203723412018061901A007A 003370003370                                    
HR4G81820372321015539000004Q4TU                   ON9527094388  DBHCP    0078  
HR5G818203723212018061901A007A 003370003370                                    
HR4G81820372831015539000004Q4TV                   ON2135268569  TTHCP    0078  
HR5G818203728312018061901A007A 003370003370                                    
HR4G81820372441015539000004Q4TW                   ON9385311551  NCHCP    0078  
HR5G818203724412018061901A007A 003370003370                                    
HR4G81820372671015539000004Q4TX                   ON8727886056  BCHCP    0078  
HR5G818203726712018061901A007A 003370003370                                    
HR4G81820372491015539000004Q4TY                   ON3303851947  JXHCP    0078  
HR5G818203724912018061901A007A 003370003370                                    
HR5G818203724912018061901G372A 000389000389                                    
HR4G81820372731015539000004Q4TZ                   ON5518444038  KRHCP    0078  
HR5G818203727312018061901A007A 003370003370                                    
HR4G81820372431015539000004Q4T0                   ON9655157817  HFHCP    0078  
HR5G818203724312018061901A007A 003370003370                                    
HR4G81820372811015539000004Q4T1                   ON5698978268  LVHCP    0078  
HR5G818203728112018061901A007A 003370003370                                    
HR4G81820372861015539000004Q4T2                   ON1198170274  HCHCP    0078  
HR5G818203728612018061901A007A 003370003370                                    
HR5G818203728612018061901G010A 000207000207                                    
HR4G81820372361015539000004Q4T3                   ON2156452159  MHHCP    0078  
HR5G818203723612018061901A007A 003370003370                                    
HR4G81820372661015539000004Q4T4                   ON5778254747  RCHCP    0078  
HR5G818203726612018061901A007A 003370003370                                    
HR5G818203726612018061901G372A 000389000389                                    
HR4G81820372651015539000004Q4T5                   ON5655956679  ARHCP    0078  
HR5G818203726512018061901A007A 003370003370                                    
HR4G81820372601015539000004Q4T6                   ON6798944481  ACHCP    0078  
HR5G818203726012018061901A007A 003370003370                                    
HR5G818203726012018061901G372A 000389000389                                    
HR4G81820372541015539000004Q4T7                   ON6501834474  PWHCP    0078  
HR5G818203725412018061901A007A 003370003370                                    
HR5G818203725412018061901G841A 000450000450                                    
HR4G81820372551015539000004Q4T8                   ON2764329153  YXHCP    0078  
HR5G818203725512018061901A007A 003370003370                                    
HR4G81820372791015539000004Q4T9                   ON4350552081  WAHCP    0078  
HR5G818203727912018061901A007A 003370003370                                    
HR4G81820372701015539000004Q4U0                   ON9225253575  PTHCP    0078  
HR5G818203727012018061901A007A 003370003370                                    
HR5G818203727012018061901G010A 000207000207                                    
HR4G81820372501015539000004Q4U1                   ON1206143263  EVHCP    0078  
HR5G818203725012018061901A007A 003370003370                                    
HR4G80628303761015539000004R4JA                   ON2455288320  HGHCP    0078  
HR5G806283037612018062701A007A 003370003370                                    
HR4G80628303641015539000004R4JB                   ON3705207953  RYHCP    0078  
HR5G806283036412018062701A007A 003370003370                                    
HR5G806283036412018062701G010A 000207000207                                    
HR4G80628303811015539000004R4JC                   ON5453080920  ARHCP    0078  
HR5G806283038112018062701A007A 003370003370                                    
HR4G80628303681015539000004R4JD                   ON2147529503  TAHCP    0078  
HR5G806283036812018062701A007A 003370003370                                    
HR4G80628303821015539000004R4JE                   ON9986107259  FKHCP    0078  
HR5G806283038212018062701A007A 003370003370                                    
HR5G806283038212018062701G372A 000389000389                                    
HR4G80628303601015539000004R4JF                   ON2887595771  NGHCP    0078  
HR5G806283036012018062701A003A 007720007720                                    
HR4G80628303891015539000004R4JG                   ON1560788539  WWHCP    0078  
HR5G806283038912018062701A007A 003370003370                                    
HR4G80628303671015539000004R4JH                   ON1318955562  RXHCP    0078  
HR5G806283036712018062701A007A 003370003370                                    
HR4G80628303981015539000004R4JI                   ON8308058240  VNHCP    0078  
HR5G806283039812018062701A007A 003370003370                                    
HR4G80628303941015539000004R4JJ                   ON6793092609  MKHCP    0078  
HR5G806283039412018062701A007A 003370003370                                    
HR5G806283039412018062701G005A 000388000388                                    
HR5G806283039412018062701G010A 000207000207                                    
HR4G80628303731015539000004R4JK                   ON9610351349  KYHCP    0078  
HR5G806283037312018062701A007A 003370003370                                    
HR4G80628303861015539000004R4JL                   ON3125506968  PYHCP    0078  
HR5G806283038612018062701A007A 003370003370                                    
HR5G806283038612018062701G005A 000388000388                                    
HR4G80628303971015539000004R4JM                   ON2926686672  WVHCP    0078  
HR5G806283039712018062701A007A 003370003370                                    
HR4G80628303591015539000004R4JN                   ON5630255957  FAHCP    0078  
HR5G806283035912018062701A007A 003370003370                                    
HR4G80628303911015539000004R4JO                   ON4149708010  PCHCP    0078  
HR5G806283039112018062701A007A 003370003370                                    
HR4G80628303631015539000004R4JP                   ON6343463524  RJHCP    0078  
HR5G806283036312018062701A007A 003370003370                                    
HR4G80628303801015539000004R4JQ                   ON3002264665  KHHCP    0078  
HR5G806283038012018062701A007A 003370003370                                    
HR4G80628303961015539000004R4JR                   ON7114694271  XMHCP    0078  
HR5G806283039612018062701A007A 003370003370                                    
HR4G80628303691015539000004R4JS                   ON4672411321  PEHCP    0078  
HR5G806283036912018062701A007A 003370003370                                    
HR4G80628303871015539000004R4JT                   ON7992076294  VMHCP    0078  
HR5G806283038712018062701A001A 002170002170                                    
HR4G80628303771015539000004R4JU                   ON7025910535  AXHCP    0078  
HR5G806283037712018062701A007A 003370003370                                    
HR4G80628303831015539000004R4JV                   ON4534261658  LBHCP    0078  
HR5G806283038312018062701A007A 003370003370                                    
HR4G80628303741015539000004R4JW                   ON2772061863  KBHCP    0078  
HR5G806283037412018062701A007A 003370003370                                    
HR4G80628303931015539000004R4JX                   ON9443205225  MGHCP    0078  
HR5G806283039312018062701A007A 003370003370                                    
HR4G80628303701015539000004R4JY                   ON5572903754  PRHCP    0078  
HR5G806283037012018062701A007A 003370003370                                    
HR4G80628303651015539000004R4JZ                   ON4094978881  DGHCP    0078  
HR5G806283036512018062701A007A 003370003370                                    
HR4G80628303621015539000004R4J0                   ON7316966394  RFHCP    0078  
HR5G806283036212018062701A007A 003370003370                                    
HR4G80628303781015539000004R4J1                   ON8648378787  KFHCP    0078  
HR5G806283037812018062701A007A 003370003370                                    
HR4G80628303791015539000004R4J2                   ON1351660939  VTHCP    0078  
HR5G806283037912018062701A001A 002170002170                                    
HR5G806283037912018062701G202A 000445000445                                    
HR4G80628303841015539000004R4J3                   ON9647137133  FDHCP    0078  
HR5G806283038412018062701A007A 003370003370                                    
HR5G806283038412018062701G010A 000207000207                                    
HR4G80628303951015539000004R4J4                   ON4697067652  KWHCP    0078  
HR5G806283039512018062701A007A 003370003370                                    
HR4G80628303581015539000004R4J5                   ON1379275306  APHCP    0078  
HR5G806283035812018062701A007A 003370003370                                    
HR4G80628303881015539000004R4J7                   ON8147154770  HFHCP    0078  
HR5G806283038812018062701K005A 006275006275                                    
HR4G80628303661015539000004R4J8                   ON6170239336  WJHCP    0078  
HR5G806283036612018062701A007A 003370003370                                    
HR4G80628303711015539000004R4J9                   ON5521937218  JEHCP    0078  
HR5G806283037112018062701A007A 003370003370                                    
HR4G806119953610155390000316587                   ON3261152924  WVHCP    0078  
HR5G806119953612018020501A007A 003370000000 35                                 
HR4G806119953710155390000316588                   ON8825372801  ABHCP    0078  
HR5G806119953712018020501A007A 003370000000 35                                 
HR4G806119953810155390000316589                   ON1575523517  LBHCP    0078  
HR5G806119953812018020501A007A 003370000000 35                                 
HR4G806119953910155390000316590                   ON3622756843  KMHCP    0078  
HR5G806119953912018020501A007A 003370000000 35                                 
HR4G806119954010155390000316591                   ON6953869440  CPHCP    0078  
HR5G806119954012018020501A007A 003370000000 35                                 
HR4G806119954210155390000316594                   ON5262992174  GDHCP    0078  
HR5G806119954212018020501A007A 003370000000 35                                 
HR4G806119954310155390000316595                   ON2563141726  FVHCP    0078  
HR5G806119954312018020501A001A 002170000000 35                                 
HR5G806119954312018020501G847A 000450000000 35                                 
HR4G806119954410155390000316596                   ON9494158893  YLHCP    0078  
HR5G806119954412018020501A007A 003370000000 35                                 
HR4G806119954510155390000316597                   ON9145406105  DAHCP    0078  
HR5G806119954512018020501A007A 003370000000 35                                 
HR4G806119954610155390000316598                   ON6913835861  VPHCP    0078  
HR5G806119954612018020501A007A 003370000000 35                                 
HR4G806119954710155390000316599                   ON5497431105  AFHCP    0078  
HR5G806119954712018020501A007A 003370000000 35                                 
HR5G806119954712018020501G848A 000450000000 35                                 
HR4G806119954810155390000316600                   ON6767799304  JHHCP    0078  
HR5G806119954812018020501A007A 003370000000 35                                 
HR4G806119954910155390000316601                   ON4790055927  KWHCP    0078  
HR5G806119954912018020501A007A 003370000000 35                                 
HR4G806119955010155390000316602                   ON4501718961  GJHCP    0078  
HR5G806119955012018020501A007A 003370000000 35                                 
HR4G806119955110155390000316603                   ON7949698562  VJHCP    0078  
HR5G806119955112018020501A007A 003370000000 35                                 
HR4G806119955210155390000316604                   ON6265934759  GFHCP    0078  
HR5G806119955212018020501A007A 003370000000 35                                 
HR4G806119955310155390000316605                   ON1295447849  BCHCP    0078  
HR5G806119955312018020501A007A 003370000000 35                                 
HR4G806119955410155390000316606                   ON7864319988  BXHCP    0078  
HR5G806119955412018020501A007A 003370000000 35                                 
HR4G806119955510155390000316607                   ON1224689644  YPHCP    0078  
HR5G806119955512018020501A007A 003370000000 35                                 
HR4G806119955610155390000316608                   ON5514333540  XWHCP    0078  
HR5G806119955612018020501A007A 003370000000 35                                 
HR4G806119955710155390000316609                   ON5849138671  YGHCP    0078  
HR5G806119955712018020501A007A 003370000000 35                                 
HR4G806119955810155390000316611                   ON3044414468  NFHCP    0078  
HR5G806119955812018020501A007A 003370000000 35                                 
HR4G806119955910155390000316612                   ON4638242737    HCP    0078  
HR5G806119955912018020501A007A 003370000000 35                                 
HR4G806119956010155390000316613                   ON5884470039  RTHCP    0078  
HR5G806119956012018020501A007A 003370000000 35                                 
HR4G806119956110155390000316614                   ON9246611603  VKHCP    0078  
HR5G806119956112018020501A007A 003370000000 35                                 
HR4G806119956210155390000316615                   ON6474261770  HHHCP    0078  
HR5G806119956212018020501A007A 003370000000 35                                 
HR5G806119956212018020501G005A 000388000000 35                                 
HR4G806119956310155390000316616                   ON5779064202  MNHCP    0078  
HR5G806119956312018020501A007A 003370000000 35                                 
HR4G806119956410155390000316617                   ON2904965718  YHHCP    0078  
HR5G806119956412018020501A007A 003370000000 35                                 
HR4G806119956510155390000316618                   ON9046303294  VLHCP    0078  
HR5G806119956512018020501A007A 003370000000 35                                 
HR5G806119956512018020501G010A 000207000000 35                                 
HR4G806119956610155390000316619                   ON3171113065  BVHCP    0078  
HR5G806119956612018020501A007A 003370000000 35                                 
HR4G806119956710155390000316620                   ON5502876856  PHHCP    0078  
HR5G806119956712018020501K005A 006275000000 35                                 
HR4G806119956810155390000316621                   ON8449312936  WXHCP    0078  
HR5G806119956812018020501A007A 003370000000 35                                 
HR4G806119956910155390000316622                   ON8443707974  WYHCP    0078  
HR5G806119956912018020501A007A 003370000000 35                                 
HR4G806119957010155390000316623                   ON3718063930  ANHCP    0078  
HR5G806119957012018020501A007A 003370000000 36                                 
HR4G806119957110155390000316624                   ON5783702359  WVHCP    0078  
HR5G806119957112018020501A007A 003370000000 35                                 
HR4G806119957210155390000316627                   ON3469839587  ARHCP    0078  
