HR1V030007800000000H720180815STONEY CREEK MEDICAL WALK IN C005467101 99999999  
HR2                              2A - 140 CENTENNIAL PARKW                     
HR3HAMILTON        ON L8E1H9                                                   
HR4G81906286581015539000004QUUE                   ON9874682017  ABHCP    0078  
HR5G819062865812018062501A007A 003370003370                                    
HR4G81906286541015539000004QUUO                   ON8257424906  TLHCP    0078  
HR5G819062865412018062501A007A 003370003370                                    
HR4G80705315451015539000004RC7O                   ON3452757713  MYHCP    0078  
HR5G807053154512018062901A007A 003370003370                                    
HR4G80705315491015539000004RC7P                   ON7253877877  RFHCP    0078  
HR5G807053154912018062901A007A 003370003370                                    
HR4G80705315431015539000004RC7Q                   ON3145071787  LNHCP    0078  
HR5G807053154312018062901A007A 003370003370                                    
HR4G80705315621015539000004RC7R                   ON1318350194  BBHCP    0078  
HR5G807053156212018062901A003A 007720007720                                    
HR5G807053156212018062901G010A 000207000207                                    
HR4G80705315401015539000004RC7S                   ON4988634384  KPHCP    0078  
HR5G807053154012018062901A007A 003370003370                                    
HR4G80705315571015539000004RC7T                   ON6374511951  GAHCP    0078  
HR5G807053155712018062901A007A 003370003370                                    
HR4G80705315381015539000004RC7U                   ON6532816821  JWHCP    0078  
HR5G807053153812018062901A007A 003370003370                                    
HR4G80705315371015539000004RC7V                   ON2978934459  JNHCP    0078  
HR5G807053153712018062901A007A 003370003370                                    
HR4G80705315361015539000004RC7W                   ON8430503204  LEHCP    0078  
HR5G807053153612018062901A007A 003370003370                                    
HR4G80705315631015539000004RC7X                   ON3456052871  CCHCP    0078  
HR5G807053156312018062901A007A 003370003370                                    
HR4G80705315661015539000004RC7Y                   ON3191606247  TRHCP    0078  
HR5G807053156612018062901A007A 003370003370                                    
HR4G80705315391015539000004RC7Z                   ON2651244317  VCHCP    0078  
HR5G807053153912018062901A007A 003370003370                                    
HR4G80705315351015539000004RC8A                   ON9078467389  GNHCP    0078  
HR5G807053153512018062901A007A 003370003370                                    
HR4G80705315521015539000004RC8B                   ON8031847976  MEHCP    0078  
HR5G807053155212018062901K005A 006275006275                                    
HR4G80705315541015539000004RC8C                   ON7414573563  WKHCP    0078  
HR5G807053155412018062901A007A 003370003370                                    
HR4G80705315441015539000004RC8D                   ON6302280810  NVHCP    0078  
HR5G807053154412018062901A007A 003370003370                                    
HR4G80705315411015539000004RC8E                   ON9072084321  FGHCP    0078  
HR5G807053154112018062901A007A 003370003370                                    
HR5G807053154112018062901G010A 000207000207                                    
HR4G80705315421015539000004RC8F                   ON1163863325  HFHCP    0078  
HR5G807053154212018062901A007A 003370003370                                    
HR4G80705315591015539000004RC8G                   ON7237882340  PMHCP    0078  
HR5G807053155912018062901A007A 003370003370                                    
HR5G807053155912018062901G372A 000389000389                                    
HR4G80705315551015539000004RC8H                   ON1131759639  KLHCP    0078  
HR5G807053155512018062901A007A 003370003370                                    
HR4G80705315331015539000004RC8I                   ON9912055622  JMHCP    0078  
HR5G807053153312018062901A007A 003370003370                                    
HR4G80705315511015539000004RC8J                   ON6475977127  JDHCP    0078  
HR5G807053155112018062901A007A 003370003370                                    
HR4G80705315611015539000004RC80                   ON6323535028  AKHCP    0078  
HR5G807053156112018062901A001A 002170002170                                    
HR4G80705315341015539000004RC81                   ON3442867432  LMHCP    0078  
HR5G807053153412018062901A007A 003370003370                                    
HR4G80705315531015539000004RC82                   ON1633825995  MKHCP    0078  
HR5G807053155312018062901A007A 003370003370                                    
HR4G80705315481015539000004RC83                   ON5267080652  YFHCP    0078  
HR5G807053154812018062901A007A 003370003370                                    
HR4G80705315501015539000004RC84                   ON6364792835  CLHCP    0078  
HR5G807053155012018062901A001A 002170002170                                    
HR4G80705315471015539000004RC85                   ON7088528281  WXHCP    0078  
HR5G807053154712018062901A007A 003370003370                                    
HR4G80705315581015539000004RC86                   ON7380209929  GVHCP    0078  
HR5G807053155812018062901A007A 003370003370                                    
HR4G80705315641015539000004RC87                   ON3181046800  CLHCP    0078  
HR5G807053156412018062901A007A 003370003370                                    
HR4G80705315651015539000004RC88                   ON3298298856  JJHCP    0078  
HR5G807053156512018062901A007A 003370003370                                    
HR4G80705315601015539000004RC89                   ON4582619930  TJHCP    0078  
HR5G807053156012018062901A007A 003370003370                                    
HR4G80705315561015539000004RC9I                   ON9588330663  FJHCP    0078  
HR5G807053155612018062401A007A 003370000000 35                                 
HR5G807053155612018062401G005A 000388000000 35                                 
HR5G807053155612018062401G010A 000207000000 35                                 
HR4G80705315461015539000004RC9J                   ON3898513902  PLHCP    0078  
HR5G807053154612018062401A007A 003370000000 35                                 
HR4G81906286721015539000004RI8N                   ON5988276712  LVHCP    0078  
HR5G819062867212018070201A888A 003370003370                                    
HR4G81906286451015539000004RI8O                   ON6435779696  LXHCP    0078  
HR5G819062864512018070201A888A 003370003370                                    
HR4G81906286081015539000004RI8P                   ON7354252392  MVHCP    0078  
HR5G819062860812018070201A888A 003370003370                                    
HR4G81906286561015539000004RI8Q                   ON9110102796  MLHCP    0078  
HR5G819062865612018070201A888A 003370003370                                    
HR5G819062865612018070201G010A 000207000207                                    
HR4G81906286631015539000004RI8R                   ON7422202122  XJHCP    0078  
HR5G819062866312018070201A888A 003370003370                                    
HR4G81906286531015539000004RI8S                   ON4873602363  YCHCP    0078  
HR5G819062865312018070201A888A 003370003370                                    
HR4G81906286511015539000004RI8T                   ON5887250586  LNHCP    0078  
HR5G819062865112018070201A888A 003370003370                                    
HR4G81906286751015539000004RI8U                   ON9897216470  TDHCP    0078  
HR5G819062867512018070201A888A 003370003370                                    
HR5G819062867512018070201G202A 000445000445                                    
HR4G81906286821015539000004RI8V                   ON5783097891  HXHCP    0078  
HR5G819062868212018070201A888A 003370003370                                    
HR4G81906286431015539000004RI8W                   ON5979099792  TKHCP    0078  
HR5G819062864312018070201A888A 003370003370                                    
HR4G81906286301015539000004RI8X                   ON6644651298  CEHCP    0078  
HR5G819062863012018070201A888A 003370003370                                    
HR4G81906286741015539000004RI8Y                   ON6750259050  GBHCP    0078  
HR5G819062867412018070201A888A 003370003370                                    
HR4G81906286251015539000004RI8Z                   ON9851831306  EMHCP    0078  
HR5G819062862512018070201A888A 003370003370                                    
HR5G819062862512018070201K055A 002000002000                                    
HR4G81906286221015539000004RI9A                   ON3510539038  JBHCP    0078  
HR5G819062862212018070201A888A 003370003370                                    
HR4G81906286811015539000004RI9B                   ON7347554656  XRHCP    0078  
HR5G819062868112018070201A888A 003370003370                                    
HR5G819062868112018070201G420A 001125001125                                    
HR4G81906286711015539000004RI9C                   ON9338032437  EWHCP    0078  
HR5G819062867112018070201A888A 003370003370                                    
HR4G81906286171015539000004RI9D                   ON9564834035  DLHCP    0078  
HR5G819062861712018070201A888A 003370003370                                    
HR4G81906286201015539000004RI9E                   ON9612873092  XNHCP    0078  
HR5G819062862012018070201A888A 003370003370                                    
HR4G81906286841015539000004RI9F                   ON5521564210  LNHCP    0078  
HR5G819062868412018070201A888A 003370003370                                    
HR4G81906286461015539000004RI90                   ON5882616161  VHHCP    0078  
HR5G819062864612018070201A888A 003370003370                                    
HR4G81906286861015539000004RI91                   ON3450077866  FGHCP    0078  
HR5G819062868612018070201A888A 003370003370                                    
HR4G81906286471015539000004RI92                   ON6742709626  CMHCP    0078  
HR5G819062864712018070201A888A 003370003370                                    
HR4G81906286571015539000004RI93                   ON7825891521  LEHCP    0078  
HR5G819062865712018070201A888A 003370003370                                    
HR4G81906286091015539000004RI94                   ON1545830141  DVHCP    0078  
HR5G819062860912018070201A888A 003370003370                                    
HR4G81906286421015539000004RI95                   ON9420760432  AFHCP    0078  
HR5G819062864212018070201A888A 003370003370                                    
HR5G819062864212018070201G202A 000445000445                                    
HR4G81906286641015539000004RI96                   ON7076057301  HDHCP    0078  
HR5G819062866412018070201A888A 003370003370                                    
HR4G81906286621015539000004RI97                   ON7009508669  LMHCP    0078  
HR5G819062866212018070201A888A 003370003370                                    
HR4G81906286131015539000004RI98                   ON6014845629  VXHCP    0078  
HR5G819062861312018070201A888A 003370003370                                    
HR5G819062861312018070201G010A 000207000207                                    
HR4G81906286151015539000004RI99                   ON6524235204  DHHCP    0078  
HR5G819062861512018070201A888A 003370003370                                    
HR4G81906286771015539000004RNGX                   ON4866202544  WDHCP    0078  
HR5G819062867712018070301A007A 003370003370                                    
HR4G81906286671015539000004RNGY                   ON6715472095  ABHCP    0078  
HR5G819062866712018070301A007A 003370003370                                    
HR4G81906286271015539000004RNGZ                   ON6028006929  PFHCP    0078  
HR5G819062862712018070301A001A 002170002170                                    
HR4G81906286611015539000004RNHA                   ON6517113178  YPHCP    0078  
HR5G819062866112018070301A007A 003370003370                                    
HR4G81906286101015539000004RNHB                   ON4646444713  MXHCP    0078  
HR5G819062861012018070301A007A 003370003370                                    
HR4G81906286601015539000004RNHC                   ON9139371273  TEHCP    0078  
HR5G819062866012018070301A007A 003370003370                                    
HR4G81906286381015539000004RNHD                   ON9125156530  YEHCP    0078  
HR5G819062863812018070301A007A 003370003370                                    
HR4G81906286851015539000004RNHE                   ON5622847308  LCHCP    0078  
HR5G819062868512018070301A007A 003370003370                                    
HR4G81906286781015539000004RNHF                   ON9655157817  HFHCP    0078  
HR5G819062867812018070301A007A 003370003370                                    
HR4G81906286411015539000004RNHG                   ON5453080920  ARHCP    0078  
HR5G819062864112018070301A007A 003370003370                                    
HR4G81906286651015539000004RNHH                   ON6472836862  DLHCP    0078  
HR5G819062866512018070301A007A 003370003370                                    
HR5G819062866512018070301G847A 000450000450                                    
HR4G81906286371015539000004RNHI                   ON2743583409  KEHCP    0078  
HR5G819062863712018070301A007A 003370003370                                    
HR4G81906286691015539000004RNHJ                   ON1754397535  VCHCP    0078  
HR5G819062866912018070301K005A 006275006275                                    
HR4G81906286261015539000004RNHK                   ON1442486799  MYHCP    0078  
HR5G819062862612018070301A003A 007720007720                                    
HR4G81906286521015539000004RNHL                   ON1678620830  HFHCP    0078  
HR5G819062865212018070301A007A 003370003370                                    
HR4G81906286241015539000004RNHM                   ON5867410507  KYHCP    0078  
HR5G819062862412018070301A007A 003370003370                                    
HR5G819062862412018070301G420A 001125001125                                    
HR4G81906286111015539000004RNHN                   ON6772421001  MTHCP    0078  
HR5G819062861112018070301A007A 003370003370                                    
HR5G819062861112018070301G010A 000207000207                                    
HR4G81906286791015539000004RNHO                   ON2192663488  HBHCP    0078  
HR5G819062867912018070301A007A 003370003370                                    
HR4G81906286731015539000004RNHP                   ON8743751318  CVHCP    0078  
HR5G819062867312018070301A007A 003370003370                                    
HR4G81906286801015539000004RNHQ                   ON5915862238  FGHCP    0078  
HR5G819062868012018070301A007A 003370003370                                    
HR4G81906286551015539000004RNHR                   ON9375695914  WRHCP    0078  
HR5G819062865512018070301A007A 003370003370                                    
HR4G81906286331015539000004RNHS                   ON5595145722  GTHCP    0078  
HR5G819062863312018070301A001A 002170002170                                    
HR5G819062863312018070301G372A 000389000389                                    
HR4G81906286701015539000004RNHT                   ON6199907327  XLHCP    0078  
HR5G819062867012018070301A007A 003370003370                                    
HR4G81906286401015539000004RNHU                   ON2697698781  HEHCP    0078  
HR5G819062864012018070301K005A 006275006275                                    
HR4G81906286141015539000004RNHV                   ON2068755780  HJHCP    0078  
HR5G819062861412018070301A007A 003370003370                                    
HR4G81906286761015539000004RNHW                   ON2674214503  BLHCP    0078  
HR5G819062867612018070301A001A 002170002170                                    
HR5G819062867612018070301G372A 000389000389                                    
HR4G81906286161015539000004RNHY                   ON6585962894    HCP    0078  
HR5G819062861612018070301A007A 003370003370                                    
HR4G81906286231015539000004RNHZ                   ON5799949309  MBHCP    0078  
HR5G819062862312018070301A007A 003370003370                                    
HR5G819062862312018070301G372A 000389000389                                    
HR4G81906286191015539000004RNH0                   ON6304539585  XCHCP    0078  
HR5G819062861912018070301A007A 003370003370                                    
HR4G81906286831015539000004RNH1                   ON2191629936  EFHCP    0078  
HR5G819062868312018070301A001A 002170002170                                    
HR4G81906286481015539000004RNH2                   ON7529613619  HXHCP    0078  
HR5G819062864812018070301A007A 003370003370                                    
HR4G81906286311015539000004RNH4                   ON2365543335  BRHCP    0078  
HR5G819062863112018070301A007A 003370003370                                    
HR4G81906286341015539000004RNH5                   ON7299965009  FYHCP    0078  
HR5G819062863412018070301A007A 003370003370                                    
HR5G819062863412018070301G010A 000207000207                                    
HR4G81906286491015539000004RNH6                   ON6791718825  CLHCP    0078  
HR5G819062864912018070301A007A 003370003370                                    
HR4G81906286661015539000004RNH7                   ON3665987511  GBHCP    0078  
HR5G819062866612018070301A007A 003370003370                                    
HR5G819062866612018070301G010A 000207000207                                    
HR4G81906286871015539000004RNH8                   ON5865861537  KCHCP    0078  
HR5G819062868712018070301A007A 003370003370                                    
HR4G81906286211015539000004RNH9                   ON3193383894  PJHCP    0078  
HR5G819062862112018070301A007A 003370003370                                    
HR5G819062862112018070301E079A 001540001540                                    
HR4G81906286291015539000004RNIA                   ON9087543394  CMHCP    0078  
HR5G819062862912018070301A007A 003370003370                                    
HR4G81906286881015539000004RNIB                   ON4215517808  KJHCP    0078  
HR5G819062868812018070301A007A 003370003370                                    
HR4G81906286501015539000004RNIC                   ON6708705428  EPHCP    0078  
HR5G819062865012018070301A007A 003370003370                                    
HR5G819062865012018070301G010A 000207000207                                    
HR4G81906286181015539000004RNID                   ON5188632136  NWHCP    0078  
HR5G819062861812018070301A007A 003370003370                                    
HR4G81906286681015539000004RNI0                   ON3629184098  PAHCP    0078  
HR5G819062866812018070301A007A 003370003370                                    
HR4G81906286321015539000004RNI1                   ON2517913287  AVHCP    0078  
HR5G819062863212018070301A007A 003370003370                                    
HR4G81906286391015539000004RNI2                   ON2499650592  EVHCP    0078  
HR5G819062863912018070301A007A 003370003370                                    
HR4G81906286591015539000004RNI3                   ON6380405156  DTHCP    0078  
HR5G819062865912018070301A007A 003370003370                                    
HR4G81906286281015539000004RNI4                   ON2727839413  PEHCP    0078  
HR5G819062862812018070301A007A 003370003370                                    
HR4G81906286361015539000004RNI5                   ON8037011940  GFHCP    0078  
HR5G819062863612018070301A007A 003370003370                                    
HR4G81906286441015539000004RNI7                   ON4094978881  DGHCP    0078  
HR5G819062864412018070301A007A 003370003370                                    
HR4G81906286351015539000004RNI8                   ON3978015521  RFHCP    0078  
HR5G819062863512018070301A007A 003370003370                                    
HR4G81906286121015539000004RNI9                   ON1779200458  FKHCP    0078  
HR5G819062861212018070301A007A 003370003370                                    
HR4G80709411371015539000004RU87                   ON3332763303  BFHCP    0078  
HR5G807094113712018070301A007A 003370003370                                    
HR4G80709411411015539000004RXAA                   ON5400714696  YTHCP    0078  
HR5G807094114112018070501A007A 003370003370                                    
HR4G80709411191015539000004RXAB                   ON4869331936    HCP    0078  
HR5G807094111912018070501A007A 003370003370                                    
HR4G80709411261015539000004RXAC                   ON7849352070  PAHCP    0078  
HR5G807094112612018070501A007A 003370003370                                    
HR4G80709411671015539000004RXAD                   ON1310212608  ARHCP    0078  
HR5G807094116712018070501A007A 003370003370                                    
HR4G80709411401015539000004RXAE                   ON8505630304  AGHCP    0078  
HR5G807094114012018070501A007A 003370003370                                    
HR4G80709411431015539000004RXAF                   ON1127668877  VWHCP    0078  
HR5G807094114312018070501A007A 003370003370                                    
HR5G807094114312018070501G845A 000450000450                                    
HR4G80709411221015539000004RXAG                   ON9905065505  RAHCP    0078  
HR5G807094112212018070501A007A 003370003370                                    
HR5G807094112212018070501G010A 000207000207                                    
HR4G80709411281015539000004RXAH                   ON6060072086  VCHCP    0078  
HR5G807094112812018070501A007A 003370003370                                    
HR4G80709411291015539000004RXAI                   ON4637626781  MHHCP    0078  
HR5G807094112912018070501A007A 003370003370                                    
HR4G80709411311015539000004RXAJ                   ON7652312245  EEHCP    0078  
HR5G807094113112018070501A007A 003370003370                                    
HR4G80709411611015539000004RXAK                   ON1343119655  TLHCP    0078  
HR5G807094116112018070501A003A 007720007720                                    
HR4G80709411621015539000004RXAL                   ON8041059489  GHHCP    0078  
HR5G807094116212018070501A007A 003370003370                                    
HR4G80709411581015539000004RXAM                   ON6796207337  ETHCP    0078  
HR5G807094115812018070501A007A 003370003370                                    
HR4G80709411201015539000004RXAN                   ON4776611214  YEHCP    0078  
HR5G807094112012018070501A007A 003370003370                                    
HR4G80709411331015539000004RXAO                   ON2681965675  NNHCP    0078  
HR5G807094113312018070501A007A 003370003370                                    
HR4G80709411681015539000004RXAP                   ON6264516284  GGHCP    0078  
HR5G807094116812018070501A007A 003370003370                                    
HR4G80709411711015539000004RXAQ                   ON5574873658  NWHCP    0078  
HR5G807094117112018070501A001A 002170002170                                    
HR5G807094117112018070501G202A 000445000445                                    
HR4G80709411321015539000004RXAR                   ON5556260973  BTHCP    0078  
HR5G807094113212018070501A007A 003370003370                                    
HR4G80709411251015539000004RXAS                   ON5613323509  HHHCP    0078  
HR5G807094112512018070501A007A 003370003370                                    
HR4G80709411491015539000004RXAT                   ON9083606047  KYHCP    0078  
HR5G807094114912018070501A007A 003370003370                                    
HR4G80709411451015539000004RXAU                   ON6161999526  NFHCP    0078  
HR5G807094114512018070501A007A 003370003370                                    
HR4G80709411591015539000004RXAV                   ON7037511545  NEHCP    0078  
HR5G807094115912018070501A007A 003370003370                                    
HR4G80709411541015539000004RXAW                   ON1575523517  LBHCP    0078  
HR5G807094115412018070501A007A 003370003370                                    
HR4G80709411691015539000004RXAX                   ON5224624907  JWHCP    0078  
HR5G807094116912018070501A007A 003370003370                                    
HR4G80709411271015539000004RXAY                   ON9724373221  DHHCP    0078  
HR5G807094112712018070501A007A 003370003370                                    
HR4G80709411571015539000004RXAZ                   ON6153236549  LTHCP    0078  
HR5G807094115712018070501A007A 003370003370                                    
HR4G80709411231015539000004RXA0                   ON6689957238  DAHCP    0078  
HR5G807094112312018070501A007A 003370003370                                    
HR5G807094112312018070501G841A 000450000450                                    
HR4G80709411511015539000004RXA1                   ON2038360703  EBHCP    0078  
HR5G807094115112018070501A007A 003370003370                                    
HR4G80709411601015539000004RXA2                   ON7658128629  JNHCP    0078  
HR5G807094116012018070501A007A 003370003370                                    
HR4G80709411391015539000004RXA3                   ON5354583618  VFHCP    0078  
HR5G807094113912018070501A007A 003370003370                                    
HR4G80709411561015539000004RXA4                   ON1780836035  KJHCP    0078  
HR5G807094115612018070501A007A 003370003370                                    
HR4G80709411661015539000004RXA5                   ON1052556816  HMHCP    0078  
HR5G807094116612018070501A007A 003370003370                                    
HR4G80709411351015539000004RXA6                   ON5216637768  RRHCP    0078  
HR5G807094113512018070501A007A 003370003370                                    
HR5G807094113512018070501G847A 000450000450                                    
HR4G80709411521015539000004RXA7                   ON7678769170  VBHCP    0078  
HR5G807094115212018070501A007A 003370003370                                    
HR4G80709411301015539000004RXA8                   ON5814032891  HMHCP    0078  
HR5G807094113012018070501A007A 003370003370                                    
HR4G80709411361015539000004RXA9                   ON9791796502  PEHCP    0078  
HR5G807094113612018070501A007A 003370003370                                    
HR5G807094113612018070501G841A 000450000450                                    
HR4G80709411701015539000004RXBA                   ON6778255387  BKHCP    0078  
HR5G807094117012018070501A007A 003370003370                                    
HR4G80709411421015539000004RXBB                   ON6903753900  KCHCP    0078  
HR5G807094114212018070501A007A 003370003370                                    
HR4G80709411501015539000004RXB0                   ON9602427420  WRHCP    0078  
HR5G807094115012018070501A007A 003370003370                                    
HR4G80709411531015539000004RXB1                   ON3977592181  RAHCP    0078  
HR5G807094115312018070501A007A 003370003370                                    
HR4G80709411651015539000004RXB2                   ON8381061665  WRHCP    0078  
HR5G807094116512018070501A007A 003370003370                                    
HR4G80709411211015539000004RXB3                   ON9483558970  PGHCP    0078  
HR5G807094112112018070501A007A 003370003370                                    
HR4G80709411631015539000004RXB4                   ON9415988238  APHCP    0078  
HR5G807094116312018070501A007A 003370003370                                    
HR5G807094116312018070501G372A 000389000389                                    
HR4G80709411721015539000004RXB5                   ON5422750744  HTHCP    0078  
HR5G807094117212018070501A007A 003370003370                                    
HR4G80709411441015539000004RXB7                   ON7657248691  DBHCP    0078  
HR5G807094114412018070501A007A 003370003370                                    
HR4G80709411241015539000004RXB8                   ON7783732931  MJHCP    0078  
HR5G807094112412018070501A007A 003370003370                                    
HR4G80709411551015539000004RXB9                   ON8588022312  HNHCP    0078  
HR5G807094115512018070501A007A 003370003370                                    
HR4G81909174251015539000004RX8D                   ON6110795603  LXHCP    0078  
HR5G819091742512018062701A007A 003370000000 35                                 
HR4G80709411471015539000004RX9U                   ON4391647478  NYHCP    0078  
HR5G807094114712018070501A007A 003370003370                                    
HR4G80709411481015539000004RX9V                   ON5747845369  RVHCP    0078  
HR5G807094114812018070501A007A 003370003370                                    
HR4G80709411341015539000004RX9W                   ON4646444713  MXHCP    0078  
HR5G807094113412018070501A007A 003370003370                                    
HR4G80709411461015539000004RX9X                   ON3449891005  Q HCP    0078  
HR5G807094114612018070501A007A 003370003370                                    
HR4G80709411381015539000004RX9Y                   ON5820347069  GTHCP    0078  
HR5G807094113812018070501A007A 003370003370                                    
HR4G80709411731015539000004RX9Z                   ON6170239336  WJHCP    0078  
HR5G807094117312018070501A007A 003370003370                                    
HR4G81909174261015539000004RX91                   ON1199914514  HTHCP    0078  
HR5G819091742612018062701A007A 003370003370                                    
HR4G80709411641015539000004R4K0                   ON6110795603  LXHCP    0078  
HR5G807094116412018062701A007A 003370003370                                    
HR4G81904180071015539000004R8PO                   ON7347554656  XRHCP    0078  
HR5G819041800712018062801A007A 003370003370                                    
HR5G819041800712018062801G010A 000207000207                                    
HR5G819041800712018062801G420A 001125001125                                    
HR4G81904180171015539000004R8PP                   ON4220922654  WPHCP    0078  
HR5G819041801712018062801A007A 003370003370                                    
HR4G81904180021015539000004R8PQ                   ON1526054133  CNHCP    0078  
HR5G819041800212018062801A007A 003370003370                                    
HR4G81904179991015539000004R8PR                   ON1945347241  JGHCP    0078  
HR5G819041799912018062801A007A 003370003370                                    
HR4G81904180131015539000004R8PS                   ON9737590852  EBHCP    0078  
HR5G819041801312018062801A007A 003370003370                                    
HR4G81904180321015539000004R8PT                   ON8765692069  WFHCP    0078  
HR5G819041803212018062801A001A 002170002170                                    
HR4G81904180261015539000004R8PU                   ON5454224675  XCHCP    0078  
HR5G819041802612018062801A007A 003370003370                                    
HR4G81904180051015539000004R8PV                   ON4579741994  WYHCP    0078  
HR5G819041800512018062801A007A 003370003370                                    
HR4G81904180191015539000004R8PW                   ON9757388328  TEHCP    0078  
HR5G819041801912018062801A007A 003370003370                                    
HR4G81904180211015539000004R8PX                   ON4826515589  VMHCP    0078  
HR5G819041802112018062801A007A 003370003370                                    
HR4G81904180121015539000004R8PY                   ON3828601553  EHHCP    0078  
HR5G819041801212018062801A007A 003370003370                                    
HR4G81904180011015539000004R8PZ                   ON3718063930  ANHCP    0078  
HR5G819041800112018062801A007A 003370003370                                    
HR4G81904180291015539000004R8QA                   ON8984941826  HAHCP    0078  
HR5G819041802912018062801A007A 003370003370                                    
HR4G81904180161015539000004R8QB                   ON3513572572  MGHCP    0078  
HR5G819041801612018062801A007A 003370003370                                    
HR4G81904180221015539000004R8QD                   ON1589823804  WJHCP    0078  
HR5G819041802212018062801A007A 003370003370                                    
HR4G81904180041015539000004R8QE                   ON5574873658  NWHCP    0078  
HR5G819041800412018062801A001A 002170002170                                    
HR5G819041800412018062801G202A 000445000445                                    
HR4G81904180061015539000004R8QF                   ON1310212608  ARHCP    0078  
HR5G819041800612018062801A007A 003370003370                                    
HR4G81904180091015539000004R8QG                   ON8274139842  BHHCP    0078  
HR5G819041800912018062801A007A 003370003370                                    
HR4G81904180081015539000004R8QH                   ON4900368335  VYHCP    0078  
HR5G819041800812018062801A007A 003370003370                                    
HR4G81904180301015539000004R8QI                   ON6235323042  YLHCP    0078  
HR5G819041803012018062801A007A 003370003370                                    
HR5G819041803012018062801G372A 000389000389                                    
HR4G81904179981015539000004R8QJ                   ON7864319988  BXHCP    0078  
HR5G819041799812018062801A007A 003370003370                                    
HR4G81904180101015539000004R8QK                   ON6913835861  VPHCP    0078  
HR5G819041801012018062801A007A 003370003370                                    
HR4G81904180271015539000004R8QL                   ON2248159374  JGHCP    0078  
HR5G819041802712018062801A007A 003370003370                                    
HR5G819041802712018062801G010A 000207000207                                    
HR4G81904180311015539000004R8QM                   ON7566840992  WGHCP    0078  
HR5G819041803112018062801A007A 003370003370                                    
HR4G81904180251015539000004R8QN                   ON9415988238  APHCP    0078  
HR5G819041802512018062801A001A 002170002170                                    
HR5G819041802512018062801G372A 000389000389                                    
HR4G81904180241015539000004R8Q0                   ON8989918142  ELHCP    0078  
HR5G819041802412018062801A007A 003370003370                                    
HR4G81904180001015539000004R8Q2                   ON5135869906  FJHCP    0078  
HR5G819041800012018062801A001A 002170002170                                    
HR4G81904180201015539000004R8Q3                   ON7438862109  ABHCP    0078  
HR5G819041802012018062801A007A 003370003370                                    
HR4G81904180111015539000004R8Q4                   ON1754397535  VCHCP    0078  
HR5G819041801112018062801A007A 003370003370                                    
HR5G819041801112018062802G372A 000778000778                                    
HR4G81904180281015539000004R8Q5                   ON1295447849  BCHCP    0078  
HR5G819041802812018062801A007A 003370003370                                    
HR4G81904180181015539000004R8Q6                   ON8512028096    HCP    0078  
HR5G819041801812018062801A003A 007720007720                                    
HR4G81904180231015539000004R8Q7                   ON8298246946  BNHCP    0078  
HR5G819041802312018062801A007A 003370003370                                    
HR4G81904180151015539000004R8Q8                   ON3127734493  GRHCP    0078  
HR5G819041801512018062801A007A 003370003370                                    
HR4G81904180141015539000004R8Q9                   ON1443509128  CLHCP    0078  
HR5G819041801412018062801A001A 002170002170                                    
HR5G819041801412018062801G202A 000445000445                                    
HR4G80710679781015539000004SBYM                   ON5953123170  TYHCP    0078  
HR5G807106797812018070901A007A 003370003370                                    
HR5G807106797812018070901G841A 000450000450                                    
HR5G807106797812018070901G846A 000450000450                                    
HR4G80710680071015539000004SBYN                   ON5646827880  GLHCP    0078  
HR5G807106800712018070901A007A 003370003370                                    
HR4G80710680031015539000004SBYO                   ON6324799086  RFHCP    0078  
HR5G807106800312018070901A007A 003370003370                                    
HR4G80710679931015539000004SBYP                   ON2914510165  FBHCP    0078  
HR5G807106799312018070901A007A 003370003370                                    
HR4G80710679801015539000004SBYQ                   ON7948685669  JDHCP    0078  
HR5G807106798012018070901A007A 003370003370                                    
HR5G807106798012018070902G372A 000778000778                                    
HR4G80710679821015539000004SBYR                   ON2974757250  VAHCP    0078  
HR5G807106798212018070901A007A 003370003370                                    
HR4G80710679971015539000004SBYS                   ON6427631483  FDHCP    0078  
HR5G807106799712018070901K005A 006275006275                                    
HR4G80710679981015539000004SBYT                   ON6689957238  DAHCP    0078  
HR5G807106799812018070901A001A 002170002170                                    
HR5G807106799812018070901G845A 000450000450                                    
HR4G80710679891015539000004SBYU                   ON4375539469  ACHCP    0078  
HR5G807106798912018070901A007A 003370003370                                    
HR4G80710680091015539000004SBYV                   ON1299390862  YVHCP    0078  
HR5G807106800912018070901A007A 003370003370                                    
HR4G80710679901015539000004SBYW                   ON2697100952  JWHCP    0078  
HR5G807106799012018070901A007A 003370003370                                    
HR4G80710679961015539000004SBYX                   ON8122100517  CHHCP    0078  
HR5G807106799612018070901K005A 006275006275                                    
HR4G80710679811015539000004SBYY                   ON5546508523  NVHCP    0078  
HR5G807106798112018070901A007A 003370003370                                    
HR4G80710680011015539000004SBYZ                   ON4665995835  CDHCP    0078  
HR5G807106800112018070901A003A 007720007720                                    
HR4G80710679941015539000004SBZA                   ON6530264206  KEHCP    0078  
HR5G807106799412018070901A007A 003370003370                                    
HR4G80710680021015539000004SBZB                   ON1422854164  JHHCP    0078  
HR5G807106800212018070901A007A 003370003370                                    
HR4G80710679861015539000004SBZC                   ON2394801076  FPHCP    0078  
HR5G807106798612018070901A007A 003370003370                                    
HR4G80710680051015539000004SBZD                   ON2695917332  RDHCP    0078  
HR5G807106800512018070901A007A 003370003370                                    
HR4G80710679951015539000004SBZE                   ON3389197264  JNHCP    0078  
HR5G807106799512018070901A007A 003370003370                                    
HR4G80710679831015539000004SBZF                   ON1840746299  BVHCP    0078  
HR5G807106798312018070901A007A 003370003370                                    
HR4G80710679871015539000004SBZG                   ON9420760432  AFHCP    0078  
HR5G807106798712018070901A007A 003370003370                                    
HR5G807106798712018070901G202A 000445000445                                    
HR4G80710680001015539000004SBZH                   ON1310212608  ARHCP    0078  
HR5G807106800012018070901A007A 003370003370                                    
HR4G80710680061015539000004SBZI                   ON1979617261  EXHCP    0078  
HR5G807106800612018070901A007A 003370003370                                    
HR4G80710679761015539000004SBZJ                   ON2238730176  GLHCP    0078  
HR5G807106797612018070901A007A 003370003370                                    
HR5G807106797612018070901G420A 001125001125                                    
HR4G80710680041015539000004SBZK                   ON8800139605  REHCP    0078  
HR5G807106800412018070901A007A 003370003370                                    
HR4G80710679841015539000004SBZ0                   ON2905242430  VEHCP    0078  
HR5G807106798412018070901A007A 003370003370                                    
HR4G80710679751015539000004SBZ1                   ON7617169342  VXHCP    0078  
HR5G807106797512018070901A007A 003370003370                                    
HR4G80710679921015539000004SBZ2                   ON2455652996  GPHCP    0078  
HR5G807106799212018070901A007A 003370000000 36                                 
HR4G80710679922015539000004SBZ2                   ON2455652996  GPHCP    0078  
HR5G807106799222018070901A007A 003370003370                                    
HR5G807106799222018070901A007A 003370000000 55                                 
HR4G80710679771015539000004SBZ3                   ON1589823804  WJHCP    0078  
HR5G807106797712018070901A007A 003370003370                                    
HR4G80710679851015539000004SBZ4                   ON7805461535  BWHCP    0078  
HR5G807106798512018070901A001A 002170002170                                    
HR4G80710680081015539000004SBZ5                   ON3325503690  WEHCP    0078  
HR5G807106800812018070901A007A 003370003370                                    
HR4G80710679991015539000004SBZ6                   ON3608787317  WYHCP    0078  
HR5G807106799912018070901A007A 003370003370                                    
HR4G80710679881015539000004SBZ7                   ON5618290646  EHHCP    0078  
HR5G807106798812018070901A007A 003370003370                                    
HR4G80710679911015539000004SBZ8                   ON2187396722  VYHCP    0078  
HR5G807106799112018070901A007A 003370003370                                    
HR4G80710679791015539000004SBZ9                   ON6550660960  VVHCP    0078  
HR5G807106797912018070901A003A 007720007720                                    
HR4G80711669371015539000004SGTK                   ON9429474514  XGHCP    0078  
HR5G807116693712018071001A007A 003370003370                                    
HR4G80711669471015539000004SGTL                   ON2496964939  JKHCP    0078  
HR5G807116694712018071001A007A 003370003370                                    
HR4G80711669351015539000004SGTO                   ON5347749326  MKHCP    0078  
HR5G807116693512018071001A007A 003370003370                                    
HR5G807116693512018071001G010A 000207000207                                    
HR4G80711669231015539000004SGTP                   ON8366080854  NCHCP    0078  
HR5G807116692312018071001A007A 003370003370                                    
HR4G80711669531015539000004SGTQ                   ON1866049495  FJHCP    0078  
HR5G807116695312018071001A007A 003370003370                                    
HR4G80711669321015539000004SGTR                   ON3961472788  FHHCP    0078  
HR5G807116693212018071001A007A 003370003370                                    
HR5G807116693212018071001G010A 000207000207                                    
HR4G80711669411015539000004SGTS                   ON7728675518  XCHCP    0078  
HR5G807116694112018071001A001A 002170002170                                    
HR4G80711669241015539000004SGTT                   ON8843447247  FEHCP    0078  
HR5G807116692412018071001A007A 003370003370                                    
HR4G80711669511015539000004SGTU                   ON9851831306  EMHCP    0078  
HR5G807116695112018071001A007A 003370003370                                    
HR4G80711669461015539000004SGTV                   ON5882616161  VHHCP    0078  
HR5G807116694612018071001A007A 003370003370                                    
HR4G80711669251015539000004SGTW                   ON4582619930  TJHCP    0078  
HR5G807116692512018071001A007A 003370003370                                    
HR4G80711669441015539000004SGTX                   ON1048064297  LCHCP    0078  
HR5G807116694412018071001A007A 003370003370                                    
HR4G80711669361015539000004SGTY                   ON5058401349  DWHCP    0078  
HR5G807116693612018071001A007A 003370003370                                    
HR4G80711669341015539000004SGUA                   ON7297321015  KEHCP    0078  
HR5G807116693412018071001A007A 003370003370                                    
HR4G80711669521015539000004SGUB                   ON4316569476  MFHCP    0078  
HR5G807116695212018071001A007A 003370003370                                    
HR5G807116695212018071001G010A 000207000207                                    
HR4G80711669551015539000004SGUC                   ON5224624907  JWHCP    0078  
HR5G807116695512018071001E430A 001155000000 M1                                 
HR5G807116695512018071001G365A 000675000000 M1                                 
HR5G807116695512018071001K131A 005000005000                                    
HR4G80711669331015539000004SGUD                   ON1583467822  XKHCP    0078  
HR5G807116693312018071001A007A 003370003370                                    
HR4G80711669451015539000004SGUE                   ON3981506748  VMHCP    0078  
HR5G807116694512018071001A007A 003370003370                                    
HR4G80711669301015539000004SGUF                   ON5949130131  KYHCP    0078  
HR5G807116693012018071001A001A 002170002170                                    
HR4G80711669311015539000004SGUG                   ON9334191286  REHCP    0078  
HR5G807116693112018071001A007A 003370003370                                    
HR4G80711669281015539000004SGUH                   ON4258520859  NCHCP    0078  
HR5G807116692812018071001A007A 003370003370                                    
HR4G80711669481015539000004SGUI                   ON4658053147  FKHCP    0078  
HR5G807116694812018071001A007A 003370003370                                    
HR4G80711669221015539000004SGUJ                   ON5397401893    HCP    0078  
HR5G807116692212018071001A007A 003370003370 EV                                 
HR4G80711669491015539000004SGUK                   ON4412945950  CGHCP    0078  
HR5G807116694912018071001A007A 003370003370                                    
HR4G80711669561015539000004SGUL                   ON9843682379  JHHCP    0078  
HR5G807116695612018071001A007A 003370003370                                    
HR4G80711669291015539000004SGUM                   ON7765950766  HTHCP    0078  
HR5G807116692912018071001A007A 003370003370                                    
HR4G80711669541015539000004SGUN                   ON8507371899  EJHCP    0078  
HR5G807116695412018071001A007A 003370003370                                    
HR4G80711669571015539000004SGUO                   ON1730248919  ETHCP    0078  
HR5G807116695712018071001A007A 003370003370                                    
HR4G80711669501015539000004SGU0                   ON8587497002  LTHCP    0078  
HR5G807116695012018071001A007A 003370003370                                    
HR4G80711669391015539000004SGU1                   ON1889929921  EHHCP    0078  
HR5G807116693912018071001A007A 003370003370                                    
HR4G80711669431015539000004SGU2                   ON1595903145  MGHCP    0078  
HR5G807116694312018071001A007A 003370003370                                    
HR5G807116694312018071001G365A 000675000675                                    
HR4G80711669261015539000004SGU3                   ON3254270345  YGHCP    0078  
HR5G807116692612018071001A007A 003370003370                                    
HR4G80711669401015539000004SGU4                   ON9136339919  ATHCP    0078  
HR5G807116694012018071001A007A 003370003370                                    
HR4G80711669591015539000004SGU5                   ON8125216054    HCP    0078  
HR5G807116695912018071001A007A 003370003370                                    
HR5G807116695912018071001G010A 000207000207                                    
HR4G80711669581015539000004SGU6                   ON5442325469  WRHCP    0078  
HR5G807116695812018071001A007A 003370003370                                    
HR4G80711669421015539000004SGU7                   ON5287694599  MHHCP    0078  
HR5G807116694212018071001A007A 003370003370                                    
HR5G807116694212018071001G372A 000389000389                                    
HR4G80711669271015539000004SGU8                   ON6072395392  KYHCP    0078  
HR5G807116692712018071001A007A 003370003370                                    
HR5G807116692712018071001G372A 000389000389                                    
HR4G80711669381015539000004SGU9                   ON1445541632  NMHCP    0078  
HR5G807116693812018071001A007A 003370003370                                    
HR4G80713495631015539000004SPQL                   ON5325620168  TTHCP    0078  
HR5G807134956312018071001A007A 003370003370                                    
HR4G80713495281015539000004SR7B                   ON7156751351  DLHCP    0078  
HR5G807134952812018071201A007A 003370003370                                    
HR4G80713495381015539000004SR7C                   ON9977789289  HBHCP    0078  
HR5G807134953812018071201A007A 003370003370                                    
HR4G80713495321015539000004SR7D                   ON5150019437  GKHCP    0078  
HR5G807134953212018071201A001A 002170002170                                    
HR5G807134953212018071201G372A 000389000389                                    
HR4G80713495721015539000004SR7E                   ON2117433009  KLHCP    0078  
HR5G807134957212018071201A007A 003370003370                                    
HR4G80713495221015539000004SR7F                   ON6144157838  KTHCP    0078  
HR5G807134952212018071201A007A 003370003370                                    
HR4G80713495261015539000004SR7H                   ON6377113177  BXHCP    0078  
HR5G807134952612018071201A001A 002170002170                                    
HR5G807134952612018071201G845A 000450000450                                    
HR4G80713495331015539000004SR7I                   ON8843447247  FEHCP    0078  
HR5G807134953312018071201A007A 003370003370                                    
HR4G80713495341015539000004SR7J                   ON8828371644  EEHCP    0078  
HR5G807134953412018071201A001A 002170002170                                    
HR5G807134953412018071201G372A 000389000389                                    
HR4G80713495541015539000004SR7K                   ON2484923657  PBHCP    0078  
HR5G807134955412018071201A007A 003370003370                                    
HR4G80713495201015539000004SR7L                   ON8125216054    HCP    0078  
HR5G807134952012018071201A007A 003370003370                                    
HR4G80713495231015539000004SR7M                   ON8349630791  CJHCP    0078  
HR5G807134952312018071201A001A 002170002170                                    
HR5G807134952312018071201G847A 000450000450                                    
HR4G80713495351015539000004SR7N                   ON5403908642  WPHCP    0078  
HR5G807134953512018071201A007A 003370003370                                    
HR4G80713495241015539000004SR7O                   ON8406360605  PJHCP    0078  
HR5G807134952412018071201A007A 003370003370                                    
HR4G80724312701015539000004SR7P                   ON9263363476  DGHCP    0078  
HR5G807243127012018071201A007A 003370003370                                    
HR4G80713495451015539000004SR7Q                   ON8548017394  WCHCP    0078  
HR5G807134954512018071201A007A 003370003370                                    
HR4G80713495461015539000004SR7R                   ON5453080920  ARHCP    0078  
HR5G807134954612018071201A007A 003370003370                                    
HR5G807134954612018071201G372A 000389000389                                    
HR4G80713495641015539000004SR7S                   ON8567887024  FWHCP    0078  
HR5G807134956412018071201A001A 002170002170                                    
HR5G807134956412018071201G202A 000445000445                                    
HR4G80713495571015539000004SR7T                   ON4469534772  FKHCP    0078  
HR5G807134955712018071201A007A 003370003370                                    
HR5G807134955712018071201G010A 000207000207                                    
HR4G80713495561015539000004SR7U                   ON8968620974  XBHCP    0078  
HR5G807134955612018071201A007A 003370003370                                    
HR4G80713495211015539000004SR7V                   ON9039806824  PBHCP    0078  
HR5G807134952112018071201A007A 003370003370                                    
HR4G80713495481015539000004SR7W                   ON4316569476  MFHCP    0078  
HR5G807134954812018071201A007A 003370003370                                    
HR4G80713495521015539000004SR7X                   ON8041059489  GHHCP    0078  
HR5G807134955212018071201A007A 003370003370                                    
HR4G80713495661015539000004SR7Y                   ON9786422106  XAHCP    0078  
HR5G807134956612018071201A007A 003370003370                                    
HR4G80713495601015539000004SR7Z                   ON6848158934  GAHCP    0078  
HR5G807134956012018071201A001A 002170002170                                    
HR5G807134956012018071201G420A 001125001125                                    
HR4G80713495301015539000004SR73                   ON6187267544  EFHCP    0078  
HR5G807134953012018071201A007A 003370003370                                    
HR4G80713495471015539000004SR74                   ON7347554656  XRHCP    0078  
HR5G807134954712018071201A007A 003370003370                                    
HR4G80713495621015539000004SR75                   ON6094476980  YJHCP    0078  
HR5G807134956212018071201A007A 003370003370                                    
HR4G80713495391015539000004SR76                   ON2926261468  JKHCP    0078  
HR5G807134953912018071201A007A 003370003370                                    
HR4G80713495551015539000004SR77                   ON2345059105  WGHCP    0078  
HR5G807134955512018071201A007A 003370003370                                    
HR4G80713495271015539000004SR78                   ON2490229214  TLHCP    0078  
HR5G807134952712018071201A007A 003370003370                                    
HR4G80713495701015539000004SR79                   ON8697930769  FPHCP    0078  
HR5G807134957012018071201A003A 007720007720                                    
HR4G80713495611015539000004SR8A                   ON4901238495  NNHCP    0078  
HR5G807134956112018071201A007A 003370003370                                    
HR4G80713495411015539000004SR8B                   ON6886193025  TPHCP    0078  
HR5G807134954112018071201A007A 003370003370                                    
HR5G807134954112018071201G010A 000207000207                                    
HR4G80713495531015539000004SR8C                   ON3741553055  ETHCP    0078  
HR5G807134955312018071201A007A 003370003370                                    
HR4G80713495501015539000004SR8D                   ON5667725468  JBHCP    0078  
HR5G807134955012018071201A007A 003370003370                                    
HR5G807134955012018071201G372A 000389000389                                    
HR4G80713495421015539000004SR8E                   ON8513620032  EGHCP    0078  
HR5G807134954212018071201A007A 003370003370                                    
HR4G80713495581015539000004SR8F                   ON8512028096    HCP    0078  
HR5G807134955812018071201A007A 003370003370                                    
HR4G80713495371015539000004SR8G                   ON9531366293  VGHCP    0078  
HR5G807134953712018071201A007A 003370003370                                    
HR4G80713495681015539000004SR8H                   ON6863918766  KDHCP    0078  
HR5G807134956812018071201A007A 003370003370                                    
HR4G80713495291015539000004SR8I                   ON4215517808  KJHCP    0078  
HR5G807134952912018071201A007A 003370003370                                    
HR4G80713495431015539000004SR8J                   ON1761954989  KMHCP    0078  
HR5G807134954312018071201A007A 003370003370                                    
HR4G80713495491015539000004SR8K                   ON1971840507  FYHCP    0078  
HR5G807134954912018071201A007A 003370003370                                    
HR4G80713495251015539000004SR8L                   ON2248159374  JGHCP    0078  
HR5G807134952512018071201A007A 003370003370                                    
HR4G80713495731015539000004SR80                   ON5911038874  KLHCP    0078  
HR5G807134957312018071201A007A 003370003370                                    
HR5G807134957312018071201G372A 000389000389                                    
HR4G80713495591015539000004SR81                   ON8211359834  BXHCP    0078  
HR5G807134955912018071201A007A 003370003370                                    
HR4G80713495711015539000004SR82                   ON4572317305  YEHCP    0078  
HR5G807134957112018071201A007A 003370003370                                    
HR5G807134957112018071201G372A 000389000389                                    
HR4G80713495511015539000004SR83                   ON4283331108  THHCP    0078  
HR5G807134955112018071201A007A 003370003370                                    
HR5G807134955112018071201G372A 000389000389                                    
HR4G80713495671015539000004SR84                   ON3902348923  RXHCP    0078  
HR5G807134956712018071201A007A 003370003370                                    
HR4G80713495401015539000004SR85                   ON6474874879  ECHCP    0078  
HR5G807134954012018071201A007A 003370003370                                    
HR4G80713495441015539000004SR86                   ON4393905338  VBHCP    0078  
HR5G807134954412018071201A007A 003370003370                                    
HR4G80713495361015539000004SR87                   ON3833972668  TWHCP    0078  
HR5G807134953612018071201A007A 003370003370                                    
HR4G80713495311015539000004SR88                   ON5201870390  CAHCP    0078  
HR5G807134953112018071201A007A 003370003370                                    
HR4G80713495691015539000004SR89                   ON3918422209  WTHCP    0078  
HR5G807134956912018071201A007A 003370003370                                    
HR4G81909173341015539000004S2YM                   ON2006974782  YAHCP    0078  
HR5G819091733412018070701A888A 003370003370                                    
HR4G81909173431015539000004S2YN                   ON6435779696  LXHCP    0078  
HR5G819091734312018070701A888A 003370003370                                    
HR5G819091734312018070701G202A 000445000445                                    
HR4G81909173461015539000004S2YO                   ON3593412566  MLHCP    0078  
HR5G819091734612018070701A888A 003370003370                                    
HR4G81909173371015539000004S2YP                   ON7851732953  VCHCP    0078  
HR5G819091733712018070701A888A 003370003370                                    
HR4G81909173391015539000004S2YQ                   ON1702648963  LVHCP    0078  
HR5G819091733912018070701A888A 003370003370                                    
HR4G81909173241015539000004S2YR                   ON1628933903  PFHCP    0078  
HR5G819091732412018070701A888A 003370003370                                    
HR4G81909173421015539000004S2YS                   ON3298298856  JJHCP    0078  
HR5G819091734212018070701A888A 003370003370                                    
HR4G81909173291015539000004S2YT                   ON8505117633  YXHCP    0078  
HR5G819091732912018070701A888A 003370003370                                    
HR4G81909173201015539000004S2YU                   ON2342731565  LMHCP    0078  
HR5G819091732012018070701A888A 003370003370                                    
HR4G81909173321015539000004S2YV                   ON9648494558  JJHCP    0078  
HR5G819091733212018070701A888A 003370003370                                    
HR4G81909173211015539000004S2YW                   ON5247122137  TPHCP    0078  
HR5G819091732112018070701A888A 003370003370                                    
HR4G81909173231015539000004S2YX                   ON6585962894    HCP    0078  
HR5G819091732312018070701A888A 003370003370                                    
HR4G81909173171015539000004S2YY                   ON8182220981  RAHCP    0078  
HR5G819091731712018070701A888A 003370003370                                    
HR4G81909173301015539000004S2YZ                   ON9417109395  RVHCP    0078  
HR5G819091733012018070701A888A 003370003370                                    
HR5G819091733012018070701G010A 000207000207                                    
HR4G81909173271015539000004S2ZA                   ON7414573563  WKHCP    0078  
HR5G819091732712018070701A888A 003370003370                                    
HR4G81909173441015539000004S2ZB                   ON6753669586  YGHCP    0078  
HR5G819091734412018070701A888A 003370003370                                    
HR4G81909173191015539000004S2ZC                   ON8357546616  MWHCP    0078  
HR5G819091731912018070701A888A 003370003370                                    
HR5G819091731912018070701G010A 000207000207                                    
HR4G81909173261015539000004S2ZD                   ON8573533240  PDHCP    0078  
HR5G819091732612018070701A888A 003370003370                                    
HR4G81909173351015539000004S2ZE                   ON4572317305  YEHCP    0078  
HR5G819091733512018070701A888A 003370003370                                    
HR4G81909173251015539000004S2ZF                   ON6007371336  MVHCP    0078  
HR5G819091732512018070701A888A 003370003370                                    
HR4G81909173181015539000004S2ZG                   ON1873223430  CRHCP    0078  
HR5G819091731812018070701A888A 003370003370                                    
HR5G819091731812018070701G010A 000207000207                                    
HR4G81909173491015539000004S2ZH                   ON7696796684  FYHCP    0078  
HR5G819091734912018070701A888A 003370003370                                    
HR4G81909173381015539000004S2ZI                   ON9977789289  HBHCP    0078  
HR5G819091733812018070701A888A 003370003370                                    
HR4G81909173411015539000004S2Z0                   ON8940898250  NPHCP    0078  
HR5G819091734112018070701A888A 003370003370                                    
HR4G81909173401015539000004S2Z1                   ON6536855734  AMHCP    0078  
HR5G819091734012018070701A888A 003370003370                                    
HR4G81909173311015539000004S2Z2                   ON8737716483  FKHCP    0078  
HR5G819091733112018070701A888A 003370003370                                    
HR5G819091733112018070701G010A 000207000207                                    
HR4G81909173471015539000004S2Z3                   ON9569574610  YBHCP    0078  
HR5G819091734712018070701A888A 003370003370                                    
HR4G81909173221015539000004S2Z4                   ON1971840507  FYHCP    0078  
HR5G819091732212018070701A888A 003370003370                                    
HR4G81909173331015539000004S2Z5                   ON3181046800  CLHCP    0078  
HR5G819091733312018070701A888A 003370003370                                    
HR4G81909173451015539000004S2Z6                   ON9458131415  RAHCP    0078  
HR5G819091734512018070701A888A 003370003370                                    
HR4G81909173281015539000004S2Z7                   ON7787480503  HGHCP    0078  
HR5G819091732812018070701A888A 003370003370                                    
HR4G81909173481015539000004S2Z8                   ON7775868909  TYHCP    0078  
HR5G819091734812018070701A888A 003370003370                                    
HR4G81909173361015539000004S2Z9                   ON9917087901  WVHCP    0078  
HR5G819091733612018070701A888A 003370003370                                    
HR4G80724314791015539000004UBPA                   ON4282120635  NBHCP    0078  
HR5G807243147912018072301A007A 003370003370                                    
HR4G80724314741015539000004UBPB                   ON5107371147  FAHCP    0078  
HR5G807243147412018072301A007A 003370003370                                    
HR4G80724314841015539000004UBPC                   ON4128710888  JTHCP    0078  
HR5G807243148412018072301A007A 003370003370                                    
HR4G80724314901015539000004UBPD                   ON9100287144  CPHCP    0078  
HR5G807243149012018072301A007A 003370003370                                    
HR4G80724314731015539000004UBPE                   ON6144157838  KTHCP    0078  
HR5G807243147312018072301A007A 003370003370                                    
HR5G807243147312018072301G841A 000450000450                                    
HR5G807243147312018072301G846A 000450000450                                    
HR4G80724314721015539000004UBPF                   ON4277894475  GGHCP    0078  
HR5G807243147212018072301A003A 007720007720                                    
HR4G80724314621015539000004UBPG                   ON6453308188  AGHCP    0078  
HR5G807243146212018072301A007A 003370003370                                    
HR4G80724314951015539000004UBPH                   ON8204051844  FRHCP    0078  
HR5G807243149512018072301A007A 003370003370                                    
HR4G80724314771015539000004UBPI                   ON1284006630  YGHCP    0078  
HR5G807243147712018072301A007A 003370003370                                    
HR5G807243147712018072301G010A 000207000207                                    
HR4G80724314611015539000004UBPJ                   ON4094137843  MYHCP    0078  
HR5G807243146112018072301A007A 003370003370                                    
HR4G80724314781015539000004UBPK                   ON8658678944  LCHCP    0078  
HR5G807243147812018072301A007A 003370003370                                    
HR5G807243147812018072301G010A 000207000207                                    
HR5G807243147812018072301G372A 000389000389                                    
HR4G80724314831015539000004UBPL                   ON2748854565  FMHCP    0078  
HR5G807243148312018072301A007A 003370003370                                    
HR4G80724314821015539000004UBPM                   ON1730351168  GDHCP    0078  
HR5G807243148212018072301A007A 003370003370                                    
HR4G80724314921015539000004UBPN                   ON2197579309  EYHCP    0078  
HR5G807243149212018072301A007A 003370003370                                    
HR4G80724314761015539000004UBPO                   ON6102289441  PRHCP    0078  
HR5G807243147612018072301A001A 002170002170                                    
HR5G807243147612018072301G840A 000450000450                                    
HR4G80724315011015539000004UBPP                   ON8193182006  PYHCP    0078  
HR5G807243150112018072301A007A 003370003370                                    
HR4G80724314991015539000004UBPQ                   ON7207074597  TPHCP    0078  
HR5G807243149912018072301A007A 003370003370                                    
HR4G80724314811015539000004UBPR                   ON8896168401  XWHCP    0078  
HR5G807243148112018072301A007A 003370003370                                    
HR4G80724314641015539000004UBPS                   ON4283564500  FFHCP    0078  
HR5G807243146412018072301A007A 003370003370                                    
HR4G80724314961015539000004UBPT                   ON8904433862  RRHCP    0078  
HR5G807243149612018072301A007A 003370003370                                    
HR5G807243149612018072301G005A 000388000388                                    
HR4G80724314591015539000004UBPU                   ON8089050689  TVHCP    0078  
HR5G807243145912018072301A007A 003370003370                                    
HR4G80724314601015539000004UBPV                   ON7935807144  DAHCP    0078  
HR5G807243146012018072301A007A 003370003370                                    
HR4G80724314631015539000004UBPW                   ON5695197482  LDHCP    0078  
HR5G807243146312018072301A007A 003370003370                                    
HR4G80724314911015539000004UBPX                   ON8722117127  CBHCP    0078  
HR5G807243149112018072301A007A 003370003370                                    
HR4G80724314871015539000004UBPY                   ON7473151939  CXHCP    0078  
HR5G807243148712018072301A007A 003370003370                                    
HR4G80724314681015539000004UBPZ                   ON7621804645  CMHCP    0078  
HR5G807243146812018072301A007A 003370003370                                    
HR4G80724314801015539000004UBP5                   ON1199914514  HTHCP    0078  
HR5G807243148012018072301A007A 003370003370                                    
HR4G80724314881015539000004UBP6                   ON3298298856  JJHCP    0078  
HR5G807243148812018072301A007A 003370003370                                    
HR4G80724314981015539000004UBP7                   ON7674703025  XHHCP    0078  
HR5G807243149812018072301A007A 003370003370                                    
HR5G807243149812018072301G010A 000207000207                                    
HR4G80724314691015539000004UBP8                   ON4697067652  KWHCP    0078  
HR5G807243146912018072301A007A 003370003370                                    
HR4G80724314571015539000004UBP9                   ON5369353700  PYHCP    0078  
HR5G807243145712018072301A007A 003370003370                                    
HR4G80724314561015539000004UBQA                   ON9420760432  AFHCP    0078  
HR5G807243145612018072301A007A 003370003370                                    
HR5G807243145612018072301G202A 000445000445                                    
HR4G80724314751015539000004UBQB                   ON6752834298  CVHCP    0078  
HR5G807243147512018072301A007A 003370003370                                    
HR4G80724314851015539000004UBQC                   ON5104767891  EYHCP    0078  
HR5G807243148512018072301A007A 003370003370                                    
HR4G80724314581015539000004UBQD                   ON5912556056  CEHCP    0078  
HR5G807243145812018072301A007A 003370003370                                    
HR5G807243145812018072301G010A 000207000207                                    
HR4G80724314861015539000004UBQE                   ON8923548138  DXHCP    0078  
HR5G807243148612018072301A007A 003370003370                                    
HR4G80724315001015539000004UBQF                   ON7543781103  LVHCP    0078  
HR5G807243150012018072301A007A 003370003370                                    
HR4G80724314701015539000004UBQI                   ON5260728315  BCHCP    0078  
HR5G807243147012018072301A007A 003370003370                                    
HR4G80724314671015539000004UBQ0                   ON2086038698  WVHCP    0078  
HR5G807243146712018072301A007A 003370003370                                    
HR4G80724314661015539000004UBQ1                   ON5625412662  VHHCP    0078  
HR5G807243146612018072301A007A 003370003370                                    
HR5G807243146612018072301Q150A 000700000700                                    
HR4G80724314971015539000004UBQ2                   ON5669938408  CKHCP    0078  
HR5G807243149712018072301A007A 003370003370                                    
HR4G80724314941015539000004UBQ4                   ON1364271955  VFHCP    0078  
HR5G807243149412018072301A007A 003370003370                                    
HR5G807243149412018072301G010A 000207000207                                    
HR4G80724314711015539000004UBQ5                   ON2926261468  JKHCP    0078  
HR5G807243147112018072301A007A 003370003370                                    
HR4G80724314651015539000004UBQ6                   ON6835682946  AYHCP    0078  
HR5G807243146512018072301A007A 003370003370                                    
HR4G80724314891015539000004UBQ8                   ON4769624760  MHHCP    0078  
HR5G807243148912018072301A007A 003370003370                                    
HR4G80724314931015539000004UBQ9                   ON9368131448  NHHCP    0078  
HR5G807243149312018072301A007A 003370003370                                    
HR4G80726360831015539000004UH4Z                   ON2841482116  XEHCP    0078  
HR5G807263608312018072401A007A 003370003370                                    
HR4G80726360631015539000004UH5A                   ON8042009541  GNHCP    0078  
HR5G807263606312018072401K005A 006275006275                                    
HR4G80726360471015539000004UH5B                   ON6510201715  KTHCP    0078  
HR5G807263604712018072401A007A 003370003370                                    
HR4G80726360551015539000004UH5C                   ON8869691850  NFHCP    0078  
HR5G807263605512018072401A007A 003370003370                                    
HR4G80726360481015539000004UH5D                   ON5063531908  RCHCP    0078  
HR5G807263604812018072401A007A 003370003370                                    
HR4G80726360781015539000004UH5E                   ON4795722521  LNHCP    0078  
HR5G807263607812018072401A007A 003370003370                                    
HR4G80726360851015539000004UH5F                   ON8906752954  TLHCP    0078  
HR5G807263608512018072401A007A 003370003370                                    
HR4G80726360531015539000004UH5G                   ON4870108232  PDHCP    0078  
HR5G807263605312018072401A001A 002170002170                                    
HR5G807263605312018072401G372A 000389000389                                    
HR4G80726360791015539000004UH5H                   ON8544723292  KKHCP    0078  
HR5G807263607912018072401A007A 003370003370                                    
HR4G80726360761015539000004UH5I                   ON8999460622  CWHCP    0078  
HR5G807263607612018072401A007A 003370003370                                    
HR4G80726360581015539000004UH5J                   ON5275387651  ATHCP    0078  
HR5G807263605812018072401A007A 003370003370                                    
HR4G80726360721015539000004UH5K                   ON5077509791  KTHCP    0078  
HR5G807263607212018072401A007A 003370003370                                    
HR4G80726360861015539000004UH5L                   ON8567887024  FWHCP    0078  
HR5G807263608612018072401A001A 002170002170                                    
HR5G807263608612018072401G202A 000445000445                                    
HR4G80726360501015539000004UH5M                   ON5264858977  DKHCP    0078  
HR5G807263605012018072401A007A 003370003370                                    
HR4G80726360681015539000004UH5N                   ON3951018591  NHHCP    0078  
HR5G807263606812018072401A007A 003370003370                                    
HR4G80726360541015539000004UH5O                   ON8970622406  XYHCP    0078  
HR5G807263605412018072401A007A 003370003370                                    
HR4G80726360701015539000004UH5P                   ON6788650155  RYHCP    0078  
HR5G807263607012018072401A007A 003370003370                                    
HR4G80726360911015539000004UH5Q                   ON2036110670  CLHCP    0078  
HR5G807263609112018072401A007A 003370003370                                    
HR4G80726360561015539000004UH5R                   ON2950336285  EGHCP    0078  
HR5G807263605612018072401A007A 003370003370                                    
HR4G80726360841015539000004UH5S                   ON5844422732  JTHCP    0078  
HR5G807263608412018072401A007A 003370003370                                    
HR4G80726360491015539000004UH5U                   ON5789407870  AEHCP    0078  
HR5G807263604912018072401A007A 003370003370                                    
HR5G807263604912018072401G010A 000207000207                                    
HR4G80726360751015539000004UH5V                   ON4961909100  BYHCP    0078  
HR5G807263607512018072401A007A 003370003370                                    
HR4G80726360731015539000004UH5W                   ON2697698781  HEHCP    0078  
HR5G807263607312018072401K005A 006275006275                                    
HR4G80726360811015539000004UH5X                   ON3937645178    HCP    0078  
HR5G807263608112018072401A007A 003370003370                                    
HR4G80726360591015539000004UH5Y                   ON6778255387  BKHCP    0078  
HR5G807263605912018072401A007A 003370003370                                    
HR4G80726360571015539000004UH5Z                   ON6903753900  KCHCP    0078  
HR5G807263605712018072401A007A 003370003370                                    
HR4G80726360611015539000004UH50                   ON8803398091  JNHCP    0078  
HR5G807263606112018072401A007A 003370003370                                    
HR4G80726360901015539000004UH51                   ON2737854279  RTHCP    0078  
HR5G807263609012018072401A007A 003370003370                                    
HR4G80726360461015539000004UH52                   ON8967873657  GJHCP    0078  
HR5G807263604612018072401A007A 003370003370                                    
HR4G80726360741015539000004UH53                   ON7382650054  YJHCP    0078  
HR5G807263607412018072401A007A 003370003370                                    
HR4G80726360511015539000004UH54                   ON3041087705  YWHCP    0078  
HR5G807263605112018072401A007A 003370003370                                    
HR4G80726360641015539000004UH55                   ON5979017513  XPHCP    0078  
HR5G807263606412018072401A007A 003370003370                                    
HR4G80726360601015539000004UH56                   ON6176733860  HNHCP    0078  
HR5G807263606012018072401A001A 002170002170                                    
HR5G807263606012018072401G372A 000389000389                                    
HR4G80726360921015539000004UH57                   ON2161979972  BKHCP    0078  
HR5G807263609212018072401A007A 003370003370                                    
HR4G80726360801015539000004UH58                   ON5963169304  AVHCP    0078  
HR5G807263608012018072401A007A 003370003370                                    
HR4G80726360711015539000004UH59                   ON4582619930  TJHCP    0078  
HR5G807263607112018072401A007A 003370003370                                    
HR4G80726360891015539000004UH6A                   ON8762358771  DEHCP    0078  
HR5G807263608912018072401A007A 003370003370                                    
HR4G80726360661015539000004UH60                   ON9693123003  CPHCP    0078  
HR5G807263606612018072401A007A 003370003370                                    
HR4G80726360521015539000004UH61                   ON3107921060  LTHCP    0078  
HR5G807263605212018072401A007A 003370003370                                    
HR4G80726360771015539000004UH62                   ON5320722175  DYHCP    0078  
HR5G807263607712018072401A007A 003370003370                                    
HR4G80726360821015539000004UH63                   ON3303851947  JXHCP    0078  
HR5G807263608212018072401A007A 003370003370                                    
HR4G80726360881015539000004UH64                   ON6019536322  PNHCP    0078  
HR5G807263608812018072401A007A 003370003370                                    
HR4G80726360871015539000004UH65                   ON5715078324  NLHCP    0078  
HR5G807263608712018072401A007A 003370003370                                    
HR4G80726360651015539000004UH66                   ON3152604249  JTHCP    0078  
HR5G807263606512018072401A007A 003370003370                                    
HR4G80726360691015539000004UH67                   ON5053368923  ACHCP    0078  
HR5G807263606912018072401A007A 003370003370                                    
HR4G80726360671015539000004UH68                   ON2606532022  VVHCP    0078  
HR5G807263606712018072401A007A 003370003370                                    
HR4G80726360621015539000004UH69                   ON1668609553  WMHCP    0078  
HR5G807263606212018072401A007A 003370003370                                    
HR5G807263606212018072401G010A 000207000207                                    
HR4G81909173611016373000004RX8O                   ON4502270517  RXHCP    0078  
HR5G819091736112018062301A007A 003370003370                                    
HR4G81904180391016373000004R8RL                   ON1379785247  XEHCP    0078  
HR5G819041803912018060901A007A 003370000000 35                                 
HR4G80716118451016373000004SXHX                   ON8664802603  ENHCP    0078  
HR5G807161184512018071401A007A 003370003370                                    
HR4G80716118531016373000004SXHY                   ON3469677185  XMHCP    0078  
HR5G807161185312018071401A007A 003370003370                                    
HR4G80716118331016373000004SXHZ                   ON2683099929  TAHCP    0078  
HR5G807161183312018071401A007A 003370003370                                    
HR4G80716118411016373000004SXIA                   ON3346108818  MKHCP    0078  
HR5G807161184112018071401A007A 003370003370                                    
HR4G80716118581016373000004SXIB                   ON2835639481  VMHCP    0078  
HR5G807161185812018071401A007A 003370003370                                    
HR4G80716118511016373000004SXIC                   ON1616507057  YYHCP    0078  
HR5G807161185112018071401A007A 003370003370                                    
HR5G807161185112018071401G010A 000207000207                                    
HR4G80716118541016373000004SXID                   ON5320722175  DYHCP    0078  
HR5G807161185412018071401A007A 003370003370                                    
HR4G80716118611016373000004SXIE                   ON9686707036  LLHCP    0078  
HR5G807161186112018071401A001A 002170002170                                    
HR5G807161186112018071401G847A 000450000450                                    
HR4G80716118421016373000004SXIF                   ON3743081774  GNHCP    0078  
HR5G807161184212018071401A007A 003370003370                                    
HR4G80716118251016373000004SXIG                   ON8037914424  HFHCP    0078  
HR5G807161182512018071401A007A 003370003370                                    
HR5G807161182512018071401G372A 000675000389 D3                                 
HR4G80716118291016373000004SXIH                   ON5367083531  FBHCP    0078  
HR5G807161182912018071401A007A 003370003370                                    
HR4G80716118341016373000004SXII                   ON5857968241  JDHCP    0078  
HR5G807161183412018071401A007A 003370003370                                    
HR4G80716118391016373000004SXIJ                   ON9108706814  ECHCP    0078  
HR5G807161183912018071401A007A 003370003370                                    
HR4G80716118401016373000004SXIK                   ON1723278550  LFHCP    0078  
HR5G807161184012018071401A007A 003370003370                                    
HR5G807161184012018071401G372A 000389000389                                    
HR4G80716118381016373000004SXIL                   ON7502720829  AGHCP    0078  
HR5G807161183812018071401A007A 003370003370                                    
HR4G80716118551016373000004SXIM                   ON8955768307  NHHCP    0078  
HR5G807161185512018071401A007A 003370003370                                    
HR4G80716118491016373000004SXIN                   ON6435779696  LXHCP    0078  
HR5G807161184912018071401A001A 002170002170                                    
HR5G807161184912018071401G202A 000445000445                                    
HR4G80716118621016373000004SXIO                   ON3450077866  FGHCP    0078  
HR5G807161186212018071401A007A 003370003370                                    
HR4G80716118301016373000004SXIP                   ON1107894816  YYHCP    0078  
HR5G807161183012018071401A007A 003370003370                                    
HR4G80716118591016373000004SXIQ                   ON7552027950  LNHCP    0078  
HR5G807161185912018071401A007A 003370003370                                    
HR4G80716118311016373000004SXIR                   ON4707536142  BFHCP    0078  
HR5G807161183112018071401A007A 003370003370                                    
HR4G80716118241016373000004SXIS                   ON5266147890  YJHCP    0078  
HR5G807161182412018071401K013A 006275006275                                    
HR4G80716118461016373000004SXIT                   ON3626498517  HRHCP    0078  
HR5G807161184612018071401A007A 003370003370                                    
HR4G80716118431016373000004SXIU                   ON7948685669  JDHCP    0078  
HR5G807161184312018071401A007A 003370003370                                    
HR4G80716118501016373000004SXIV                   ON7525956491  NWHCP    0078  
HR5G807161185012018071401K013A 006275006275                                    
HR4G80716118361016373000004SXIW                   ON2000217097  NEHCP    0078  
HR5G807161183612018071401A007A 003370003370                                    
HR4G80716118601016373000004SXIX                   ON3618848042  HHHCP    0078  
HR5G807161186012018071401A007A 003370003370                                    
HR4G80716118371016373000004SXIY                   ON1379201963  FFHCP    0078  
HR5G807161183712018071401A007A 003370003370                                    
HR5G807161183712018071401G847A 000450000450                                    
HR4G80716118261016373000004SXIZ                   ON5919547785  WKHCP    0078  
HR5G807161182612018071401A007A 003370003370                                    
HR4G80716118571016373000004SXI0                   ON4122015417  FGHCP    0078  
HR5G807161185712018071401A007A 003370003370                                    
HR4G80716118281016373000004SXI1                   ON8311698941  DCHCP    0078  
HR5G807161182812018071401A007A 003370003370                                    
HR4G80716118441016373000004SXI2                   ON8729782428    HCP    0078  
HR5G807161184412018071401A007A 003370003370                                    
HR5G807161184412018071401G005A 000388000388                                    
HR5G807161184412018071401G010A 000207000207                                    
HR4G80716118521016373000004SXI3                   ON7884933461  NHHCP    0078  
HR5G807161185212018071401A007A 003370003370                                    
HR4G80716118481016373000004SXI4                   ON4321975643  JTHCP    0078  
HR5G807161184812018071401A007A 003370003370                                    
HR4G80716118351016373000004SXI5                   ON9252826376    HCP    0078  
HR5G807161183512018071401A003A 007720007720                                    
HR5G807161183512018071401G005A 000388000388                                    
HR5G807161183512018071401G010A 000207000207                                    
HR4G80716118471016373000004SXI6                   ON5268934527  GJHCP    0078  
HR5G807161184712018071401A007A 003370003370                                    
HR4G80716118321016373000004SXI7                   ON6104709263    HCP    0078  
HR5G807161183212018071401A007A 003370003370                                    
HR4G80716118271016373000004SXI8                   ON1575523517  BKHCP    0078  
HR5G807161182712018071401A007A 003370003370                                    
HR4G80716118231016373000004SXI9                   ON5107371147  FAHCP    0078  
HR5G807161182312018071401A007A 003370003370                                    
HR4G80716118561016373000004SXJ0                   ON1963316987  REHCP    0078  
HR5G807161185612018071401A007A 003370003370                                    
HR4G80716415381016373000004S2ZJ                   ON4157682339  DFHCP    0078  
HR5G807164153812018060901A007A 003370000000 35                                 
HR4G80724313751016373000004U3GA                   ON2675115634    HCP    0078  
HR5G807243137512018072101A001A 002170002170                                    
HR5G807243137512018072101G420A 001125001125                                    
HR4G80724313811016373000004U3GB                   ON1107894816  YYHCP    0078  
HR5G807243138112018072101A007A 003370003370                                    
HR4G80724313881016373000004U3GD                   ON2966568830  BEHCP    0078  
HR5G807243138812018072101A007A 003370003370                                    
HR5G807243138812018072101G010A 000207000207                                    
HR4G80724313611016373000004U3GE                   ON9796848027  DJHCP    0078  
HR5G807243136112018072101A007A 003370003370                                    
HR4G80724313561016373000004U3GF                   ON9206221302  EJHCP    0078  
HR5G807243135612018072101A003A 007720007720                                    
HR5G807243135612018072101G372A 000389000389                                    
HR4G80724313791016373000004U3GG                   ON3543276285  WYHCP    0078  
HR5G807243137912018072101A007A 003370003370                                    
HR5G807243137912018072101G005A 000388000388                                    
HR4G80724313671016373000004U3GH                   ON4426470896  WWHCP    0078  
HR5G807243136712018072101A007A 003370003370                                    
HR4G80724313641016373000004U3GI                   ON6776580927  RBHCP    0078  
HR5G807243136412018072101A007A 003370003370                                    
HR4G80724313701016373000004U3GJ                   ON6114149518  VCHCP    0078  
HR5G807243137012018072101K005A 006275006275                                    
HR4G80724313781016373000004U3GK                   ON3665987511  GBHCP    0078  
HR5G807243137812018072101A007A 003370003370                                    
HR4G80724313801016373000004U3GL                   ON6108957215  NBHCP    0078  
HR5G807243138012018072101A007A 003370003370                                    
HR4G80724313841016373000004U3GM                   ON2573047780  CDHCP    0078  
HR5G807243138412018072101A007A 003370003370                                    
HR4G80724313601016373000004U3GN                   ON1804956520  NAHCP    0078  
HR5G807243136012018072101A007A 003370003370                                    
HR4G80724313591016373000004U3GO                   ON2747655153  FAHCP    0078  
HR5G807243135912018072101K028A 006275006275                                    
HR4G80724313541016373000004U3GP                   ON8037914424  HFHCP    0078  
HR5G807243135412018072101A007A 003370003370                                    
HR4G80724313871016373000004U3GQ                   ON5856471262  CPHCP    0078  
HR5G807243138712018072101A007A 003370003370                                    
HR4G80724313681016373000004U3GR                   ON5938363131  TMHCP    0078  
HR5G807243136812018072101A007A 003370003370                                    
HR4G80724313731016373000004U3GS                   ON9791311922  GAHCP    0078  
HR5G807243137312018072101A007A 003370003370                                    
HR4G80724313831016373000004U3GT                   ON6300838312  LPHCP    0078  
HR5G807243138312018072101A007A 003370003370                                    
HR4G80724313621016373000004U3GU                   ON8792140470  YAHCP    0078  
HR5G807243136212018072101A007A 003370003370                                    
HR4G80724313631016373000004U3GV                   ON4154654588  PBHCP    0078  
HR5G807243136312018072101A003A 007720007720                                    
HR4G80724313851016373000004U3GW                   ON5385473227  FCHCP    0078  
HR5G807243138512018072101A007A 003370003370                                    
HR4G80724313741016373000004U3GX                   ON1379988015  PLHCP    0078  
HR5G807243137412018072101A001A 002170002170                                    
HR4G80724313661016373000004U3GY                   ON9977789289  HBHCP    0078  
HR5G807243136612018072101A007A 003370003370                                    
HR4G80724313761016373000004U3GZ                   ON5295220254  CBHCP    0078  
HR5G807243137612018072101A007A 003370003370                                    
HR4G80724313861016373000004U3G8                   ON3145030551  ABHCP    0078  
HR5G807243138612018072101A007A 003370003370                                    
HR4G80724313571016373000004U3G9                   ON6881688391  CJHCP    0078  
HR5G807243135712018072101A007A 003370003370                                    
HR4G80724313651016373000004U3H0                   ON3788844938  XFHCP    0078  
HR5G807243136512018072101A007A 003370003370                                    
HR4G80724313691016373000004U3H1                   ON8519641818  MKHCP    0078  
HR5G807243136912018072101A001A 002170002170                                    
HR4G80724313771016373000004U3H2                   ON6996646334  LLHCP    0078  
HR5G807243137712018072101A007A 003370003370                                    
HR4G80724313711016373000004U3H3                   ON7862076952  KEHCP    0078  
HR5G807243137112018072101A007A 003370003370                                    
HR5G807243137112018072101G847A 000450000450                                    
HR4G80724313551016373000004U3H4                   ON3415701790  YXHCP    0078  
HR5G807243135512018072101A007A 003370003370                                    
HR4G80724313821016373000004U3H5                   ON5623325759  PXHCP    0078  
HR5G807243138212018072101A007A 003370003370                                    
HR4G80724313581016373000004U3H6                   ON6775205534  YKHCP    0078  
HR5G807243135812018072101A001A 002170002170                                    
HR4G807097565210163730000320016                   ON6840789934  GNHCP    0078  
HR5G807097565212018032401A007A 003370003370                                    
HR4G807097565310163730000325118                   ON4157682339  DFHCP    0078  
HR5G807097565312018060901A007A 003370003370                                    
HR4G80716415291022337000004QZCY                   ON1649793302  ARHCP    0078  
HR5G807164152912018062601A007A 003370000000 35                                 
HR4G81906285711022337000004RNIE                   ON6853069588  RHHCP    0078  
HR5G819062857112018070301A007A 003370003370                                    
HR4G81906285671022337000004RNIF                   ON5802546464  TWHCP    0078  
HR5G819062856712018070301A007A 003370003370                                    
HR4G81906285801022337000004RNIG                   ON8762358771  DEHCP    0078  
HR5G819062858012018070301A007A 003370003370                                    
HR4G81906285611022337000004RNIH                   ON6428248329  BYHCP    0078  
HR5G819062856112018070301A007A 003370003370                                    
HR4G81906285921022337000004RNII                   ON1480065562  DYHCP    0078  
HR5G819062859212018070301A007A 003370003370                                    
HR4G81906285651022337000004RNIJ                   ON1903424636  DGHCP    0078  
HR5G819062856512018070301A007A 003370003370                                    
HR4G81906286001022337000004RNIK                   ON3109316673  GHHCP    0078  
HR5G819062860012018070301A007A 003370003370                                    
HR4G81906285811022337000004RNIL                   ON8362900758  BHHCP    0078  
HR5G819062858112018070301A007A 003370003370                                    
HR4G81906285661022337000004RNIM                   ON4093988691  LEHCP    0078  
HR5G819062856612018070301A007A 003370003370                                    
HR4G81906285761022337000004RNIN                   ON8894841231  EMHCP    0078  
HR5G819062857612018070301A007A 003370003370                                    
HR4G81906285881022337000004RNIO                   ON6772678584  VBHCP    0078  
HR5G819062858812018070301A007A 003370003370                                    
HR4G81906286051022337000004RNIP                   ON8352704137  VEHCP    0078  
HR5G819062860512018070301A007A 003370003370                                    
HR4G81906285681022337000004RNIQ                   ON9648494558  JJHCP    0078  
HR5G819062856812018070301A007A 003370003370                                    
HR4G81906285821022337000004RNIR                   ON5247122137  TPHCP    0078  
HR5G819062858212018070301A007A 003370003370                                    
HR4G81906285971022337000004RNIS                   ON9338942007  RJHCP    0078  
HR5G819062859712018070301A007A 003370003370                                    
HR4G81906285791022337000004RNIT                   ON1325664215  EAHCP    0078  
HR5G819062857912018070301A007A 003370003370                                    
HR4G81906285941022337000004RNIU                   ON6040298843  TPHCP    0078  
HR5G819062859412018070301A007A 003370003370                                    
HR4G81906286031022337000004RNIV                   ON4458821164  XGHCP    0078  
HR5G819062860312018070301A007A 003370003370                                    
HR4G81906285861022337000004RNIW                   ON8293078674  HRHCP    0078  
HR5G819062858612018070301A007A 003370003370                                    
HR4G81906285931022337000004RNIX                   ON6804972419  KBHCP    0078  
HR5G819062859312018070301A007A 003370003370                                    
HR4G81906285911022337000004RNIY                   ON8710422836  RKHCP    0078  
HR5G819062859112018070301A007A 003370003370                                    
HR4G81906285731022337000004RNIZ                   ON3183442270  NLHCP    0078  
HR5G819062857312018070301A007A 003370003370                                    
HR4G81906285751022337000004RNJA                   ON4705805770  GAHCP    0078  
HR5G819062857512018070301A007A 003370003370                                    
HR4G81906285841022337000004RNJB                   ON5694253203  XMHCP    0078  
HR5G819062858412018070301A007A 003370003370                                    
HR4G81906285891022337000004RNJC                   ON6336202525  FFHCP    0078  
